{"bytecode":"60806040526000600c556000600d553480156200001b57600080fd5b5060405162003859380380620038598339810160408190526200003e91620000bf565b62000049336200006f565b600b80546001600160a01b0319166001600160a01b0392909216919091179055620000f1565b600080546001600160a01b038381166001600160a01b0319831681178455604051919092169283917f8be0079c531659141344cd1fd0a4f28419497f9722a3daafe3b4186f6b6457e09190a35050565b600060208284031215620000d257600080fd5b81516001600160a01b0381168114620000ea57600080fd5b9392505050565b61375880620001016000396000f3fe60806040526004361061021a5760003560e01c8063929eea2111610123578063cd927409116100ab578063fb24af7f1161006f578063fb24af7f146106c5578063fc757b88146106e5578063fdc8070e14610712578063fe726f8014610747578063ff2f44651461076757600080fd5b8063cd9274091461060f578063d7a9a25c14610650578063f1c0e34914610665578063f2fde38b14610685578063f3fef3a3146106a557600080fd5b8063ab56ee66116100f2578063ab56ee6614610558578063b3d16f8d14610578578063b9f09bb814610598578063c0a8a540146105ae578063c4543b67146105ef57600080fd5b8063929eea21146104cd578063a2fb342d146104ed578063a7772b9714610500578063a8b741521461052057600080fd5b80634b3fd148116101a65780637924d93f116101755780637924d93f146104245780637b9ec997146104445780638078f22c146104645780638cf1806b1461049a5780638da5cb5b146104af57600080fd5b80634b3fd14814610380578063541d8338146103a0578063715018a6146103b657806374fd0ce0146103cb57600080fd5b80631818dd0b116101ed5780631818dd0b146102c25780631c9e5224146102e457806327e8e184146103065780633c9d50931461033e578063447007fd1461036057600080fd5b806306254c6a1461021f57806308ae7fc21461025257806311f4f5d3146102825780631419f093146102a2575b600080fd5b34801561022b57600080fd5b5061023f61023a366004612fe0565b610787565b6040519081526020015b60405180910390f35b34801561025e57600080fd5b5061027261026d366004613002565b610812565b6040516102499493929190613073565b34801561028e57600080fd5b5061023f61029d3660046130a0565b6108e4565b3480156102ae57600080fd5b5061023f6102bd366004612fe0565b61091d565b3480156102ce57600080fd5b506102e26102dd3660046130a0565b6109ae565b005b3480156102f057600080fd5b506102f9610cc1565b6040516102499190613105565b34801561031257600080fd5b5061023f610321366004613167565b600360209081526000928352604080842090915290825290205481565b34801561034a57600080fd5b50610353610ddd565b604051610249919061319a565b34801561036c57600080fd5b5061027261037b366004613002565b610e3f565b34801561038c57600080fd5b506102e261039b3660046131e7565b610e4f565b3480156103ac57600080fd5b5061023f600d5481565b3480156103c257600080fd5b506102e2611321565b3480156103d757600080fd5b5061040c6103e63660046131e7565b60066020908152600092835260408084209091529082529020546001600160a01b031681565b6040516001600160a01b039091168152602001610249565b34801561043057600080fd5b5061040c61043f366004613002565b611357565b34801561045057600080fd5b5061023f61045f366004612fe0565b611381565b34801561047057600080fd5b5061040c61047f366004612fe0565b6007602052600090815260409020546001600160a01b031681565b3480156104a657600080fd5b506103536114c9565b3480156104bb57600080fd5b506000546001600160a01b031661040c565b3480156104d957600080fd5b5061040c6104e8366004613002565b611529565b6102e26104fb3660046130a0565b611539565b34801561050c57600080fd5b5061023f61051b366004612fe0565b6119b2565b34801561052c57600080fd5b5061023f61053b366004613167565b600460209081526000928352604080842090915290825290205481565b34801561056457600080fd5b5061023f610573366004612fe0565b611a43565b34801561058457600080fd5b506102e2610593366004613167565b611ac6565b3480156105a457600080fd5b5061023f600c5481565b3480156105ba57600080fd5b5061040c6105c93660046131e7565b60086020908152600092835260408084209091529082529020546001600160a01b031681565b3480156105fb57600080fd5b506102e261060a366004613251565b611b1e565b34801561061b57600080fd5b5061040c61062a3660046131e7565b60056020908152600092835260408084209091529082529020546001600160a01b031681565b34801561065c57600080fd5b506102f9611d86565b34801561067157600080fd5b5061023f610680366004613307565b611e99565b34801561069157600080fd5b506102e26106a0366004612fe0565b611f06565b3480156106b157600080fd5b506102e26106c03660046130a0565b611fa1565b3480156106d157600080fd5b5061023f6106e03660046131e7565b6122b0565b3480156106f157600080fd5b50610705610700366004612fe0565b6122ee565b60405161024991906133c7565b34801561071e57600080fd5b5061073261072d366004612fe0565b6124a0565b60408051928352602083019190915201610249565b34801561075357600080fd5b50600b5461040c906001600160a01b031681565b34801561077357600080fd5b506102e2610782366004613251565b6125a1565b60015460009081901561080c5760005b60015481101561080a576000600182815481106107b6576107b66133da565b60009182526020808320909101546001600160a01b038881168452600383526040808520919092168085529252909120549091506107f49084613406565b92505080806108029061341e565b915050610797565b505b92915050565b6009818154811061082257600080fd5b600091825260209091206004909102018054600182015460028301546003840180546001600160a01b0390941695509193909290919061086190613439565b80601f016020809104026020016040519081016040528092919081815260200182805461088d90613439565b80156108da5780601f106108af576101008083540402835291602001916108da565b820191906000526020600020905b8154815290600101906020018083116108bd57829003601f168201915b5050505050905084565b6000806108f0846122ee565b9050670de0b6b3a764000081604001518461090b9190613474565b6109159190613493565b949350505050565b600080805b600d5481101561080a5760008181526006602090815260408083206001600160a01b03808916855292529091205416801561099b576001600160a01b0380821660009081526004602090815260408083209389168352929052908120549061098a82846122b0565b90506109968186613406565b945050505b50806109a68161341e565b915050610922565b600081116109d75760405162461bcd60e51b81526004016109ce906134b5565b60405180910390fd5b6000610a3d336002805480602002602001604051908101604052809291908181526020018280548015610a3357602002820191906000526020600020905b81546001600160a01b03168152600190910190602001808311610a15575b5050505050611e99565b90506000811215610aab5760405162461bcd60e51b815260206004820152603260248201527f557365722061646472657373206973206e6f7420666f756e6420696e20746865604482015271206c697374206f6620626f72726f7765727360701b60648201526084016109ce565b6001600160a01b038316600090815260046020908152604080832033845290915290205480610b115760405162461bcd60e51b8152602060048201526012602482015271596f752020617265206e6f74206f77696e6760701b60448201526064016109ce565b836000610b1e82846108e4565b610b289086613406565b6040516323b872dd60e01b8152336004820152306024820152604481018290529091506001600160a01b038316906323b872dd906064016020604051808303816000875af1158015610b7e573d6000803e3d6000fd5b505050506040513d601f19601f82011682018060405250810190610ba291906134ec565b506001600160a01b0386166000908152600460209081526040808320338452909152902054610bd290869061350e565b6001600160a01b038716600090815260046020908152604080832033808552925282209290925590610c039061091d565b905080610cb85760028054610c1a9060019061350e565b81548110610c2a57610c2a6133da565b600091825260209091200154600280546001600160a01b039092169187908110610c5657610c566133da565b9060005260206000200160006101000a8154816001600160a01b0302191690836001600160a01b031602179055506002805480610c9557610c95613525565b600082815260209020810160001990810180546001600160a01b03191690550190555b50505050505050565b60606009805480602002602001604051908101604052809291908181526020016000905b82821015610dd4576000848152602090819020604080516080810182526004860290920180546001600160a01b03168352600181015493830193909352600283015490820152600382018054919291606084019190610d4390613439565b80601f0160208091040260200160405190810160405280929190818152602001828054610d6f90613439565b8015610dbc5780601f10610d9157610100808354040283529160200191610dbc565b820191906000526020600020905b815481529060010190602001808311610d9f57829003601f168201915b50505050508152505081526020019060010190610ce5565b50505050905090565b60606001805480602002602001604051908101604052809291908181526020018280548015610e3557602002820191906000526020600020905b81546001600160a01b03168152600190910190602001808311610e17575b5050505050905090565b600a818154811061082257600080fd5b610f6d81600a805480602002602001604051908101604052809291908181526020016000905b82821015610f64576000848152602090819020604080516080810182526004860290920180546001600160a01b03168352600181015493830193909352600283015490820152600382018054919291606084019190610ed390613439565b80601f0160208091040260200160405190810160405280929190818152602001828054610eff90613439565b8015610f4c5780601f10610f2157610100808354040283529160200191610f4c565b820191906000526020600020905b815481529060010190602001808311610f2f57829003601f168201915b50505050508152505081526020019060010190610e75565b505050506127f6565b610fc55760405162461bcd60e51b8152602060048201526024808201527f546f6b656e206973206e6f7420737570706f7274656420666f7220626f72726f60448201526377696e6760e01b60648201526084016109ce565b60008211610fe55760405162461bcd60e51b81526004016109ce906134b5565b6000610ff033611381565b90506000610ffe84846122b0565b90508181111561106f5760405162461bcd60e51b815260206004820152603660248201527f596f7520646f6e2774206861766520656e6f75676820636f6c6c61746572616c604482015275081d1bc8189bdc9c9bddc81d1a1a5cc8185b5bdd5b9d60521b60648201526084016109ce565b6040516370a0823160e01b8152306004820152839085906001600160a01b038316906370a0823190602401602060405180830381865afa1580156110b7573d6000803e3d6000fd5b505050506040513d601f19601f820116820180604052508101906110db919061353b565b116111475760405162461bcd60e51b815260206004820152603660248201527f576520646f206e6f74206861766520656e6f756768206f66207468697320746f60448201527535b2b7103337b9103cb7ba903a37903137b93937bb9760511b60648201526084016109ce565b60405163a9059cbb60e01b8152336004820152602481018690526001600160a01b0382169063a9059cbb906044016020604051808303816000875af1158015611194573d6000803e3d6000fd5b505050506040513d601f19601f820116820180604052508101906111b891906134ec565b5060008061122033600280548060200260200160405190810160405280929190818152602001828054801561121657602002820191906000526020600020905b81546001600160a01b031681526001909101906020018083116111f8575b5050505050612871565b91509150811561125c5761125786888360405180604001604052806009815260200168626f72726f7765727360b81b8152506128f3565b610cb8565b60028054600181019091557f405787fa12a823e0f2b7631cc41b3ba8828b3321ca811111fa75cd3aa3bb5ace0180546001600160a01b031916339081179091556001600160a01b0387166000908152600460209081526040808320938352929052908120889055600d80548892600692909190826112d98361341e565b90915550815260208082019290925260409081016000908120338252909252902080546001600160a01b0319166001600160a01b039290921691909117905550505050505050565b6000546001600160a01b0316331461134b5760405162461bcd60e51b81526004016109ce90613554565b6113556000612c35565b565b6002818154811061136757600080fd5b6000918252602090912001546001600160a01b0316905081565b600080805b600c5481101561080a5760008181526005602090815260408083206001600160a01b0380891685529252909120541680156114b65760006113c6826122ee565b6020818101516001600160a01b038581166000908152600484526040808220928c16825291909352822054929350911515908161142957506001600160a01b038085166000908152600360209081526040808320938c1683529290522054611474565b6001600160a01b038086166000818152600460209081526040808320948e1680845294825280832054938352600382528083209483529390529190912054611471919061350e565b90505b600061148082876122b0565b90506000670de0b6b3a76400006114978684613474565b6114a19190613493565b90506114ad818a613406565b98505050505050505b50806114c18161341e565b915050611386565b60606002805480602002602001604051908101604052809291908181526020018280548015610e35576020028201919060005260206000209081546001600160a01b03168152600190910190602001808311610e17575050505050905090565b6001818154811061136757600080fd5b61164e826009805480602002602001604051908101604052809291908181526020016000905b82821015610f64576000848152602090819020604080516080810182526004860290920180546001600160a01b031683526001810154938301939093526002830154908201526003820180549192916060840191906115bd90613439565b80601f01602080910402602001604051908101604052809291908181526020018280546115e990613439565b80156116365780601f1061160b57610100808354040283529160200191611636565b820191906000526020600020905b81548152906001019060200180831161161957829003601f168201915b5050505050815250508152602001906001019061155f565b6116935760405162461bcd60e51b8152602060048201526016602482015275151bdad95b881a5cc81b9bdd081cdd5c1c1bdc9d195960521b60448201526064016109ce565b600081116116f95760405162461bcd60e51b815260206004820152602d60248201527f54686520616d6f756e7420746f20737570706c792073686f756c64206265206760448201526c0726561746572207468616e203609c1b60648201526084016109ce565b6040516370a0823160e01b8152336004820152829082906001600160a01b038316906370a0823190602401602060405180830381865afa158015611741573d6000803e3d6000fd5b505050506040513d601f19601f82011682018060405250810190611765919061353b565b10156117cd5760405162461bcd60e51b815260206004820152603160248201527f596f75206861766520696e73756666696369656e7420746f6b656e20746f20736044820152701d5c1c1b1e481d1a185d08185b5bdd5b9d607a1b60648201526084016109ce565b6040516323b872dd60e01b8152336004820152306024820152604481018390526001600160a01b038216906323b872dd906064016020604051808303816000875af1158015611820573d6000803e3d6000fd5b505050506040513d601f19601f8201168201806040525081019061184491906134ec565b506000806118aa336001805480602002602001604051908101604052809291908181526020018280548015611216576020028201919060005260206000209081546001600160a01b031681526001909101906020018083116111f8575050505050612871565b9150915081156118e4576118df858583604051806040016040528060078152602001666c656e6465727360c81b8152506128f3565b6119a0565b600180548082019091557fb10e2d527612073b26eecdfd717e6a320cf44b4afac2b0732d9fcbe2b7fa0cf60180546001600160a01b031916339081179091556001600160a01b0386166000908152600360209081526040808320938352929052908120859055600c80548792600592909190826119608361341e565b90915550815260208082019290925260409081016000908120338252909252902080546001600160a01b0319166001600160a01b03929092169190911790555b6119ab338686612c85565b5050505050565b600080805b600c5481101561080a5760008181526005602090815260408083206001600160a01b038089168552925290912054168015611a30576001600160a01b03808216600090815260036020908152604080832093891683529290529081205490611a1f82846122b0565b9050611a2b8186613406565b945050505b5080611a3b8161341e565b9150506119b7565b60025460009081901561080c5760005b60025481101561080a57600060028281548110611a7257611a726133da565b60009182526020808320909101546001600160a01b03888116845260048352604080852091909216808552925290912054909150611ab09084613406565b9250508080611abe9061341e565b915050611a53565b6000546001600160a01b03163314611af05760405162461bcd60e51b81526004016109ce90613554565b6001600160a01b03918216600090815260076020526040902080546001600160a01b03191691909216179055565b6000546001600160a01b03163314611b485760405162461bcd60e51b81526004016109ce90613554565b60006040518060800160405280856001600160a01b03168152602001848152602001838152602001868152509050611c94816009805480602002602001604051908101604052809291908181526020016000905b82821015611c8b576000848152602090819020604080516080810182526004860290920180546001600160a01b03168352600181015493830193909352600283015490820152600382018054919291606084019190611bfa90613439565b80601f0160208091040260200160405190810160405280929190818152602001828054611c2690613439565b8015611c735780601f10611c4857610100808354040283529160200191611c73565b820191906000526020600020905b815481529060010190602001808311611c5657829003601f168201915b50505050508152505081526020019060010190611b9c565b50505050612d2a565b6119ab576009805460018101825560009190915281517f6e1540171b6c0c960b71a7020d9f60077f6af931a8bbf590da0223dacf75c7af600490920291820180546001600160a01b0319166001600160a01b039092169190911781556020808401517f6e1540171b6c0c960b71a7020d9f60077f6af931a8bbf590da0223dacf75c7b084015560408401517f6e1540171b6c0c960b71a7020d9f60077f6af931a8bbf590da0223dacf75c7b1840155606084015180518594611d7c937f6e1540171b6c0c960b71a7020d9f60077f6af931a8bbf590da0223dacf75c7b2909101920190612f2b565b5050505050505050565b6060600a805480602002602001604051908101604052809291908181526020016000905b82821015610dd4576000848152602090819020604080516080810182526004860290920180546001600160a01b03168352600181015493830193909352600283015490820152600382018054919291606084019190611e0890613439565b80601f0160208091040260200160405190810160405280929190818152602001828054611e3490613439565b8015611e815780601f10611e5657610100808354040283529160200191611e81565b820191906000526020600020905b815481529060010190602001808311611e6457829003601f168201915b50505050508152505081526020019060010190611daa565b6000600019815b8351811015611efe576000848281518110611ebd57611ebd6133da565b60200260200101519050856001600160a01b0316816001600160a01b03161415611eeb5750915061080c9050565b5080611ef68161341e565b915050611ea0565b509392505050565b6000546001600160a01b03163314611f305760405162461bcd60e51b81526004016109ce90613554565b6001600160a01b038116611f955760405162461bcd60e51b815260206004820152602660248201527f4f776e61626c653a206e6577206f776e657220697320746865207a65726f206160448201526564647265737360d01b60648201526084016109ce565b611f9e81612c35565b50565b60008111611fc15760405162461bcd60e51b81526004016109ce906134b5565b6000612025336001805480602002602001604051908101604052809291908181526020018280548015610a33576020028201919060005260206000209081546001600160a01b03168152600190910190602001808311610a15575050505050611e99565b905060008112156120915760405162461bcd60e51b815260206004820152603060248201527f557365722061646472657373206973206e6f7420666f756e6420696e2074686560448201526f206c697374206f66206c656e6465727360801b60648201526084016109ce565b6001600160a01b03831660009081526003602090815260408083203384529091529020548390838110156120c457600080fd5b60006120d085876122b0565b600b546040516323b872dd60e01b8152336004820152306024820152604481018390529192506001600160a01b0316906323b872dd906064016020604051808303816000875af1158015612128573d6000803e3d6000fd5b505050506040513d601f19601f8201168201806040525081019061214c91906134ec565b5060405163a9059cbb60e01b8152336004820152602481018690526001600160a01b0384169063a9059cbb906044016020604051808303816000875af115801561219a573d6000803e3d6000fd5b505050506040513d601f19601f820116820180604052508101906121be91906134ec565b506001600160a01b03861660009081526003602090815260408083203384529091529020546121ee90869061350e565b6001600160a01b03871660009081526003602090815260408083203380855292528220929092559061221f906119b2565b905080610cb8576001805461223590829061350e565b81548110612245576122456133da565b600091825260209091200154600180546001600160a01b039092169187908110612271576122716133da565b9060005260206000200160006101000a8154816001600160a01b0302191690836001600160a01b031602179055506001805480610c9557610c95613525565b60008060006122be846124a0565b909250905060006122d082600a61366d565b6122da8488613474565b6122e49190613493565b9695505050505050565b612322604051806080016040528060006001600160a01b031681526020016000815260200160008152602001606081525090565b612356604051806080016040528060006001600160a01b031681526020016000815260200160008152602001606081525090565b60005b600a5481101561080a576000600a8281548110612378576123786133da565b90600052602060002090600402016040518060800160405290816000820160009054906101000a90046001600160a01b03166001600160a01b03166001600160a01b0316815260200160018201548152602001600282015481526020016003820180546123e490613439565b80601f016020809104026020016040519081016040528092919081815260200182805461241090613439565b801561245d5780601f106124325761010080835404028352916020019161245d565b820191906000526020600020905b81548152906001019060200180831161244057829003601f168201915b5050505050815250509050846001600160a01b031681600001516001600160a01b0316141561248d57915061080a565b50806124988161341e565b915050612359565b6001600160a01b03808216600090815260076020526040808220548151633fabe5a360e21b815291519293849391169182918491839163feaf968c9160048082019260a0929091908290030181865afa158015612501573d6000803e3d6000fd5b505050506040513d601f19601f820116820180604052508101906125259190613693565b5050509150506000826001600160a01b031663313ce5676040518163ffffffff1660e01b8152600401602060405180830381865afa15801561256b573d6000803e3d6000fd5b505050506040513d601f19601f8201168201806040525081019061258f91906136e3565b919760ff909216965090945050505050565b6000546001600160a01b031633146125cb5760405162461bcd60e51b81526004016109ce90613554565b60006040518060800160405280856001600160a01b0316815260200184815260200183815260200186815250905061270e81600a805480602002602001604051908101604052809291908181526020016000905b82821015611c8b576000848152602090819020604080516080810182526004860290920180546001600160a01b0316835260018101549383019390935260028301549082015260038201805491929160608401919061267d90613439565b80601f01602080910402602001604051908101604052809291908181526020018280546126a990613439565b80156126f65780601f106126cb576101008083540402835291602001916126f6565b820191906000526020600020905b8154815290600101906020018083116126d957829003601f168201915b5050505050815250508152602001906001019061261f565b6119ab57600a805460018101825560009190915281517fc65a7bb8d6351c1cf70c95a316cc6a92839c986682d98bc35f958f4883f9d2a8600490920291820180546001600160a01b0319166001600160a01b039092169190911781556020808401517fc65a7bb8d6351c1cf70c95a316cc6a92839c986682d98bc35f958f4883f9d2a984015560408401517fc65a7bb8d6351c1cf70c95a316cc6a92839c986682d98bc35f958f4883f9d2aa840155606084015180518594611d7c937fc65a7bb8d6351c1cf70c95a316cc6a92839c986682d98bc35f958f4883f9d2ab909101920190612f2b565b8051600090156128685760005b8251811015612866576000838281518110612820576128206133da565b60200260200101519050846001600160a01b031681600001516001600160a01b031614156128535760019250505061080c565b508061285e8161341e565b915050612803565b505b50600092915050565b6000806000835111156128e35760005b83518110156128e157600084828151811061289e5761289e6133da565b60200260200101519050856001600160a01b0316816001600160a01b031614156128ce57506001925090506128ec565b50806128d98161341e565b915050612881565b505b50600090506000195b9250929050565b604051666c656e6465727360c81b602082015260270160405160208183030381529060405280519060200120816040516020016129309190613706565b604051602081830303815290604052805190602001201415612a9057600060018381548110612961576129616133da565b9060005260206000200160009054906101000a90046001600160a01b0316905060006129b38287600c546040518060400160405280600a8152602001691d1bdad95b9cd3195b9d60b21b815250612d9e565b90508015612a17576001600160a01b038087166000908152600360209081526040808320938616835292905220546129ec908690613406565b6001600160a01b03808816600090815260036020908152604080832093871683529290522055612a89565b600c8054879160059160009182612a2d8361341e565b909155508152602080820192909252604090810160009081206001600160a01b0387811680845291855283832080546001600160a01b03191696821696909617909555938a168152600383528181209381529290915290208590555b5050612c2f565b60405168626f72726f7765727360b81b60208201526029016040516020818303038152906040528051906020012081604051602001612acf9190613706565b604051602081830303815290604052805190602001201415612c2f57600060028381548110612b0057612b006133da565b9060005260206000200160009054906101000a90046001600160a01b031690506000612b568287600d546040518060400160405280600e81526020016d1d1bdad95b9cd09bdc9c9bddd95960921b815250612d9e565b90508015612bba576001600160a01b03808716600090815260046020908152604080832093861683529290522054612b8f908690613406565b6001600160a01b03808816600090815260046020908152604080832093871683529290522055612c2c565b600d8054879160069160009182612bd08361341e565b909155508152602080820192909252604090810160009081206001600160a01b0387811680845291855283832080546001600160a01b03191696821696909617909555938a168152600483528181209381529290915290208590555b50505b50505050565b600080546001600160a01b038381166001600160a01b0319831681178455604051919092169283917f8be0079c531659141344cd1fd0a4f28419497f9722a3daafe3b4186f6b6457e09190a35050565b60008111612ca55760405162461bcd60e51b81526004016109ce906134b5565b6000612cb182846122b0565b600b5460405163a9059cbb60e01b81526001600160a01b0387811660048301526024820184905292935091169063a9059cbb906044016020604051808303816000875af1158015612d06573d6000803e3d6000fd5b505050506040513d601f19601f820116820180604052508101906119ab91906134ec565b8051600090156128685760005b8251811015612866576000838281518110612d5457612d546133da565b6020026020010151905084600001516001600160a01b031681600001516001600160a01b03161415612d8b5760019250505061080c565b5080612d968161341e565b915050612d37565b60008215612f2057604051691d1bdad95b9cd3195b9d60b21b6020820152602a016040516020818303038152906040528051906020012082604051602001612de69190613706565b604051602081830303815290604052805190602001201415612e635760005b600d54811015612e5d5760008181526005602090815260408083206001600160a01b03808b1685529252909120548116908616811415612e4a57600192505050610915565b5080612e558161341e565b915050612e05565b50612f20565b6040516d1d1bdad95b9cd09bdc9c9bddd95960921b6020820152602e016040516020818303038152906040528051906020012082604051602001612ea79190613706565b604051602081830303815290604052805190602001201415612f205760005b600c54811015612f1e5760008181526006602090815260408083206001600160a01b03808b1685529252909120548116908616811415612f0b57600192505050610915565b5080612f168161341e565b915050612ec6565b505b506000949350505050565b828054612f3790613439565b90600052602060002090601f016020900481019282612f595760008555612f9f565b82601f10612f7257805160ff1916838001178555612f9f565b82800160010185558215612f9f579182015b82811115612f9f578251825591602001919060010190612f84565b50612fab929150612faf565b5090565b5b80821115612fab5760008155600101612fb0565b80356001600160a01b0381168114612fdb57600080fd5b919050565b600060208284031215612ff257600080fd5b612ffb82612fc4565b9392505050565b60006020828403121561301457600080fd5b5035919050565b60005b8381101561303657818101518382015260200161301e565b83811115612c2f5750506000910152565b6000815180845261305f81602086016020860161301b565b601f01601f19169290920160200192915050565b60018060a01b03851681528360208201528260408201526080606082015260006122e46080830184613047565b600080604083850312156130b357600080fd5b6130bc83612fc4565b946020939093013593505050565b60018060a01b038151168252602081015160208301526040810151604083015260006060820151608060608501526109156080850182613047565b6000602080830181845280855180835260408601915060408160051b870101925083870160005b8281101561315a57603f198886030184526131488583516130ca565b9450928501929085019060010161312c565b5092979650505050505050565b6000806040838503121561317a57600080fd5b61318383612fc4565b915061319160208401612fc4565b90509250929050565b6020808252825182820181905260009190848201906040850190845b818110156131db5783516001600160a01b0316835292840192918401916001016131b6565b50909695505050505050565b600080604083850312156131fa57600080fd5b8235915061319160208401612fc4565b634e487b7160e01b600052604160045260246000fd5b604051601f8201601f1916810167ffffffffffffffff811182821017156132495761324961320a565b604052919050565b6000806000806080858703121561326757600080fd5b843567ffffffffffffffff8082111561327f57600080fd5b818701915087601f83011261329357600080fd5b81356020828211156132a7576132a761320a565b6132b9601f8301601f19168201613220565b925081835289818386010111156132cf57600080fd5b818185018285013760008183850101528297506132ed818a01612fc4565b979a97995050505060408601359560600135949350505050565b6000806040838503121561331a57600080fd5b61332383612fc4565b915060208084013567ffffffffffffffff8082111561334157600080fd5b818601915086601f83011261335557600080fd5b8135818111156133675761336761320a565b8060051b9150613378848301613220565b818152918301840191848101908984111561339257600080fd5b938501935b838510156133b7576133a885612fc4565b82529385019390850190613397565b8096505050505050509250929050565b602081526000612ffb60208301846130ca565b634e487b7160e01b600052603260045260246000fd5b634e487b7160e01b600052601160045260246000fd5b60008219821115613419576134196133f0565b500190565b6000600019821415613432576134326133f0565b5060010190565b600181811c9082168061344d57607f821691505b6020821081141561346e57634e487b7160e01b600052602260045260246000fd5b50919050565b600081600019048311821515161561348e5761348e6133f0565b500290565b6000826134b057634e487b7160e01b600052601260045260246000fd5b500490565b6020808252601f908201527f416d6f756e742073686f756c642062652067726561746572207468616e203000604082015260600190565b6000602082840312156134fe57600080fd5b81518015158114612ffb57600080fd5b600082821015613520576135206133f0565b500390565b634e487b7160e01b600052603160045260246000fd5b60006020828403121561354d57600080fd5b5051919050565b6020808252818101527f4f776e61626c653a2063616c6c6572206973206e6f7420746865206f776e6572604082015260600190565b600181815b808511156135c45781600019048211156135aa576135aa6133f0565b808516156135b757918102915b93841c939080029061358e565b509250929050565b6000826135db5750600161080c565b816135e85750600061080c565b81600181146135fe576002811461360857613624565b600191505061080c565b60ff841115613619576136196133f0565b50506001821b61080c565b5060208310610133831016604e8410600b8410161715613647575081810a61080c565b6136518383613589565b8060001904821115613665576136656133f0565b029392505050565b6000612ffb83836135cc565b805169ffffffffffffffffffff81168114612fdb57600080fd5b600080600080600060a086880312156136ab57600080fd5b6136b486613679565b94506020860151935060408601519250606086015191506136d760808701613679565b90509295509295909350565b6000602082840312156136f557600080fd5b815160ff81168114612ffb57600080fd5b6000825161371881846020870161301b565b919091019291505056fea26469706673582212206d0b9f03658dfd5651f830390a92a4bb982aaab49788baaf098ece128a21eaef64736f6c634300080b0033","bytecodeSha1":"09f25fe1953e72fb33302c5001b0685dcd5f565a","type":"contract","abi":[{"inputs":[{"internalType":"address","name":"_token","type":"address"}],"stateMutability":"nonpayable","type":"constructor","name":"constructor"},{"anonymous":false,"inputs":[{"indexed":true,"internalType":"address","name":"previousOwner","type":"address"},{"indexed":true,"internalType":"address","name":"newOwner","type":"address"}],"name":"OwnershipTransferred","type":"event"},{"inputs":[{"internalType":"address","name":"tokenAddress","type":"address"},{"internalType":"address","name":"tokenToUsdPriceFeed","type":"address"}],"name":"addTokenToPriceFeedMapping","outputs":[],"stateMutability":"nonpayable","type":"function"},{"inputs":[{"internalType":"string","name":"name","type":"string"},{"internalType":"address","name":"tokenAddress","type":"address"},{"internalType":"uint256","name":"LTV","type":"uint256"},{"internalType":"uint256","name":"borrowStableRate","type":"uint256"}],"name":"addTokensForBorrowing","outputs":[],"stateMutability":"nonpayable","type":"function"},{"inputs":[{"internalType":"string","name":"name","type":"string"},{"internalType":"address","name":"tokenAddress","type":"address"},{"internalType":"uint256","name":"LTV","type":"uint256"},{"internalType":"uint256","name":"borrowStableRate","type":"uint256"}],"name":"addTokensForLending","outputs":[],"stateMutability":"nonpayable","type":"function"},{"inputs":[{"internalType":"uint256","name":"amount","type":"uint256"},{"internalType":"address","name":"tokenAddress","type":"address"}],"name":"borrow","outputs":[],"stateMutability":"nonpayable","type":"function"},{"inputs":[{"internalType":"uint256","name":"","type":"uint256"}],"name":"borrowers","outputs":[{"internalType":"address","name":"","type":"address"}],"stateMutability":"view","type":"function"},{"inputs":[{"internalType":"uint256","name":"amount","type":"uint256"},{"internalType":"address","name":"tokenAddress","type":"address"}],"name":"getAmountInDollars","outputs":[{"internalType":"uint256","name":"","type":"uint256"}],"stateMutability":"view","type":"function"},{"inputs":[],"name":"getBorrowersArray","outputs":[{"internalType":"address[]","name":"","type":"address[]"}],"stateMutability":"view","type":"function"},{"inputs":[],"name":"getLendersArray","outputs":[{"internalType":"address[]","name":"","type":"address[]"}],"stateMutability":"view","type":"function"},{"inputs":[{"internalType":"address","name":"tokenAddress","type":"address"}],"name":"getTokenFrom","outputs":[{"components":[{"internalType":"address","name":"tokenAddress","type":"address"},{"internalType":"uint256","name":"LTV","type":"uint256"},{"internalType":"uint256","name":"stableRate","type":"uint256"},{"internalType":"string","name":"name","type":"string"}],"internalType":"struct LendingAndBorrowing.Token","name":"","type":"tuple"}],"stateMutability":"view","type":"function"},{"inputs":[],"name":"getTokensForBorrowingArray","outputs":[{"components":[{"internalType":"address","name":"tokenAddress","type":"address"},{"internalType":"uint256","name":"LTV","type":"uint256"},{"internalType":"uint256","name":"stableRate","type":"uint256"},{"internalType":"string","name":"name","type":"string"}],"internalType":"struct LendingAndBorrowing.Token[]","name":"","type":"tuple[]"}],"stateMutability":"view","type":"function"},{"inputs":[],"name":"getTokensForLendingArray","outputs":[{"components":[{"internalType":"address","name":"tokenAddress","type":"address"},{"internalType":"uint256","name":"LTV","type":"uint256"},{"internalType":"uint256","name":"stableRate","type":"uint256"},{"internalType":"string","name":"name","type":"string"}],"internalType":"struct LendingAndBorrowing.Token[]","name":"","type":"tuple[]"}],"stateMutability":"view","type":"function"},{"inputs":[{"internalType":"address","name":"user","type":"address"}],"name":"getTotalAmountBorrowedInDollars","outputs":[{"internalType":"uint256","name":"","type":"uint256"}],"stateMutability":"view","type":"function"},{"inputs":[{"internalType":"address","name":"user","type":"address"}],"name":"getTotalAmountLentInDollars","outputs":[{"internalType":"uint256","name":"","type":"uint256"}],"stateMutability":"view","type":"function"},{"inputs":[{"internalType":"address","name":"tokenAddress","type":"address"}],"name":"getTotalTokenBorrowed","outputs":[{"internalType":"uint256","name":"","type":"uint256"}],"stateMutability":"view","type":"function"},{"inputs":[{"internalType":"address","name":"tokenAddres","type":"address"}],"name":"getTotalTokenSupplied","outputs":[{"internalType":"uint256","name":"","type":"uint256"}],"stateMutability":"view","type":"function"},{"inputs":[{"internalType":"address","name":"user","type":"address"}],"name":"getUserTotalAmountAvailableForBorrowInDollars","outputs":[{"internalType":"uint256","name":"","type":"uint256"}],"stateMutability":"view","type":"function"},{"inputs":[{"internalType":"address","name":"user","type":"address"},{"internalType":"address[]","name":"addressArray","type":"address[]"}],"name":"indexOf","outputs":[{"internalType":"int256","name":"","type":"int256"}],"stateMutability":"nonpayable","type":"function"},{"inputs":[{"internalType":"address","name":"tokenAddress","type":"address"},{"internalType":"uint256","name":"tokenBorrowed","type":"uint256"}],"name":"interest","outputs":[{"internalType":"uint256","name":"","type":"uint256"}],"stateMutability":"view","type":"function"},{"inputs":[],"name":"larToken","outputs":[{"internalType":"contract IERC20","name":"","type":"address"}],"stateMutability":"view","type":"function"},{"inputs":[{"internalType":"address","name":"tokenAddress","type":"address"},{"internalType":"uint256","name":"amount","type":"uint256"}],"name":"lend","outputs":[],"stateMutability":"payable","type":"function"},{"inputs":[{"internalType":"uint256","name":"","type":"uint256"}],"name":"lenders","outputs":[{"internalType":"address","name":"","type":"address"}],"stateMutability":"view","type":"function"},{"inputs":[],"name":"noOfTokensBorrowed","outputs":[{"internalType":"uint256","name":"","type":"uint256"}],"stateMutability":"view","type":"function"},{"inputs":[],"name":"noOfTokensLent","outputs":[{"internalType":"uint256","name":"","type":"uint256"}],"stateMutability":"view","type":"function"},{"inputs":[{"internalType":"address","name":"tokenAddress","type":"address"}],"name":"oneTokenEqualsHowManyDollars","outputs":[{"internalType":"uint256","name":"","type":"uint256"},{"internalType":"uint256","name":"","type":"uint256"}],"stateMutability":"view","type":"function"},{"inputs":[],"name":"owner","outputs":[{"internalType":"address","name":"","type":"address"}],"stateMutability":"view","type":"function"},{"inputs":[{"internalType":"address","name":"tokenAddress","type":"address"},{"internalType":"uint256","name":"amount","type":"uint256"}],"name":"payDebt","outputs":[],"stateMutability":"nonpayable","type":"function"},{"inputs":[],"name":"renounceOwnership","outputs":[],"stateMutability":"nonpayable","type":"function"},{"inputs":[{"internalType":"address","name":"","type":"address"}],"name":"tokenToPriceFeed","outputs":[{"internalType":"address","name":"","type":"address"}],"stateMutability":"view","type":"function"},{"inputs":[{"internalType":"uint256","name":"","type":"uint256"},{"internalType":"address","name":"","type":"address"}],"name":"tokensBorrowed","outputs":[{"internalType":"address","name":"","type":"address"}],"stateMutability":"view","type":"function"},{"inputs":[{"internalType":"address","name":"","type":"address"},{"internalType":"address","name":"","type":"address"}],"name":"tokensBorrowedAmount","outputs":[{"internalType":"uint256","name":"","type":"uint256"}],"stateMutability":"view","type":"function"},{"inputs":[{"internalType":"uint256","name":"","type":"uint256"}],"name":"tokensForBorrowing","outputs":[{"internalType":"address","name":"tokenAddress","type":"address"},{"internalType":"uint256","name":"LTV","type":"uint256"},{"internalType":"uint256","name":"stableRate","type":"uint256"},{"internalType":"string","name":"name","type":"string"}],"stateMutability":"view","type":"function"},{"inputs":[{"internalType":"uint256","name":"","type":"uint256"}],"name":"tokensForLending","outputs":[{"internalType":"address","name":"tokenAddress","type":"address"},{"internalType":"uint256","name":"LTV","type":"uint256"},{"internalType":"uint256","name":"stableRate","type":"uint256"},{"internalType":"string","name":"name","type":"string"}],"stateMutability":"view","type":"function"},{"inputs":[{"internalType":"uint256","name":"","type":"uint256"},{"internalType":"address","name":"","type":"address"}],"name":"tokensLent","outputs":[{"internalType":"address","name":"","type":"address"}],"stateMutability":"view","type":"function"},{"inputs":[{"internalType":"address","name":"","type":"address"},{"internalType":"address","name":"","type":"address"}],"name":"tokensLentAmount","outputs":[{"internalType":"uint256","name":"","type":"uint256"}],"stateMutability":"view","type":"function"},{"inputs":[{"internalType":"uint256","name":"","type":"uint256"},{"internalType":"address","name":"","type":"address"}],"name":"tokensLentOrBorrowed","outputs":[{"internalType":"address","name":"","type":"address"}],"stateMutability":"view","type":"function"},{"inputs":[{"internalType":"address","name":"newOwner","type":"address"}],"name":"transferOwnership","outputs":[],"stateMutability":"nonpayable","type":"function"},{"inputs":[{"internalType":"address","name":"tokenAddress","type":"address"},{"internalType":"uint256","name":"amount","type":"uint256"}],"name":"withdraw","outputs":[],"stateMutability":"nonpayable","type":"function"}],"compiler":{"version":"0.8.11+commit.d7f03943","evm_version":"istanbul","optimizer":{"enabled":true,"runs":200}},"contractName":"LendingAndBorrowing","language":"Solidity","natspec":{"methods":{"owner()":{"details":"Returns the address of the current owner."},"renounceOwnership()":{"details":"Leaves the contract without owner. It will not be possible to call `onlyOwner` functions anymore. Can only be called by the current owner. NOTE: Renouncing ownership will leave the contract without an owner, thereby removing any functionality that is only available to the owner."},"transferOwnership(address)":{"details":"Transfers ownership of the contract to a new account (`newOwner`). Can only be called by the current owner."}},"kind":"dev","version":1},"opcodes":"PUSH1 0x80 PUSH1 0x40 MSTORE PUSH1 0x4 CALLDATASIZE LT PUSH2 0x21A JUMPI PUSH1 0x0 CALLDATALOAD PUSH1 0xE0 SHR DUP1 PUSH4 0x929EEA21 GT PUSH2 0x123 JUMPI DUP1 PUSH4 0xCD927409 GT PUSH2 0xAB JUMPI DUP1 PUSH4 0xFB24AF7F GT PUSH2 0x6F JUMPI DUP1 PUSH4 0xFB24AF7F EQ PUSH2 0x6C5 JUMPI DUP1 PUSH4 0xFC757B88 EQ PUSH2 0x6E5 JUMPI DUP1 PUSH4 0xFDC8070E EQ PUSH2 0x712 JUMPI DUP1 PUSH4 0xFE726F80 EQ PUSH2 0x747 JUMPI DUP1 PUSH4 0xFF2F4465 EQ PUSH2 0x767 JUMPI PUSH1 0x0 DUP1 REVERT JUMPDEST DUP1 PUSH4 0xCD927409 EQ PUSH2 0x60F JUMPI DUP1 PUSH4 0xD7A9A25C EQ PUSH2 0x650 JUMPI DUP1 PUSH4 0xF1C0E349 EQ PUSH2 0x665 JUMPI DUP1 PUSH4 0xF2FDE38B EQ PUSH2 0x685 JUMPI DUP1 PUSH4 0xF3FEF3A3 EQ PUSH2 0x6A5 JUMPI PUSH1 0x0 DUP1 REVERT JUMPDEST DUP1 PUSH4 0xAB56EE66 GT PUSH2 0xF2 JUMPI DUP1 PUSH4 0xAB56EE66 EQ PUSH2 0x558 JUMPI DUP1 PUSH4 0xB3D16F8D EQ PUSH2 0x578 JUMPI DUP1 PUSH4 0xB9F09BB8 EQ PUSH2 0x598 JUMPI DUP1 PUSH4 0xC0A8A540 EQ PUSH2 0x5AE JUMPI DUP1 PUSH4 0xC4543B67 EQ PUSH2 0x5EF JUMPI PUSH1 0x0 DUP1 REVERT JUMPDEST DUP1 PUSH4 0x929EEA21 EQ PUSH2 0x4CD JUMPI DUP1 PUSH4 0xA2FB342D EQ PUSH2 0x4ED JUMPI DUP1 PUSH4 0xA7772B97 EQ PUSH2 0x500 JUMPI DUP1 PUSH4 0xA8B74152 EQ PUSH2 0x520 JUMPI PUSH1 0x0 DUP1 REVERT JUMPDEST DUP1 PUSH4 0x4B3FD148 GT PUSH2 0x1A6 JUMPI DUP1 PUSH4 0x7924D93F GT PUSH2 0x175 JUMPI DUP1 PUSH4 0x7924D93F EQ PUSH2 0x424 JUMPI DUP1 PUSH4 0x7B9EC997 EQ PUSH2 0x444 JUMPI DUP1 PUSH4 0x8078F22C EQ PUSH2 0x464 JUMPI DUP1 PUSH4 0x8CF1806B EQ PUSH2 0x49A JUMPI DUP1 PUSH4 0x8DA5CB5B EQ PUSH2 0x4AF JUMPI PUSH1 0x0 DUP1 REVERT JUMPDEST DUP1 PUSH4 0x4B3FD148 EQ PUSH2 0x380 JUMPI DUP1 PUSH4 0x541D8338 EQ PUSH2 0x3A0 JUMPI DUP1 PUSH4 0x715018A6 EQ PUSH2 0x3B6 JUMPI DUP1 PUSH4 0x74FD0CE0 EQ PUSH2 0x3CB JUMPI PUSH1 0x0 DUP1 REVERT JUMPDEST DUP1 PUSH4 0x1818DD0B GT PUSH2 0x1ED JUMPI DUP1 PUSH4 0x1818DD0B EQ PUSH2 0x2C2 JUMPI DUP1 PUSH4 0x1C9E5224 EQ PUSH2 0x2E4 JUMPI DUP1 PUSH4 0x27E8E184 EQ PUSH2 0x306 JUMPI DUP1 PUSH4 0x3C9D5093 EQ PUSH2 0x33E JUMPI DUP1 PUSH4 0x447007FD EQ PUSH2 0x360 JUMPI PUSH1 0x0 DUP1 REVERT JUMPDEST DUP1 PUSH4 0x6254C6A EQ PUSH2 0x21F JUMPI DUP1 PUSH4 0x8AE7FC2 EQ PUSH2 0x252 JUMPI DUP1 PUSH4 0x11F4F5D3 EQ PUSH2 0x282 JUMPI DUP1 PUSH4 0x1419F093 EQ PUSH2 0x2A2 JUMPI JUMPDEST PUSH1 0x0 DUP1 REVERT JUMPDEST CALLVALUE DUP1 ISZERO PUSH2 0x22B JUMPI PUSH1 0x0 DUP1 REVERT JUMPDEST POP PUSH2 0x23F PUSH2 0x23A CALLDATASIZE PUSH1 0x4 PUSH2 0x2FE0 JUMP JUMPDEST PUSH2 0x787 JUMP JUMPDEST PUSH1 0x40 MLOAD SWAP1 DUP2 MSTORE PUSH1 0x20 ADD JUMPDEST PUSH1 0x40 MLOAD DUP1 SWAP2 SUB SWAP1 RETURN JUMPDEST CALLVALUE DUP1 ISZERO PUSH2 0x25E JUMPI PUSH1 0x0 DUP1 REVERT JUMPDEST POP PUSH2 0x272 PUSH2 0x26D CALLDATASIZE PUSH1 0x4 PUSH2 0x3002 JUMP JUMPDEST PUSH2 0x812 JUMP JUMPDEST PUSH1 0x40 MLOAD PUSH2 0x249 SWAP5 SWAP4 SWAP3 SWAP2 SWAP1 PUSH2 0x3073 JUMP JUMPDEST CALLVALUE DUP1 ISZERO PUSH2 0x28E JUMPI PUSH1 0x0 DUP1 REVERT JUMPDEST POP PUSH2 0x23F PUSH2 0x29D CALLDATASIZE PUSH1 0x4 PUSH2 0x30A0 JUMP JUMPDEST PUSH2 0x8E4 JUMP JUMPDEST CALLVALUE DUP1 ISZERO PUSH2 0x2AE JUMPI PUSH1 0x0 DUP1 REVERT JUMPDEST POP PUSH2 0x23F PUSH2 0x2BD CALLDATASIZE PUSH1 0x4 PUSH2 0x2FE0 JUMP JUMPDEST PUSH2 0x91D JUMP JUMPDEST CALLVALUE DUP1 ISZERO PUSH2 0x2CE JUMPI PUSH1 0x0 DUP1 REVERT JUMPDEST POP PUSH2 0x2E2 PUSH2 0x2DD CALLDATASIZE PUSH1 0x4 PUSH2 0x30A0 JUMP JUMPDEST PUSH2 0x9AE JUMP JUMPDEST STOP JUMPDEST CALLVALUE DUP1 ISZERO PUSH2 0x2F0 JUMPI PUSH1 0x0 DUP1 REVERT JUMPDEST POP PUSH2 0x2F9 PUSH2 0xCC1 JUMP JUMPDEST PUSH1 0x40 MLOAD PUSH2 0x249 SWAP2 SWAP1 PUSH2 0x3105 JUMP JUMPDEST CALLVALUE DUP1 ISZERO PUSH2 0x312 JUMPI PUSH1 0x0 DUP1 REVERT JUMPDEST POP PUSH2 0x23F PUSH2 0x321 CALLDATASIZE PUSH1 0x4 PUSH2 0x3167 JUMP JUMPDEST PUSH1 0x3 PUSH1 0x20 SWAP1 DUP2 MSTORE PUSH1 0x0 SWAP3 DUP4 MSTORE PUSH1 0x40 DUP1 DUP5 KECCAK256 SWAP1 SWAP2 MSTORE SWAP1 DUP3 MSTORE SWAP1 KECCAK256 SLOAD DUP2 JUMP JUMPDEST CALLVALUE DUP1 ISZERO PUSH2 0x34A JUMPI PUSH1 0x0 DUP1 REVERT JUMPDEST POP PUSH2 0x353 PUSH2 0xDDD JUMP JUMPDEST PUSH1 0x40 MLOAD PUSH2 0x249 SWAP2 SWAP1 PUSH2 0x319A JUMP JUMPDEST CALLVALUE DUP1 ISZERO PUSH2 0x36C JUMPI PUSH1 0x0 DUP1 REVERT JUMPDEST POP PUSH2 0x272 PUSH2 0x37B CALLDATASIZE PUSH1 0x4 PUSH2 0x3002 JUMP JUMPDEST PUSH2 0xE3F JUMP JUMPDEST CALLVALUE DUP1 ISZERO PUSH2 0x38C JUMPI PUSH1 0x0 DUP1 REVERT JUMPDEST POP PUSH2 0x2E2 PUSH2 0x39B CALLDATASIZE PUSH1 0x4 PUSH2 0x31E7 JUMP JUMPDEST PUSH2 0xE4F JUMP JUMPDEST CALLVALUE DUP1 ISZERO PUSH2 0x3AC JUMPI PUSH1 0x0 DUP1 REVERT JUMPDEST POP PUSH2 0x23F PUSH1 0xD SLOAD DUP2 JUMP JUMPDEST CALLVALUE DUP1 ISZERO PUSH2 0x3C2 JUMPI PUSH1 0x0 DUP1 REVERT JUMPDEST POP PUSH2 0x2E2 PUSH2 0x1321 JUMP JUMPDEST CALLVALUE DUP1 ISZERO PUSH2 0x3D7 JUMPI PUSH1 0x0 DUP1 REVERT JUMPDEST POP PUSH2 0x40C PUSH2 0x3E6 CALLDATASIZE PUSH1 0x4 PUSH2 0x31E7 JUMP JUMPDEST PUSH1 0x6 PUSH1 0x20 SWAP1 DUP2 MSTORE PUSH1 0x0 SWAP3 DUP4 MSTORE PUSH1 0x40 DUP1 DUP5 KECCAK256 SWAP1 SWAP2 MSTORE SWAP1 DUP3 MSTORE SWAP1 KECCAK256 SLOAD PUSH1 0x1 PUSH1 0x1 PUSH1 0xA0 SHL SUB AND DUP2 JUMP JUMPDEST PUSH1 0x40 MLOAD PUSH1 0x1 PUSH1 0x1 PUSH1 0xA0 SHL SUB SWAP1 SWAP2 AND DUP2 MSTORE PUSH1 0x20 ADD PUSH2 0x249 JUMP JUMPDEST CALLVALUE DUP1 ISZERO PUSH2 0x430 JUMPI PUSH1 0x0 DUP1 REVERT JUMPDEST POP PUSH2 0x40C PUSH2 0x43F CALLDATASIZE PUSH1 0x4 PUSH2 0x3002 JUMP JUMPDEST PUSH2 0x1357 JUMP JUMPDEST CALLVALUE DUP1 ISZERO PUSH2 0x450 JUMPI PUSH1 0x0 DUP1 REVERT JUMPDEST POP PUSH2 0x23F PUSH2 0x45F CALLDATASIZE PUSH1 0x4 PUSH2 0x2FE0 JUMP JUMPDEST PUSH2 0x1381 JUMP JUMPDEST CALLVALUE DUP1 ISZERO PUSH2 0x470 JUMPI PUSH1 0x0 DUP1 REVERT JUMPDEST POP PUSH2 0x40C PUSH2 0x47F CALLDATASIZE PUSH1 0x4 PUSH2 0x2FE0 JUMP JUMPDEST PUSH1 0x7 PUSH1 0x20 MSTORE PUSH1 0x0 SWAP1 DUP2 MSTORE PUSH1 0x40 SWAP1 KECCAK256 SLOAD PUSH1 0x1 PUSH1 0x1 PUSH1 0xA0 SHL SUB AND DUP2 JUMP JUMPDEST CALLVALUE DUP1 ISZERO PUSH2 0x4A6 JUMPI PUSH1 0x0 DUP1 REVERT JUMPDEST POP PUSH2 0x353 PUSH2 0x14C9 JUMP JUMPDEST CALLVALUE DUP1 ISZERO PUSH2 0x4BB JUMPI PUSH1 0x0 DUP1 REVERT JUMPDEST POP PUSH1 0x0 SLOAD PUSH1 0x1 PUSH1 0x1 PUSH1 0xA0 SHL SUB AND PUSH2 0x40C JUMP JUMPDEST CALLVALUE DUP1 ISZERO PUSH2 0x4D9 JUMPI PUSH1 0x0 DUP1 REVERT JUMPDEST POP PUSH2 0x40C PUSH2 0x4E8 CALLDATASIZE PUSH1 0x4 PUSH2 0x3002 JUMP JUMPDEST PUSH2 0x1529 JUMP JUMPDEST PUSH2 0x2E2 PUSH2 0x4FB CALLDATASIZE PUSH1 0x4 PUSH2 0x30A0 JUMP JUMPDEST PUSH2 0x1539 JUMP JUMPDEST CALLVALUE DUP1 ISZERO PUSH2 0x50C JUMPI PUSH1 0x0 DUP1 REVERT JUMPDEST POP PUSH2 0x23F PUSH2 0x51B CALLDATASIZE PUSH1 0x4 PUSH2 0x2FE0 JUMP JUMPDEST PUSH2 0x19B2 JUMP JUMPDEST CALLVALUE DUP1 ISZERO PUSH2 0x52C JUMPI PUSH1 0x0 DUP1 REVERT JUMPDEST POP PUSH2 0x23F PUSH2 0x53B CALLDATASIZE PUSH1 0x4 PUSH2 0x3167 JUMP JUMPDEST PUSH1 0x4 PUSH1 0x20 SWAP1 DUP2 MSTORE PUSH1 0x0 SWAP3 DUP4 MSTORE PUSH1 0x40 DUP1 DUP5 KECCAK256 SWAP1 SWAP2 MSTORE SWAP1 DUP3 MSTORE SWAP1 KECCAK256 SLOAD DUP2 JUMP JUMPDEST CALLVALUE DUP1 ISZERO PUSH2 0x564 JUMPI PUSH1 0x0 DUP1 REVERT JUMPDEST POP PUSH2 0x23F PUSH2 0x573 CALLDATASIZE PUSH1 0x4 PUSH2 0x2FE0 JUMP JUMPDEST PUSH2 0x1A43 JUMP JUMPDEST CALLVALUE DUP1 ISZERO PUSH2 0x584 JUMPI PUSH1 0x0 DUP1 REVERT JUMPDEST POP PUSH2 0x2E2 PUSH2 0x593 CALLDATASIZE PUSH1 0x4 PUSH2 0x3167 JUMP JUMPDEST PUSH2 0x1AC6 JUMP JUMPDEST CALLVALUE DUP1 ISZERO PUSH2 0x5A4 JUMPI PUSH1 0x0 DUP1 REVERT JUMPDEST POP PUSH2 0x23F PUSH1 0xC SLOAD DUP2 JUMP JUMPDEST CALLVALUE DUP1 ISZERO PUSH2 0x5BA JUMPI PUSH1 0x0 DUP1 REVERT JUMPDEST POP PUSH2 0x40C PUSH2 0x5C9 CALLDATASIZE PUSH1 0x4 PUSH2 0x31E7 JUMP JUMPDEST PUSH1 0x8 PUSH1 0x20 SWAP1 DUP2 MSTORE PUSH1 0x0 SWAP3 DUP4 MSTORE PUSH1 0x40 DUP1 DUP5 KECCAK256 SWAP1 SWAP2 MSTORE SWAP1 DUP3 MSTORE SWAP1 KECCAK256 SLOAD PUSH1 0x1 PUSH1 0x1 PUSH1 0xA0 SHL SUB AND DUP2 JUMP JUMPDEST CALLVALUE DUP1 ISZERO PUSH2 0x5FB JUMPI PUSH1 0x0 DUP1 REVERT JUMPDEST POP PUSH2 0x2E2 PUSH2 0x60A CALLDATASIZE PUSH1 0x4 PUSH2 0x3251 JUMP JUMPDEST PUSH2 0x1B1E JUMP JUMPDEST CALLVALUE DUP1 ISZERO PUSH2 0x61B JUMPI PUSH1 0x0 DUP1 REVERT JUMPDEST POP PUSH2 0x40C PUSH2 0x62A CALLDATASIZE PUSH1 0x4 PUSH2 0x31E7 JUMP JUMPDEST PUSH1 0x5 PUSH1 0x20 SWAP1 DUP2 MSTORE PUSH1 0x0 SWAP3 DUP4 MSTORE PUSH1 0x40 DUP1 DUP5 KECCAK256 SWAP1 SWAP2 MSTORE SWAP1 DUP3 MSTORE SWAP1 KECCAK256 SLOAD PUSH1 0x1 PUSH1 0x1 PUSH1 0xA0 SHL SUB AND DUP2 JUMP JUMPDEST CALLVALUE DUP1 ISZERO PUSH2 0x65C JUMPI PUSH1 0x0 DUP1 REVERT JUMPDEST POP PUSH2 0x2F9 PUSH2 0x1D86 JUMP JUMPDEST CALLVALUE DUP1 ISZERO PUSH2 0x671 JUMPI PUSH1 0x0 DUP1 REVERT JUMPDEST POP PUSH2 0x23F PUSH2 0x680 CALLDATASIZE PUSH1 0x4 PUSH2 0x3307 JUMP JUMPDEST PUSH2 0x1E99 JUMP JUMPDEST CALLVALUE DUP1 ISZERO PUSH2 0x691 JUMPI PUSH1 0x0 DUP1 REVERT JUMPDEST POP PUSH2 0x2E2 PUSH2 0x6A0 CALLDATASIZE PUSH1 0x4 PUSH2 0x2FE0 JUMP JUMPDEST PUSH2 0x1F06 JUMP JUMPDEST CALLVALUE DUP1 ISZERO PUSH2 0x6B1 JUMPI PUSH1 0x0 DUP1 REVERT JUMPDEST POP PUSH2 0x2E2 PUSH2 0x6C0 CALLDATASIZE PUSH1 0x4 PUSH2 0x30A0 JUMP JUMPDEST PUSH2 0x1FA1 JUMP JUMPDEST CALLVALUE DUP1 ISZERO PUSH2 0x6D1 JUMPI PUSH1 0x0 DUP1 REVERT JUMPDEST POP PUSH2 0x23F PUSH2 0x6E0 CALLDATASIZE PUSH1 0x4 PUSH2 0x31E7 JUMP JUMPDEST PUSH2 0x22B0 JUMP JUMPDEST CALLVALUE DUP1 ISZERO PUSH2 0x6F1 JUMPI PUSH1 0x0 DUP1 REVERT JUMPDEST POP PUSH2 0x705 PUSH2 0x700 CALLDATASIZE PUSH1 0x4 PUSH2 0x2FE0 JUMP JUMPDEST PUSH2 0x22EE JUMP JUMPDEST PUSH1 0x40 MLOAD PUSH2 0x249 SWAP2 SWAP1 PUSH2 0x33C7 JUMP JUMPDEST CALLVALUE DUP1 ISZERO PUSH2 0x71E JUMPI PUSH1 0x0 DUP1 REVERT JUMPDEST POP PUSH2 0x732 PUSH2 0x72D CALLDATASIZE PUSH1 0x4 PUSH2 0x2FE0 JUMP JUMPDEST PUSH2 0x24A0 JUMP JUMPDEST PUSH1 0x40 DUP1 MLOAD SWAP3 DUP4 MSTORE PUSH1 0x20 DUP4 ADD SWAP2 SWAP1 SWAP2 MSTORE ADD PUSH2 0x249 JUMP JUMPDEST CALLVALUE DUP1 ISZERO PUSH2 0x753 JUMPI PUSH1 0x0 DUP1 REVERT JUMPDEST POP PUSH1 0xB SLOAD PUSH2 0x40C SWAP1 PUSH1 0x1 PUSH1 0x1 PUSH1 0xA0 SHL SUB AND DUP2 JUMP JUMPDEST CALLVALUE DUP1 ISZERO PUSH2 0x773 JUMPI PUSH1 0x0 DUP1 REVERT JUMPDEST POP PUSH2 0x2E2 PUSH2 0x782 CALLDATASIZE PUSH1 0x4 PUSH2 0x3251 JUMP JUMPDEST PUSH2 0x25A1 JUMP JUMPDEST PUSH1 0x1 SLOAD PUSH1 0x0 SWAP1 DUP2 SWAP1 ISZERO PUSH2 0x80C JUMPI PUSH1 0x0 JUMPDEST PUSH1 0x1 SLOAD DUP2 LT ISZERO PUSH2 0x80A JUMPI PUSH1 0x0 PUSH1 0x1 DUP3 DUP2 SLOAD DUP2 LT PUSH2 0x7B6 JUMPI PUSH2 0x7B6 PUSH2 0x33DA JUMP JUMPDEST PUSH1 0x0 SWAP2 DUP3 MSTORE PUSH1 0x20 DUP1 DUP4 KECCAK256 SWAP1 SWAP2 ADD SLOAD PUSH1 0x1 PUSH1 0x1 PUSH1 0xA0 SHL SUB DUP9 DUP2 AND DUP5 MSTORE PUSH1 0x3 DUP4 MSTORE PUSH1 0x40 DUP1 DUP6 KECCAK256 SWAP2 SWAP1 SWAP3 AND DUP1 DUP6 MSTORE SWAP3 MSTORE SWAP1 SWAP2 KECCAK256 SLOAD SWAP1 SWAP2 POP PUSH2 0x7F4 SWAP1 DUP5 PUSH2 0x3406 JUMP JUMPDEST SWAP3 POP POP DUP1 DUP1 PUSH2 0x802 SWAP1 PUSH2 0x341E JUMP JUMPDEST SWAP2 POP POP PUSH2 0x797 JUMP JUMPDEST POP JUMPDEST SWAP3 SWAP2 POP POP JUMP JUMPDEST PUSH1 0x9 DUP2 DUP2 SLOAD DUP2 LT PUSH2 0x822 JUMPI PUSH1 0x0 DUP1 REVERT JUMPDEST PUSH1 0x0 SWAP2 DUP3 MSTORE PUSH1 0x20 SWAP1 SWAP2 KECCAK256 PUSH1 0x4 SWAP1 SWAP2 MUL ADD DUP1 SLOAD PUSH1 0x1 DUP3 ADD SLOAD PUSH1 0x2 DUP4 ADD SLOAD PUSH1 0x3 DUP5 ADD DUP1 SLOAD PUSH1 0x1 PUSH1 0x1 PUSH1 0xA0 SHL SUB SWAP1 SWAP5 AND SWAP6 POP SWAP2 SWAP4 SWAP1 SWAP3 SWAP1 SWAP2 SWAP1 PUSH2 0x861 SWAP1 PUSH2 0x3439 JUMP JUMPDEST DUP1 PUSH1 0x1F ADD PUSH1 0x20 DUP1 SWAP2 DIV MUL PUSH1 0x20 ADD PUSH1 0x40 MLOAD SWAP1 DUP2 ADD PUSH1 0x40 MSTORE DUP1 SWAP3 SWAP2 SWAP1 DUP2 DUP2 MSTORE PUSH1 0x20 ADD DUP3 DUP1 SLOAD PUSH2 0x88D SWAP1 PUSH2 0x3439 JUMP JUMPDEST DUP1 ISZERO PUSH2 0x8DA JUMPI DUP1 PUSH1 0x1F LT PUSH2 0x8AF JUMPI PUSH2 0x100 DUP1 DUP4 SLOAD DIV MUL DUP4 MSTORE SWAP2 PUSH1 0x20 ADD SWAP2 PUSH2 0x8DA JUMP JUMPDEST DUP3 ADD SWAP2 SWAP1 PUSH1 0x0 MSTORE PUSH1 0x20 PUSH1 0x0 KECCAK256 SWAP1 JUMPDEST DUP2 SLOAD DUP2 MSTORE SWAP1 PUSH1 0x1 ADD SWAP1 PUSH1 0x20 ADD DUP1 DUP4 GT PUSH2 0x8BD JUMPI DUP3 SWAP1 SUB PUSH1 0x1F AND DUP3 ADD SWAP2 JUMPDEST POP POP POP POP POP SWAP1 POP DUP5 JUMP JUMPDEST PUSH1 0x0 DUP1 PUSH2 0x8F0 DUP5 PUSH2 0x22EE JUMP JUMPDEST SWAP1 POP PUSH8 0xDE0B6B3A7640000 DUP2 PUSH1 0x40 ADD MLOAD DUP5 PUSH2 0x90B SWAP2 SWAP1 PUSH2 0x3474 JUMP JUMPDEST PUSH2 0x915 SWAP2 SWAP1 PUSH2 0x3493 JUMP JUMPDEST SWAP5 SWAP4 POP POP POP POP JUMP JUMPDEST PUSH1 0x0 DUP1 DUP1 JUMPDEST PUSH1 0xD SLOAD DUP2 LT ISZERO PUSH2 0x80A JUMPI PUSH1 0x0 DUP2 DUP2 MSTORE PUSH1 0x6 PUSH1 0x20 SWAP1 DUP2 MSTORE PUSH1 0x40 DUP1 DUP4 KECCAK256 PUSH1 0x1 PUSH1 0x1 PUSH1 0xA0 SHL SUB DUP1 DUP10 AND DUP6 MSTORE SWAP3 MSTORE SWAP1 SWAP2 KECCAK256 SLOAD AND DUP1 ISZERO PUSH2 0x99B JUMPI PUSH1 0x1 PUSH1 0x1 PUSH1 0xA0 SHL SUB DUP1 DUP3 AND PUSH1 0x0 SWAP1 DUP2 MSTORE PUSH1 0x4 PUSH1 0x20 SWAP1 DUP2 MSTORE PUSH1 0x40 DUP1 DUP4 KECCAK256 SWAP4 DUP10 AND DUP4 MSTORE SWAP3 SWAP1 MSTORE SWAP1 DUP2 KECCAK256 SLOAD SWAP1 PUSH2 0x98A DUP3 DUP5 PUSH2 0x22B0 JUMP JUMPDEST SWAP1 POP PUSH2 0x996 DUP2 DUP7 PUSH2 0x3406 JUMP JUMPDEST SWAP5 POP POP POP JUMPDEST POP DUP1 PUSH2 0x9A6 DUP2 PUSH2 0x341E JUMP JUMPDEST SWAP2 POP POP PUSH2 0x922 JUMP JUMPDEST PUSH1 0x0 DUP2 GT PUSH2 0x9D7 JUMPI PUSH1 0x40 MLOAD PUSH3 0x461BCD PUSH1 0xE5 SHL DUP2 MSTORE PUSH1 0x4 ADD PUSH2 0x9CE SWAP1 PUSH2 0x34B5 JUMP JUMPDEST PUSH1 0x40 MLOAD DUP1 SWAP2 SUB SWAP1 REVERT JUMPDEST PUSH1 0x0 PUSH2 0xA3D CALLER PUSH1 0x2 DUP1 SLOAD DUP1 PUSH1 0x20 MUL PUSH1 0x20 ADD PUSH1 0x40 MLOAD SWAP1 DUP2 ADD PUSH1 0x40 MSTORE DUP1 SWAP3 SWAP2 SWAP1 DUP2 DUP2 MSTORE PUSH1 0x20 ADD DUP3 DUP1 SLOAD DUP1 ISZERO PUSH2 0xA33 JUMPI PUSH1 0x20 MUL DUP3 ADD SWAP2 SWAP1 PUSH1 0x0 MSTORE PUSH1 0x20 PUSH1 0x0 KECCAK256 SWAP1 JUMPDEST DUP2 SLOAD PUSH1 0x1 PUSH1 0x1 PUSH1 0xA0 SHL SUB AND DUP2 MSTORE PUSH1 0x1 SWAP1 SWAP2 ADD SWAP1 PUSH1 0x20 ADD DUP1 DUP4 GT PUSH2 0xA15 JUMPI JUMPDEST POP POP POP POP POP PUSH2 0x1E99 JUMP JUMPDEST SWAP1 POP PUSH1 0x0 DUP2 SLT ISZERO PUSH2 0xAAB JUMPI PUSH1 0x40 MLOAD PUSH3 0x461BCD PUSH1 0xE5 SHL DUP2 MSTORE PUSH1 0x20 PUSH1 0x4 DUP3 ADD MSTORE PUSH1 0x32 PUSH1 0x24 DUP3 ADD MSTORE PUSH32 0x557365722061646472657373206973206E6F7420666F756E6420696E20746865 PUSH1 0x44 DUP3 ADD MSTORE PUSH18 0x206C697374206F6620626F72726F77657273 PUSH1 0x70 SHL PUSH1 0x64 DUP3 ADD MSTORE PUSH1 0x84 ADD PUSH2 0x9CE JUMP JUMPDEST PUSH1 0x1 PUSH1 0x1 PUSH1 0xA0 SHL SUB DUP4 AND PUSH1 0x0 SWAP1 DUP2 MSTORE PUSH1 0x4 PUSH1 0x20 SWAP1 DUP2 MSTORE PUSH1 0x40 DUP1 DUP4 KECCAK256 CALLER DUP5 MSTORE SWAP1 SWAP2 MSTORE SWAP1 KECCAK256 SLOAD DUP1 PUSH2 0xB11 JUMPI PUSH1 0x40 MLOAD PUSH3 0x461BCD PUSH1 0xE5 SHL DUP2 MSTORE PUSH1 0x20 PUSH1 0x4 DUP3 ADD MSTORE PUSH1 0x12 PUSH1 0x24 DUP3 ADD MSTORE PUSH18 0x596F752020617265206E6F74206F77696E67 PUSH1 0x70 SHL PUSH1 0x44 DUP3 ADD MSTORE PUSH1 0x64 ADD PUSH2 0x9CE JUMP JUMPDEST DUP4 PUSH1 0x0 PUSH2 0xB1E DUP3 DUP5 PUSH2 0x8E4 JUMP JUMPDEST PUSH2 0xB28 SWAP1 DUP7 PUSH2 0x3406 JUMP JUMPDEST PUSH1 0x40 MLOAD PUSH4 0x23B872DD PUSH1 0xE0 SHL DUP2 MSTORE CALLER PUSH1 0x4 DUP3 ADD MSTORE ADDRESS PUSH1 0x24 DUP3 ADD MSTORE PUSH1 0x44 DUP2 ADD DUP3 SWAP1 MSTORE SWAP1 SWAP2 POP PUSH1 0x1 PUSH1 0x1 PUSH1 0xA0 SHL SUB DUP4 AND SWAP1 PUSH4 0x23B872DD SWAP1 PUSH1 0x64 ADD PUSH1 0x20 PUSH1 0x40 MLOAD DUP1 DUP4 SUB DUP2 PUSH1 0x0 DUP8 GAS CALL ISZERO DUP1 ISZERO PUSH2 0xB7E JUMPI RETURNDATASIZE PUSH1 0x0 DUP1 RETURNDATACOPY RETURNDATASIZE PUSH1 0x0 REVERT JUMPDEST POP POP POP POP PUSH1 0x40 MLOAD RETURNDATASIZE PUSH1 0x1F NOT PUSH1 0x1F DUP3 ADD AND DUP3 ADD DUP1 PUSH1 0x40 MSTORE POP DUP2 ADD SWAP1 PUSH2 0xBA2 SWAP2 SWAP1 PUSH2 0x34EC JUMP JUMPDEST POP PUSH1 0x1 PUSH1 0x1 PUSH1 0xA0 SHL SUB DUP7 AND PUSH1 0x0 SWAP1 DUP2 MSTORE PUSH1 0x4 PUSH1 0x20 SWAP1 DUP2 MSTORE PUSH1 0x40 DUP1 DUP4 KECCAK256 CALLER DUP5 MSTORE SWAP1 SWAP2 MSTORE SWAP1 KECCAK256 SLOAD PUSH2 0xBD2 SWAP1 DUP7 SWAP1 PUSH2 0x350E JUMP JUMPDEST PUSH1 0x1 PUSH1 0x1 PUSH1 0xA0 SHL SUB DUP8 AND PUSH1 0x0 SWAP1 DUP2 MSTORE PUSH1 0x4 PUSH1 0x20 SWAP1 DUP2 MSTORE PUSH1 0x40 DUP1 DUP4 KECCAK256 CALLER DUP1 DUP6 MSTORE SWAP3 MSTORE DUP3 KECCAK256 SWAP3 SWAP1 SWAP3 SSTORE SWAP1 PUSH2 0xC03 SWAP1 PUSH2 0x91D JUMP JUMPDEST SWAP1 POP DUP1 PUSH2 0xCB8 JUMPI PUSH1 0x2 DUP1 SLOAD PUSH2 0xC1A SWAP1 PUSH1 0x1 SWAP1 PUSH2 0x350E JUMP JUMPDEST DUP2 SLOAD DUP2 LT PUSH2 0xC2A JUMPI PUSH2 0xC2A PUSH2 0x33DA JUMP JUMPDEST PUSH1 0x0 SWAP2 DUP3 MSTORE PUSH1 0x20 SWAP1 SWAP2 KECCAK256 ADD SLOAD PUSH1 0x2 DUP1 SLOAD PUSH1 0x1 PUSH1 0x1 PUSH1 0xA0 SHL SUB SWAP1 SWAP3 AND SWAP2 DUP8 SWAP1 DUP2 LT PUSH2 0xC56 JUMPI PUSH2 0xC56 PUSH2 0x33DA JUMP JUMPDEST SWAP1 PUSH1 0x0 MSTORE PUSH1 0x20 PUSH1 0x0 KECCAK256 ADD PUSH1 0x0 PUSH2 0x100 EXP DUP2 SLOAD DUP2 PUSH1 0x1 PUSH1 0x1 PUSH1 0xA0 SHL SUB MUL NOT AND SWAP1 DUP4 PUSH1 0x1 PUSH1 0x1 PUSH1 0xA0 SHL SUB AND MUL OR SWAP1 SSTORE POP PUSH1 0x2 DUP1 SLOAD DUP1 PUSH2 0xC95 JUMPI PUSH2 0xC95 PUSH2 0x3525 JUMP JUMPDEST PUSH1 0x0 DUP3 DUP2 MSTORE PUSH1 0x20 SWAP1 KECCAK256 DUP2 ADD PUSH1 0x0 NOT SWAP1 DUP2 ADD DUP1 SLOAD PUSH1 0x1 PUSH1 0x1 PUSH1 0xA0 SHL SUB NOT AND SWAP1 SSTORE ADD SWAP1 SSTORE JUMPDEST POP POP POP POP POP POP POP JUMP JUMPDEST PUSH1 0x60 PUSH1 0x9 DUP1 SLOAD DUP1 PUSH1 0x20 MUL PUSH1 0x20 ADD PUSH1 0x40 MLOAD SWAP1 DUP2 ADD PUSH1 0x40 MSTORE DUP1 SWAP3 SWAP2 SWAP1 DUP2 DUP2 MSTORE PUSH1 0x20 ADD PUSH1 0x0 SWAP1 JUMPDEST DUP3 DUP3 LT ISZERO PUSH2 0xDD4 JUMPI PUSH1 0x0 DUP5 DUP2 MSTORE PUSH1 0x20 SWAP1 DUP2 SWAP1 KECCAK256 PUSH1 0x40 DUP1 MLOAD PUSH1 0x80 DUP2 ADD DUP3 MSTORE PUSH1 0x4 DUP7 MUL SWAP1 SWAP3 ADD DUP1 SLOAD PUSH1 0x1 PUSH1 0x1 PUSH1 0xA0 SHL SUB AND DUP4 MSTORE PUSH1 0x1 DUP2 ADD SLOAD SWAP4 DUP4 ADD SWAP4 SWAP1 SWAP4 MSTORE PUSH1 0x2 DUP4 ADD SLOAD SWAP1 DUP3 ADD MSTORE PUSH1 0x3 DUP3 ADD DUP1 SLOAD SWAP2 SWAP3 SWAP2 PUSH1 0x60 DUP5 ADD SWAP2 SWAP1 PUSH2 0xD43 SWAP1 PUSH2 0x3439 JUMP JUMPDEST DUP1 PUSH1 0x1F ADD PUSH1 0x20 DUP1 SWAP2 DIV MUL PUSH1 0x20 ADD PUSH1 0x40 MLOAD SWAP1 DUP2 ADD PUSH1 0x40 MSTORE DUP1 SWAP3 SWAP2 SWAP1 DUP2 DUP2 MSTORE PUSH1 0x20 ADD DUP3 DUP1 SLOAD PUSH2 0xD6F SWAP1 PUSH2 0x3439 JUMP JUMPDEST DUP1 ISZERO PUSH2 0xDBC JUMPI DUP1 PUSH1 0x1F LT PUSH2 0xD91 JUMPI PUSH2 0x100 DUP1 DUP4 SLOAD DIV MUL DUP4 MSTORE SWAP2 PUSH1 0x20 ADD SWAP2 PUSH2 0xDBC JUMP JUMPDEST DUP3 ADD SWAP2 SWAP1 PUSH1 0x0 MSTORE PUSH1 0x20 PUSH1 0x0 KECCAK256 SWAP1 JUMPDEST DUP2 SLOAD DUP2 MSTORE SWAP1 PUSH1 0x1 ADD SWAP1 PUSH1 0x20 ADD DUP1 DUP4 GT PUSH2 0xD9F JUMPI DUP3 SWAP1 SUB PUSH1 0x1F AND DUP3 ADD SWAP2 JUMPDEST POP POP POP POP POP DUP2 MSTORE POP POP DUP2 MSTORE PUSH1 0x20 ADD SWAP1 PUSH1 0x1 ADD SWAP1 PUSH2 0xCE5 JUMP JUMPDEST POP POP POP POP SWAP1 POP SWAP1 JUMP JUMPDEST PUSH1 0x60 PUSH1 0x1 DUP1 SLOAD DUP1 PUSH1 0x20 MUL PUSH1 0x20 ADD PUSH1 0x40 MLOAD SWAP1 DUP2 ADD PUSH1 0x40 MSTORE DUP1 SWAP3 SWAP2 SWAP1 DUP2 DUP2 MSTORE PUSH1 0x20 ADD DUP3 DUP1 SLOAD DUP1 ISZERO PUSH2 0xE35 JUMPI PUSH1 0x20 MUL DUP3 ADD SWAP2 SWAP1 PUSH1 0x0 MSTORE PUSH1 0x20 PUSH1 0x0 KECCAK256 SWAP1 JUMPDEST DUP2 SLOAD PUSH1 0x1 PUSH1 0x1 PUSH1 0xA0 SHL SUB AND DUP2 MSTORE PUSH1 0x1 SWAP1 SWAP2 ADD SWAP1 PUSH1 0x20 ADD DUP1 DUP4 GT PUSH2 0xE17 JUMPI JUMPDEST POP POP POP POP POP SWAP1 POP SWAP1 JUMP JUMPDEST PUSH1 0xA DUP2 DUP2 SLOAD DUP2 LT PUSH2 0x822 JUMPI PUSH1 0x0 DUP1 REVERT JUMPDEST PUSH2 0xF6D DUP2 PUSH1 0xA DUP1 SLOAD DUP1 PUSH1 0x20 MUL PUSH1 0x20 ADD PUSH1 0x40 MLOAD SWAP1 DUP2 ADD PUSH1 0x40 MSTORE DUP1 SWAP3 SWAP2 SWAP1 DUP2 DUP2 MSTORE PUSH1 0x20 ADD PUSH1 0x0 SWAP1 JUMPDEST DUP3 DUP3 LT ISZERO PUSH2 0xF64 JUMPI PUSH1 0x0 DUP5 DUP2 MSTORE PUSH1 0x20 SWAP1 DUP2 SWAP1 KECCAK256 PUSH1 0x40 DUP1 MLOAD PUSH1 0x80 DUP2 ADD DUP3 MSTORE PUSH1 0x4 DUP7 MUL SWAP1 SWAP3 ADD DUP1 SLOAD PUSH1 0x1 PUSH1 0x1 PUSH1 0xA0 SHL SUB AND DUP4 MSTORE PUSH1 0x1 DUP2 ADD SLOAD SWAP4 DUP4 ADD SWAP4 SWAP1 SWAP4 MSTORE PUSH1 0x2 DUP4 ADD SLOAD SWAP1 DUP3 ADD MSTORE PUSH1 0x3 DUP3 ADD DUP1 SLOAD SWAP2 SWAP3 SWAP2 PUSH1 0x60 DUP5 ADD SWAP2 SWAP1 PUSH2 0xED3 SWAP1 PUSH2 0x3439 JUMP JUMPDEST DUP1 PUSH1 0x1F ADD PUSH1 0x20 DUP1 SWAP2 DIV MUL PUSH1 0x20 ADD PUSH1 0x40 MLOAD SWAP1 DUP2 ADD PUSH1 0x40 MSTORE DUP1 SWAP3 SWAP2 SWAP1 DUP2 DUP2 MSTORE PUSH1 0x20 ADD DUP3 DUP1 SLOAD PUSH2 0xEFF SWAP1 PUSH2 0x3439 JUMP JUMPDEST DUP1 ISZERO PUSH2 0xF4C JUMPI DUP1 PUSH1 0x1F LT PUSH2 0xF21 JUMPI PUSH2 0x100 DUP1 DUP4 SLOAD DIV MUL DUP4 MSTORE SWAP2 PUSH1 0x20 ADD SWAP2 PUSH2 0xF4C JUMP JUMPDEST DUP3 ADD SWAP2 SWAP1 PUSH1 0x0 MSTORE PUSH1 0x20 PUSH1 0x0 KECCAK256 SWAP1 JUMPDEST DUP2 SLOAD DUP2 MSTORE SWAP1 PUSH1 0x1 ADD SWAP1 PUSH1 0x20 ADD DUP1 DUP4 GT PUSH2 0xF2F JUMPI DUP3 SWAP1 SUB PUSH1 0x1F AND DUP3 ADD SWAP2 JUMPDEST POP POP POP POP POP DUP2 MSTORE POP POP DUP2 MSTORE PUSH1 0x20 ADD SWAP1 PUSH1 0x1 ADD SWAP1 PUSH2 0xE75 JUMP JUMPDEST POP POP POP POP PUSH2 0x27F6 JUMP JUMPDEST PUSH2 0xFC5 JUMPI PUSH1 0x40 MLOAD PUSH3 0x461BCD PUSH1 0xE5 SHL DUP2 MSTORE PUSH1 0x20 PUSH1 0x4 DUP3 ADD MSTORE PUSH1 0x24 DUP1 DUP3 ADD MSTORE PUSH32 0x546F6B656E206973206E6F7420737570706F7274656420666F7220626F72726F PUSH1 0x44 DUP3 ADD MSTORE PUSH4 0x77696E67 PUSH1 0xE0 SHL PUSH1 0x64 DUP3 ADD MSTORE PUSH1 0x84 ADD PUSH2 0x9CE JUMP JUMPDEST PUSH1 0x0 DUP3 GT PUSH2 0xFE5 JUMPI PUSH1 0x40 MLOAD PUSH3 0x461BCD PUSH1 0xE5 SHL DUP2 MSTORE PUSH1 0x4 ADD PUSH2 0x9CE SWAP1 PUSH2 0x34B5 JUMP JUMPDEST PUSH1 0x0 PUSH2 0xFF0 CALLER PUSH2 0x1381 JUMP JUMPDEST SWAP1 POP PUSH1 0x0 PUSH2 0xFFE DUP5 DUP5 PUSH2 0x22B0 JUMP JUMPDEST SWAP1 POP DUP2 DUP2 GT ISZERO PUSH2 0x106F JUMPI PUSH1 0x40 MLOAD PUSH3 0x461BCD PUSH1 0xE5 SHL DUP2 MSTORE PUSH1 0x20 PUSH1 0x4 DUP3 ADD MSTORE PUSH1 0x36 PUSH1 0x24 DUP3 ADD MSTORE PUSH32 0x596F7520646F6E2774206861766520656E6F75676820636F6C6C61746572616C PUSH1 0x44 DUP3 ADD MSTORE PUSH22 0x81D1BC8189BDC9C9BDDC81D1A1A5CC8185B5BDD5B9D PUSH1 0x52 SHL PUSH1 0x64 DUP3 ADD MSTORE PUSH1 0x84 ADD PUSH2 0x9CE JUMP JUMPDEST PUSH1 0x40 MLOAD PUSH4 0x70A08231 PUSH1 0xE0 SHL DUP2 MSTORE ADDRESS PUSH1 0x4 DUP3 ADD MSTORE DUP4 SWAP1 DUP6 SWAP1 PUSH1 0x1 PUSH1 0x1 PUSH1 0xA0 SHL SUB DUP4 AND SWAP1 PUSH4 0x70A08231 SWAP1 PUSH1 0x24 ADD PUSH1 0x20 PUSH1 0x40 MLOAD DUP1 DUP4 SUB DUP2 DUP7 GAS STATICCALL ISZERO DUP1 ISZERO PUSH2 0x10B7 JUMPI RETURNDATASIZE PUSH1 0x0 DUP1 RETURNDATACOPY RETURNDATASIZE PUSH1 0x0 REVERT JUMPDEST POP POP POP POP PUSH1 0x40 MLOAD RETURNDATASIZE PUSH1 0x1F NOT PUSH1 0x1F DUP3 ADD AND DUP3 ADD DUP1 PUSH1 0x40 MSTORE POP DUP2 ADD SWAP1 PUSH2 0x10DB SWAP2 SWAP1 PUSH2 0x353B JUMP JUMPDEST GT PUSH2 0x1147 JUMPI PUSH1 0x40 MLOAD PUSH3 0x461BCD PUSH1 0xE5 SHL DUP2 MSTORE PUSH1 0x20 PUSH1 0x4 DUP3 ADD MSTORE PUSH1 0x36 PUSH1 0x24 DUP3 ADD MSTORE PUSH32 0x576520646F206E6F74206861766520656E6F756768206F66207468697320746F PUSH1 0x44 DUP3 ADD MSTORE PUSH22 0x35B2B7103337B9103CB7BA903A37903137B93937BB97 PUSH1 0x51 SHL PUSH1 0x64 DUP3 ADD MSTORE PUSH1 0x84 ADD PUSH2 0x9CE JUMP JUMPDEST PUSH1 0x40 MLOAD PUSH4 0xA9059CBB PUSH1 0xE0 SHL DUP2 MSTORE CALLER PUSH1 0x4 DUP3 ADD MSTORE PUSH1 0x24 DUP2 ADD DUP7 SWAP1 MSTORE PUSH1 0x1 PUSH1 0x1 PUSH1 0xA0 SHL SUB DUP3 AND SWAP1 PUSH4 0xA9059CBB SWAP1 PUSH1 0x44 ADD PUSH1 0x20 PUSH1 0x40 MLOAD DUP1 DUP4 SUB DUP2 PUSH1 0x0 DUP8 GAS CALL ISZERO DUP1 ISZERO PUSH2 0x1194 JUMPI RETURNDATASIZE PUSH1 0x0 DUP1 RETURNDATACOPY RETURNDATASIZE PUSH1 0x0 REVERT JUMPDEST POP POP POP POP PUSH1 0x40 MLOAD RETURNDATASIZE PUSH1 0x1F NOT PUSH1 0x1F DUP3 ADD AND DUP3 ADD DUP1 PUSH1 0x40 MSTORE POP DUP2 ADD SWAP1 PUSH2 0x11B8 SWAP2 SWAP1 PUSH2 0x34EC JUMP JUMPDEST POP PUSH1 0x0 DUP1 PUSH2 0x1220 CALLER PUSH1 0x2 DUP1 SLOAD DUP1 PUSH1 0x20 MUL PUSH1 0x20 ADD PUSH1 0x40 MLOAD SWAP1 DUP2 ADD PUSH1 0x40 MSTORE DUP1 SWAP3 SWAP2 SWAP1 DUP2 DUP2 MSTORE PUSH1 0x20 ADD DUP3 DUP1 SLOAD DUP1 ISZERO PUSH2 0x1216 JUMPI PUSH1 0x20 MUL DUP3 ADD SWAP2 SWAP1 PUSH1 0x0 MSTORE PUSH1 0x20 PUSH1 0x0 KECCAK256 SWAP1 JUMPDEST DUP2 SLOAD PUSH1 0x1 PUSH1 0x1 PUSH1 0xA0 SHL SUB AND DUP2 MSTORE PUSH1 0x1 SWAP1 SWAP2 ADD SWAP1 PUSH1 0x20 ADD DUP1 DUP4 GT PUSH2 0x11F8 JUMPI JUMPDEST POP POP POP POP POP PUSH2 0x2871 JUMP JUMPDEST SWAP2 POP SWAP2 POP DUP2 ISZERO PUSH2 0x125C JUMPI PUSH2 0x1257 DUP7 DUP9 DUP4 PUSH1 0x40 MLOAD DUP1 PUSH1 0x40 ADD PUSH1 0x40 MSTORE DUP1 PUSH1 0x9 DUP2 MSTORE PUSH1 0x20 ADD PUSH9 0x626F72726F77657273 PUSH1 0xB8 SHL DUP2 MSTORE POP PUSH2 0x28F3 JUMP JUMPDEST PUSH2 0xCB8 JUMP JUMPDEST PUSH1 0x2 DUP1 SLOAD PUSH1 0x1 DUP2 ADD SWAP1 SWAP2 SSTORE PUSH32 0x405787FA12A823E0F2B7631CC41B3BA8828B3321CA811111FA75CD3AA3BB5ACE ADD DUP1 SLOAD PUSH1 0x1 PUSH1 0x1 PUSH1 0xA0 SHL SUB NOT AND CALLER SWAP1 DUP2 OR SWAP1 SWAP2 SSTORE PUSH1 0x1 PUSH1 0x1 PUSH1 0xA0 SHL SUB DUP8 AND PUSH1 0x0 SWAP1 DUP2 MSTORE PUSH1 0x4 PUSH1 0x20 SWAP1 DUP2 MSTORE PUSH1 0x40 DUP1 DUP4 KECCAK256 SWAP4 DUP4 MSTORE SWAP3 SWAP1 MSTORE SWAP1 DUP2 KECCAK256 DUP9 SWAP1 SSTORE PUSH1 0xD DUP1 SLOAD DUP9 SWAP3 PUSH1 0x6 SWAP3 SWAP1 SWAP2 SWAP1 DUP3 PUSH2 0x12D9 DUP4 PUSH2 0x341E JUMP JUMPDEST SWAP1 SWAP2 SSTORE POP DUP2 MSTORE PUSH1 0x20 DUP1 DUP3 ADD SWAP3 SWAP1 SWAP3 MSTORE PUSH1 0x40 SWAP1 DUP2 ADD PUSH1 0x0 SWAP1 DUP2 KECCAK256 CALLER DUP3 MSTORE SWAP1 SWAP3 MSTORE SWAP1 KECCAK256 DUP1 SLOAD PUSH1 0x1 PUSH1 0x1 PUSH1 0xA0 SHL SUB NOT AND PUSH1 0x1 PUSH1 0x1 PUSH1 0xA0 SHL SUB SWAP3 SWAP1 SWAP3 AND SWAP2 SWAP1 SWAP2 OR SWAP1 SSTORE POP POP POP POP POP POP POP JUMP JUMPDEST PUSH1 0x0 SLOAD PUSH1 0x1 PUSH1 0x1 PUSH1 0xA0 SHL SUB AND CALLER EQ PUSH2 0x134B JUMPI PUSH1 0x40 MLOAD PUSH3 0x461BCD PUSH1 0xE5 SHL DUP2 MSTORE PUSH1 0x4 ADD PUSH2 0x9CE SWAP1 PUSH2 0x3554 JUMP JUMPDEST PUSH2 0x1355 PUSH1 0x0 PUSH2 0x2C35 JUMP JUMPDEST JUMP JUMPDEST PUSH1 0x2 DUP2 DUP2 SLOAD DUP2 LT PUSH2 0x1367 JUMPI PUSH1 0x0 DUP1 REVERT JUMPDEST PUSH1 0x0 SWAP2 DUP3 MSTORE PUSH1 0x20 SWAP1 SWAP2 KECCAK256 ADD SLOAD PUSH1 0x1 PUSH1 0x1 PUSH1 0xA0 SHL SUB AND SWAP1 POP DUP2 JUMP JUMPDEST PUSH1 0x0 DUP1 DUP1 JUMPDEST PUSH1 0xC SLOAD DUP2 LT ISZERO PUSH2 0x80A JUMPI PUSH1 0x0 DUP2 DUP2 MSTORE PUSH1 0x5 PUSH1 0x20 SWAP1 DUP2 MSTORE PUSH1 0x40 DUP1 DUP4 KECCAK256 PUSH1 0x1 PUSH1 0x1 PUSH1 0xA0 SHL SUB DUP1 DUP10 AND DUP6 MSTORE SWAP3 MSTORE SWAP1 SWAP2 KECCAK256 SLOAD AND DUP1 ISZERO PUSH2 0x14B6 JUMPI PUSH1 0x0 PUSH2 0x13C6 DUP3 PUSH2 0x22EE JUMP JUMPDEST PUSH1 0x20 DUP2 DUP2 ADD MLOAD PUSH1 0x1 PUSH1 0x1 PUSH1 0xA0 SHL SUB DUP6 DUP2 AND PUSH1 0x0 SWAP1 DUP2 MSTORE PUSH1 0x4 DUP5 MSTORE PUSH1 0x40 DUP1 DUP3 KECCAK256 SWAP3 DUP13 AND DUP3 MSTORE SWAP2 SWAP1 SWAP4 MSTORE DUP3 KECCAK256 SLOAD SWAP3 SWAP4 POP SWAP2 ISZERO ISZERO SWAP1 DUP2 PUSH2 0x1429 JUMPI POP PUSH1 0x1 PUSH1 0x1 PUSH1 0xA0 SHL SUB DUP1 DUP6 AND PUSH1 0x0 SWAP1 DUP2 MSTORE PUSH1 0x3 PUSH1 0x20 SWAP1 DUP2 MSTORE PUSH1 0x40 DUP1 DUP4 KECCAK256 SWAP4 DUP13 AND DUP4 MSTORE SWAP3 SWAP1 MSTORE KECCAK256 SLOAD PUSH2 0x1474 JUMP JUMPDEST PUSH1 0x1 PUSH1 0x1 PUSH1 0xA0 SHL SUB DUP1 DUP7 AND PUSH1 0x0 DUP2 DUP2 MSTORE PUSH1 0x4 PUSH1 0x20 SWAP1 DUP2 MSTORE PUSH1 0x40 DUP1 DUP4 KECCAK256 SWAP5 DUP15 AND DUP1 DUP5 MSTORE SWAP5 DUP3 MSTORE DUP1 DUP4 KECCAK256 SLOAD SWAP4 DUP4 MSTORE PUSH1 0x3 DUP3 MSTORE DUP1 DUP4 KECCAK256 SWAP5 DUP4 MSTORE SWAP4 SWAP1 MSTORE SWAP2 SWAP1 SWAP2 KECCAK256 SLOAD PUSH2 0x1471 SWAP2 SWAP1 PUSH2 0x350E JUMP JUMPDEST SWAP1 POP JUMPDEST PUSH1 0x0 PUSH2 0x1480 DUP3 DUP8 PUSH2 0x22B0 JUMP JUMPDEST SWAP1 POP PUSH1 0x0 PUSH8 0xDE0B6B3A7640000 PUSH2 0x1497 DUP7 DUP5 PUSH2 0x3474 JUMP JUMPDEST PUSH2 0x14A1 SWAP2 SWAP1 PUSH2 0x3493 JUMP JUMPDEST SWAP1 POP PUSH2 0x14AD DUP2 DUP11 PUSH2 0x3406 JUMP JUMPDEST SWAP9 POP POP POP POP POP POP POP JUMPDEST POP DUP1 PUSH2 0x14C1 DUP2 PUSH2 0x341E JUMP JUMPDEST SWAP2 POP POP PUSH2 0x1386 JUMP JUMPDEST PUSH1 0x60 PUSH1 0x2 DUP1 SLOAD DUP1 PUSH1 0x20 MUL PUSH1 0x20 ADD PUSH1 0x40 MLOAD SWAP1 DUP2 ADD PUSH1 0x40 MSTORE DUP1 SWAP3 SWAP2 SWAP1 DUP2 DUP2 MSTORE PUSH1 0x20 ADD DUP3 DUP1 SLOAD DUP1 ISZERO PUSH2 0xE35 JUMPI PUSH1 0x20 MUL DUP3 ADD SWAP2 SWAP1 PUSH1 0x0 MSTORE PUSH1 0x20 PUSH1 0x0 KECCAK256 SWAP1 DUP2 SLOAD PUSH1 0x1 PUSH1 0x1 PUSH1 0xA0 SHL SUB AND DUP2 MSTORE PUSH1 0x1 SWAP1 SWAP2 ADD SWAP1 PUSH1 0x20 ADD DUP1 DUP4 GT PUSH2 0xE17 JUMPI POP POP POP POP POP SWAP1 POP SWAP1 JUMP JUMPDEST PUSH1 0x1 DUP2 DUP2 SLOAD DUP2 LT PUSH2 0x1367 JUMPI PUSH1 0x0 DUP1 REVERT JUMPDEST PUSH2 0x164E DUP3 PUSH1 0x9 DUP1 SLOAD DUP1 PUSH1 0x20 MUL PUSH1 0x20 ADD PUSH1 0x40 MLOAD SWAP1 DUP2 ADD PUSH1 0x40 MSTORE DUP1 SWAP3 SWAP2 SWAP1 DUP2 DUP2 MSTORE PUSH1 0x20 ADD PUSH1 0x0 SWAP1 JUMPDEST DUP3 DUP3 LT ISZERO PUSH2 0xF64 JUMPI PUSH1 0x0 DUP5 DUP2 MSTORE PUSH1 0x20 SWAP1 DUP2 SWAP1 KECCAK256 PUSH1 0x40 DUP1 MLOAD PUSH1 0x80 DUP2 ADD DUP3 MSTORE PUSH1 0x4 DUP7 MUL SWAP1 SWAP3 ADD DUP1 SLOAD PUSH1 0x1 PUSH1 0x1 PUSH1 0xA0 SHL SUB AND DUP4 MSTORE PUSH1 0x1 DUP2 ADD SLOAD SWAP4 DUP4 ADD SWAP4 SWAP1 SWAP4 MSTORE PUSH1 0x2 DUP4 ADD SLOAD SWAP1 DUP3 ADD MSTORE PUSH1 0x3 DUP3 ADD DUP1 SLOAD SWAP2 SWAP3 SWAP2 PUSH1 0x60 DUP5 ADD SWAP2 SWAP1 PUSH2 0x15BD SWAP1 PUSH2 0x3439 JUMP JUMPDEST DUP1 PUSH1 0x1F ADD PUSH1 0x20 DUP1 SWAP2 DIV MUL PUSH1 0x20 ADD PUSH1 0x40 MLOAD SWAP1 DUP2 ADD PUSH1 0x40 MSTORE DUP1 SWAP3 SWAP2 SWAP1 DUP2 DUP2 MSTORE PUSH1 0x20 ADD DUP3 DUP1 SLOAD PUSH2 0x15E9 SWAP1 PUSH2 0x3439 JUMP JUMPDEST DUP1 ISZERO PUSH2 0x1636 JUMPI DUP1 PUSH1 0x1F LT PUSH2 0x160B JUMPI PUSH2 0x100 DUP1 DUP4 SLOAD DIV MUL DUP4 MSTORE SWAP2 PUSH1 0x20 ADD SWAP2 PUSH2 0x1636 JUMP JUMPDEST DUP3 ADD SWAP2 SWAP1 PUSH1 0x0 MSTORE PUSH1 0x20 PUSH1 0x0 KECCAK256 SWAP1 JUMPDEST DUP2 SLOAD DUP2 MSTORE SWAP1 PUSH1 0x1 ADD SWAP1 PUSH1 0x20 ADD DUP1 DUP4 GT PUSH2 0x1619 JUMPI DUP3 SWAP1 SUB PUSH1 0x1F AND DUP3 ADD SWAP2 JUMPDEST POP POP POP POP POP DUP2 MSTORE POP POP DUP2 MSTORE PUSH1 0x20 ADD SWAP1 PUSH1 0x1 ADD SWAP1 PUSH2 0x155F JUMP JUMPDEST PUSH2 0x1693 JUMPI PUSH1 0x40 MLOAD PUSH3 0x461BCD PUSH1 0xE5 SHL DUP2 MSTORE PUSH1 0x20 PUSH1 0x4 DUP3 ADD MSTORE PUSH1 0x16 PUSH1 0x24 DUP3 ADD MSTORE PUSH22 0x151BDAD95B881A5CC81B9BDD081CDD5C1C1BDC9D1959 PUSH1 0x52 SHL PUSH1 0x44 DUP3 ADD MSTORE PUSH1 0x64 ADD PUSH2 0x9CE JUMP JUMPDEST PUSH1 0x0 DUP2 GT PUSH2 0x16F9 JUMPI PUSH1 0x40 MLOAD PUSH3 0x461BCD PUSH1 0xE5 SHL DUP2 MSTORE PUSH1 0x20 PUSH1 0x4 DUP3 ADD MSTORE PUSH1 0x2D PUSH1 0x24 DUP3 ADD MSTORE PUSH32 0x54686520616D6F756E7420746F20737570706C792073686F756C642062652067 PUSH1 0x44 DUP3 ADD MSTORE PUSH13 0x726561746572207468616E203 PUSH1 0x9C SHL PUSH1 0x64 DUP3 ADD MSTORE PUSH1 0x84 ADD PUSH2 0x9CE JUMP JUMPDEST PUSH1 0x40 MLOAD PUSH4 0x70A08231 PUSH1 0xE0 SHL DUP2 MSTORE CALLER PUSH1 0x4 DUP3 ADD MSTORE DUP3 SWAP1 DUP3 SWAP1 PUSH1 0x1 PUSH1 0x1 PUSH1 0xA0 SHL SUB DUP4 AND SWAP1 PUSH4 0x70A08231 SWAP1 PUSH1 0x24 ADD PUSH1 0x20 PUSH1 0x40 MLOAD DUP1 DUP4 SUB DUP2 DUP7 GAS STATICCALL ISZERO DUP1 ISZERO PUSH2 0x1741 JUMPI RETURNDATASIZE PUSH1 0x0 DUP1 RETURNDATACOPY RETURNDATASIZE PUSH1 0x0 REVERT JUMPDEST POP POP POP POP PUSH1 0x40 MLOAD RETURNDATASIZE PUSH1 0x1F NOT PUSH1 0x1F DUP3 ADD AND DUP3 ADD DUP1 PUSH1 0x40 MSTORE POP DUP2 ADD SWAP1 PUSH2 0x1765 SWAP2 SWAP1 PUSH2 0x353B JUMP JUMPDEST LT ISZERO PUSH2 0x17CD JUMPI PUSH1 0x40 MLOAD PUSH3 0x461BCD PUSH1 0xE5 SHL DUP2 MSTORE PUSH1 0x20 PUSH1 0x4 DUP3 ADD MSTORE PUSH1 0x31 PUSH1 0x24 DUP3 ADD MSTORE PUSH32 0x596F75206861766520696E73756666696369656E7420746F6B656E20746F2073 PUSH1 0x44 DUP3 ADD MSTORE PUSH17 0x1D5C1C1B1E481D1A185D08185B5BDD5B9D PUSH1 0x7A SHL PUSH1 0x64 DUP3 ADD MSTORE PUSH1 0x84 ADD PUSH2 0x9CE JUMP JUMPDEST PUSH1 0x40 MLOAD PUSH4 0x23B872DD PUSH1 0xE0 SHL DUP2 MSTORE CALLER PUSH1 0x4 DUP3 ADD MSTORE ADDRESS PUSH1 0x24 DUP3 ADD MSTORE PUSH1 0x44 DUP2 ADD DUP4 SWAP1 MSTORE PUSH1 0x1 PUSH1 0x1 PUSH1 0xA0 SHL SUB DUP3 AND SWAP1 PUSH4 0x23B872DD SWAP1 PUSH1 0x64 ADD PUSH1 0x20 PUSH1 0x40 MLOAD DUP1 DUP4 SUB DUP2 PUSH1 0x0 DUP8 GAS CALL ISZERO DUP1 ISZERO PUSH2 0x1820 JUMPI RETURNDATASIZE PUSH1 0x0 DUP1 RETURNDATACOPY RETURNDATASIZE PUSH1 0x0 REVERT JUMPDEST POP POP POP POP PUSH1 0x40 MLOAD RETURNDATASIZE PUSH1 0x1F NOT PUSH1 0x1F DUP3 ADD AND DUP3 ADD DUP1 PUSH1 0x40 MSTORE POP DUP2 ADD SWAP1 PUSH2 0x1844 SWAP2 SWAP1 PUSH2 0x34EC JUMP JUMPDEST POP PUSH1 0x0 DUP1 PUSH2 0x18AA CALLER PUSH1 0x1 DUP1 SLOAD DUP1 PUSH1 0x20 MUL PUSH1 0x20 ADD PUSH1 0x40 MLOAD SWAP1 DUP2 ADD PUSH1 0x40 MSTORE DUP1 SWAP3 SWAP2 SWAP1 DUP2 DUP2 MSTORE PUSH1 0x20 ADD DUP3 DUP1 SLOAD DUP1 ISZERO PUSH2 0x1216 JUMPI PUSH1 0x20 MUL DUP3 ADD SWAP2 SWAP1 PUSH1 0x0 MSTORE PUSH1 0x20 PUSH1 0x0 KECCAK256 SWAP1 DUP2 SLOAD PUSH1 0x1 PUSH1 0x1 PUSH1 0xA0 SHL SUB AND DUP2 MSTORE PUSH1 0x1 SWAP1 SWAP2 ADD SWAP1 PUSH1 0x20 ADD DUP1 DUP4 GT PUSH2 0x11F8 JUMPI POP POP POP POP POP PUSH2 0x2871 JUMP JUMPDEST SWAP2 POP SWAP2 POP DUP2 ISZERO PUSH2 0x18E4 JUMPI PUSH2 0x18DF DUP6 DUP6 DUP4 PUSH1 0x40 MLOAD DUP1 PUSH1 0x40 ADD PUSH1 0x40 MSTORE DUP1 PUSH1 0x7 DUP2 MSTORE PUSH1 0x20 ADD PUSH7 0x6C656E64657273 PUSH1 0xC8 SHL DUP2 MSTORE POP PUSH2 0x28F3 JUMP JUMPDEST PUSH2 0x19A0 JUMP JUMPDEST PUSH1 0x1 DUP1 SLOAD DUP1 DUP3 ADD SWAP1 SWAP2 SSTORE PUSH32 0xB10E2D527612073B26EECDFD717E6A320CF44B4AFAC2B0732D9FCBE2B7FA0CF6 ADD DUP1 SLOAD PUSH1 0x1 PUSH1 0x1 PUSH1 0xA0 SHL SUB NOT AND CALLER SWAP1 DUP2 OR SWAP1 SWAP2 SSTORE PUSH1 0x1 PUSH1 0x1 PUSH1 0xA0 SHL SUB DUP7 AND PUSH1 0x0 SWAP1 DUP2 MSTORE PUSH1 0x3 PUSH1 0x20 SWAP1 DUP2 MSTORE PUSH1 0x40 DUP1 DUP4 KECCAK256 SWAP4 DUP4 MSTORE SWAP3 SWAP1 MSTORE SWAP1 DUP2 KECCAK256 DUP6 SWAP1 SSTORE PUSH1 0xC DUP1 SLOAD DUP8 SWAP3 PUSH1 0x5 SWAP3 SWAP1 SWAP2 SWAP1 DUP3 PUSH2 0x1960 DUP4 PUSH2 0x341E JUMP JUMPDEST SWAP1 SWAP2 SSTORE POP DUP2 MSTORE PUSH1 0x20 DUP1 DUP3 ADD SWAP3 SWAP1 SWAP3 MSTORE PUSH1 0x40 SWAP1 DUP2 ADD PUSH1 0x0 SWAP1 DUP2 KECCAK256 CALLER DUP3 MSTORE SWAP1 SWAP3 MSTORE SWAP1 KECCAK256 DUP1 SLOAD PUSH1 0x1 PUSH1 0x1 PUSH1 0xA0 SHL SUB NOT AND PUSH1 0x1 PUSH1 0x1 PUSH1 0xA0 SHL SUB SWAP3 SWAP1 SWAP3 AND SWAP2 SWAP1 SWAP2 OR SWAP1 SSTORE JUMPDEST PUSH2 0x19AB CALLER DUP7 DUP7 PUSH2 0x2C85 JUMP JUMPDEST POP POP POP POP POP JUMP JUMPDEST PUSH1 0x0 DUP1 DUP1 JUMPDEST PUSH1 0xC SLOAD DUP2 LT ISZERO PUSH2 0x80A JUMPI PUSH1 0x0 DUP2 DUP2 MSTORE PUSH1 0x5 PUSH1 0x20 SWAP1 DUP2 MSTORE PUSH1 0x40 DUP1 DUP4 KECCAK256 PUSH1 0x1 PUSH1 0x1 PUSH1 0xA0 SHL SUB DUP1 DUP10 AND DUP6 MSTORE SWAP3 MSTORE SWAP1 SWAP2 KECCAK256 SLOAD AND DUP1 ISZERO PUSH2 0x1A30 JUMPI PUSH1 0x1 PUSH1 0x1 PUSH1 0xA0 SHL SUB DUP1 DUP3 AND PUSH1 0x0 SWAP1 DUP2 MSTORE PUSH1 0x3 PUSH1 0x20 SWAP1 DUP2 MSTORE PUSH1 0x40 DUP1 DUP4 KECCAK256 SWAP4 DUP10 AND DUP4 MSTORE SWAP3 SWAP1 MSTORE SWAP1 DUP2 KECCAK256 SLOAD SWAP1 PUSH2 0x1A1F DUP3 DUP5 PUSH2 0x22B0 JUMP JUMPDEST SWAP1 POP PUSH2 0x1A2B DUP2 DUP7 PUSH2 0x3406 JUMP JUMPDEST SWAP5 POP POP POP JUMPDEST POP DUP1 PUSH2 0x1A3B DUP2 PUSH2 0x341E JUMP JUMPDEST SWAP2 POP POP PUSH2 0x19B7 JUMP JUMPDEST PUSH1 0x2 SLOAD PUSH1 0x0 SWAP1 DUP2 SWAP1 ISZERO PUSH2 0x80C JUMPI PUSH1 0x0 JUMPDEST PUSH1 0x2 SLOAD DUP2 LT ISZERO PUSH2 0x80A JUMPI PUSH1 0x0 PUSH1 0x2 DUP3 DUP2 SLOAD DUP2 LT PUSH2 0x1A72 JUMPI PUSH2 0x1A72 PUSH2 0x33DA JUMP JUMPDEST PUSH1 0x0 SWAP2 DUP3 MSTORE PUSH1 0x20 DUP1 DUP4 KECCAK256 SWAP1 SWAP2 ADD SLOAD PUSH1 0x1 PUSH1 0x1 PUSH1 0xA0 SHL SUB DUP9 DUP2 AND DUP5 MSTORE PUSH1 0x4 DUP4 MSTORE PUSH1 0x40 DUP1 DUP6 KECCAK256 SWAP2 SWAP1 SWAP3 AND DUP1 DUP6 MSTORE SWAP3 MSTORE SWAP1 SWAP2 KECCAK256 SLOAD SWAP1 SWAP2 POP PUSH2 0x1AB0 SWAP1 DUP5 PUSH2 0x3406 JUMP JUMPDEST SWAP3 POP POP DUP1 DUP1 PUSH2 0x1ABE SWAP1 PUSH2 0x341E JUMP JUMPDEST SWAP2 POP POP PUSH2 0x1A53 JUMP JUMPDEST PUSH1 0x0 SLOAD PUSH1 0x1 PUSH1 0x1 PUSH1 0xA0 SHL SUB AND CALLER EQ PUSH2 0x1AF0 JUMPI PUSH1 0x40 MLOAD PUSH3 0x461BCD PUSH1 0xE5 SHL DUP2 MSTORE PUSH1 0x4 ADD PUSH2 0x9CE SWAP1 PUSH2 0x3554 JUMP JUMPDEST PUSH1 0x1 PUSH1 0x1 PUSH1 0xA0 SHL SUB SWAP2 DUP3 AND PUSH1 0x0 SWAP1 DUP2 MSTORE PUSH1 0x7 PUSH1 0x20 MSTORE PUSH1 0x40 SWAP1 KECCAK256 DUP1 SLOAD PUSH1 0x1 PUSH1 0x1 PUSH1 0xA0 SHL SUB NOT AND SWAP2 SWAP1 SWAP3 AND OR SWAP1 SSTORE JUMP JUMPDEST PUSH1 0x0 SLOAD PUSH1 0x1 PUSH1 0x1 PUSH1 0xA0 SHL SUB AND CALLER EQ PUSH2 0x1B48 JUMPI PUSH1 0x40 MLOAD PUSH3 0x461BCD PUSH1 0xE5 SHL DUP2 MSTORE PUSH1 0x4 ADD PUSH2 0x9CE SWAP1 PUSH2 0x3554 JUMP JUMPDEST PUSH1 0x0 PUSH1 0x40 MLOAD DUP1 PUSH1 0x80 ADD PUSH1 0x40 MSTORE DUP1 DUP6 PUSH1 0x1 PUSH1 0x1 PUSH1 0xA0 SHL SUB AND DUP2 MSTORE PUSH1 0x20 ADD DUP5 DUP2 MSTORE PUSH1 0x20 ADD DUP4 DUP2 MSTORE PUSH1 0x20 ADD DUP7 DUP2 MSTORE POP SWAP1 POP PUSH2 0x1C94 DUP2 PUSH1 0x9 DUP1 SLOAD DUP1 PUSH1 0x20 MUL PUSH1 0x20 ADD PUSH1 0x40 MLOAD SWAP1 DUP2 ADD PUSH1 0x40 MSTORE DUP1 SWAP3 SWAP2 SWAP1 DUP2 DUP2 MSTORE PUSH1 0x20 ADD PUSH1 0x0 SWAP1 JUMPDEST DUP3 DUP3 LT ISZERO PUSH2 0x1C8B JUMPI PUSH1 0x0 DUP5 DUP2 MSTORE PUSH1 0x20 SWAP1 DUP2 SWAP1 KECCAK256 PUSH1 0x40 DUP1 MLOAD PUSH1 0x80 DUP2 ADD DUP3 MSTORE PUSH1 0x4 DUP7 MUL SWAP1 SWAP3 ADD DUP1 SLOAD PUSH1 0x1 PUSH1 0x1 PUSH1 0xA0 SHL SUB AND DUP4 MSTORE PUSH1 0x1 DUP2 ADD SLOAD SWAP4 DUP4 ADD SWAP4 SWAP1 SWAP4 MSTORE PUSH1 0x2 DUP4 ADD SLOAD SWAP1 DUP3 ADD MSTORE PUSH1 0x3 DUP3 ADD DUP1 SLOAD SWAP2 SWAP3 SWAP2 PUSH1 0x60 DUP5 ADD SWAP2 SWAP1 PUSH2 0x1BFA SWAP1 PUSH2 0x3439 JUMP JUMPDEST DUP1 PUSH1 0x1F ADD PUSH1 0x20 DUP1 SWAP2 DIV MUL PUSH1 0x20 ADD PUSH1 0x40 MLOAD SWAP1 DUP2 ADD PUSH1 0x40 MSTORE DUP1 SWAP3 SWAP2 SWAP1 DUP2 DUP2 MSTORE PUSH1 0x20 ADD DUP3 DUP1 SLOAD PUSH2 0x1C26 SWAP1 PUSH2 0x3439 JUMP JUMPDEST DUP1 ISZERO PUSH2 0x1C73 JUMPI DUP1 PUSH1 0x1F LT PUSH2 0x1C48 JUMPI PUSH2 0x100 DUP1 DUP4 SLOAD DIV MUL DUP4 MSTORE SWAP2 PUSH1 0x20 ADD SWAP2 PUSH2 0x1C73 JUMP JUMPDEST DUP3 ADD SWAP2 SWAP1 PUSH1 0x0 MSTORE PUSH1 0x20 PUSH1 0x0 KECCAK256 SWAP1 JUMPDEST DUP2 SLOAD DUP2 MSTORE SWAP1 PUSH1 0x1 ADD SWAP1 PUSH1 0x20 ADD DUP1 DUP4 GT PUSH2 0x1C56 JUMPI DUP3 SWAP1 SUB PUSH1 0x1F AND DUP3 ADD SWAP2 JUMPDEST POP POP POP POP POP DUP2 MSTORE POP POP DUP2 MSTORE PUSH1 0x20 ADD SWAP1 PUSH1 0x1 ADD SWAP1 PUSH2 0x1B9C JUMP JUMPDEST POP POP POP POP PUSH2 0x2D2A JUMP JUMPDEST PUSH2 0x19AB JUMPI PUSH1 0x9 DUP1 SLOAD PUSH1 0x1 DUP2 ADD DUP3 SSTORE PUSH1 0x0 SWAP2 SWAP1 SWAP2 MSTORE DUP2 MLOAD PUSH32 0x6E1540171B6C0C960B71A7020D9F60077F6AF931A8BBF590DA0223DACF75C7AF PUSH1 0x4 SWAP1 SWAP3 MUL SWAP2 DUP3 ADD DUP1 SLOAD PUSH1 0x1 PUSH1 0x1 PUSH1 0xA0 SHL SUB NOT AND PUSH1 0x1 PUSH1 0x1 PUSH1 0xA0 SHL SUB SWAP1 SWAP3 AND SWAP2 SWAP1 SWAP2 OR DUP2 SSTORE PUSH1 0x20 DUP1 DUP5 ADD MLOAD PUSH32 0x6E1540171B6C0C960B71A7020D9F60077F6AF931A8BBF590DA0223DACF75C7B0 DUP5 ADD SSTORE PUSH1 0x40 DUP5 ADD MLOAD PUSH32 0x6E1540171B6C0C960B71A7020D9F60077F6AF931A8BBF590DA0223DACF75C7B1 DUP5 ADD SSTORE PUSH1 0x60 DUP5 ADD MLOAD DUP1 MLOAD DUP6 SWAP5 PUSH2 0x1D7C SWAP4 PUSH32 0x6E1540171B6C0C960B71A7020D9F60077F6AF931A8BBF590DA0223DACF75C7B2 SWAP1 SWAP2 ADD SWAP3 ADD SWAP1 PUSH2 0x2F2B JUMP JUMPDEST POP POP POP POP POP POP POP POP JUMP JUMPDEST PUSH1 0x60 PUSH1 0xA DUP1 SLOAD DUP1 PUSH1 0x20 MUL PUSH1 0x20 ADD PUSH1 0x40 MLOAD SWAP1 DUP2 ADD PUSH1 0x40 MSTORE DUP1 SWAP3 SWAP2 SWAP1 DUP2 DUP2 MSTORE PUSH1 0x20 ADD PUSH1 0x0 SWAP1 JUMPDEST DUP3 DUP3 LT ISZERO PUSH2 0xDD4 JUMPI PUSH1 0x0 DUP5 DUP2 MSTORE PUSH1 0x20 SWAP1 DUP2 SWAP1 KECCAK256 PUSH1 0x40 DUP1 MLOAD PUSH1 0x80 DUP2 ADD DUP3 MSTORE PUSH1 0x4 DUP7 MUL SWAP1 SWAP3 ADD DUP1 SLOAD PUSH1 0x1 PUSH1 0x1 PUSH1 0xA0 SHL SUB AND DUP4 MSTORE PUSH1 0x1 DUP2 ADD SLOAD SWAP4 DUP4 ADD SWAP4 SWAP1 SWAP4 MSTORE PUSH1 0x2 DUP4 ADD SLOAD SWAP1 DUP3 ADD MSTORE PUSH1 0x3 DUP3 ADD DUP1 SLOAD SWAP2 SWAP3 SWAP2 PUSH1 0x60 DUP5 ADD SWAP2 SWAP1 PUSH2 0x1E08 SWAP1 PUSH2 0x3439 JUMP JUMPDEST DUP1 PUSH1 0x1F ADD PUSH1 0x20 DUP1 SWAP2 DIV MUL PUSH1 0x20 ADD PUSH1 0x40 MLOAD SWAP1 DUP2 ADD PUSH1 0x40 MSTORE DUP1 SWAP3 SWAP2 SWAP1 DUP2 DUP2 MSTORE PUSH1 0x20 ADD DUP3 DUP1 SLOAD PUSH2 0x1E34 SWAP1 PUSH2 0x3439 JUMP JUMPDEST DUP1 ISZERO PUSH2 0x1E81 JUMPI DUP1 PUSH1 0x1F LT PUSH2 0x1E56 JUMPI PUSH2 0x100 DUP1 DUP4 SLOAD DIV MUL DUP4 MSTORE SWAP2 PUSH1 0x20 ADD SWAP2 PUSH2 0x1E81 JUMP JUMPDEST DUP3 ADD SWAP2 SWAP1 PUSH1 0x0 MSTORE PUSH1 0x20 PUSH1 0x0 KECCAK256 SWAP1 JUMPDEST DUP2 SLOAD DUP2 MSTORE SWAP1 PUSH1 0x1 ADD SWAP1 PUSH1 0x20 ADD DUP1 DUP4 GT PUSH2 0x1E64 JUMPI DUP3 SWAP1 SUB PUSH1 0x1F AND DUP3 ADD SWAP2 JUMPDEST POP POP POP POP POP DUP2 MSTORE POP POP DUP2 MSTORE PUSH1 0x20 ADD SWAP1 PUSH1 0x1 ADD SWAP1 PUSH2 0x1DAA JUMP JUMPDEST PUSH1 0x0 PUSH1 0x0 NOT DUP2 JUMPDEST DUP4 MLOAD DUP2 LT ISZERO PUSH2 0x1EFE JUMPI PUSH1 0x0 DUP5 DUP3 DUP2 MLOAD DUP2 LT PUSH2 0x1EBD JUMPI PUSH2 0x1EBD PUSH2 0x33DA JUMP JUMPDEST PUSH1 0x20 MUL PUSH1 0x20 ADD ADD MLOAD SWAP1 POP DUP6 PUSH1 0x1 PUSH1 0x1 PUSH1 0xA0 SHL SUB AND DUP2 PUSH1 0x1 PUSH1 0x1 PUSH1 0xA0 SHL SUB AND EQ ISZERO PUSH2 0x1EEB JUMPI POP SWAP2 POP PUSH2 0x80C SWAP1 POP JUMP JUMPDEST POP DUP1 PUSH2 0x1EF6 DUP2 PUSH2 0x341E JUMP JUMPDEST SWAP2 POP POP PUSH2 0x1EA0 JUMP JUMPDEST POP SWAP4 SWAP3 POP POP POP JUMP JUMPDEST PUSH1 0x0 SLOAD PUSH1 0x1 PUSH1 0x1 PUSH1 0xA0 SHL SUB AND CALLER EQ PUSH2 0x1F30 JUMPI PUSH1 0x40 MLOAD PUSH3 0x461BCD PUSH1 0xE5 SHL DUP2 MSTORE PUSH1 0x4 ADD PUSH2 0x9CE SWAP1 PUSH2 0x3554 JUMP JUMPDEST PUSH1 0x1 PUSH1 0x1 PUSH1 0xA0 SHL SUB DUP2 AND PUSH2 0x1F95 JUMPI PUSH1 0x40 MLOAD PUSH3 0x461BCD PUSH1 0xE5 SHL DUP2 MSTORE PUSH1 0x20 PUSH1 0x4 DUP3 ADD MSTORE PUSH1 0x26 PUSH1 0x24 DUP3 ADD MSTORE PUSH32 0x4F776E61626C653A206E6577206F776E657220697320746865207A65726F2061 PUSH1 0x44 DUP3 ADD MSTORE PUSH6 0x646472657373 PUSH1 0xD0 SHL PUSH1 0x64 DUP3 ADD MSTORE PUSH1 0x84 ADD PUSH2 0x9CE JUMP JUMPDEST PUSH2 0x1F9E DUP2 PUSH2 0x2C35 JUMP JUMPDEST POP JUMP JUMPDEST PUSH1 0x0 DUP2 GT PUSH2 0x1FC1 JUMPI PUSH1 0x40 MLOAD PUSH3 0x461BCD PUSH1 0xE5 SHL DUP2 MSTORE PUSH1 0x4 ADD PUSH2 0x9CE SWAP1 PUSH2 0x34B5 JUMP JUMPDEST PUSH1 0x0 PUSH2 0x2025 CALLER PUSH1 0x1 DUP1 SLOAD DUP1 PUSH1 0x20 MUL PUSH1 0x20 ADD PUSH1 0x40 MLOAD SWAP1 DUP2 ADD PUSH1 0x40 MSTORE DUP1 SWAP3 SWAP2 SWAP1 DUP2 DUP2 MSTORE PUSH1 0x20 ADD DUP3 DUP1 SLOAD DUP1 ISZERO PUSH2 0xA33 JUMPI PUSH1 0x20 MUL DUP3 ADD SWAP2 SWAP1 PUSH1 0x0 MSTORE PUSH1 0x20 PUSH1 0x0 KECCAK256 SWAP1 DUP2 SLOAD PUSH1 0x1 PUSH1 0x1 PUSH1 0xA0 SHL SUB AND DUP2 MSTORE PUSH1 0x1 SWAP1 SWAP2 ADD SWAP1 PUSH1 0x20 ADD DUP1 DUP4 GT PUSH2 0xA15 JUMPI POP POP POP POP POP PUSH2 0x1E99 JUMP JUMPDEST SWAP1 POP PUSH1 0x0 DUP2 SLT ISZERO PUSH2 0x2091 JUMPI PUSH1 0x40 MLOAD PUSH3 0x461BCD PUSH1 0xE5 SHL DUP2 MSTORE PUSH1 0x20 PUSH1 0x4 DUP3 ADD MSTORE PUSH1 0x30 PUSH1 0x24 DUP3 ADD MSTORE PUSH32 0x557365722061646472657373206973206E6F7420666F756E6420696E20746865 PUSH1 0x44 DUP3 ADD MSTORE PUSH16 0x206C697374206F66206C656E64657273 PUSH1 0x80 SHL PUSH1 0x64 DUP3 ADD MSTORE PUSH1 0x84 ADD PUSH2 0x9CE JUMP JUMPDEST PUSH1 0x1 PUSH1 0x1 PUSH1 0xA0 SHL SUB DUP4 AND PUSH1 0x0 SWAP1 DUP2 MSTORE PUSH1 0x3 PUSH1 0x20 SWAP1 DUP2 MSTORE PUSH1 0x40 DUP1 DUP4 KECCAK256 CALLER DUP5 MSTORE SWAP1 SWAP2 MSTORE SWAP1 KECCAK256 SLOAD DUP4 SWAP1 DUP4 DUP2 LT ISZERO PUSH2 0x20C4 JUMPI PUSH1 0x0 DUP1 REVERT JUMPDEST PUSH1 0x0 PUSH2 0x20D0 DUP6 DUP8 PUSH2 0x22B0 JUMP JUMPDEST PUSH1 0xB SLOAD PUSH1 0x40 MLOAD PUSH4 0x23B872DD PUSH1 0xE0 SHL DUP2 MSTORE CALLER PUSH1 0x4 DUP3 ADD MSTORE ADDRESS PUSH1 0x24 DUP3 ADD MSTORE PUSH1 0x44 DUP2 ADD DUP4 SWAP1 MSTORE SWAP2 SWAP3 POP PUSH1 0x1 PUSH1 0x1 PUSH1 0xA0 SHL SUB AND SWAP1 PUSH4 0x23B872DD SWAP1 PUSH1 0x64 ADD PUSH1 0x20 PUSH1 0x40 MLOAD DUP1 DUP4 SUB DUP2 PUSH1 0x0 DUP8 GAS CALL ISZERO DUP1 ISZERO PUSH2 0x2128 JUMPI RETURNDATASIZE PUSH1 0x0 DUP1 RETURNDATACOPY RETURNDATASIZE PUSH1 0x0 REVERT JUMPDEST POP POP POP POP PUSH1 0x40 MLOAD RETURNDATASIZE PUSH1 0x1F NOT PUSH1 0x1F DUP3 ADD AND DUP3 ADD DUP1 PUSH1 0x40 MSTORE POP DUP2 ADD SWAP1 PUSH2 0x214C SWAP2 SWAP1 PUSH2 0x34EC JUMP JUMPDEST POP PUSH1 0x40 MLOAD PUSH4 0xA9059CBB PUSH1 0xE0 SHL DUP2 MSTORE CALLER PUSH1 0x4 DUP3 ADD MSTORE PUSH1 0x24 DUP2 ADD DUP7 SWAP1 MSTORE PUSH1 0x1 PUSH1 0x1 PUSH1 0xA0 SHL SUB DUP5 AND SWAP1 PUSH4 0xA9059CBB SWAP1 PUSH1 0x44 ADD PUSH1 0x20 PUSH1 0x40 MLOAD DUP1 DUP4 SUB DUP2 PUSH1 0x0 DUP8 GAS CALL ISZERO DUP1 ISZERO PUSH2 0x219A JUMPI RETURNDATASIZE PUSH1 0x0 DUP1 RETURNDATACOPY RETURNDATASIZE PUSH1 0x0 REVERT JUMPDEST POP POP POP POP PUSH1 0x40 MLOAD RETURNDATASIZE PUSH1 0x1F NOT PUSH1 0x1F DUP3 ADD AND DUP3 ADD DUP1 PUSH1 0x40 MSTORE POP DUP2 ADD SWAP1 PUSH2 0x21BE SWAP2 SWAP1 PUSH2 0x34EC JUMP JUMPDEST POP PUSH1 0x1 PUSH1 0x1 PUSH1 0xA0 SHL SUB DUP7 AND PUSH1 0x0 SWAP1 DUP2 MSTORE PUSH1 0x3 PUSH1 0x20 SWAP1 DUP2 MSTORE PUSH1 0x40 DUP1 DUP4 KECCAK256 CALLER DUP5 MSTORE SWAP1 SWAP2 MSTORE SWAP1 KECCAK256 SLOAD PUSH2 0x21EE SWAP1 DUP7 SWAP1 PUSH2 0x350E JUMP JUMPDEST PUSH1 0x1 PUSH1 0x1 PUSH1 0xA0 SHL SUB DUP8 AND PUSH1 0x0 SWAP1 DUP2 MSTORE PUSH1 0x3 PUSH1 0x20 SWAP1 DUP2 MSTORE PUSH1 0x40 DUP1 DUP4 KECCAK256 CALLER DUP1 DUP6 MSTORE SWAP3 MSTORE DUP3 KECCAK256 SWAP3 SWAP1 SWAP3 SSTORE SWAP1 PUSH2 0x221F SWAP1 PUSH2 0x19B2 JUMP JUMPDEST SWAP1 POP DUP1 PUSH2 0xCB8 JUMPI PUSH1 0x1 DUP1 SLOAD PUSH2 0x2235 SWAP1 DUP3 SWAP1 PUSH2 0x350E JUMP JUMPDEST DUP2 SLOAD DUP2 LT PUSH2 0x2245 JUMPI PUSH2 0x2245 PUSH2 0x33DA JUMP JUMPDEST PUSH1 0x0 SWAP2 DUP3 MSTORE PUSH1 0x20 SWAP1 SWAP2 KECCAK256 ADD SLOAD PUSH1 0x1 DUP1 SLOAD PUSH1 0x1 PUSH1 0x1 PUSH1 0xA0 SHL SUB SWAP1 SWAP3 AND SWAP2 DUP8 SWAP1 DUP2 LT PUSH2 0x2271 JUMPI PUSH2 0x2271 PUSH2 0x33DA JUMP JUMPDEST SWAP1 PUSH1 0x0 MSTORE PUSH1 0x20 PUSH1 0x0 KECCAK256 ADD PUSH1 0x0 PUSH2 0x100 EXP DUP2 SLOAD DUP2 PUSH1 0x1 PUSH1 0x1 PUSH1 0xA0 SHL SUB MUL NOT AND SWAP1 DUP4 PUSH1 0x1 PUSH1 0x1 PUSH1 0xA0 SHL SUB AND MUL OR SWAP1 SSTORE POP PUSH1 0x1 DUP1 SLOAD DUP1 PUSH2 0xC95 JUMPI PUSH2 0xC95 PUSH2 0x3525 JUMP JUMPDEST PUSH1 0x0 DUP1 PUSH1 0x0 PUSH2 0x22BE DUP5 PUSH2 0x24A0 JUMP JUMPDEST SWAP1 SWAP3 POP SWAP1 POP PUSH1 0x0 PUSH2 0x22D0 DUP3 PUSH1 0xA PUSH2 0x366D JUMP JUMPDEST PUSH2 0x22DA DUP5 DUP9 PUSH2 0x3474 JUMP JUMPDEST PUSH2 0x22E4 SWAP2 SWAP1 PUSH2 0x3493 JUMP JUMPDEST SWAP7 SWAP6 POP POP POP POP POP POP JUMP JUMPDEST PUSH2 0x2322 PUSH1 0x40 MLOAD DUP1 PUSH1 0x80 ADD PUSH1 0x40 MSTORE DUP1 PUSH1 0x0 PUSH1 0x1 PUSH1 0x1 PUSH1 0xA0 SHL SUB AND DUP2 MSTORE PUSH1 0x20 ADD PUSH1 0x0 DUP2 MSTORE PUSH1 0x20 ADD PUSH1 0x0 DUP2 MSTORE PUSH1 0x20 ADD PUSH1 0x60 DUP2 MSTORE POP SWAP1 JUMP JUMPDEST PUSH2 0x2356 PUSH1 0x40 MLOAD DUP1 PUSH1 0x80 ADD PUSH1 0x40 MSTORE DUP1 PUSH1 0x0 PUSH1 0x1 PUSH1 0x1 PUSH1 0xA0 SHL SUB AND DUP2 MSTORE PUSH1 0x20 ADD PUSH1 0x0 DUP2 MSTORE PUSH1 0x20 ADD PUSH1 0x0 DUP2 MSTORE PUSH1 0x20 ADD PUSH1 0x60 DUP2 MSTORE POP SWAP1 JUMP JUMPDEST PUSH1 0x0 JUMPDEST PUSH1 0xA SLOAD DUP2 LT ISZERO PUSH2 0x80A JUMPI PUSH1 0x0 PUSH1 0xA DUP3 DUP2 SLOAD DUP2 LT PUSH2 0x2378 JUMPI PUSH2 0x2378 PUSH2 0x33DA JUMP JUMPDEST SWAP1 PUSH1 0x0 MSTORE PUSH1 0x20 PUSH1 0x0 KECCAK256 SWAP1 PUSH1 0x4 MUL ADD PUSH1 0x40 MLOAD DUP1 PUSH1 0x80 ADD PUSH1 0x40 MSTORE SWAP1 DUP2 PUSH1 0x0 DUP3 ADD PUSH1 0x0 SWAP1 SLOAD SWAP1 PUSH2 0x100 EXP SWAP1 DIV PUSH1 0x1 PUSH1 0x1 PUSH1 0xA0 SHL SUB AND PUSH1 0x1 PUSH1 0x1 PUSH1 0xA0 SHL SUB AND PUSH1 0x1 PUSH1 0x1 PUSH1 0xA0 SHL SUB AND DUP2 MSTORE PUSH1 0x20 ADD PUSH1 0x1 DUP3 ADD SLOAD DUP2 MSTORE PUSH1 0x20 ADD PUSH1 0x2 DUP3 ADD SLOAD DUP2 MSTORE PUSH1 0x20 ADD PUSH1 0x3 DUP3 ADD DUP1 SLOAD PUSH2 0x23E4 SWAP1 PUSH2 0x3439 JUMP JUMPDEST DUP1 PUSH1 0x1F ADD PUSH1 0x20 DUP1 SWAP2 DIV MUL PUSH1 0x20 ADD PUSH1 0x40 MLOAD SWAP1 DUP2 ADD PUSH1 0x40 MSTORE DUP1 SWAP3 SWAP2 SWAP1 DUP2 DUP2 MSTORE PUSH1 0x20 ADD DUP3 DUP1 SLOAD PUSH2 0x2410 SWAP1 PUSH2 0x3439 JUMP JUMPDEST DUP1 ISZERO PUSH2 0x245D JUMPI DUP1 PUSH1 0x1F LT PUSH2 0x2432 JUMPI PUSH2 0x100 DUP1 DUP4 SLOAD DIV MUL DUP4 MSTORE SWAP2 PUSH1 0x20 ADD SWAP2 PUSH2 0x245D JUMP JUMPDEST DUP3 ADD SWAP2 SWAP1 PUSH1 0x0 MSTORE PUSH1 0x20 PUSH1 0x0 KECCAK256 SWAP1 JUMPDEST DUP2 SLOAD DUP2 MSTORE SWAP1 PUSH1 0x1 ADD SWAP1 PUSH1 0x20 ADD DUP1 DUP4 GT PUSH2 0x2440 JUMPI DUP3 SWAP1 SUB PUSH1 0x1F AND DUP3 ADD SWAP2 JUMPDEST POP POP POP POP POP DUP2 MSTORE POP POP SWAP1 POP DUP5 PUSH1 0x1 PUSH1 0x1 PUSH1 0xA0 SHL SUB AND DUP2 PUSH1 0x0 ADD MLOAD PUSH1 0x1 PUSH1 0x1 PUSH1 0xA0 SHL SUB AND EQ ISZERO PUSH2 0x248D JUMPI SWAP2 POP PUSH2 0x80A JUMP JUMPDEST POP DUP1 PUSH2 0x2498 DUP2 PUSH2 0x341E JUMP JUMPDEST SWAP2 POP POP PUSH2 0x2359 JUMP JUMPDEST PUSH1 0x1 PUSH1 0x1 PUSH1 0xA0 SHL SUB DUP1 DUP3 AND PUSH1 0x0 SWAP1 DUP2 MSTORE PUSH1 0x7 PUSH1 0x20 MSTORE PUSH1 0x40 DUP1 DUP3 KECCAK256 SLOAD DUP2 MLOAD PUSH4 0x3FABE5A3 PUSH1 0xE2 SHL DUP2 MSTORE SWAP2 MLOAD SWAP3 SWAP4 DUP5 SWAP4 SWAP2 AND SWAP2 DUP3 SWAP2 DUP5 SWAP2 DUP4 SWAP2 PUSH4 0xFEAF968C SWAP2 PUSH1 0x4 DUP1 DUP3 ADD SWAP3 PUSH1 0xA0 SWAP3 SWAP1 SWAP2 SWAP1 DUP3 SWAP1 SUB ADD DUP2 DUP7 GAS STATICCALL ISZERO DUP1 ISZERO PUSH2 0x2501 JUMPI RETURNDATASIZE PUSH1 0x0 DUP1 RETURNDATACOPY RETURNDATASIZE PUSH1 0x0 REVERT JUMPDEST POP POP POP POP PUSH1 0x40 MLOAD RETURNDATASIZE PUSH1 0x1F NOT PUSH1 0x1F DUP3 ADD AND DUP3 ADD DUP1 PUSH1 0x40 MSTORE POP DUP2 ADD SWAP1 PUSH2 0x2525 SWAP2 SWAP1 PUSH2 0x3693 JUMP JUMPDEST POP POP POP SWAP2 POP POP PUSH1 0x0 DUP3 PUSH1 0x1 PUSH1 0x1 PUSH1 0xA0 SHL SUB AND PUSH4 0x313CE567 PUSH1 0x40 MLOAD DUP2 PUSH4 0xFFFFFFFF AND PUSH1 0xE0 SHL DUP2 MSTORE PUSH1 0x4 ADD PUSH1 0x20 PUSH1 0x40 MLOAD DUP1 DUP4 SUB DUP2 DUP7 GAS STATICCALL ISZERO DUP1 ISZERO PUSH2 0x256B JUMPI RETURNDATASIZE PUSH1 0x0 DUP1 RETURNDATACOPY RETURNDATASIZE PUSH1 0x0 REVERT JUMPDEST POP POP POP POP PUSH1 0x40 MLOAD RETURNDATASIZE PUSH1 0x1F NOT PUSH1 0x1F DUP3 ADD AND DUP3 ADD DUP1 PUSH1 0x40 MSTORE POP DUP2 ADD SWAP1 PUSH2 0x258F SWAP2 SWAP1 PUSH2 0x36E3 JUMP JUMPDEST SWAP2 SWAP8 PUSH1 0xFF SWAP1 SWAP3 AND SWAP7 POP SWAP1 SWAP5 POP POP POP POP POP JUMP JUMPDEST PUSH1 0x0 SLOAD PUSH1 0x1 PUSH1 0x1 PUSH1 0xA0 SHL SUB AND CALLER EQ PUSH2 0x25CB JUMPI PUSH1 0x40 MLOAD PUSH3 0x461BCD PUSH1 0xE5 SHL DUP2 MSTORE PUSH1 0x4 ADD PUSH2 0x9CE SWAP1 PUSH2 0x3554 JUMP JUMPDEST PUSH1 0x0 PUSH1 0x40 MLOAD DUP1 PUSH1 0x80 ADD PUSH1 0x40 MSTORE DUP1 DUP6 PUSH1 0x1 PUSH1 0x1 PUSH1 0xA0 SHL SUB AND DUP2 MSTORE PUSH1 0x20 ADD DUP5 DUP2 MSTORE PUSH1 0x20 ADD DUP4 DUP2 MSTORE PUSH1 0x20 ADD DUP7 DUP2 MSTORE POP SWAP1 POP PUSH2 0x270E DUP2 PUSH1 0xA DUP1 SLOAD DUP1 PUSH1 0x20 MUL PUSH1 0x20 ADD PUSH1 0x40 MLOAD SWAP1 DUP2 ADD PUSH1 0x40 MSTORE DUP1 SWAP3 SWAP2 SWAP1 DUP2 DUP2 MSTORE PUSH1 0x20 ADD PUSH1 0x0 SWAP1 JUMPDEST DUP3 DUP3 LT ISZERO PUSH2 0x1C8B JUMPI PUSH1 0x0 DUP5 DUP2 MSTORE PUSH1 0x20 SWAP1 DUP2 SWAP1 KECCAK256 PUSH1 0x40 DUP1 MLOAD PUSH1 0x80 DUP2 ADD DUP3 MSTORE PUSH1 0x4 DUP7 MUL SWAP1 SWAP3 ADD DUP1 SLOAD PUSH1 0x1 PUSH1 0x1 PUSH1 0xA0 SHL SUB AND DUP4 MSTORE PUSH1 0x1 DUP2 ADD SLOAD SWAP4 DUP4 ADD SWAP4 SWAP1 SWAP4 MSTORE PUSH1 0x2 DUP4 ADD SLOAD SWAP1 DUP3 ADD MSTORE PUSH1 0x3 DUP3 ADD DUP1 SLOAD SWAP2 SWAP3 SWAP2 PUSH1 0x60 DUP5 ADD SWAP2 SWAP1 PUSH2 0x267D SWAP1 PUSH2 0x3439 JUMP JUMPDEST DUP1 PUSH1 0x1F ADD PUSH1 0x20 DUP1 SWAP2 DIV MUL PUSH1 0x20 ADD PUSH1 0x40 MLOAD SWAP1 DUP2 ADD PUSH1 0x40 MSTORE DUP1 SWAP3 SWAP2 SWAP1 DUP2 DUP2 MSTORE PUSH1 0x20 ADD DUP3 DUP1 SLOAD PUSH2 0x26A9 SWAP1 PUSH2 0x3439 JUMP JUMPDEST DUP1 ISZERO PUSH2 0x26F6 JUMPI DUP1 PUSH1 0x1F LT PUSH2 0x26CB JUMPI PUSH2 0x100 DUP1 DUP4 SLOAD DIV MUL DUP4 MSTORE SWAP2 PUSH1 0x20 ADD SWAP2 PUSH2 0x26F6 JUMP JUMPDEST DUP3 ADD SWAP2 SWAP1 PUSH1 0x0 MSTORE PUSH1 0x20 PUSH1 0x0 KECCAK256 SWAP1 JUMPDEST DUP2 SLOAD DUP2 MSTORE SWAP1 PUSH1 0x1 ADD SWAP1 PUSH1 0x20 ADD DUP1 DUP4 GT PUSH2 0x26D9 JUMPI DUP3 SWAP1 SUB PUSH1 0x1F AND DUP3 ADD SWAP2 JUMPDEST POP POP POP POP POP DUP2 MSTORE POP POP DUP2 MSTORE PUSH1 0x20 ADD SWAP1 PUSH1 0x1 ADD SWAP1 PUSH2 0x261F JUMP JUMPDEST PUSH2 0x19AB JUMPI PUSH1 0xA DUP1 SLOAD PUSH1 0x1 DUP2 ADD DUP3 SSTORE PUSH1 0x0 SWAP2 SWAP1 SWAP2 MSTORE DUP2 MLOAD PUSH32 0xC65A7BB8D6351C1CF70C95A316CC6A92839C986682D98BC35F958F4883F9D2A8 PUSH1 0x4 SWAP1 SWAP3 MUL SWAP2 DUP3 ADD DUP1 SLOAD PUSH1 0x1 PUSH1 0x1 PUSH1 0xA0 SHL SUB NOT AND PUSH1 0x1 PUSH1 0x1 PUSH1 0xA0 SHL SUB SWAP1 SWAP3 AND SWAP2 SWAP1 SWAP2 OR DUP2 SSTORE PUSH1 0x20 DUP1 DUP5 ADD MLOAD PUSH32 0xC65A7BB8D6351C1CF70C95A316CC6A92839C986682D98BC35F958F4883F9D2A9 DUP5 ADD SSTORE PUSH1 0x40 DUP5 ADD MLOAD PUSH32 0xC65A7BB8D6351C1CF70C95A316CC6A92839C986682D98BC35F958F4883F9D2AA DUP5 ADD SSTORE PUSH1 0x60 DUP5 ADD MLOAD DUP1 MLOAD DUP6 SWAP5 PUSH2 0x1D7C SWAP4 PUSH32 0xC65A7BB8D6351C1CF70C95A316CC6A92839C986682D98BC35F958F4883F9D2AB SWAP1 SWAP2 ADD SWAP3 ADD SWAP1 PUSH2 0x2F2B JUMP JUMPDEST DUP1 MLOAD PUSH1 0x0 SWAP1 ISZERO PUSH2 0x2868 JUMPI PUSH1 0x0 JUMPDEST DUP3 MLOAD DUP2 LT ISZERO PUSH2 0x2866 JUMPI PUSH1 0x0 DUP4 DUP3 DUP2 MLOAD DUP2 LT PUSH2 0x2820 JUMPI PUSH2 0x2820 PUSH2 0x33DA JUMP JUMPDEST PUSH1 0x20 MUL PUSH1 0x20 ADD ADD MLOAD SWAP1 POP DUP5 PUSH1 0x1 PUSH1 0x1 PUSH1 0xA0 SHL SUB AND DUP2 PUSH1 0x0 ADD MLOAD PUSH1 0x1 PUSH1 0x1 PUSH1 0xA0 SHL SUB AND EQ ISZERO PUSH2 0x2853 JUMPI PUSH1 0x1 SWAP3 POP POP POP PUSH2 0x80C JUMP JUMPDEST POP DUP1 PUSH2 0x285E DUP2 PUSH2 0x341E JUMP JUMPDEST SWAP2 POP POP PUSH2 0x2803 JUMP JUMPDEST POP JUMPDEST POP PUSH1 0x0 SWAP3 SWAP2 POP POP JUMP JUMPDEST PUSH1 0x0 DUP1 PUSH1 0x0 DUP4 MLOAD GT ISZERO PUSH2 0x28E3 JUMPI PUSH1 0x0 JUMPDEST DUP4 MLOAD DUP2 LT ISZERO PUSH2 0x28E1 JUMPI PUSH1 0x0 DUP5 DUP3 DUP2 MLOAD DUP2 LT PUSH2 0x289E JUMPI PUSH2 0x289E PUSH2 0x33DA JUMP JUMPDEST PUSH1 0x20 MUL PUSH1 0x20 ADD ADD MLOAD SWAP1 POP DUP6 PUSH1 0x1 PUSH1 0x1 PUSH1 0xA0 SHL SUB AND DUP2 PUSH1 0x1 PUSH1 0x1 PUSH1 0xA0 SHL SUB AND EQ ISZERO PUSH2 0x28CE JUMPI POP PUSH1 0x1 SWAP3 POP SWAP1 POP PUSH2 0x28EC JUMP JUMPDEST POP DUP1 PUSH2 0x28D9 DUP2 PUSH2 0x341E JUMP JUMPDEST SWAP2 POP POP PUSH2 0x2881 JUMP JUMPDEST POP JUMPDEST POP PUSH1 0x0 SWAP1 POP PUSH1 0x0 NOT JUMPDEST SWAP3 POP SWAP3 SWAP1 POP JUMP JUMPDEST PUSH1 0x40 MLOAD PUSH7 0x6C656E64657273 PUSH1 0xC8 SHL PUSH1 0x20 DUP3 ADD MSTORE PUSH1 0x27 ADD PUSH1 0x40 MLOAD PUSH1 0x20 DUP2 DUP4 SUB SUB DUP2 MSTORE SWAP1 PUSH1 0x40 MSTORE DUP1 MLOAD SWAP1 PUSH1 0x20 ADD KECCAK256 DUP2 PUSH1 0x40 MLOAD PUSH1 0x20 ADD PUSH2 0x2930 SWAP2 SWAP1 PUSH2 0x3706 JUMP JUMPDEST PUSH1 0x40 MLOAD PUSH1 0x20 DUP2 DUP4 SUB SUB DUP2 MSTORE SWAP1 PUSH1 0x40 MSTORE DUP1 MLOAD SWAP1 PUSH1 0x20 ADD KECCAK256 EQ ISZERO PUSH2 0x2A90 JUMPI PUSH1 0x0 PUSH1 0x1 DUP4 DUP2 SLOAD DUP2 LT PUSH2 0x2961 JUMPI PUSH2 0x2961 PUSH2 0x33DA JUMP JUMPDEST SWAP1 PUSH1 0x0 MSTORE PUSH1 0x20 PUSH1 0x0 KECCAK256 ADD PUSH1 0x0 SWAP1 SLOAD SWAP1 PUSH2 0x100 EXP SWAP1 DIV PUSH1 0x1 PUSH1 0x1 PUSH1 0xA0 SHL SUB AND SWAP1 POP PUSH1 0x0 PUSH2 0x29B3 DUP3 DUP8 PUSH1 0xC SLOAD PUSH1 0x40 MLOAD DUP1 PUSH1 0x40 ADD PUSH1 0x40 MSTORE DUP1 PUSH1 0xA DUP2 MSTORE PUSH1 0x20 ADD PUSH10 0x1D1BDAD95B9CD3195B9D PUSH1 0xB2 SHL DUP2 MSTORE POP PUSH2 0x2D9E JUMP JUMPDEST SWAP1 POP DUP1 ISZERO PUSH2 0x2A17 JUMPI PUSH1 0x1 PUSH1 0x1 PUSH1 0xA0 SHL SUB DUP1 DUP8 AND PUSH1 0x0 SWAP1 DUP2 MSTORE PUSH1 0x3 PUSH1 0x20 SWAP1 DUP2 MSTORE PUSH1 0x40 DUP1 DUP4 KECCAK256 SWAP4 DUP7 AND DUP4 MSTORE SWAP3 SWAP1 MSTORE KECCAK256 SLOAD PUSH2 0x29EC SWAP1 DUP7 SWAP1 PUSH2 0x3406 JUMP JUMPDEST PUSH1 0x1 PUSH1 0x1 PUSH1 0xA0 SHL SUB DUP1 DUP9 AND PUSH1 0x0 SWAP1 DUP2 MSTORE PUSH1 0x3 PUSH1 0x20 SWAP1 DUP2 MSTORE PUSH1 0x40 DUP1 DUP4 KECCAK256 SWAP4 DUP8 AND DUP4 MSTORE SWAP3 SWAP1 MSTORE KECCAK256 SSTORE PUSH2 0x2A89 JUMP JUMPDEST PUSH1 0xC DUP1 SLOAD DUP8 SWAP2 PUSH1 0x5 SWAP2 PUSH1 0x0 SWAP2 DUP3 PUSH2 0x2A2D DUP4 PUSH2 0x341E JUMP JUMPDEST SWAP1 SWAP2 SSTORE POP DUP2 MSTORE PUSH1 0x20 DUP1 DUP3 ADD SWAP3 SWAP1 SWAP3 MSTORE PUSH1 0x40 SWAP1 DUP2 ADD PUSH1 0x0 SWAP1 DUP2 KECCAK256 PUSH1 0x1 PUSH1 0x1 PUSH1 0xA0 SHL SUB DUP8 DUP2 AND DUP1 DUP5 MSTORE SWAP2 DUP6 MSTORE DUP4 DUP4 KECCAK256 DUP1 SLOAD PUSH1 0x1 PUSH1 0x1 PUSH1 0xA0 SHL SUB NOT AND SWAP7 DUP3 AND SWAP7 SWAP1 SWAP7 OR SWAP1 SWAP6 SSTORE SWAP4 DUP11 AND DUP2 MSTORE PUSH1 0x3 DUP4 MSTORE DUP2 DUP2 KECCAK256 SWAP4 DUP2 MSTORE SWAP3 SWAP1 SWAP2 MSTORE SWAP1 KECCAK256 DUP6 SWAP1 SSTORE JUMPDEST POP POP PUSH2 0x2C2F JUMP JUMPDEST PUSH1 0x40 MLOAD PUSH9 0x626F72726F77657273 PUSH1 0xB8 SHL PUSH1 0x20 DUP3 ADD MSTORE PUSH1 0x29 ADD PUSH1 0x40 MLOAD PUSH1 0x20 DUP2 DUP4 SUB SUB DUP2 MSTORE SWAP1 PUSH1 0x40 MSTORE DUP1 MLOAD SWAP1 PUSH1 0x20 ADD KECCAK256 DUP2 PUSH1 0x40 MLOAD PUSH1 0x20 ADD PUSH2 0x2ACF SWAP2 SWAP1 PUSH2 0x3706 JUMP JUMPDEST PUSH1 0x40 MLOAD PUSH1 0x20 DUP2 DUP4 SUB SUB DUP2 MSTORE SWAP1 PUSH1 0x40 MSTORE DUP1 MLOAD SWAP1 PUSH1 0x20 ADD KECCAK256 EQ ISZERO PUSH2 0x2C2F JUMPI PUSH1 0x0 PUSH1 0x2 DUP4 DUP2 SLOAD DUP2 LT PUSH2 0x2B00 JUMPI PUSH2 0x2B00 PUSH2 0x33DA JUMP JUMPDEST SWAP1 PUSH1 0x0 MSTORE PUSH1 0x20 PUSH1 0x0 KECCAK256 ADD PUSH1 0x0 SWAP1 SLOAD SWAP1 PUSH2 0x100 EXP SWAP1 DIV PUSH1 0x1 PUSH1 0x1 PUSH1 0xA0 SHL SUB AND SWAP1 POP PUSH1 0x0 PUSH2 0x2B56 DUP3 DUP8 PUSH1 0xD SLOAD PUSH1 0x40 MLOAD DUP1 PUSH1 0x40 ADD PUSH1 0x40 MSTORE DUP1 PUSH1 0xE DUP2 MSTORE PUSH1 0x20 ADD PUSH14 0x1D1BDAD95B9CD09BDC9C9BDDD959 PUSH1 0x92 SHL DUP2 MSTORE POP PUSH2 0x2D9E JUMP JUMPDEST SWAP1 POP DUP1 ISZERO PUSH2 0x2BBA JUMPI PUSH1 0x1 PUSH1 0x1 PUSH1 0xA0 SHL SUB DUP1 DUP8 AND PUSH1 0x0 SWAP1 DUP2 MSTORE PUSH1 0x4 PUSH1 0x20 SWAP1 DUP2 MSTORE PUSH1 0x40 DUP1 DUP4 KECCAK256 SWAP4 DUP7 AND DUP4 MSTORE SWAP3 SWAP1 MSTORE KECCAK256 SLOAD PUSH2 0x2B8F SWAP1 DUP7 SWAP1 PUSH2 0x3406 JUMP JUMPDEST PUSH1 0x1 PUSH1 0x1 PUSH1 0xA0 SHL SUB DUP1 DUP9 AND PUSH1 0x0 SWAP1 DUP2 MSTORE PUSH1 0x4 PUSH1 0x20 SWAP1 DUP2 MSTORE PUSH1 0x40 DUP1 DUP4 KECCAK256 SWAP4 DUP8 AND DUP4 MSTORE SWAP3 SWAP1 MSTORE KECCAK256 SSTORE PUSH2 0x2C2C JUMP JUMPDEST PUSH1 0xD DUP1 SLOAD DUP8 SWAP2 PUSH1 0x6 SWAP2 PUSH1 0x0 SWAP2 DUP3 PUSH2 0x2BD0 DUP4 PUSH2 0x341E JUMP JUMPDEST SWAP1 SWAP2 SSTORE POP DUP2 MSTORE PUSH1 0x20 DUP1 DUP3 ADD SWAP3 SWAP1 SWAP3 MSTORE PUSH1 0x40 SWAP1 DUP2 ADD PUSH1 0x0 SWAP1 DUP2 KECCAK256 PUSH1 0x1 PUSH1 0x1 PUSH1 0xA0 SHL SUB DUP8 DUP2 AND DUP1 DUP5 MSTORE SWAP2 DUP6 MSTORE DUP4 DUP4 KECCAK256 DUP1 SLOAD PUSH1 0x1 PUSH1 0x1 PUSH1 0xA0 SHL SUB NOT AND SWAP7 DUP3 AND SWAP7 SWAP1 SWAP7 OR SWAP1 SWAP6 SSTORE SWAP4 DUP11 AND DUP2 MSTORE PUSH1 0x4 DUP4 MSTORE DUP2 DUP2 KECCAK256 SWAP4 DUP2 MSTORE SWAP3 SWAP1 SWAP2 MSTORE SWAP1 KECCAK256 DUP6 SWAP1 SSTORE JUMPDEST POP POP JUMPDEST POP POP POP POP JUMP JUMPDEST PUSH1 0x0 DUP1 SLOAD PUSH1 0x1 PUSH1 0x1 PUSH1 0xA0 SHL SUB DUP4 DUP2 AND PUSH1 0x1 PUSH1 0x1 PUSH1 0xA0 SHL SUB NOT DUP4 AND DUP2 OR DUP5 SSTORE PUSH1 0x40 MLOAD SWAP2 SWAP1 SWAP3 AND SWAP3 DUP4 SWAP2 PUSH32 0x8BE0079C531659141344CD1FD0A4F28419497F9722A3DAAFE3B4186F6B6457E0 SWAP2 SWAP1 LOG3 POP POP JUMP JUMPDEST PUSH1 0x0 DUP2 GT PUSH2 0x2CA5 JUMPI PUSH1 0x40 MLOAD PUSH3 0x461BCD PUSH1 0xE5 SHL DUP2 MSTORE PUSH1 0x4 ADD PUSH2 0x9CE SWAP1 PUSH2 0x34B5 JUMP JUMPDEST PUSH1 0x0 PUSH2 0x2CB1 DUP3 DUP5 PUSH2 0x22B0 JUMP JUMPDEST PUSH1 0xB SLOAD PUSH1 0x40 MLOAD PUSH4 0xA9059CBB PUSH1 0xE0 SHL DUP2 MSTORE PUSH1 0x1 PUSH1 0x1 PUSH1 0xA0 SHL SUB DUP8 DUP2 AND PUSH1 0x4 DUP4 ADD MSTORE PUSH1 0x24 DUP3 ADD DUP5 SWAP1 MSTORE SWAP3 SWAP4 POP SWAP2 AND SWAP1 PUSH4 0xA9059CBB SWAP1 PUSH1 0x44 ADD PUSH1 0x20 PUSH1 0x40 MLOAD DUP1 DUP4 SUB DUP2 PUSH1 0x0 DUP8 GAS CALL ISZERO DUP1 ISZERO PUSH2 0x2D06 JUMPI RETURNDATASIZE PUSH1 0x0 DUP1 RETURNDATACOPY RETURNDATASIZE PUSH1 0x0 REVERT JUMPDEST POP POP POP POP PUSH1 0x40 MLOAD RETURNDATASIZE PUSH1 0x1F NOT PUSH1 0x1F DUP3 ADD AND DUP3 ADD DUP1 PUSH1 0x40 MSTORE POP DUP2 ADD SWAP1 PUSH2 0x19AB SWAP2 SWAP1 PUSH2 0x34EC JUMP JUMPDEST DUP1 MLOAD PUSH1 0x0 SWAP1 ISZERO PUSH2 0x2868 JUMPI PUSH1 0x0 JUMPDEST DUP3 MLOAD DUP2 LT ISZERO PUSH2 0x2866 JUMPI PUSH1 0x0 DUP4 DUP3 DUP2 MLOAD DUP2 LT PUSH2 0x2D54 JUMPI PUSH2 0x2D54 PUSH2 0x33DA JUMP JUMPDEST PUSH1 0x20 MUL PUSH1 0x20 ADD ADD MLOAD SWAP1 POP DUP5 PUSH1 0x0 ADD MLOAD PUSH1 0x1 PUSH1 0x1 PUSH1 0xA0 SHL SUB AND DUP2 PUSH1 0x0 ADD MLOAD PUSH1 0x1 PUSH1 0x1 PUSH1 0xA0 SHL SUB AND EQ ISZERO PUSH2 0x2D8B JUMPI PUSH1 0x1 SWAP3 POP POP POP PUSH2 0x80C JUMP JUMPDEST POP DUP1 PUSH2 0x2D96 DUP2 PUSH2 0x341E JUMP JUMPDEST SWAP2 POP POP PUSH2 0x2D37 JUMP JUMPDEST PUSH1 0x0 DUP3 ISZERO PUSH2 0x2F20 JUMPI PUSH1 0x40 MLOAD PUSH10 0x1D1BDAD95B9CD3195B9D PUSH1 0xB2 SHL PUSH1 0x20 DUP3 ADD MSTORE PUSH1 0x2A ADD PUSH1 0x40 MLOAD PUSH1 0x20 DUP2 DUP4 SUB SUB DUP2 MSTORE SWAP1 PUSH1 0x40 MSTORE DUP1 MLOAD SWAP1 PUSH1 0x20 ADD KECCAK256 DUP3 PUSH1 0x40 MLOAD PUSH1 0x20 ADD PUSH2 0x2DE6 SWAP2 SWAP1 PUSH2 0x3706 JUMP JUMPDEST PUSH1 0x40 MLOAD PUSH1 0x20 DUP2 DUP4 SUB SUB DUP2 MSTORE SWAP1 PUSH1 0x40 MSTORE DUP1 MLOAD SWAP1 PUSH1 0x20 ADD KECCAK256 EQ ISZERO PUSH2 0x2E63 JUMPI PUSH1 0x0 JUMPDEST PUSH1 0xD SLOAD DUP2 LT ISZERO PUSH2 0x2E5D JUMPI PUSH1 0x0 DUP2 DUP2 MSTORE PUSH1 0x5 PUSH1 0x20 SWAP1 DUP2 MSTORE PUSH1 0x40 DUP1 DUP4 KECCAK256 PUSH1 0x1 PUSH1 0x1 PUSH1 0xA0 SHL SUB DUP1 DUP12 AND DUP6 MSTORE SWAP3 MSTORE SWAP1 SWAP2 KECCAK256 SLOAD DUP2 AND SWAP1 DUP7 AND DUP2 EQ ISZERO PUSH2 0x2E4A JUMPI PUSH1 0x1 SWAP3 POP POP POP PUSH2 0x915 JUMP JUMPDEST POP DUP1 PUSH2 0x2E55 DUP2 PUSH2 0x341E JUMP JUMPDEST SWAP2 POP POP PUSH2 0x2E05 JUMP JUMPDEST POP PUSH2 0x2F20 JUMP JUMPDEST PUSH1 0x40 MLOAD PUSH14 0x1D1BDAD95B9CD09BDC9C9BDDD959 PUSH1 0x92 SHL PUSH1 0x20 DUP3 ADD MSTORE PUSH1 0x2E ADD PUSH1 0x40 MLOAD PUSH1 0x20 DUP2 DUP4 SUB SUB DUP2 MSTORE SWAP1 PUSH1 0x40 MSTORE DUP1 MLOAD SWAP1 PUSH1 0x20 ADD KECCAK256 DUP3 PUSH1 0x40 MLOAD PUSH1 0x20 ADD PUSH2 0x2EA7 SWAP2 SWAP1 PUSH2 0x3706 JUMP JUMPDEST PUSH1 0x40 MLOAD PUSH1 0x20 DUP2 DUP4 SUB SUB DUP2 MSTORE SWAP1 PUSH1 0x40 MSTORE DUP1 MLOAD SWAP1 PUSH1 0x20 ADD KECCAK256 EQ ISZERO PUSH2 0x2F20 JUMPI PUSH1 0x0 JUMPDEST PUSH1 0xC SLOAD DUP2 LT ISZERO PUSH2 0x2F1E JUMPI PUSH1 0x0 DUP2 DUP2 MSTORE PUSH1 0x6 PUSH1 0x20 SWAP1 DUP2 MSTORE PUSH1 0x40 DUP1 DUP4 KECCAK256 PUSH1 0x1 PUSH1 0x1 PUSH1 0xA0 SHL SUB DUP1 DUP12 AND DUP6 MSTORE SWAP3 MSTORE SWAP1 SWAP2 KECCAK256 SLOAD DUP2 AND SWAP1 DUP7 AND DUP2 EQ ISZERO PUSH2 0x2F0B JUMPI PUSH1 0x1 SWAP3 POP POP POP PUSH2 0x915 JUMP JUMPDEST POP DUP1 PUSH2 0x2F16 DUP2 PUSH2 0x341E JUMP JUMPDEST SWAP2 POP POP PUSH2 0x2EC6 JUMP JUMPDEST POP JUMPDEST POP PUSH1 0x0 SWAP5 SWAP4 POP POP POP POP JUMP JUMPDEST DUP3 DUP1 SLOAD PUSH2 0x2F37 SWAP1 PUSH2 0x3439 JUMP JUMPDEST SWAP1 PUSH1 0x0 MSTORE PUSH1 0x20 PUSH1 0x0 KECCAK256 SWAP1 PUSH1 0x1F ADD PUSH1 0x20 SWAP1 DIV DUP2 ADD SWAP3 DUP3 PUSH2 0x2F59 JUMPI PUSH1 0x0 DUP6 SSTORE PUSH2 0x2F9F JUMP JUMPDEST DUP3 PUSH1 0x1F LT PUSH2 0x2F72 JUMPI DUP1 MLOAD PUSH1 0xFF NOT AND DUP4 DUP1 ADD OR DUP6 SSTORE PUSH2 0x2F9F JUMP JUMPDEST DUP3 DUP1 ADD PUSH1 0x1 ADD DUP6 SSTORE DUP3 ISZERO PUSH2 0x2F9F JUMPI SWAP2 DUP3 ADD JUMPDEST DUP3 DUP2 GT ISZERO PUSH2 0x2F9F JUMPI DUP3 MLOAD DUP3 SSTORE SWAP2 PUSH1 0x20 ADD SWAP2 SWAP1 PUSH1 0x1 ADD SWAP1 PUSH2 0x2F84 JUMP JUMPDEST POP PUSH2 0x2FAB SWAP3 SWAP2 POP PUSH2 0x2FAF JUMP JUMPDEST POP SWAP1 JUMP JUMPDEST JUMPDEST DUP1 DUP3 GT ISZERO PUSH2 0x2FAB JUMPI PUSH1 0x0 DUP2 SSTORE PUSH1 0x1 ADD PUSH2 0x2FB0 JUMP JUMPDEST DUP1 CALLDATALOAD PUSH1 0x1 PUSH1 0x1 PUSH1 0xA0 SHL SUB DUP2 AND DUP2 EQ PUSH2 0x2FDB JUMPI PUSH1 0x0 DUP1 REVERT JUMPDEST SWAP2 SWAP1 POP JUMP JUMPDEST PUSH1 0x0 PUSH1 0x20 DUP3 DUP5 SUB SLT ISZERO PUSH2 0x2FF2 JUMPI PUSH1 0x0 DUP1 REVERT JUMPDEST PUSH2 0x2FFB DUP3 PUSH2 0x2FC4 JUMP JUMPDEST SWAP4 SWAP3 POP POP POP JUMP JUMPDEST PUSH1 0x0 PUSH1 0x20 DUP3 DUP5 SUB SLT ISZERO PUSH2 0x3014 JUMPI PUSH1 0x0 DUP1 REVERT JUMPDEST POP CALLDATALOAD SWAP2 SWAP1 POP JUMP JUMPDEST PUSH1 0x0 JUMPDEST DUP4 DUP2 LT ISZERO PUSH2 0x3036 JUMPI DUP2 DUP2 ADD MLOAD DUP4 DUP3 ADD MSTORE PUSH1 0x20 ADD PUSH2 0x301E JUMP JUMPDEST DUP4 DUP2 GT ISZERO PUSH2 0x2C2F JUMPI POP POP PUSH1 0x0 SWAP2 ADD MSTORE JUMP JUMPDEST PUSH1 0x0 DUP2 MLOAD DUP1 DUP5 MSTORE PUSH2 0x305F DUP2 PUSH1 0x20 DUP7 ADD PUSH1 0x20 DUP7 ADD PUSH2 0x301B JUMP JUMPDEST PUSH1 0x1F ADD PUSH1 0x1F NOT AND SWAP3 SWAP1 SWAP3 ADD PUSH1 0x20 ADD SWAP3 SWAP2 POP POP JUMP JUMPDEST PUSH1 0x1 DUP1 PUSH1 0xA0 SHL SUB DUP6 AND DUP2 MSTORE DUP4 PUSH1 0x20 DUP3 ADD MSTORE DUP3 PUSH1 0x40 DUP3 ADD MSTORE PUSH1 0x80 PUSH1 0x60 DUP3 ADD MSTORE PUSH1 0x0 PUSH2 0x22E4 PUSH1 0x80 DUP4 ADD DUP5 PUSH2 0x3047 JUMP JUMPDEST PUSH1 0x0 DUP1 PUSH1 0x40 DUP4 DUP6 SUB SLT ISZERO PUSH2 0x30B3 JUMPI PUSH1 0x0 DUP1 REVERT JUMPDEST PUSH2 0x30BC DUP4 PUSH2 0x2FC4 JUMP JUMPDEST SWAP5 PUSH1 0x20 SWAP4 SWAP1 SWAP4 ADD CALLDATALOAD SWAP4 POP POP POP JUMP JUMPDEST PUSH1 0x1 DUP1 PUSH1 0xA0 SHL SUB DUP2 MLOAD AND DUP3 MSTORE PUSH1 0x20 DUP2 ADD MLOAD PUSH1 0x20 DUP4 ADD MSTORE PUSH1 0x40 DUP2 ADD MLOAD PUSH1 0x40 DUP4 ADD MSTORE PUSH1 0x0 PUSH1 0x60 DUP3 ADD MLOAD PUSH1 0x80 PUSH1 0x60 DUP6 ADD MSTORE PUSH2 0x915 PUSH1 0x80 DUP6 ADD DUP3 PUSH2 0x3047 JUMP JUMPDEST PUSH1 0x0 PUSH1 0x20 DUP1 DUP4 ADD DUP2 DUP5 MSTORE DUP1 DUP6 MLOAD DUP1 DUP4 MSTORE PUSH1 0x40 DUP7 ADD SWAP2 POP PUSH1 0x40 DUP2 PUSH1 0x5 SHL DUP8 ADD ADD SWAP3 POP DUP4 DUP8 ADD PUSH1 0x0 JUMPDEST DUP3 DUP2 LT ISZERO PUSH2 0x315A JUMPI PUSH1 0x3F NOT DUP9 DUP7 SUB ADD DUP5 MSTORE PUSH2 0x3148 DUP6 DUP4 MLOAD PUSH2 0x30CA JUMP JUMPDEST SWAP5 POP SWAP3 DUP6 ADD SWAP3 SWAP1 DUP6 ADD SWAP1 PUSH1 0x1 ADD PUSH2 0x312C JUMP JUMPDEST POP SWAP3 SWAP8 SWAP7 POP POP POP POP POP POP POP JUMP JUMPDEST PUSH1 0x0 DUP1 PUSH1 0x40 DUP4 DUP6 SUB SLT ISZERO PUSH2 0x317A JUMPI PUSH1 0x0 DUP1 REVERT JUMPDEST PUSH2 0x3183 DUP4 PUSH2 0x2FC4 JUMP JUMPDEST SWAP2 POP PUSH2 0x3191 PUSH1 0x20 DUP5 ADD PUSH2 0x2FC4 JUMP JUMPDEST SWAP1 POP SWAP3 POP SWAP3 SWAP1 POP JUMP JUMPDEST PUSH1 0x20 DUP1 DUP3 MSTORE DUP3 MLOAD DUP3 DUP3 ADD DUP2 SWAP1 MSTORE PUSH1 0x0 SWAP2 SWAP1 DUP5 DUP3 ADD SWAP1 PUSH1 0x40 DUP6 ADD SWAP1 DUP5 JUMPDEST DUP2 DUP2 LT ISZERO PUSH2 0x31DB JUMPI DUP4 MLOAD PUSH1 0x1 PUSH1 0x1 PUSH1 0xA0 SHL SUB AND DUP4 MSTORE SWAP3 DUP5 ADD SWAP3 SWAP2 DUP5 ADD SWAP2 PUSH1 0x1 ADD PUSH2 0x31B6 JUMP JUMPDEST POP SWAP1 SWAP7 SWAP6 POP POP POP POP POP POP JUMP JUMPDEST PUSH1 0x0 DUP1 PUSH1 0x40 DUP4 DUP6 SUB SLT ISZERO PUSH2 0x31FA JUMPI PUSH1 0x0 DUP1 REVERT JUMPDEST DUP3 CALLDATALOAD SWAP2 POP PUSH2 0x3191 PUSH1 0x20 DUP5 ADD PUSH2 0x2FC4 JUMP JUMPDEST PUSH4 0x4E487B71 PUSH1 0xE0 SHL PUSH1 0x0 MSTORE PUSH1 0x41 PUSH1 0x4 MSTORE PUSH1 0x24 PUSH1 0x0 REVERT JUMPDEST PUSH1 0x40 MLOAD PUSH1 0x1F DUP3 ADD PUSH1 0x1F NOT AND DUP2 ADD PUSH8 0xFFFFFFFFFFFFFFFF DUP2 GT DUP3 DUP3 LT OR ISZERO PUSH2 0x3249 JUMPI PUSH2 0x3249 PUSH2 0x320A JUMP JUMPDEST PUSH1 0x40 MSTORE SWAP2 SWAP1 POP JUMP JUMPDEST PUSH1 0x0 DUP1 PUSH1 0x0 DUP1 PUSH1 0x80 DUP6 DUP8 SUB SLT ISZERO PUSH2 0x3267 JUMPI PUSH1 0x0 DUP1 REVERT JUMPDEST DUP5 CALLDATALOAD PUSH8 0xFFFFFFFFFFFFFFFF DUP1 DUP3 GT ISZERO PUSH2 0x327F JUMPI PUSH1 0x0 DUP1 REVERT JUMPDEST DUP2 DUP8 ADD SWAP2 POP DUP8 PUSH1 0x1F DUP4 ADD SLT PUSH2 0x3293 JUMPI PUSH1 0x0 DUP1 REVERT JUMPDEST DUP2 CALLDATALOAD PUSH1 0x20 DUP3 DUP3 GT ISZERO PUSH2 0x32A7 JUMPI PUSH2 0x32A7 PUSH2 0x320A JUMP JUMPDEST PUSH2 0x32B9 PUSH1 0x1F DUP4 ADD PUSH1 0x1F NOT AND DUP3 ADD PUSH2 0x3220 JUMP JUMPDEST SWAP3 POP DUP2 DUP4 MSTORE DUP10 DUP2 DUP4 DUP7 ADD ADD GT ISZERO PUSH2 0x32CF JUMPI PUSH1 0x0 DUP1 REVERT JUMPDEST DUP2 DUP2 DUP6 ADD DUP3 DUP6 ADD CALLDATACOPY PUSH1 0x0 DUP2 DUP4 DUP6 ADD ADD MSTORE DUP3 SWAP8 POP PUSH2 0x32ED DUP2 DUP11 ADD PUSH2 0x2FC4 JUMP JUMPDEST SWAP8 SWAP11 SWAP8 SWAP10 POP POP POP POP PUSH1 0x40 DUP7 ADD CALLDATALOAD SWAP6 PUSH1 0x60 ADD CALLDATALOAD SWAP5 SWAP4 POP POP POP POP JUMP JUMPDEST PUSH1 0x0 DUP1 PUSH1 0x40 DUP4 DUP6 SUB SLT ISZERO PUSH2 0x331A JUMPI PUSH1 0x0 DUP1 REVERT JUMPDEST PUSH2 0x3323 DUP4 PUSH2 0x2FC4 JUMP JUMPDEST SWAP2 POP PUSH1 0x20 DUP1 DUP5 ADD CALLDATALOAD PUSH8 0xFFFFFFFFFFFFFFFF DUP1 DUP3 GT ISZERO PUSH2 0x3341 JUMPI PUSH1 0x0 DUP1 REVERT JUMPDEST DUP2 DUP7 ADD SWAP2 POP DUP7 PUSH1 0x1F DUP4 ADD SLT PUSH2 0x3355 JUMPI PUSH1 0x0 DUP1 REVERT JUMPDEST DUP2 CALLDATALOAD DUP2 DUP2 GT ISZERO PUSH2 0x3367 JUMPI PUSH2 0x3367 PUSH2 0x320A JUMP JUMPDEST DUP1 PUSH1 0x5 SHL SWAP2 POP PUSH2 0x3378 DUP5 DUP4 ADD PUSH2 0x3220 JUMP JUMPDEST DUP2 DUP2 MSTORE SWAP2 DUP4 ADD DUP5 ADD SWAP2 DUP5 DUP2 ADD SWAP1 DUP10 DUP5 GT ISZERO PUSH2 0x3392 JUMPI PUSH1 0x0 DUP1 REVERT JUMPDEST SWAP4 DUP6 ADD SWAP4 JUMPDEST DUP4 DUP6 LT ISZERO PUSH2 0x33B7 JUMPI PUSH2 0x33A8 DUP6 PUSH2 0x2FC4 JUMP JUMPDEST DUP3 MSTORE SWAP4 DUP6 ADD SWAP4 SWAP1 DUP6 ADD SWAP1 PUSH2 0x3397 JUMP JUMPDEST DUP1 SWAP7 POP POP POP POP POP POP POP SWAP3 POP SWAP3 SWAP1 POP JUMP JUMPDEST PUSH1 0x20 DUP2 MSTORE PUSH1 0x0 PUSH2 0x2FFB PUSH1 0x20 DUP4 ADD DUP5 PUSH2 0x30CA JUMP JUMPDEST PUSH4 0x4E487B71 PUSH1 0xE0 SHL PUSH1 0x0 MSTORE PUSH1 0x32 PUSH1 0x4 MSTORE PUSH1 0x24 PUSH1 0x0 REVERT JUMPDEST PUSH4 0x4E487B71 PUSH1 0xE0 SHL PUSH1 0x0 MSTORE PUSH1 0x11 PUSH1 0x4 MSTORE PUSH1 0x24 PUSH1 0x0 REVERT JUMPDEST PUSH1 0x0 DUP3 NOT DUP3 GT ISZERO PUSH2 0x3419 JUMPI PUSH2 0x3419 PUSH2 0x33F0 JUMP JUMPDEST POP ADD SWAP1 JUMP JUMPDEST PUSH1 0x0 PUSH1 0x0 NOT DUP3 EQ ISZERO PUSH2 0x3432 JUMPI PUSH2 0x3432 PUSH2 0x33F0 JUMP JUMPDEST POP PUSH1 0x1 ADD SWAP1 JUMP JUMPDEST PUSH1 0x1 DUP2 DUP2 SHR SWAP1 DUP3 AND DUP1 PUSH2 0x344D JUMPI PUSH1 0x7F DUP3 AND SWAP2 POP JUMPDEST PUSH1 0x20 DUP3 LT DUP2 EQ ISZERO PUSH2 0x346E JUMPI PUSH4 0x4E487B71 PUSH1 0xE0 SHL PUSH1 0x0 MSTORE PUSH1 0x22 PUSH1 0x4 MSTORE PUSH1 0x24 PUSH1 0x0 REVERT JUMPDEST POP SWAP2 SWAP1 POP JUMP JUMPDEST PUSH1 0x0 DUP2 PUSH1 0x0 NOT DIV DUP4 GT DUP3 ISZERO ISZERO AND ISZERO PUSH2 0x348E JUMPI PUSH2 0x348E PUSH2 0x33F0 JUMP JUMPDEST POP MUL SWAP1 JUMP JUMPDEST PUSH1 0x0 DUP3 PUSH2 0x34B0 JUMPI PUSH4 0x4E487B71 PUSH1 0xE0 SHL PUSH1 0x0 MSTORE PUSH1 0x12 PUSH1 0x4 MSTORE PUSH1 0x24 PUSH1 0x0 REVERT JUMPDEST POP DIV SWAP1 JUMP JUMPDEST PUSH1 0x20 DUP1 DUP3 MSTORE PUSH1 0x1F SWAP1 DUP3 ADD MSTORE PUSH32 0x416D6F756E742073686F756C642062652067726561746572207468616E203000 PUSH1 0x40 DUP3 ADD MSTORE PUSH1 0x60 ADD SWAP1 JUMP JUMPDEST PUSH1 0x0 PUSH1 0x20 DUP3 DUP5 SUB SLT ISZERO PUSH2 0x34FE JUMPI PUSH1 0x0 DUP1 REVERT JUMPDEST DUP2 MLOAD DUP1 ISZERO ISZERO DUP2 EQ PUSH2 0x2FFB JUMPI PUSH1 0x0 DUP1 REVERT JUMPDEST PUSH1 0x0 DUP3 DUP3 LT ISZERO PUSH2 0x3520 JUMPI PUSH2 0x3520 PUSH2 0x33F0 JUMP JUMPDEST POP SUB SWAP1 JUMP JUMPDEST PUSH4 0x4E487B71 PUSH1 0xE0 SHL PUSH1 0x0 MSTORE PUSH1 0x31 PUSH1 0x4 MSTORE PUSH1 0x24 PUSH1 0x0 REVERT JUMPDEST PUSH1 0x0 PUSH1 0x20 DUP3 DUP5 SUB SLT ISZERO PUSH2 0x354D JUMPI PUSH1 0x0 DUP1 REVERT JUMPDEST POP MLOAD SWAP2 SWAP1 POP JUMP JUMPDEST PUSH1 0x20 DUP1 DUP3 MSTORE DUP2 DUP2 ADD MSTORE PUSH32 0x4F776E61626C653A2063616C6C6572206973206E6F7420746865206F776E6572 PUSH1 0x40 DUP3 ADD MSTORE PUSH1 0x60 ADD SWAP1 JUMP JUMPDEST PUSH1 0x1 DUP2 DUP2 JUMPDEST DUP1 DUP6 GT ISZERO PUSH2 0x35C4 JUMPI DUP2 PUSH1 0x0 NOT DIV DUP3 GT ISZERO PUSH2 0x35AA JUMPI PUSH2 0x35AA PUSH2 0x33F0 JUMP JUMPDEST DUP1 DUP6 AND ISZERO PUSH2 0x35B7 JUMPI SWAP2 DUP2 MUL SWAP2 JUMPDEST SWAP4 DUP5 SHR SWAP4 SWAP1 DUP1 MUL SWAP1 PUSH2 0x358E JUMP JUMPDEST POP SWAP3 POP SWAP3 SWAP1 POP JUMP JUMPDEST PUSH1 0x0 DUP3 PUSH2 0x35DB JUMPI POP PUSH1 0x1 PUSH2 0x80C JUMP JUMPDEST DUP2 PUSH2 0x35E8 JUMPI POP PUSH1 0x0 PUSH2 0x80C JUMP JUMPDEST DUP2 PUSH1 0x1 DUP2 EQ PUSH2 0x35FE JUMPI PUSH1 0x2 DUP2 EQ PUSH2 0x3608 JUMPI PUSH2 0x3624 JUMP JUMPDEST PUSH1 0x1 SWAP2 POP POP PUSH2 0x80C JUMP JUMPDEST PUSH1 0xFF DUP5 GT ISZERO PUSH2 0x3619 JUMPI PUSH2 0x3619 PUSH2 0x33F0 JUMP JUMPDEST POP POP PUSH1 0x1 DUP3 SHL PUSH2 0x80C JUMP JUMPDEST POP PUSH1 0x20 DUP4 LT PUSH2 0x133 DUP4 LT AND PUSH1 0x4E DUP5 LT PUSH1 0xB DUP5 LT AND OR ISZERO PUSH2 0x3647 JUMPI POP DUP2 DUP2 EXP PUSH2 0x80C JUMP JUMPDEST PUSH2 0x3651 DUP4 DUP4 PUSH2 0x3589 JUMP JUMPDEST DUP1 PUSH1 0x0 NOT DIV DUP3 GT ISZERO PUSH2 0x3665 JUMPI PUSH2 0x3665 PUSH2 0x33F0 JUMP JUMPDEST MUL SWAP4 SWAP3 POP POP POP JUMP JUMPDEST PUSH1 0x0 PUSH2 0x2FFB DUP4 DUP4 PUSH2 0x35CC JUMP JUMPDEST DUP1 MLOAD PUSH10 0xFFFFFFFFFFFFFFFFFFFF DUP2 AND DUP2 EQ PUSH2 0x2FDB JUMPI PUSH1 0x0 DUP1 REVERT JUMPDEST PUSH1 0x0 DUP1 PUSH1 0x0 DUP1 PUSH1 0x0 PUSH1 0xA0 DUP7 DUP9 SUB SLT ISZERO PUSH2 0x36AB JUMPI PUSH1 0x0 DUP1 REVERT JUMPDEST PUSH2 0x36B4 DUP7 PUSH2 0x3679 JUMP JUMPDEST SWAP5 POP PUSH1 0x20 DUP7 ADD MLOAD SWAP4 POP PUSH1 0x40 DUP7 ADD MLOAD SWAP3 POP PUSH1 0x60 DUP7 ADD MLOAD SWAP2 POP PUSH2 0x36D7 PUSH1 0x80 DUP8 ADD PUSH2 0x3679 JUMP JUMPDEST SWAP1 POP SWAP3 SWAP6 POP SWAP3 SWAP6 SWAP1 SWAP4 POP JUMP JUMPDEST PUSH1 0x0 PUSH1 0x20 DUP3 DUP5 SUB SLT ISZERO PUSH2 0x36F5 JUMPI PUSH1 0x0 DUP1 REVERT JUMPDEST DUP2 MLOAD PUSH1 0xFF DUP2 AND DUP2 EQ PUSH2 0x2FFB JUMPI PUSH1 0x0 DUP1 REVERT JUMPDEST PUSH1 0x0 DUP3 MLOAD PUSH2 0x3718 DUP2 DUP5 PUSH1 0x20 DUP8 ADD PUSH2 0x301B JUMP JUMPDEST SWAP2 SWAP1 SWAP2 ADD SWAP3 SWAP2 POP POP JUMP INVALID LOG2 PUSH5 0x6970667358 0x22 SLT KECCAK256 PUSH14 0xB9F03658DFD5651F830390A92A4 0xBB SWAP9 0x2A 0xAA 0xB4 SWAP8 DUP9 0xBA 0xAF MULMOD DUP15 0xCE SLT DUP11 0x21 0xEA 0xEF PUSH5 0x736F6C6343 STOP ADDMOD SIGNEXTEND STOP CALLER ","sha1":"73f65d31b7a4a30969c676264d0e55ef1c43a148","source":"// SPDX-License-Identifier: MIT\npragma solidity >=0.4.22 <0.9.0;\n\nimport \"@chainlink/contracts/src/v0.8/interfaces/AggregatorV3Interface.sol\";\nimport \"@openzeppelin/contracts/access/Ownable.sol\";\nimport \"@openzeppelin/contracts/token/ERC20/IERC20.sol\";\n\n// Set up you contract to convert DAI to USD or ETH to USD\ncontract LendingAndBorrowing is Ownable {\n    address[] public lenders;\n    address[] public borrowers;\n\n    mapping(address => mapping(address => uint256)) public tokensLentAmount;\n    mapping(address => mapping(address => uint256)) public tokensBorrowedAmount;\n\n    mapping(uint256 => mapping(address => address)) public tokensLent;\n    mapping(uint256 => mapping(address => address)) public tokensBorrowed;\n\n    mapping(address => address) public tokenToPriceFeed;\n\n    mapping(uint256 => mapping(address => address)) public tokensLentOrBorrowed;\n\n    struct Token {\n        address tokenAddress;\n        uint256 LTV;\n        uint256 stableRate;\n        string name;\n    }\n\n    Token[] public tokensForLending;\n    Token[] public tokensForBorrowing;\n\n    IERC20 public larToken;\n\n    uint256 public noOfTokensLent = 0;\n    uint256 public noOfTokensBorrowed = 0;\n\n    constructor(address _token) {\n        larToken = IERC20(_token);\n    }\n\n    function addTokensForLending(\n        string memory name,\n        address tokenAddress,\n        uint256 LTV,\n        uint256 borrowStableRate\n    ) public onlyOwner {\n        Token memory token = Token(tokenAddress, LTV, borrowStableRate, name);\n\n        if (!tokenIsAlreadyThere(token, tokensForLending)) {\n            tokensForLending.push(token);\n        }\n    }\n\n    function addTokensForBorrowing(\n        string memory name,\n        address tokenAddress,\n        uint256 LTV,\n        uint256 borrowStableRate\n    ) public onlyOwner {\n        Token memory token = Token(tokenAddress, LTV, borrowStableRate, name);\n\n        if (!tokenIsAlreadyThere(token, tokensForBorrowing)) {\n            tokensForBorrowing.push(token);\n        }\n    }\n\n    function addTokenToPriceFeedMapping(\n        address tokenAddress,\n        address tokenToUsdPriceFeed\n    ) public onlyOwner {\n        tokenToPriceFeed[tokenAddress] = tokenToUsdPriceFeed;\n    }\n\n    function getLendersArray() public view returns (address[] memory) {\n        return lenders;\n    }\n\n    function getBorrowersArray() public view returns (address[] memory) {\n        return borrowers;\n    }\n\n    function getTokensForLendingArray() public view returns(Token[] memory){\n        return tokensForLending;\n    }\n\n    function getTokensForBorrowingArray() public view returns(Token[] memory){\n        return tokensForBorrowing;\n    }\n\n    function lend(address tokenAddress, uint256 amount) public payable {\n        require(\n            tokenIsAllowed(tokenAddress, tokensForLending),\n            \"Token is not supported\"\n        );\n\n        require(amount > 0, \"The amount to supply should be greater than 0\");\n\n        IERC20 token = IERC20(tokenAddress);\n\n        require(\n            token.balanceOf(msg.sender) >= amount,\n            \"You have insufficient token to supply that amount\"\n        );\n\n        token.transferFrom(msg.sender, address(this), amount);\n\n        (bool userPresent, int256 userIndex) = isUserPresentIn(\n            msg.sender,\n            lenders\n        );\n\n        if (userPresent) {\n            updateUserTokensBorrowedOrLent(\n                tokenAddress,\n                amount,\n                userIndex,\n                \"lenders\"\n            );\n        } else {\n            lenders.push(msg.sender);\n            tokensLentAmount[tokenAddress][msg.sender] = amount;\n            tokensLent[noOfTokensLent++][msg.sender] = tokenAddress;\n        }\n\n        rewardUserToken(msg.sender, tokenAddress, amount);\n    }\n\n    function borrow(uint256 amount, address tokenAddress) public {\n        require(\n            tokenIsAllowed(tokenAddress, tokensForBorrowing),\n            \"Token is not supported for borrowing\"\n        );\n        require(amount > 0, \"Amount should be greater than 0\");\n\n        uint256 totalAmountAvailableForBorrowInDollars = getUserTotalAmountAvailableForBorrowInDollars(\n                msg.sender\n            );\n        uint256 amountInDollars = getAmountInDollars(amount, tokenAddress);\n\n        require(\n            amountInDollars <= totalAmountAvailableForBorrowInDollars,\n            \"You don't have enough collateral to borrow this amount\"\n        );\n\n        IERC20 token = IERC20(tokenAddress);\n\n        require(\n            token.balanceOf(address(this)) > amount,\n            \"We do not have enough of this token for you to borrow.\"\n        );\n\n        token.transfer(msg.sender, amount);\n\n        (bool userPresent, int256 userIndex) = isUserPresentIn(\n            msg.sender,\n            borrowers\n        );\n\n        if (userPresent) {\n            updateUserTokensBorrowedOrLent(\n                tokenAddress,\n                amount,\n                userIndex,\n                \"borrowers\"\n            );\n        } else {\n            borrowers.push(msg.sender);\n            tokensBorrowedAmount[tokenAddress][msg.sender] = amount;\n            tokensBorrowed[noOfTokensBorrowed++][msg.sender] = tokenAddress;\n        }\n    }\n\n    function payDebt(address tokenAddress, uint256 amount) public {\n        require(amount > 0, \"Amount should be greater than 0\");\n\n        int256 index = indexOf(msg.sender, borrowers);\n        require(\n            index >= 0,\n            \"User address is not found in the list of borrowers\"\n        );\n\n        uint256 tokenBorrowed = tokensBorrowedAmount[tokenAddress][msg.sender];\n\n        require(tokenBorrowed > 0, \"You  are not owing\");\n        IERC20 token = IERC20(tokenAddress);\n\n        uint256 totalTokenAmountToCollectFromUser = amount +\n            interest(tokenAddress, tokenBorrowed);\n\n        token.transferFrom(\n            msg.sender,\n            address(this),\n            totalTokenAmountToCollectFromUser\n        );\n\n        tokensBorrowedAmount[tokenAddress][msg.sender] =\n            tokensBorrowedAmount[tokenAddress][msg.sender] -\n            amount;\n\n        // Check If all the amount borrowed = 0;\n        uint256 totalAmountBorrowed = getTotalAmountBorrowedInDollars(\n            msg.sender\n        );\n\n        if (totalAmountBorrowed == 0) {\n            borrowers[uint256(index)] = borrowers[borrowers.length - 1];\n            borrowers.pop();\n        }\n    }\n\n    function withdraw(address tokenAddress, uint256 amount) public {\n        require(amount > 0, \"Amount should be greater than 0\");\n\n        int256 index = indexOf(msg.sender, lenders);\n        require(index >= 0, \"User address is not found in the list of lenders\");\n\n        IERC20 token = IERC20(tokenAddress);\n\n        uint256 tokenAmountLent = tokensLentAmount[tokenAddress][msg.sender];\n\n        require(tokenAmountLent >= amount);\n\n        uint256 larTokenToRemove = getAmountInDollars(amount, tokenAddress);\n        larToken.transferFrom(msg.sender, address(this), larTokenToRemove);\n\n        // uint tokenAmountToTransferToUser = getTotalLendingInterest(amount, tokenAddress);\n\n        // if (tokensLentAmount[tokenAddress][msg.sender])\n\n        token.transfer(msg.sender, amount);\n\n        tokensLentAmount[tokenAddress][msg.sender] =\n            tokensLentAmount[tokenAddress][msg.sender] -\n            amount;\n\n        // Check If all the amount lent = 0;\n        uint256 totalAmountLent = getTotalAmountLentInDollars(msg.sender);\n\n        if (totalAmountLent == 0) {\n            lenders[uint256(index)] = lenders[lenders.length - 1];\n            lenders.pop();\n        }\n    }\n\n    function indexOf(address user, address[] memory addressArray)\n        public\n        returns (int256)\n    {\n        int256 index = -1;\n\n        for (uint256 i = 0; i < addressArray.length; i++) {\n            address currentAddress = addressArray[i];\n            if (currentAddress == user) {\n                return int256(i);\n            }\n        }\n        return index;\n    }\n\n    function getTotalAmountBorrowedInDollars(address user)\n        public\n        view\n        returns (uint256)\n    {\n        uint256 totalAmountBorrowed = 0;\n        for (uint256 i = 0; i < noOfTokensBorrowed; i++) {\n            address userBorrowedTokenAddressFound = tokensBorrowed[i][user];\n\n            if (\n                userBorrowedTokenAddressFound !=\n                0x0000000000000000000000000000000000000000\n            ) {\n                uint256 tokenAmountBorrowed = tokensBorrowedAmount[\n                    userBorrowedTokenAddressFound\n                ][user];\n\n                uint256 tokenAmountBorrowedInDollars = getAmountInDollars(\n                    tokenAmountBorrowed,\n                    userBorrowedTokenAddressFound\n                );\n\n                totalAmountBorrowed += tokenAmountBorrowedInDollars;\n            }\n        }\n        return totalAmountBorrowed;\n    }\n\n    function getTotalAmountLentInDollars(address user)\n        public\n        view\n        returns (uint256)\n    {\n        uint256 totalAmountLent = 0;\n        for (uint256 i = 0; i < noOfTokensLent; i++) {\n            address userLentTokenAddressFound = tokensLent[i][user];\n\n            if (\n                userLentTokenAddressFound !=\n                0x0000000000000000000000000000000000000000\n            ) {\n                uint256 tokenAmountLent = tokensLentAmount[\n                    userLentTokenAddressFound\n                ][user];\n\n                uint256 tokenAmountLentInDollars = getAmountInDollars(\n                    tokenAmountLent,\n                    userLentTokenAddressFound\n                );\n\n                totalAmountLent += tokenAmountLentInDollars;\n            }\n        }\n        return totalAmountLent;\n    }\n\n    function interest(address tokenAddress, uint256 tokenBorrowed)\n        public\n        view\n        returns (uint256)\n    {\n        Token memory token = getTokenFrom(tokenAddress);\n        return (tokenBorrowed * token.stableRate) / 10**18;\n    }\n\n    function getTokenFrom(address tokenAddress)\n        public\n        view\n        returns (Token memory)\n    {\n        Token memory token;\n        for (uint256 i = 0; i < tokensForBorrowing.length; i++) {\n            Token memory currentToken = tokensForBorrowing[i];\n            if (currentToken.tokenAddress == tokenAddress) {\n                token = currentToken;\n                break;\n            }\n        }\n        return token;\n    }\n\n    function getUserTotalAmountAvailableForBorrowInDollars(address user)\n        public\n        view\n        returns (uint256)\n    {\n        uint256 totalAvailableToBorrow = 0;\n\n        for (uint256 i = 0; i < noOfTokensLent; i++) {\n            address userLentTokenAddressFound = tokensLent[i][user];\n\n            if (\n                userLentTokenAddressFound !=\n                0x0000000000000000000000000000000000000000\n            ) {\n                Token memory token = getTokenFrom(userLentTokenAddressFound);\n                uint256 tokenLoanToValueRatio = token.LTV;\n\n                bool isBorrowed = tokenIsBorrowed(\n                    user,\n                    userLentTokenAddressFound\n                );\n\n                uint256 tokenAmountAvailable;\n\n                if (!isBorrowed) {\n                    tokenAmountAvailable = tokensLentAmount[\n                        userLentTokenAddressFound\n                    ][user];\n                } else {\n                    tokenAmountAvailable =\n                        tokensLentAmount[userLentTokenAddressFound][user] -\n                        tokensBorrowedAmount[userLentTokenAddressFound][user];\n                }\n                uint256 currentTokenAmountInDollars = getAmountInDollars(\n                    tokenAmountAvailable,\n                    userLentTokenAddressFound\n                );\n                uint256 availableToBorrow = (currentTokenAmountInDollars *\n                    tokenLoanToValueRatio) / 10**18;\n\n                totalAvailableToBorrow += availableToBorrow;\n            }\n        }\n\n        return totalAvailableToBorrow;\n    }\n\n    function tokenIsBorrowed(address user, address token)\n        private\n        view\n        returns (bool)\n    {\n        return tokensBorrowedAmount[token][user] != 0;\n    }\n\n    function tokenIsAllowed(address tokenAddress, Token[] memory tokenArray)\n        private\n        pure\n        returns (bool)\n    {\n        if (tokenArray.length > 0) {\n            for (uint256 i = 0; i < tokenArray.length; i++) {\n                Token memory currentToken = tokenArray[i];\n                if (currentToken.tokenAddress == tokenAddress) {\n                    return true;\n                }\n            }\n        }\n\n        return false;\n    }\n\n    function tokenIsAlreadyThere(Token memory token, Token[] memory tokenArray)\n        private\n        pure\n        returns (bool)\n    {\n        if (tokenArray.length > 0) {\n            for (uint256 i = 0; i < tokenArray.length; i++) {\n                Token memory currentToken = tokenArray[i];\n                if (currentToken.tokenAddress == token.tokenAddress) {\n                    return true;\n                }\n            }\n        }\n\n        return false;\n    }\n\n    function rewardUserToken(\n        address user,\n        address tokenAddress,\n        uint256 amount\n    ) private {\n        // Send some tokens to the user equivalent to the token amount lent.\n        require(amount > 0, \"Amount should be greater than 0\");\n\n        uint256 amountIndollars = getAmountInDollars(amount, tokenAddress);\n        larToken.transfer(user, amountIndollars);\n    }\n\n    function getAmountInDollars(uint256 amount, address tokenAddress)\n        public\n        view\n        returns (uint256)\n    {\n        (\n            uint256 dollarPerToken,\n            uint256 decimals\n        ) = oneTokenEqualsHowManyDollars(tokenAddress);\n        uint256 totalAmountInDollars = (amount * dollarPerToken) /\n            (10**decimals);\n        return totalAmountInDollars;\n    }\n\n    function oneTokenEqualsHowManyDollars(address tokenAddress)\n        public\n        view\n        returns (uint256, uint256)\n    {\n        address tokenToUsd = tokenToPriceFeed[tokenAddress];\n        AggregatorV3Interface priceFeed = AggregatorV3Interface(tokenToUsd);\n\n        (, int256 price, , , ) = priceFeed.latestRoundData();\n\n        uint256 decimals = priceFeed.decimals();\n\n        return (uint256(price), decimals);\n    }\n\n    function updateUserTokensBorrowedOrLent(\n        address tokenAddress,\n        uint256 amount,\n        int256 userIndex,\n        string memory lendersOrBorrowers\n    ) internal {\n        if (\n            keccak256(abi.encodePacked(lendersOrBorrowers)) ==\n            keccak256(abi.encodePacked(\"lenders\"))\n        ) {\n            address currentUser = lenders[uint256(userIndex)];\n\n            bool tokenLendedAlready = hasLentOrBorrowedToken(\n                currentUser,\n                tokenAddress,\n                noOfTokensLent,\n                \"tokensLent\"\n            );\n\n            if (tokenLendedAlready) {\n                tokensLentAmount[tokenAddress][currentUser] =\n                    tokensLentAmount[tokenAddress][currentUser] +\n                    amount;\n            } else {\n                tokensLent[noOfTokensLent++][currentUser] = tokenAddress;\n                tokensLentAmount[tokenAddress][currentUser] = amount;\n            }\n        } else if (\n            keccak256(abi.encodePacked(lendersOrBorrowers)) ==\n            keccak256(abi.encodePacked(\"borrowers\"))\n        ) {\n            address currentUser = borrowers[uint256(userIndex)];\n\n            bool tokenBorrowedAlready = hasLentOrBorrowedToken(\n                currentUser,\n                tokenAddress,\n                noOfTokensBorrowed,\n                \"tokensBorrowed\"\n            );\n\n            if (tokenBorrowedAlready) {\n                tokensBorrowedAmount[tokenAddress][currentUser] =\n                    tokensBorrowedAmount[tokenAddress][currentUser] +\n                    amount;\n            } else {\n                tokensBorrowed[noOfTokensBorrowed++][\n                    currentUser\n                ] = tokenAddress;\n                tokensBorrowedAmount[tokenAddress][currentUser] = amount;\n            }\n        }\n    }\n\n    function hasLentOrBorrowedToken(\n        address currentUser,\n        address tokenAddress,\n        uint256 noOfTokenslentOrBorrowed,\n        string memory _tokensLentOrBorrowed\n    ) private view returns (bool) {\n        if (noOfTokenslentOrBorrowed > 0) {\n            if (\n                keccak256(abi.encodePacked(_tokensLentOrBorrowed)) ==\n                keccak256(abi.encodePacked(\"tokensLent\"))\n            ) {\n                for (uint256 i = 0; i < noOfTokensBorrowed; i++) {\n                    address tokenAddressFound = tokensLent[i][currentUser];\n                    if (tokenAddressFound == tokenAddress) {\n                        return true;\n                    }\n                }\n            } else if (\n                keccak256(abi.encodePacked(_tokensLentOrBorrowed)) ==\n                keccak256(abi.encodePacked(\"tokensBorrowed\"))\n            ) {\n                for (uint256 i = 0; i < noOfTokensLent; i++) {\n                    address tokenAddressFound = tokensBorrowed[i][currentUser];\n                    if (tokenAddressFound == tokenAddress) {\n                        return true;\n                    }\n                }\n            }\n        }\n\n        return false;\n    }\n\n    function isUserPresentIn(address userAddress, address[] memory users)\n        private\n        pure\n        returns (bool, int256)\n    {\n        if (users.length > 0) {\n            for (uint256 i = 0; i < users.length; i++) {\n                address currentUserAddress = users[i];\n                if (currentUserAddress == userAddress) {\n                    return (true, int256(i));\n                }\n            }\n        }\n\n        return (false, -1);\n    }\n\n    function getTotalTokenSupplied(address tokenAddres)\n        public\n        view\n        returns (uint256)\n    {\n        uint256 totalTokenSupplied = 0;\n        if (lenders.length > 0) {\n            for (uint256 i = 0; i < lenders.length; i++) {\n                address curentLender = lenders[i];\n                totalTokenSupplied += tokensLentAmount[tokenAddres][\n                    curentLender\n                ];\n            }\n        }\n\n        return totalTokenSupplied;\n    }\n\n    function getTotalTokenBorrowed(address tokenAddress)\n        public\n        view\n        returns (uint256)\n    {\n        uint256 totalTokenBorrowed = 0;\n        if (borrowers.length > 0) {\n            for (uint256 i = 0; i < borrowers.length; i++) {\n                address curentBorrower = borrowers[i];\n                totalTokenBorrowed += tokensBorrowedAmount[tokenAddress][\n                    curentBorrower\n                ];\n            }\n        }\n        return totalTokenBorrowed;\n    }\n}\n","sourcePath":"contracts/LendingAndBorrowing.sol","deployment":{"address":"0x449b4CDA5ECaf7c50628DE1007eBC5e7868A86E1","chainid":"42","blockHeight":30967849}}