{"abi":[{"inputs":[{"internalType":"address","name":"_token","type":"address"}],"stateMutability":"nonpayable","type":"constructor","name":"constructor"},{"anonymous":false,"inputs":[{"indexed":true,"internalType":"address","name":"previousOwner","type":"address"},{"indexed":true,"internalType":"address","name":"newOwner","type":"address"}],"name":"OwnershipTransferred","type":"event"},{"inputs":[{"internalType":"address","name":"tokenAddress","type":"address"},{"internalType":"address","name":"tokenToUsdPriceFeed","type":"address"}],"name":"addTokenToPriceFeedMapping","outputs":[],"stateMutability":"nonpayable","type":"function"},{"inputs":[{"internalType":"address","name":"tokenAddress","type":"address"},{"internalType":"uint256","name":"LTV","type":"uint256"},{"internalType":"uint256","name":"borrowStableRate","type":"uint256"}],"name":"addTokensForBorrowing","outputs":[],"stateMutability":"nonpayable","type":"function"},{"inputs":[{"internalType":"address","name":"tokenAddress","type":"address"},{"internalType":"uint256","name":"LTV","type":"uint256"},{"internalType":"uint256","name":"borrowStableRate","type":"uint256"}],"name":"addTokensForLending","outputs":[],"stateMutability":"nonpayable","type":"function"},{"inputs":[{"internalType":"uint256","name":"amount","type":"uint256"},{"internalType":"address","name":"tokenAddress","type":"address"}],"name":"borrow","outputs":[],"stateMutability":"nonpayable","type":"function"},{"inputs":[{"internalType":"uint256","name":"","type":"uint256"}],"name":"borrowers","outputs":[{"internalType":"address","name":"","type":"address"}],"stateMutability":"view","type":"function"},{"inputs":[{"internalType":"uint256","name":"amount","type":"uint256"},{"internalType":"address","name":"tokenAddress","type":"address"}],"name":"getAmountInDollars","outputs":[{"internalType":"uint256","name":"","type":"uint256"}],"stateMutability":"view","type":"function"},{"inputs":[],"name":"getBorrowersArray","outputs":[{"internalType":"address[]","name":"","type":"address[]"}],"stateMutability":"view","type":"function"},{"inputs":[],"name":"getLendersArray","outputs":[{"internalType":"address[]","name":"","type":"address[]"}],"stateMutability":"view","type":"function"},{"inputs":[{"internalType":"address","name":"tokenAddress","type":"address"}],"name":"getTokenFrom","outputs":[{"components":[{"internalType":"address","name":"tokenAddress","type":"address"},{"internalType":"uint256","name":"LTV","type":"uint256"},{"internalType":"uint256","name":"stableRate","type":"uint256"}],"internalType":"struct LendingAndBorrowing.Token","name":"","type":"tuple"}],"stateMutability":"view","type":"function"},{"inputs":[{"internalType":"address","name":"user","type":"address"}],"name":"getTotalAmountBorrowedInDollars","outputs":[{"internalType":"uint256","name":"","type":"uint256"}],"stateMutability":"view","type":"function"},{"inputs":[{"internalType":"address","name":"user","type":"address"}],"name":"getTotalAmountLentInDollars","outputs":[{"internalType":"uint256","name":"","type":"uint256"}],"stateMutability":"view","type":"function"},{"inputs":[{"internalType":"address","name":"tokenAddress","type":"address"}],"name":"getTotalTokenBorrowed","outputs":[{"internalType":"uint256","name":"","type":"uint256"}],"stateMutability":"view","type":"function"},{"inputs":[{"internalType":"address","name":"tokenAddres","type":"address"}],"name":"getTotalTokenSupplied","outputs":[{"internalType":"uint256","name":"","type":"uint256"}],"stateMutability":"view","type":"function"},{"inputs":[{"internalType":"address","name":"user","type":"address"}],"name":"getUserTotalAmountAvailableForBorrowInDollars","outputs":[{"internalType":"uint256","name":"","type":"uint256"}],"stateMutability":"view","type":"function"},{"inputs":[{"internalType":"address","name":"user","type":"address"},{"internalType":"address[]","name":"addressArray","type":"address[]"}],"name":"indexOf","outputs":[{"internalType":"int256","name":"","type":"int256"}],"stateMutability":"nonpayable","type":"function"},{"inputs":[{"internalType":"address","name":"tokenAddress","type":"address"},{"internalType":"uint256","name":"tokenBorrowed","type":"uint256"}],"name":"interest","outputs":[{"internalType":"uint256","name":"","type":"uint256"}],"stateMutability":"view","type":"function"},{"inputs":[],"name":"larToken","outputs":[{"internalType":"contract IERC20","name":"","type":"address"}],"stateMutability":"view","type":"function"},{"inputs":[{"internalType":"address","name":"tokenAddress","type":"address"},{"internalType":"uint256","name":"amount","type":"uint256"}],"name":"lend","outputs":[],"stateMutability":"payable","type":"function"},{"inputs":[{"internalType":"uint256","name":"","type":"uint256"}],"name":"lenders","outputs":[{"internalType":"address","name":"","type":"address"}],"stateMutability":"view","type":"function"},{"inputs":[],"name":"noOfTokensBorrowed","outputs":[{"internalType":"uint256","name":"","type":"uint256"}],"stateMutability":"view","type":"function"},{"inputs":[],"name":"noOfTokensLent","outputs":[{"internalType":"uint256","name":"","type":"uint256"}],"stateMutability":"view","type":"function"},{"inputs":[{"internalType":"address","name":"tokenAddress","type":"address"}],"name":"oneTokenEqualsHowManyDollars","outputs":[{"internalType":"uint256","name":"","type":"uint256"},{"internalType":"uint256","name":"","type":"uint256"}],"stateMutability":"view","type":"function"},{"inputs":[],"name":"owner","outputs":[{"internalType":"address","name":"","type":"address"}],"stateMutability":"view","type":"function"},{"inputs":[{"internalType":"address","name":"tokenAddress","type":"address"},{"internalType":"uint256","name":"amount","type":"uint256"}],"name":"payDebt","outputs":[],"stateMutability":"nonpayable","type":"function"},{"inputs":[],"name":"renounceOwnership","outputs":[],"stateMutability":"nonpayable","type":"function"},{"inputs":[{"internalType":"address","name":"","type":"address"}],"name":"tokenToPriceFeed","outputs":[{"internalType":"address","name":"","type":"address"}],"stateMutability":"view","type":"function"},{"inputs":[{"internalType":"uint256","name":"","type":"uint256"},{"internalType":"address","name":"","type":"address"}],"name":"tokensBorrowed","outputs":[{"internalType":"address","name":"","type":"address"}],"stateMutability":"view","type":"function"},{"inputs":[{"internalType":"address","name":"","type":"address"},{"internalType":"address","name":"","type":"address"}],"name":"tokensBorrowedAmount","outputs":[{"internalType":"uint256","name":"","type":"uint256"}],"stateMutability":"view","type":"function"},{"inputs":[{"internalType":"uint256","name":"","type":"uint256"}],"name":"tokensForBorrowing","outputs":[{"internalType":"address","name":"tokenAddress","type":"address"},{"internalType":"uint256","name":"LTV","type":"uint256"},{"internalType":"uint256","name":"stableRate","type":"uint256"}],"stateMutability":"view","type":"function"},{"inputs":[{"internalType":"uint256","name":"","type":"uint256"}],"name":"tokensForLending","outputs":[{"internalType":"address","name":"tokenAddress","type":"address"},{"internalType":"uint256","name":"LTV","type":"uint256"},{"internalType":"uint256","name":"stableRate","type":"uint256"}],"stateMutability":"view","type":"function"},{"inputs":[{"internalType":"uint256","name":"","type":"uint256"},{"internalType":"address","name":"","type":"address"}],"name":"tokensLent","outputs":[{"internalType":"address","name":"","type":"address"}],"stateMutability":"view","type":"function"},{"inputs":[{"internalType":"address","name":"","type":"address"},{"internalType":"address","name":"","type":"address"}],"name":"tokensLentAmount","outputs":[{"internalType":"uint256","name":"","type":"uint256"}],"stateMutability":"view","type":"function"},{"inputs":[{"internalType":"uint256","name":"","type":"uint256"},{"internalType":"address","name":"","type":"address"}],"name":"tokensLentOrBorrowed","outputs":[{"internalType":"address","name":"","type":"address"}],"stateMutability":"view","type":"function"},{"inputs":[{"internalType":"address","name":"newOwner","type":"address"}],"name":"transferOwnership","outputs":[],"stateMutability":"nonpayable","type":"function"},{"inputs":[{"internalType":"address","name":"tokenAddress","type":"address"},{"internalType":"uint256","name":"amount","type":"uint256"}],"name":"withdraw","outputs":[],"stateMutability":"nonpayable","type":"function"}],"bytecode":"60806040526000600c556000600d553480156200001b57600080fd5b5060405162002f4438038062002f448339810160408190526200003e91620000bf565b62000049336200006f565b600b80546001600160a01b0319166001600160a01b0392909216919091179055620000f1565b600080546001600160a01b038381166001600160a01b0319831681178455604051919092169283917f8be0079c531659141344cd1fd0a4f28419497f9722a3daafe3b4186f6b6457e09190a35050565b600060208284031215620000d257600080fd5b81516001600160a01b0381168114620000ea57600080fd5b9392505050565b612e4380620001016000396000f3fe6080604052600436106102045760003560e01c80638da5cb5b11610118578063cd927409116100a0578063f3fef3a31161006f578063f3fef3a31461068d578063fb24af7f146106ad578063fc757b88146106cd578063fdc8070e14610718578063fe726f801461074d57600080fd5b8063cd927409146105ec578063d590aa7e1461062d578063f1c0e3491461064d578063f2fde38b1461066d57600080fd5b8063a8b74152116100e7578063a8b741521461051d578063ab56ee6614610555578063b3d16f8d14610575578063b9f09bb814610595578063c0a8a540146105ab57600080fd5b80638da5cb5b146104ac578063929eea21146104ca578063a2fb342d146104ea578063a7772b97146104fd57600080fd5b8063447007fd1161019b57806374fd0ce01161016a57806374fd0ce0146103c85780637924d93f146104215780637b9ec997146104415780638078f22c146104615780638cf1806b1461049757600080fd5b8063447007fd1461035d5780634b3fd1481461037d578063541d83381461039d578063715018a6146103b357600080fd5b80631818dd0b116101d75780631818dd0b146102c157806327e8e184146102e357806332263d6b1461031b5780633c9d50931461033b57600080fd5b806306254c6a1461020957806308ae7fc21461023c57806311f4f5d3146102815780631419f093146102a1575b600080fd5b34801561021557600080fd5b506102296102243660046128b8565b61076d565b6040519081526020015b60405180910390f35b34801561024857600080fd5b5061025c6102573660046128da565b6107f8565b604080516001600160a01b039094168452602084019290925290820152606001610233565b34801561028d57600080fd5b5061022961029c3660046128f3565b610835565b3480156102ad57600080fd5b506102296102bc3660046128b8565b61086e565b3480156102cd57600080fd5b506102e16102dc3660046128f3565b6108ff565b005b3480156102ef57600080fd5b506102296102fe36600461291d565b600360209081526000928352604080842090915290825290205481565b34801561032757600080fd5b506102e1610336366004612950565b610c12565b34801561034757600080fd5b50610350610d9e565b6040516102339190612983565b34801561036957600080fd5b5061025c6103783660046128da565b610e00565b34801561038957600080fd5b506102e16103983660046129d0565b610e10565b3480156103a957600080fd5b50610229600d5481565b3480156103bf57600080fd5b506102e1611248565b3480156103d457600080fd5b506104096103e33660046129d0565b60066020908152600092835260408084209091529082529020546001600160a01b031681565b6040516001600160a01b039091168152602001610233565b34801561042d57600080fd5b5061040961043c3660046128da565b61127e565b34801561044d57600080fd5b5061022961045c3660046128b8565b6112a8565b34801561046d57600080fd5b5061040961047c3660046128b8565b6007602052600090815260409020546001600160a01b031681565b3480156104a357600080fd5b506103506113f0565b3480156104b857600080fd5b506000546001600160a01b0316610409565b3480156104d657600080fd5b506104096104e53660046128da565b611450565b6102e16104f83660046128f3565b611460565b34801561050957600080fd5b506102296105183660046128b8565b61183e565b34801561052957600080fd5b5061022961053836600461291d565b600460209081526000928352604080842090915290825290205481565b34801561056157600080fd5b506102296105703660046128b8565b6118cf565b34801561058157600080fd5b506102e161059036600461291d565b611952565b3480156105a157600080fd5b50610229600c5481565b3480156105b757600080fd5b506104096105c63660046129d0565b60086020908152600092835260408084209091529082529020546001600160a01b031681565b3480156105f857600080fd5b506104096106073660046129d0565b60056020908152600092835260408084209091529082529020546001600160a01b031681565b34801561063957600080fd5b506102e1610648366004612950565b6119aa565b34801561065957600080fd5b50610229610668366004612a09565b611b2b565b34801561067957600080fd5b506102e16106883660046128b8565b611b98565b34801561069957600080fd5b506102e16106a83660046128f3565b611c33565b3480156106b957600080fd5b506102296106c83660046129d0565b611f42565b3480156106d957600080fd5b506106ed6106e83660046128b8565b611f80565b6040805182516001600160a01b03168152602080840151908201529181015190820152606001610233565b34801561072457600080fd5b506107386107333660046128b8565b612067565b60408051928352602083019190915201610233565b34801561075957600080fd5b50600b54610409906001600160a01b031681565b6001546000908190156107f25760005b6001548110156107f05760006001828154811061079c5761079c612ae1565b60009182526020808320909101546001600160a01b038881168452600383526040808520919092168085529252909120549091506107da9084612b0d565b92505080806107e890612b25565b91505061077d565b505b92915050565b6009818154811061080857600080fd5b60009182526020909120600390910201805460018201546002909201546001600160a01b03909116925083565b60008061084184611f80565b9050670de0b6b3a764000081604001518461085c9190612b40565b6108669190612b5f565b949350505050565b600080805b600d548110156107f05760008181526006602090815260408083206001600160a01b0380891685529252909120541680156108ec576001600160a01b038082166000908152600460209081526040808320938916835292905290812054906108db8284611f42565b90506108e78186612b0d565b945050505b50806108f781612b25565b915050610873565b600081116109285760405162461bcd60e51b815260040161091f90612b81565b60405180910390fd5b600061098e33600280548060200260200160405190810160405280929190818152602001828054801561098457602002820191906000526020600020905b81546001600160a01b03168152600190910190602001808311610966575b5050505050611b2b565b905060008112156109fc5760405162461bcd60e51b815260206004820152603260248201527f557365722061646472657373206973206e6f7420666f756e6420696e20746865604482015271206c697374206f6620626f72726f7765727360701b606482015260840161091f565b6001600160a01b038316600090815260046020908152604080832033845290915290205480610a625760405162461bcd60e51b8152602060048201526012602482015271596f752020617265206e6f74206f77696e6760701b604482015260640161091f565b836000610a6f8284610835565b610a799086612b0d565b6040516323b872dd60e01b8152336004820152306024820152604481018290529091506001600160a01b038316906323b872dd906064016020604051808303816000875af1158015610acf573d6000803e3d6000fd5b505050506040513d601f19601f82011682018060405250810190610af39190612bb8565b506001600160a01b0386166000908152600460209081526040808320338452909152902054610b23908690612bda565b6001600160a01b038716600090815260046020908152604080832033808552925282209290925590610b549061086e565b905080610c095760028054610b6b90600190612bda565b81548110610b7b57610b7b612ae1565b600091825260209091200154600280546001600160a01b039092169187908110610ba757610ba7612ae1565b9060005260206000200160006101000a8154816001600160a01b0302191690836001600160a01b031602179055506002805480610be657610be6612bf1565b600082815260209020810160001990810180546001600160a01b03191690550190555b50505050505050565b6000546001600160a01b03163314610c3c5760405162461bcd60e51b815260040161091f90612c07565b60006040518060600160405280856001600160a01b03168152602001848152602001838152509050610ce881600a805480602002602001604051908101604052809291908181526020016000905b82821015610cdf576000848152602090819020604080516060810182526003860290920180546001600160a01b0316835260018082015484860152600290910154918301919091529083529092019101610c8a565b50505050612168565b610d9857600a805460018101825560009190915281517fc65a7bb8d6351c1cf70c95a316cc6a92839c986682d98bc35f958f4883f9d2a8600390920291820180546001600160a01b0319166001600160a01b0390921691909117905560208201517fc65a7bb8d6351c1cf70c95a316cc6a92839c986682d98bc35f958f4883f9d2a982015560408201517fc65a7bb8d6351c1cf70c95a316cc6a92839c986682d98bc35f958f4883f9d2aa909101555b50505050565b60606001805480602002602001604051908101604052809291908181526020018280548015610df657602002820191906000526020600020905b81546001600160a01b03168152600190910190602001808311610dd8575b5050505050905090565b600a818154811061080857600080fd5b610e9481600a805480602002602001604051908101604052809291908181526020016000905b82821015610e8b576000848152602090819020604080516060810182526003860290920180546001600160a01b0316835260018082015484860152600290910154918301919091529083529092019101610e36565b505050506121e7565b610eec5760405162461bcd60e51b8152602060048201526024808201527f546f6b656e206973206e6f7420737570706f7274656420666f7220626f72726f60448201526377696e6760e01b606482015260840161091f565b60008211610f0c5760405162461bcd60e51b815260040161091f90612b81565b6000610f17336112a8565b90506000610f258484611f42565b905081811115610f965760405162461bcd60e51b815260206004820152603660248201527f596f7520646f6e2774206861766520656e6f75676820636f6c6c61746572616c604482015275081d1bc8189bdc9c9bddc81d1a1a5cc8185b5bdd5b9d60521b606482015260840161091f565b6040516370a0823160e01b8152306004820152839085906001600160a01b038316906370a0823190602401602060405180830381865afa158015610fde573d6000803e3d6000fd5b505050506040513d601f19601f820116820180604052508101906110029190612c3c565b1161106e5760405162461bcd60e51b815260206004820152603660248201527f576520646f206e6f74206861766520656e6f756768206f66207468697320746f60448201527535b2b7103337b9103cb7ba903a37903137b93937bb9760511b606482015260840161091f565b60405163a9059cbb60e01b8152336004820152602481018690526001600160a01b0382169063a9059cbb906044016020604051808303816000875af11580156110bb573d6000803e3d6000fd5b505050506040513d601f19601f820116820180604052508101906110df9190612bb8565b5060008061114733600280548060200260200160405190810160405280929190818152602001828054801561113d57602002820191906000526020600020905b81546001600160a01b0316815260019091019060200180831161111f575b5050505050612257565b9150915081156111835761117e86888360405180604001604052806009815260200168626f72726f7765727360b81b8152506122d9565b610c09565b60028054600181019091557f405787fa12a823e0f2b7631cc41b3ba8828b3321ca811111fa75cd3aa3bb5ace0180546001600160a01b031916339081179091556001600160a01b0387166000908152600460209081526040808320938352929052908120889055600d805488926006929091908261120083612b25565b90915550815260208082019290925260409081016000908120338252909252902080546001600160a01b0319166001600160a01b039290921691909117905550505050505050565b6000546001600160a01b031633146112725760405162461bcd60e51b815260040161091f90612c07565b61127c600061261a565b565b6002818154811061128e57600080fd5b6000918252602090912001546001600160a01b0316905081565b600080805b600c548110156107f05760008181526005602090815260408083206001600160a01b0380891685529252909120541680156113dd5760006112ed82611f80565b6020818101516001600160a01b038581166000908152600484526040808220928c16825291909352822054929350911515908161135057506001600160a01b038085166000908152600360209081526040808320938c168352929052205461139b565b6001600160a01b038086166000818152600460209081526040808320948e16808452948252808320549383526003825280832094835293905291909120546113989190612bda565b90505b60006113a78287611f42565b90506000670de0b6b3a76400006113be8684612b40565b6113c89190612b5f565b90506113d4818a612b0d565b98505050505050505b50806113e881612b25565b9150506112ad565b60606002805480602002602001604051908101604052809291908181526020018280548015610df6576020028201919060005260206000209081546001600160a01b03168152600190910190602001808311610dd8575050505050905090565b6001818154811061128e57600080fd5b6114da8260098054806020026020016040519081016040528092919081815260200160009082821015610e8b576000848152602090819020604080516060810182526003860290920180546001600160a01b0316835260018082015484860152600290910154918301919091529083529092019101610e36565b61151f5760405162461bcd60e51b8152602060048201526016602482015275151bdad95b881a5cc81b9bdd081cdd5c1c1bdc9d195960521b604482015260640161091f565b600081116115855760405162461bcd60e51b815260206004820152602d60248201527f54686520616d6f756e7420746f20737570706c792073686f756c64206265206760448201526c0726561746572207468616e203609c1b606482015260840161091f565b6040516370a0823160e01b8152336004820152829082906001600160a01b038316906370a0823190602401602060405180830381865afa1580156115cd573d6000803e3d6000fd5b505050506040513d601f19601f820116820180604052508101906115f19190612c3c565b10156116595760405162461bcd60e51b815260206004820152603160248201527f596f75206861766520696e73756666696369656e7420746f6b656e20746f20736044820152701d5c1c1b1e481d1a185d08185b5bdd5b9d607a1b606482015260840161091f565b6040516323b872dd60e01b8152336004820152306024820152604481018390526001600160a01b038216906323b872dd906064016020604051808303816000875af11580156116ac573d6000803e3d6000fd5b505050506040513d601f19601f820116820180604052508101906116d09190612bb8565b5060008061173633600180548060200260200160405190810160405280929190818152602001828054801561113d576020028201919060005260206000209081546001600160a01b0316815260019091019060200180831161111f575050505050612257565b9150915081156117705761176b858583604051806040016040528060078152602001666c656e6465727360c81b8152506122d9565b61182c565b600180548082019091557fb10e2d527612073b26eecdfd717e6a320cf44b4afac2b0732d9fcbe2b7fa0cf60180546001600160a01b031916339081179091556001600160a01b0386166000908152600360209081526040808320938352929052908120859055600c80548792600592909190826117ec83612b25565b90915550815260208082019290925260409081016000908120338252909252902080546001600160a01b0319166001600160a01b03929092169190911790555b61183733868661266a565b5050505050565b600080805b600c548110156107f05760008181526005602090815260408083206001600160a01b0380891685529252909120541680156118bc576001600160a01b038082166000908152600360209081526040808320938916835292905290812054906118ab8284611f42565b90506118b78186612b0d565b945050505b50806118c781612b25565b915050611843565b6002546000908190156107f25760005b6002548110156107f0576000600282815481106118fe576118fe612ae1565b60009182526020808320909101546001600160a01b0388811684526004835260408085209190921680855292529091205490915061193c9084612b0d565b925050808061194a90612b25565b9150506118df565b6000546001600160a01b0316331461197c5760405162461bcd60e51b815260040161091f90612c07565b6001600160a01b03918216600090815260076020526040902080546001600160a01b03191691909216179055565b6000546001600160a01b031633146119d45760405162461bcd60e51b815260040161091f90612c07565b60006040518060600160405280856001600160a01b03168152602001848152602001838152509050611a768160098054806020026020016040519081016040528092919081815260200160009082821015610cdf576000848152602090819020604080516060810182526003860290920180546001600160a01b0316835260018082015484860152600290910154918301919091529083529092019101610c8a565b610d98576009805460018101825560009190915281517f6e1540171b6c0c960b71a7020d9f60077f6af931a8bbf590da0223dacf75c7af600390920291820180546001600160a01b0319166001600160a01b0390921691909117905560208201517f6e1540171b6c0c960b71a7020d9f60077f6af931a8bbf590da0223dacf75c7b08201556040909101517f6e1540171b6c0c960b71a7020d9f60077f6af931a8bbf590da0223dacf75c7b190910155505050565b6000600019815b8351811015611b90576000848281518110611b4f57611b4f612ae1565b60200260200101519050856001600160a01b0316816001600160a01b03161415611b7d575091506107f29050565b5080611b8881612b25565b915050611b32565b509392505050565b6000546001600160a01b03163314611bc25760405162461bcd60e51b815260040161091f90612c07565b6001600160a01b038116611c275760405162461bcd60e51b815260206004820152602660248201527f4f776e61626c653a206e6577206f776e657220697320746865207a65726f206160448201526564647265737360d01b606482015260840161091f565b611c308161261a565b50565b60008111611c535760405162461bcd60e51b815260040161091f90612b81565b6000611cb7336001805480602002602001604051908101604052809291908181526020018280548015610984576020028201919060005260206000209081546001600160a01b03168152600190910190602001808311610966575050505050611b2b565b90506000811215611d235760405162461bcd60e51b815260206004820152603060248201527f557365722061646472657373206973206e6f7420666f756e6420696e2074686560448201526f206c697374206f66206c656e6465727360801b606482015260840161091f565b6001600160a01b0383166000908152600360209081526040808320338452909152902054839083811015611d5657600080fd5b6000611d628587611f42565b600b546040516323b872dd60e01b8152336004820152306024820152604481018390529192506001600160a01b0316906323b872dd906064016020604051808303816000875af1158015611dba573d6000803e3d6000fd5b505050506040513d601f19601f82011682018060405250810190611dde9190612bb8565b5060405163a9059cbb60e01b8152336004820152602481018690526001600160a01b0384169063a9059cbb906044016020604051808303816000875af1158015611e2c573d6000803e3d6000fd5b505050506040513d601f19601f82011682018060405250810190611e509190612bb8565b506001600160a01b0386166000908152600360209081526040808320338452909152902054611e80908690612bda565b6001600160a01b038716600090815260036020908152604080832033808552925282209290925590611eb19061183e565b905080610c095760018054611ec7908290612bda565b81548110611ed757611ed7612ae1565b600091825260209091200154600180546001600160a01b039092169187908110611f0357611f03612ae1565b9060005260206000200160006101000a8154816001600160a01b0302191690836001600160a01b031602179055506001805480610be657610be6612bf1565b6000806000611f5084612067565b90925090506000611f6282600a612d39565b611f6c8488612b40565b611f769190612b5f565b9695505050505050565b611fad604051806060016040528060006001600160a01b0316815260200160008152602001600081525090565b611fda604051806060016040528060006001600160a01b0316815260200160008152602001600081525090565b60005b600a548110156107f0576000600a8281548110611ffc57611ffc612ae1565b600091825260209182902060408051606081018252600390930290910180546001600160a01b0390811680855260018301549585019590955260029091015491830191909152909250861614156120545791506107f0565b508061205f81612b25565b915050611fdd565b6001600160a01b03808216600090815260076020526040808220548151633fabe5a360e21b815291519293849391169182918491839163feaf968c9160048082019260a0929091908290030181865afa1580156120c8573d6000803e3d6000fd5b505050506040513d601f19601f820116820180604052508101906120ec9190612d5f565b5050509150506000826001600160a01b031663313ce5676040518163ffffffff1660e01b8152600401602060405180830381865afa158015612132573d6000803e3d6000fd5b505050506040513d601f19601f820116820180604052508101906121569190612daf565b919760ff909216965090945050505050565b8051600090156121de5760005b82518110156121dc57600083828151811061219257612192612ae1565b6020026020010151905084600001516001600160a01b031681600001516001600160a01b031614156121c9576001925050506107f2565b50806121d481612b25565b915050612175565b505b50600092915050565b8051600090156121de5760005b82518110156121dc57600083828151811061221157612211612ae1565b60200260200101519050846001600160a01b031681600001516001600160a01b03161415612244576001925050506107f2565b508061224f81612b25565b9150506121f4565b6000806000835111156122c95760005b83518110156122c757600084828151811061228457612284612ae1565b60200260200101519050856001600160a01b0316816001600160a01b031614156122b457506001925090506122d2565b50806122bf81612b25565b915050612267565b505b50600090506000195b9250929050565b604051666c656e6465727360c81b602082015260270160405160208183030381529060405280519060200120816040516020016123169190612dd2565b6040516020818303038152906040528051906020012014156124765760006001838154811061234757612347612ae1565b9060005260206000200160009054906101000a90046001600160a01b0316905060006123998287600c546040518060400160405280600a8152602001691d1bdad95b9cd3195b9d60b21b81525061270f565b905080156123fd576001600160a01b038087166000908152600360209081526040808320938616835292905220546123d2908690612b0d565b6001600160a01b0380881660009081526003602090815260408083209387168352929052205561246f565b600c805487916005916000918261241383612b25565b909155508152602080820192909252604090810160009081206001600160a01b0387811680845291855283832080546001600160a01b03191696821696909617909555938a168152600383528181209381529290915290208590555b5050610d98565b60405168626f72726f7765727360b81b602082015260290160405160208183030381529060405280519060200120816040516020016124b59190612dd2565b604051602081830303815290604052805190602001201415610d98576000600283815481106124e6576124e6612ae1565b9060005260206000200160009054906101000a90046001600160a01b03169050600061253c8287600d546040518060400160405280600e81526020016d1d1bdad95b9cd09bdc9c9bddd95960921b81525061270f565b905080156125a0576001600160a01b03808716600090815260046020908152604080832093861683529290522054612575908690612b0d565b6001600160a01b03808816600090815260046020908152604080832093871683529290522055612612565b600d80548791600691600091826125b683612b25565b909155508152602080820192909252604090810160009081206001600160a01b0387811680845291855283832080546001600160a01b03191696821696909617909555938a168152600483528181209381529290915290208590555b505050505050565b600080546001600160a01b038381166001600160a01b0319831681178455604051919092169283917f8be0079c531659141344cd1fd0a4f28419497f9722a3daafe3b4186f6b6457e09190a35050565b6000811161268a5760405162461bcd60e51b815260040161091f90612b81565b60006126968284611f42565b600b5460405163a9059cbb60e01b81526001600160a01b0387811660048301526024820184905292935091169063a9059cbb906044016020604051808303816000875af11580156126eb573d6000803e3d6000fd5b505050506040513d601f19601f820116820180604052508101906118379190612bb8565b6000821561289157604051691d1bdad95b9cd3195b9d60b21b6020820152602a0160405160208183030381529060405280519060200120826040516020016127579190612dd2565b6040516020818303038152906040528051906020012014156127d45760005b600d548110156127ce5760008181526005602090815260408083206001600160a01b03808b16855292529091205481169086168114156127bb57600192505050610866565b50806127c681612b25565b915050612776565b50612891565b6040516d1d1bdad95b9cd09bdc9c9bddd95960921b6020820152602e0160405160208183030381529060405280519060200120826040516020016128189190612dd2565b6040516020818303038152906040528051906020012014156128915760005b600c5481101561288f5760008181526006602090815260408083206001600160a01b03808b168552925290912054811690861681141561287c57600192505050610866565b508061288781612b25565b915050612837565b505b506000949350505050565b80356001600160a01b03811681146128b357600080fd5b919050565b6000602082840312156128ca57600080fd5b6128d38261289c565b9392505050565b6000602082840312156128ec57600080fd5b5035919050565b6000806040838503121561290657600080fd5b61290f8361289c565b946020939093013593505050565b6000806040838503121561293057600080fd5b6129398361289c565b91506129476020840161289c565b90509250929050565b60008060006060848603121561296557600080fd5b61296e8461289c565b95602085013595506040909401359392505050565b6020808252825182820181905260009190848201906040850190845b818110156129c45783516001600160a01b03168352928401929184019160010161299f565b50909695505050505050565b600080604083850312156129e357600080fd5b823591506129476020840161289c565b634e487b7160e01b600052604160045260246000fd5b60008060408385031215612a1c57600080fd5b612a258361289c565b915060208084013567ffffffffffffffff80821115612a4357600080fd5b818601915086601f830112612a5757600080fd5b813581811115612a6957612a696129f3565b8060051b604051601f19603f83011681018181108582111715612a8e57612a8e6129f3565b604052918252848201925083810185019189831115612aac57600080fd5b938501935b82851015612ad157612ac28561289c565b84529385019392850192612ab1565b8096505050505050509250929050565b634e487b7160e01b600052603260045260246000fd5b634e487b7160e01b600052601160045260246000fd5b60008219821115612b2057612b20612af7565b500190565b6000600019821415612b3957612b39612af7565b5060010190565b6000816000190483118215151615612b5a57612b5a612af7565b500290565b600082612b7c57634e487b7160e01b600052601260045260246000fd5b500490565b6020808252601f908201527f416d6f756e742073686f756c642062652067726561746572207468616e203000604082015260600190565b600060208284031215612bca57600080fd5b815180151581146128d357600080fd5b600082821015612bec57612bec612af7565b500390565b634e487b7160e01b600052603160045260246000fd5b6020808252818101527f4f776e61626c653a2063616c6c6572206973206e6f7420746865206f776e6572604082015260600190565b600060208284031215612c4e57600080fd5b5051919050565b600181815b80851115612c90578160001904821115612c7657612c76612af7565b80851615612c8357918102915b93841c9390800290612c5a565b509250929050565b600082612ca7575060016107f2565b81612cb4575060006107f2565b8160018114612cca5760028114612cd457612cf0565b60019150506107f2565b60ff841115612ce557612ce5612af7565b50506001821b6107f2565b5060208310610133831016604e8410600b8410161715612d13575081810a6107f2565b612d1d8383612c55565b8060001904821115612d3157612d31612af7565b029392505050565b60006128d38383612c98565b805169ffffffffffffffffffff811681146128b357600080fd5b600080600080600060a08688031215612d7757600080fd5b612d8086612d45565b9450602086015193506040860151925060608601519150612da360808701612d45565b90509295509295909350565b600060208284031215612dc157600080fd5b815160ff811681146128d357600080fd5b6000825160005b81811015612df35760208186018101518583015201612dd9565b81811115612e02576000828501525b50919091019291505056fea2646970667358221220a5326062902307411b204a384c72903b36753ec70ec2fe101ecdf42c97e731ef64736f6c634300080b0033","bytecodeSha1":"7ecfe15f47bf61003acee385afa3e06228cc6af5","compiler":{"evm_version":"istanbul","optimizer":{"enabled":true,"runs":200},"version":"0.8.11+commit.d7f03943"},"contractName":"LendingAndBorrowing","language":"Solidity","natspec":{"kind":"dev","methods":{"owner()":{"details":"Returns the address of the current owner."},"renounceOwnership()":{"details":"Leaves the contract without owner. It will not be possible to call `onlyOwner` functions anymore. Can only be called by the current owner. NOTE: Renouncing ownership will leave the contract without an owner, thereby removing any functionality that is only available to the owner."},"transferOwnership(address)":{"details":"Transfers ownership of the contract to a new account (`newOwner`). Can only be called by the current owner."}},"version":1},"opcodes":"PUSH1 0x80 PUSH1 0x40 MSTORE PUSH1 0x4 CALLDATASIZE LT PUSH2 0x204 JUMPI PUSH1 0x0 CALLDATALOAD PUSH1 0xE0 SHR DUP1 PUSH4 0x8DA5CB5B GT PUSH2 0x118 JUMPI DUP1 PUSH4 0xCD927409 GT PUSH2 0xA0 JUMPI DUP1 PUSH4 0xF3FEF3A3 GT PUSH2 0x6F JUMPI DUP1 PUSH4 0xF3FEF3A3 EQ PUSH2 0x68D JUMPI DUP1 PUSH4 0xFB24AF7F EQ PUSH2 0x6AD JUMPI DUP1 PUSH4 0xFC757B88 EQ PUSH2 0x6CD JUMPI DUP1 PUSH4 0xFDC8070E EQ PUSH2 0x718 JUMPI DUP1 PUSH4 0xFE726F80 EQ PUSH2 0x74D JUMPI PUSH1 0x0 DUP1 REVERT JUMPDEST DUP1 PUSH4 0xCD927409 EQ PUSH2 0x5EC JUMPI DUP1 PUSH4 0xD590AA7E EQ PUSH2 0x62D JUMPI DUP1 PUSH4 0xF1C0E349 EQ PUSH2 0x64D JUMPI DUP1 PUSH4 0xF2FDE38B EQ PUSH2 0x66D JUMPI PUSH1 0x0 DUP1 REVERT JUMPDEST DUP1 PUSH4 0xA8B74152 GT PUSH2 0xE7 JUMPI DUP1 PUSH4 0xA8B74152 EQ PUSH2 0x51D JUMPI DUP1 PUSH4 0xAB56EE66 EQ PUSH2 0x555 JUMPI DUP1 PUSH4 0xB3D16F8D EQ PUSH2 0x575 JUMPI DUP1 PUSH4 0xB9F09BB8 EQ PUSH2 0x595 JUMPI DUP1 PUSH4 0xC0A8A540 EQ PUSH2 0x5AB JUMPI PUSH1 0x0 DUP1 REVERT JUMPDEST DUP1 PUSH4 0x8DA5CB5B EQ PUSH2 0x4AC JUMPI DUP1 PUSH4 0x929EEA21 EQ PUSH2 0x4CA JUMPI DUP1 PUSH4 0xA2FB342D EQ PUSH2 0x4EA JUMPI DUP1 PUSH4 0xA7772B97 EQ PUSH2 0x4FD JUMPI PUSH1 0x0 DUP1 REVERT JUMPDEST DUP1 PUSH4 0x447007FD GT PUSH2 0x19B JUMPI DUP1 PUSH4 0x74FD0CE0 GT PUSH2 0x16A JUMPI DUP1 PUSH4 0x74FD0CE0 EQ PUSH2 0x3C8 JUMPI DUP1 PUSH4 0x7924D93F EQ PUSH2 0x421 JUMPI DUP1 PUSH4 0x7B9EC997 EQ PUSH2 0x441 JUMPI DUP1 PUSH4 0x8078F22C EQ PUSH2 0x461 JUMPI DUP1 PUSH4 0x8CF1806B EQ PUSH2 0x497 JUMPI PUSH1 0x0 DUP1 REVERT JUMPDEST DUP1 PUSH4 0x447007FD EQ PUSH2 0x35D JUMPI DUP1 PUSH4 0x4B3FD148 EQ PUSH2 0x37D JUMPI DUP1 PUSH4 0x541D8338 EQ PUSH2 0x39D JUMPI DUP1 PUSH4 0x715018A6 EQ PUSH2 0x3B3 JUMPI PUSH1 0x0 DUP1 REVERT JUMPDEST DUP1 PUSH4 0x1818DD0B GT PUSH2 0x1D7 JUMPI DUP1 PUSH4 0x1818DD0B EQ PUSH2 0x2C1 JUMPI DUP1 PUSH4 0x27E8E184 EQ PUSH2 0x2E3 JUMPI DUP1 PUSH4 0x32263D6B EQ PUSH2 0x31B JUMPI DUP1 PUSH4 0x3C9D5093 EQ PUSH2 0x33B JUMPI PUSH1 0x0 DUP1 REVERT JUMPDEST DUP1 PUSH4 0x6254C6A EQ PUSH2 0x209 JUMPI DUP1 PUSH4 0x8AE7FC2 EQ PUSH2 0x23C JUMPI DUP1 PUSH4 0x11F4F5D3 EQ PUSH2 0x281 JUMPI DUP1 PUSH4 0x1419F093 EQ PUSH2 0x2A1 JUMPI JUMPDEST PUSH1 0x0 DUP1 REVERT JUMPDEST CALLVALUE DUP1 ISZERO PUSH2 0x215 JUMPI PUSH1 0x0 DUP1 REVERT JUMPDEST POP PUSH2 0x229 PUSH2 0x224 CALLDATASIZE PUSH1 0x4 PUSH2 0x28B8 JUMP JUMPDEST PUSH2 0x76D JUMP JUMPDEST PUSH1 0x40 MLOAD SWAP1 DUP2 MSTORE PUSH1 0x20 ADD JUMPDEST PUSH1 0x40 MLOAD DUP1 SWAP2 SUB SWAP1 RETURN JUMPDEST CALLVALUE DUP1 ISZERO PUSH2 0x248 JUMPI PUSH1 0x0 DUP1 REVERT JUMPDEST POP PUSH2 0x25C PUSH2 0x257 CALLDATASIZE PUSH1 0x4 PUSH2 0x28DA JUMP JUMPDEST PUSH2 0x7F8 JUMP JUMPDEST PUSH1 0x40 DUP1 MLOAD PUSH1 0x1 PUSH1 0x1 PUSH1 0xA0 SHL SUB SWAP1 SWAP5 AND DUP5 MSTORE PUSH1 0x20 DUP5 ADD SWAP3 SWAP1 SWAP3 MSTORE SWAP1 DUP3 ADD MSTORE PUSH1 0x60 ADD PUSH2 0x233 JUMP JUMPDEST CALLVALUE DUP1 ISZERO PUSH2 0x28D JUMPI PUSH1 0x0 DUP1 REVERT JUMPDEST POP PUSH2 0x229 PUSH2 0x29C CALLDATASIZE PUSH1 0x4 PUSH2 0x28F3 JUMP JUMPDEST PUSH2 0x835 JUMP JUMPDEST CALLVALUE DUP1 ISZERO PUSH2 0x2AD JUMPI PUSH1 0x0 DUP1 REVERT JUMPDEST POP PUSH2 0x229 PUSH2 0x2BC CALLDATASIZE PUSH1 0x4 PUSH2 0x28B8 JUMP JUMPDEST PUSH2 0x86E JUMP JUMPDEST CALLVALUE DUP1 ISZERO PUSH2 0x2CD JUMPI PUSH1 0x0 DUP1 REVERT JUMPDEST POP PUSH2 0x2E1 PUSH2 0x2DC CALLDATASIZE PUSH1 0x4 PUSH2 0x28F3 JUMP JUMPDEST PUSH2 0x8FF JUMP JUMPDEST STOP JUMPDEST CALLVALUE DUP1 ISZERO PUSH2 0x2EF JUMPI PUSH1 0x0 DUP1 REVERT JUMPDEST POP PUSH2 0x229 PUSH2 0x2FE CALLDATASIZE PUSH1 0x4 PUSH2 0x291D JUMP JUMPDEST PUSH1 0x3 PUSH1 0x20 SWAP1 DUP2 MSTORE PUSH1 0x0 SWAP3 DUP4 MSTORE PUSH1 0x40 DUP1 DUP5 KECCAK256 SWAP1 SWAP2 MSTORE SWAP1 DUP3 MSTORE SWAP1 KECCAK256 SLOAD DUP2 JUMP JUMPDEST CALLVALUE DUP1 ISZERO PUSH2 0x327 JUMPI PUSH1 0x0 DUP1 REVERT JUMPDEST POP PUSH2 0x2E1 PUSH2 0x336 CALLDATASIZE PUSH1 0x4 PUSH2 0x2950 JUMP JUMPDEST PUSH2 0xC12 JUMP JUMPDEST CALLVALUE DUP1 ISZERO PUSH2 0x347 JUMPI PUSH1 0x0 DUP1 REVERT JUMPDEST POP PUSH2 0x350 PUSH2 0xD9E JUMP JUMPDEST PUSH1 0x40 MLOAD PUSH2 0x233 SWAP2 SWAP1 PUSH2 0x2983 JUMP JUMPDEST CALLVALUE DUP1 ISZERO PUSH2 0x369 JUMPI PUSH1 0x0 DUP1 REVERT JUMPDEST POP PUSH2 0x25C PUSH2 0x378 CALLDATASIZE PUSH1 0x4 PUSH2 0x28DA JUMP JUMPDEST PUSH2 0xE00 JUMP JUMPDEST CALLVALUE DUP1 ISZERO PUSH2 0x389 JUMPI PUSH1 0x0 DUP1 REVERT JUMPDEST POP PUSH2 0x2E1 PUSH2 0x398 CALLDATASIZE PUSH1 0x4 PUSH2 0x29D0 JUMP JUMPDEST PUSH2 0xE10 JUMP JUMPDEST CALLVALUE DUP1 ISZERO PUSH2 0x3A9 JUMPI PUSH1 0x0 DUP1 REVERT JUMPDEST POP PUSH2 0x229 PUSH1 0xD SLOAD DUP2 JUMP JUMPDEST CALLVALUE DUP1 ISZERO PUSH2 0x3BF JUMPI PUSH1 0x0 DUP1 REVERT JUMPDEST POP PUSH2 0x2E1 PUSH2 0x1248 JUMP JUMPDEST CALLVALUE DUP1 ISZERO PUSH2 0x3D4 JUMPI PUSH1 0x0 DUP1 REVERT JUMPDEST POP PUSH2 0x409 PUSH2 0x3E3 CALLDATASIZE PUSH1 0x4 PUSH2 0x29D0 JUMP JUMPDEST PUSH1 0x6 PUSH1 0x20 SWAP1 DUP2 MSTORE PUSH1 0x0 SWAP3 DUP4 MSTORE PUSH1 0x40 DUP1 DUP5 KECCAK256 SWAP1 SWAP2 MSTORE SWAP1 DUP3 MSTORE SWAP1 KECCAK256 SLOAD PUSH1 0x1 PUSH1 0x1 PUSH1 0xA0 SHL SUB AND DUP2 JUMP JUMPDEST PUSH1 0x40 MLOAD PUSH1 0x1 PUSH1 0x1 PUSH1 0xA0 SHL SUB SWAP1 SWAP2 AND DUP2 MSTORE PUSH1 0x20 ADD PUSH2 0x233 JUMP JUMPDEST CALLVALUE DUP1 ISZERO PUSH2 0x42D JUMPI PUSH1 0x0 DUP1 REVERT JUMPDEST POP PUSH2 0x409 PUSH2 0x43C CALLDATASIZE PUSH1 0x4 PUSH2 0x28DA JUMP JUMPDEST PUSH2 0x127E JUMP JUMPDEST CALLVALUE DUP1 ISZERO PUSH2 0x44D JUMPI PUSH1 0x0 DUP1 REVERT JUMPDEST POP PUSH2 0x229 PUSH2 0x45C CALLDATASIZE PUSH1 0x4 PUSH2 0x28B8 JUMP JUMPDEST PUSH2 0x12A8 JUMP JUMPDEST CALLVALUE DUP1 ISZERO PUSH2 0x46D JUMPI PUSH1 0x0 DUP1 REVERT JUMPDEST POP PUSH2 0x409 PUSH2 0x47C CALLDATASIZE PUSH1 0x4 PUSH2 0x28B8 JUMP JUMPDEST PUSH1 0x7 PUSH1 0x20 MSTORE PUSH1 0x0 SWAP1 DUP2 MSTORE PUSH1 0x40 SWAP1 KECCAK256 SLOAD PUSH1 0x1 PUSH1 0x1 PUSH1 0xA0 SHL SUB AND DUP2 JUMP JUMPDEST CALLVALUE DUP1 ISZERO PUSH2 0x4A3 JUMPI PUSH1 0x0 DUP1 REVERT JUMPDEST POP PUSH2 0x350 PUSH2 0x13F0 JUMP JUMPDEST CALLVALUE DUP1 ISZERO PUSH2 0x4B8 JUMPI PUSH1 0x0 DUP1 REVERT JUMPDEST POP PUSH1 0x0 SLOAD PUSH1 0x1 PUSH1 0x1 PUSH1 0xA0 SHL SUB AND PUSH2 0x409 JUMP JUMPDEST CALLVALUE DUP1 ISZERO PUSH2 0x4D6 JUMPI PUSH1 0x0 DUP1 REVERT JUMPDEST POP PUSH2 0x409 PUSH2 0x4E5 CALLDATASIZE PUSH1 0x4 PUSH2 0x28DA JUMP JUMPDEST PUSH2 0x1450 JUMP JUMPDEST PUSH2 0x2E1 PUSH2 0x4F8 CALLDATASIZE PUSH1 0x4 PUSH2 0x28F3 JUMP JUMPDEST PUSH2 0x1460 JUMP JUMPDEST CALLVALUE DUP1 ISZERO PUSH2 0x509 JUMPI PUSH1 0x0 DUP1 REVERT JUMPDEST POP PUSH2 0x229 PUSH2 0x518 CALLDATASIZE PUSH1 0x4 PUSH2 0x28B8 JUMP JUMPDEST PUSH2 0x183E JUMP JUMPDEST CALLVALUE DUP1 ISZERO PUSH2 0x529 JUMPI PUSH1 0x0 DUP1 REVERT JUMPDEST POP PUSH2 0x229 PUSH2 0x538 CALLDATASIZE PUSH1 0x4 PUSH2 0x291D JUMP JUMPDEST PUSH1 0x4 PUSH1 0x20 SWAP1 DUP2 MSTORE PUSH1 0x0 SWAP3 DUP4 MSTORE PUSH1 0x40 DUP1 DUP5 KECCAK256 SWAP1 SWAP2 MSTORE SWAP1 DUP3 MSTORE SWAP1 KECCAK256 SLOAD DUP2 JUMP JUMPDEST CALLVALUE DUP1 ISZERO PUSH2 0x561 JUMPI PUSH1 0x0 DUP1 REVERT JUMPDEST POP PUSH2 0x229 PUSH2 0x570 CALLDATASIZE PUSH1 0x4 PUSH2 0x28B8 JUMP JUMPDEST PUSH2 0x18CF JUMP JUMPDEST CALLVALUE DUP1 ISZERO PUSH2 0x581 JUMPI PUSH1 0x0 DUP1 REVERT JUMPDEST POP PUSH2 0x2E1 PUSH2 0x590 CALLDATASIZE PUSH1 0x4 PUSH2 0x291D JUMP JUMPDEST PUSH2 0x1952 JUMP JUMPDEST CALLVALUE DUP1 ISZERO PUSH2 0x5A1 JUMPI PUSH1 0x0 DUP1 REVERT JUMPDEST POP PUSH2 0x229 PUSH1 0xC SLOAD DUP2 JUMP JUMPDEST CALLVALUE DUP1 ISZERO PUSH2 0x5B7 JUMPI PUSH1 0x0 DUP1 REVERT JUMPDEST POP PUSH2 0x409 PUSH2 0x5C6 CALLDATASIZE PUSH1 0x4 PUSH2 0x29D0 JUMP JUMPDEST PUSH1 0x8 PUSH1 0x20 SWAP1 DUP2 MSTORE PUSH1 0x0 SWAP3 DUP4 MSTORE PUSH1 0x40 DUP1 DUP5 KECCAK256 SWAP1 SWAP2 MSTORE SWAP1 DUP3 MSTORE SWAP1 KECCAK256 SLOAD PUSH1 0x1 PUSH1 0x1 PUSH1 0xA0 SHL SUB AND DUP2 JUMP JUMPDEST CALLVALUE DUP1 ISZERO PUSH2 0x5F8 JUMPI PUSH1 0x0 DUP1 REVERT JUMPDEST POP PUSH2 0x409 PUSH2 0x607 CALLDATASIZE PUSH1 0x4 PUSH2 0x29D0 JUMP JUMPDEST PUSH1 0x5 PUSH1 0x20 SWAP1 DUP2 MSTORE PUSH1 0x0 SWAP3 DUP4 MSTORE PUSH1 0x40 DUP1 DUP5 KECCAK256 SWAP1 SWAP2 MSTORE SWAP1 DUP3 MSTORE SWAP1 KECCAK256 SLOAD PUSH1 0x1 PUSH1 0x1 PUSH1 0xA0 SHL SUB AND DUP2 JUMP JUMPDEST CALLVALUE DUP1 ISZERO PUSH2 0x639 JUMPI PUSH1 0x0 DUP1 REVERT JUMPDEST POP PUSH2 0x2E1 PUSH2 0x648 CALLDATASIZE PUSH1 0x4 PUSH2 0x2950 JUMP JUMPDEST PUSH2 0x19AA JUMP JUMPDEST CALLVALUE DUP1 ISZERO PUSH2 0x659 JUMPI PUSH1 0x0 DUP1 REVERT JUMPDEST POP PUSH2 0x229 PUSH2 0x668 CALLDATASIZE PUSH1 0x4 PUSH2 0x2A09 JUMP JUMPDEST PUSH2 0x1B2B JUMP JUMPDEST CALLVALUE DUP1 ISZERO PUSH2 0x679 JUMPI PUSH1 0x0 DUP1 REVERT JUMPDEST POP PUSH2 0x2E1 PUSH2 0x688 CALLDATASIZE PUSH1 0x4 PUSH2 0x28B8 JUMP JUMPDEST PUSH2 0x1B98 JUMP JUMPDEST CALLVALUE DUP1 ISZERO PUSH2 0x699 JUMPI PUSH1 0x0 DUP1 REVERT JUMPDEST POP PUSH2 0x2E1 PUSH2 0x6A8 CALLDATASIZE PUSH1 0x4 PUSH2 0x28F3 JUMP JUMPDEST PUSH2 0x1C33 JUMP JUMPDEST CALLVALUE DUP1 ISZERO PUSH2 0x6B9 JUMPI PUSH1 0x0 DUP1 REVERT JUMPDEST POP PUSH2 0x229 PUSH2 0x6C8 CALLDATASIZE PUSH1 0x4 PUSH2 0x29D0 JUMP JUMPDEST PUSH2 0x1F42 JUMP JUMPDEST CALLVALUE DUP1 ISZERO PUSH2 0x6D9 JUMPI PUSH1 0x0 DUP1 REVERT JUMPDEST POP PUSH2 0x6ED PUSH2 0x6E8 CALLDATASIZE PUSH1 0x4 PUSH2 0x28B8 JUMP JUMPDEST PUSH2 0x1F80 JUMP JUMPDEST PUSH1 0x40 DUP1 MLOAD DUP3 MLOAD PUSH1 0x1 PUSH1 0x1 PUSH1 0xA0 SHL SUB AND DUP2 MSTORE PUSH1 0x20 DUP1 DUP5 ADD MLOAD SWAP1 DUP3 ADD MSTORE SWAP2 DUP2 ADD MLOAD SWAP1 DUP3 ADD MSTORE PUSH1 0x60 ADD PUSH2 0x233 JUMP JUMPDEST CALLVALUE DUP1 ISZERO PUSH2 0x724 JUMPI PUSH1 0x0 DUP1 REVERT JUMPDEST POP PUSH2 0x738 PUSH2 0x733 CALLDATASIZE PUSH1 0x4 PUSH2 0x28B8 JUMP JUMPDEST PUSH2 0x2067 JUMP JUMPDEST PUSH1 0x40 DUP1 MLOAD SWAP3 DUP4 MSTORE PUSH1 0x20 DUP4 ADD SWAP2 SWAP1 SWAP2 MSTORE ADD PUSH2 0x233 JUMP JUMPDEST CALLVALUE DUP1 ISZERO PUSH2 0x759 JUMPI PUSH1 0x0 DUP1 REVERT JUMPDEST POP PUSH1 0xB SLOAD PUSH2 0x409 SWAP1 PUSH1 0x1 PUSH1 0x1 PUSH1 0xA0 SHL SUB AND DUP2 JUMP JUMPDEST PUSH1 0x1 SLOAD PUSH1 0x0 SWAP1 DUP2 SWAP1 ISZERO PUSH2 0x7F2 JUMPI PUSH1 0x0 JUMPDEST PUSH1 0x1 SLOAD DUP2 LT ISZERO PUSH2 0x7F0 JUMPI PUSH1 0x0 PUSH1 0x1 DUP3 DUP2 SLOAD DUP2 LT PUSH2 0x79C JUMPI PUSH2 0x79C PUSH2 0x2AE1 JUMP JUMPDEST PUSH1 0x0 SWAP2 DUP3 MSTORE PUSH1 0x20 DUP1 DUP4 KECCAK256 SWAP1 SWAP2 ADD SLOAD PUSH1 0x1 PUSH1 0x1 PUSH1 0xA0 SHL SUB DUP9 DUP2 AND DUP5 MSTORE PUSH1 0x3 DUP4 MSTORE PUSH1 0x40 DUP1 DUP6 KECCAK256 SWAP2 SWAP1 SWAP3 AND DUP1 DUP6 MSTORE SWAP3 MSTORE SWAP1 SWAP2 KECCAK256 SLOAD SWAP1 SWAP2 POP PUSH2 0x7DA SWAP1 DUP5 PUSH2 0x2B0D JUMP JUMPDEST SWAP3 POP POP DUP1 DUP1 PUSH2 0x7E8 SWAP1 PUSH2 0x2B25 JUMP JUMPDEST SWAP2 POP POP PUSH2 0x77D JUMP JUMPDEST POP JUMPDEST SWAP3 SWAP2 POP POP JUMP JUMPDEST PUSH1 0x9 DUP2 DUP2 SLOAD DUP2 LT PUSH2 0x808 JUMPI PUSH1 0x0 DUP1 REVERT JUMPDEST PUSH1 0x0 SWAP2 DUP3 MSTORE PUSH1 0x20 SWAP1 SWAP2 KECCAK256 PUSH1 0x3 SWAP1 SWAP2 MUL ADD DUP1 SLOAD PUSH1 0x1 DUP3 ADD SLOAD PUSH1 0x2 SWAP1 SWAP3 ADD SLOAD PUSH1 0x1 PUSH1 0x1 PUSH1 0xA0 SHL SUB SWAP1 SWAP2 AND SWAP3 POP DUP4 JUMP JUMPDEST PUSH1 0x0 DUP1 PUSH2 0x841 DUP5 PUSH2 0x1F80 JUMP JUMPDEST SWAP1 POP PUSH8 0xDE0B6B3A7640000 DUP2 PUSH1 0x40 ADD MLOAD DUP5 PUSH2 0x85C SWAP2 SWAP1 PUSH2 0x2B40 JUMP JUMPDEST PUSH2 0x866 SWAP2 SWAP1 PUSH2 0x2B5F JUMP JUMPDEST SWAP5 SWAP4 POP POP POP POP JUMP JUMPDEST PUSH1 0x0 DUP1 DUP1 JUMPDEST PUSH1 0xD SLOAD DUP2 LT ISZERO PUSH2 0x7F0 JUMPI PUSH1 0x0 DUP2 DUP2 MSTORE PUSH1 0x6 PUSH1 0x20 SWAP1 DUP2 MSTORE PUSH1 0x40 DUP1 DUP4 KECCAK256 PUSH1 0x1 PUSH1 0x1 PUSH1 0xA0 SHL SUB DUP1 DUP10 AND DUP6 MSTORE SWAP3 MSTORE SWAP1 SWAP2 KECCAK256 SLOAD AND DUP1 ISZERO PUSH2 0x8EC JUMPI PUSH1 0x1 PUSH1 0x1 PUSH1 0xA0 SHL SUB DUP1 DUP3 AND PUSH1 0x0 SWAP1 DUP2 MSTORE PUSH1 0x4 PUSH1 0x20 SWAP1 DUP2 MSTORE PUSH1 0x40 DUP1 DUP4 KECCAK256 SWAP4 DUP10 AND DUP4 MSTORE SWAP3 SWAP1 MSTORE SWAP1 DUP2 KECCAK256 SLOAD SWAP1 PUSH2 0x8DB DUP3 DUP5 PUSH2 0x1F42 JUMP JUMPDEST SWAP1 POP PUSH2 0x8E7 DUP2 DUP7 PUSH2 0x2B0D JUMP JUMPDEST SWAP5 POP POP POP JUMPDEST POP DUP1 PUSH2 0x8F7 DUP2 PUSH2 0x2B25 JUMP JUMPDEST SWAP2 POP POP PUSH2 0x873 JUMP JUMPDEST PUSH1 0x0 DUP2 GT PUSH2 0x928 JUMPI PUSH1 0x40 MLOAD PUSH3 0x461BCD PUSH1 0xE5 SHL DUP2 MSTORE PUSH1 0x4 ADD PUSH2 0x91F SWAP1 PUSH2 0x2B81 JUMP JUMPDEST PUSH1 0x40 MLOAD DUP1 SWAP2 SUB SWAP1 REVERT JUMPDEST PUSH1 0x0 PUSH2 0x98E CALLER PUSH1 0x2 DUP1 SLOAD DUP1 PUSH1 0x20 MUL PUSH1 0x20 ADD PUSH1 0x40 MLOAD SWAP1 DUP2 ADD PUSH1 0x40 MSTORE DUP1 SWAP3 SWAP2 SWAP1 DUP2 DUP2 MSTORE PUSH1 0x20 ADD DUP3 DUP1 SLOAD DUP1 ISZERO PUSH2 0x984 JUMPI PUSH1 0x20 MUL DUP3 ADD SWAP2 SWAP1 PUSH1 0x0 MSTORE PUSH1 0x20 PUSH1 0x0 KECCAK256 SWAP1 JUMPDEST DUP2 SLOAD PUSH1 0x1 PUSH1 0x1 PUSH1 0xA0 SHL SUB AND DUP2 MSTORE PUSH1 0x1 SWAP1 SWAP2 ADD SWAP1 PUSH1 0x20 ADD DUP1 DUP4 GT PUSH2 0x966 JUMPI JUMPDEST POP POP POP POP POP PUSH2 0x1B2B JUMP JUMPDEST SWAP1 POP PUSH1 0x0 DUP2 SLT ISZERO PUSH2 0x9FC JUMPI PUSH1 0x40 MLOAD PUSH3 0x461BCD PUSH1 0xE5 SHL DUP2 MSTORE PUSH1 0x20 PUSH1 0x4 DUP3 ADD MSTORE PUSH1 0x32 PUSH1 0x24 DUP3 ADD MSTORE PUSH32 0x557365722061646472657373206973206E6F7420666F756E6420696E20746865 PUSH1 0x44 DUP3 ADD MSTORE PUSH18 0x206C697374206F6620626F72726F77657273 PUSH1 0x70 SHL PUSH1 0x64 DUP3 ADD MSTORE PUSH1 0x84 ADD PUSH2 0x91F JUMP JUMPDEST PUSH1 0x1 PUSH1 0x1 PUSH1 0xA0 SHL SUB DUP4 AND PUSH1 0x0 SWAP1 DUP2 MSTORE PUSH1 0x4 PUSH1 0x20 SWAP1 DUP2 MSTORE PUSH1 0x40 DUP1 DUP4 KECCAK256 CALLER DUP5 MSTORE SWAP1 SWAP2 MSTORE SWAP1 KECCAK256 SLOAD DUP1 PUSH2 0xA62 JUMPI PUSH1 0x40 MLOAD PUSH3 0x461BCD PUSH1 0xE5 SHL DUP2 MSTORE PUSH1 0x20 PUSH1 0x4 DUP3 ADD MSTORE PUSH1 0x12 PUSH1 0x24 DUP3 ADD MSTORE PUSH18 0x596F752020617265206E6F74206F77696E67 PUSH1 0x70 SHL PUSH1 0x44 DUP3 ADD MSTORE PUSH1 0x64 ADD PUSH2 0x91F JUMP JUMPDEST DUP4 PUSH1 0x0 PUSH2 0xA6F DUP3 DUP5 PUSH2 0x835 JUMP JUMPDEST PUSH2 0xA79 SWAP1 DUP7 PUSH2 0x2B0D JUMP JUMPDEST PUSH1 0x40 MLOAD PUSH4 0x23B872DD PUSH1 0xE0 SHL DUP2 MSTORE CALLER PUSH1 0x4 DUP3 ADD MSTORE ADDRESS PUSH1 0x24 DUP3 ADD MSTORE PUSH1 0x44 DUP2 ADD DUP3 SWAP1 MSTORE SWAP1 SWAP2 POP PUSH1 0x1 PUSH1 0x1 PUSH1 0xA0 SHL SUB DUP4 AND SWAP1 PUSH4 0x23B872DD SWAP1 PUSH1 0x64 ADD PUSH1 0x20 PUSH1 0x40 MLOAD DUP1 DUP4 SUB DUP2 PUSH1 0x0 DUP8 GAS CALL ISZERO DUP1 ISZERO PUSH2 0xACF JUMPI RETURNDATASIZE PUSH1 0x0 DUP1 RETURNDATACOPY RETURNDATASIZE PUSH1 0x0 REVERT JUMPDEST POP POP POP POP PUSH1 0x40 MLOAD RETURNDATASIZE PUSH1 0x1F NOT PUSH1 0x1F DUP3 ADD AND DUP3 ADD DUP1 PUSH1 0x40 MSTORE POP DUP2 ADD SWAP1 PUSH2 0xAF3 SWAP2 SWAP1 PUSH2 0x2BB8 JUMP JUMPDEST POP PUSH1 0x1 PUSH1 0x1 PUSH1 0xA0 SHL SUB DUP7 AND PUSH1 0x0 SWAP1 DUP2 MSTORE PUSH1 0x4 PUSH1 0x20 SWAP1 DUP2 MSTORE PUSH1 0x40 DUP1 DUP4 KECCAK256 CALLER DUP5 MSTORE SWAP1 SWAP2 MSTORE SWAP1 KECCAK256 SLOAD PUSH2 0xB23 SWAP1 DUP7 SWAP1 PUSH2 0x2BDA JUMP JUMPDEST PUSH1 0x1 PUSH1 0x1 PUSH1 0xA0 SHL SUB DUP8 AND PUSH1 0x0 SWAP1 DUP2 MSTORE PUSH1 0x4 PUSH1 0x20 SWAP1 DUP2 MSTORE PUSH1 0x40 DUP1 DUP4 KECCAK256 CALLER DUP1 DUP6 MSTORE SWAP3 MSTORE DUP3 KECCAK256 SWAP3 SWAP1 SWAP3 SSTORE SWAP1 PUSH2 0xB54 SWAP1 PUSH2 0x86E JUMP JUMPDEST SWAP1 POP DUP1 PUSH2 0xC09 JUMPI PUSH1 0x2 DUP1 SLOAD PUSH2 0xB6B SWAP1 PUSH1 0x1 SWAP1 PUSH2 0x2BDA JUMP JUMPDEST DUP2 SLOAD DUP2 LT PUSH2 0xB7B JUMPI PUSH2 0xB7B PUSH2 0x2AE1 JUMP JUMPDEST PUSH1 0x0 SWAP2 DUP3 MSTORE PUSH1 0x20 SWAP1 SWAP2 KECCAK256 ADD SLOAD PUSH1 0x2 DUP1 SLOAD PUSH1 0x1 PUSH1 0x1 PUSH1 0xA0 SHL SUB SWAP1 SWAP3 AND SWAP2 DUP8 SWAP1 DUP2 LT PUSH2 0xBA7 JUMPI PUSH2 0xBA7 PUSH2 0x2AE1 JUMP JUMPDEST SWAP1 PUSH1 0x0 MSTORE PUSH1 0x20 PUSH1 0x0 KECCAK256 ADD PUSH1 0x0 PUSH2 0x100 EXP DUP2 SLOAD DUP2 PUSH1 0x1 PUSH1 0x1 PUSH1 0xA0 SHL SUB MUL NOT AND SWAP1 DUP4 PUSH1 0x1 PUSH1 0x1 PUSH1 0xA0 SHL SUB AND MUL OR SWAP1 SSTORE POP PUSH1 0x2 DUP1 SLOAD DUP1 PUSH2 0xBE6 JUMPI PUSH2 0xBE6 PUSH2 0x2BF1 JUMP JUMPDEST PUSH1 0x0 DUP3 DUP2 MSTORE PUSH1 0x20 SWAP1 KECCAK256 DUP2 ADD PUSH1 0x0 NOT SWAP1 DUP2 ADD DUP1 SLOAD PUSH1 0x1 PUSH1 0x1 PUSH1 0xA0 SHL SUB NOT AND SWAP1 SSTORE ADD SWAP1 SSTORE JUMPDEST POP POP POP POP POP POP POP JUMP JUMPDEST PUSH1 0x0 SLOAD PUSH1 0x1 PUSH1 0x1 PUSH1 0xA0 SHL SUB AND CALLER EQ PUSH2 0xC3C JUMPI PUSH1 0x40 MLOAD PUSH3 0x461BCD PUSH1 0xE5 SHL DUP2 MSTORE PUSH1 0x4 ADD PUSH2 0x91F SWAP1 PUSH2 0x2C07 JUMP JUMPDEST PUSH1 0x0 PUSH1 0x40 MLOAD DUP1 PUSH1 0x60 ADD PUSH1 0x40 MSTORE DUP1 DUP6 PUSH1 0x1 PUSH1 0x1 PUSH1 0xA0 SHL SUB AND DUP2 MSTORE PUSH1 0x20 ADD DUP5 DUP2 MSTORE PUSH1 0x20 ADD DUP4 DUP2 MSTORE POP SWAP1 POP PUSH2 0xCE8 DUP2 PUSH1 0xA DUP1 SLOAD DUP1 PUSH1 0x20 MUL PUSH1 0x20 ADD PUSH1 0x40 MLOAD SWAP1 DUP2 ADD PUSH1 0x40 MSTORE DUP1 SWAP3 SWAP2 SWAP1 DUP2 DUP2 MSTORE PUSH1 0x20 ADD PUSH1 0x0 SWAP1 JUMPDEST DUP3 DUP3 LT ISZERO PUSH2 0xCDF JUMPI PUSH1 0x0 DUP5 DUP2 MSTORE PUSH1 0x20 SWAP1 DUP2 SWAP1 KECCAK256 PUSH1 0x40 DUP1 MLOAD PUSH1 0x60 DUP2 ADD DUP3 MSTORE PUSH1 0x3 DUP7 MUL SWAP1 SWAP3 ADD DUP1 SLOAD PUSH1 0x1 PUSH1 0x1 PUSH1 0xA0 SHL SUB AND DUP4 MSTORE PUSH1 0x1 DUP1 DUP3 ADD SLOAD DUP5 DUP7 ADD MSTORE PUSH1 0x2 SWAP1 SWAP2 ADD SLOAD SWAP2 DUP4 ADD SWAP2 SWAP1 SWAP2 MSTORE SWAP1 DUP4 MSTORE SWAP1 SWAP3 ADD SWAP2 ADD PUSH2 0xC8A JUMP JUMPDEST POP POP POP POP PUSH2 0x2168 JUMP JUMPDEST PUSH2 0xD98 JUMPI PUSH1 0xA DUP1 SLOAD PUSH1 0x1 DUP2 ADD DUP3 SSTORE PUSH1 0x0 SWAP2 SWAP1 SWAP2 MSTORE DUP2 MLOAD PUSH32 0xC65A7BB8D6351C1CF70C95A316CC6A92839C986682D98BC35F958F4883F9D2A8 PUSH1 0x3 SWAP1 SWAP3 MUL SWAP2 DUP3 ADD DUP1 SLOAD PUSH1 0x1 PUSH1 0x1 PUSH1 0xA0 SHL SUB NOT AND PUSH1 0x1 PUSH1 0x1 PUSH1 0xA0 SHL SUB SWAP1 SWAP3 AND SWAP2 SWAP1 SWAP2 OR SWAP1 SSTORE PUSH1 0x20 DUP3 ADD MLOAD PUSH32 0xC65A7BB8D6351C1CF70C95A316CC6A92839C986682D98BC35F958F4883F9D2A9 DUP3 ADD SSTORE PUSH1 0x40 DUP3 ADD MLOAD PUSH32 0xC65A7BB8D6351C1CF70C95A316CC6A92839C986682D98BC35F958F4883F9D2AA SWAP1 SWAP2 ADD SSTORE JUMPDEST POP POP POP POP JUMP JUMPDEST PUSH1 0x60 PUSH1 0x1 DUP1 SLOAD DUP1 PUSH1 0x20 MUL PUSH1 0x20 ADD PUSH1 0x40 MLOAD SWAP1 DUP2 ADD PUSH1 0x40 MSTORE DUP1 SWAP3 SWAP2 SWAP1 DUP2 DUP2 MSTORE PUSH1 0x20 ADD DUP3 DUP1 SLOAD DUP1 ISZERO PUSH2 0xDF6 JUMPI PUSH1 0x20 MUL DUP3 ADD SWAP2 SWAP1 PUSH1 0x0 MSTORE PUSH1 0x20 PUSH1 0x0 KECCAK256 SWAP1 JUMPDEST DUP2 SLOAD PUSH1 0x1 PUSH1 0x1 PUSH1 0xA0 SHL SUB AND DUP2 MSTORE PUSH1 0x1 SWAP1 SWAP2 ADD SWAP1 PUSH1 0x20 ADD DUP1 DUP4 GT PUSH2 0xDD8 JUMPI JUMPDEST POP POP POP POP POP SWAP1 POP SWAP1 JUMP JUMPDEST PUSH1 0xA DUP2 DUP2 SLOAD DUP2 LT PUSH2 0x808 JUMPI PUSH1 0x0 DUP1 REVERT JUMPDEST PUSH2 0xE94 DUP2 PUSH1 0xA DUP1 SLOAD DUP1 PUSH1 0x20 MUL PUSH1 0x20 ADD PUSH1 0x40 MLOAD SWAP1 DUP2 ADD PUSH1 0x40 MSTORE DUP1 SWAP3 SWAP2 SWAP1 DUP2 DUP2 MSTORE PUSH1 0x20 ADD PUSH1 0x0 SWAP1 JUMPDEST DUP3 DUP3 LT ISZERO PUSH2 0xE8B JUMPI PUSH1 0x0 DUP5 DUP2 MSTORE PUSH1 0x20 SWAP1 DUP2 SWAP1 KECCAK256 PUSH1 0x40 DUP1 MLOAD PUSH1 0x60 DUP2 ADD DUP3 MSTORE PUSH1 0x3 DUP7 MUL SWAP1 SWAP3 ADD DUP1 SLOAD PUSH1 0x1 PUSH1 0x1 PUSH1 0xA0 SHL SUB AND DUP4 MSTORE PUSH1 0x1 DUP1 DUP3 ADD SLOAD DUP5 DUP7 ADD MSTORE PUSH1 0x2 SWAP1 SWAP2 ADD SLOAD SWAP2 DUP4 ADD SWAP2 SWAP1 SWAP2 MSTORE SWAP1 DUP4 MSTORE SWAP1 SWAP3 ADD SWAP2 ADD PUSH2 0xE36 JUMP JUMPDEST POP POP POP POP PUSH2 0x21E7 JUMP JUMPDEST PUSH2 0xEEC JUMPI PUSH1 0x40 MLOAD PUSH3 0x461BCD PUSH1 0xE5 SHL DUP2 MSTORE PUSH1 0x20 PUSH1 0x4 DUP3 ADD MSTORE PUSH1 0x24 DUP1 DUP3 ADD MSTORE PUSH32 0x546F6B656E206973206E6F7420737570706F7274656420666F7220626F72726F PUSH1 0x44 DUP3 ADD MSTORE PUSH4 0x77696E67 PUSH1 0xE0 SHL PUSH1 0x64 DUP3 ADD MSTORE PUSH1 0x84 ADD PUSH2 0x91F JUMP JUMPDEST PUSH1 0x0 DUP3 GT PUSH2 0xF0C JUMPI PUSH1 0x40 MLOAD PUSH3 0x461BCD PUSH1 0xE5 SHL DUP2 MSTORE PUSH1 0x4 ADD PUSH2 0x91F SWAP1 PUSH2 0x2B81 JUMP JUMPDEST PUSH1 0x0 PUSH2 0xF17 CALLER PUSH2 0x12A8 JUMP JUMPDEST SWAP1 POP PUSH1 0x0 PUSH2 0xF25 DUP5 DUP5 PUSH2 0x1F42 JUMP JUMPDEST SWAP1 POP DUP2 DUP2 GT ISZERO PUSH2 0xF96 JUMPI PUSH1 0x40 MLOAD PUSH3 0x461BCD PUSH1 0xE5 SHL DUP2 MSTORE PUSH1 0x20 PUSH1 0x4 DUP3 ADD MSTORE PUSH1 0x36 PUSH1 0x24 DUP3 ADD MSTORE PUSH32 0x596F7520646F6E2774206861766520656E6F75676820636F6C6C61746572616C PUSH1 0x44 DUP3 ADD MSTORE PUSH22 0x81D1BC8189BDC9C9BDDC81D1A1A5CC8185B5BDD5B9D PUSH1 0x52 SHL PUSH1 0x64 DUP3 ADD MSTORE PUSH1 0x84 ADD PUSH2 0x91F JUMP JUMPDEST PUSH1 0x40 MLOAD PUSH4 0x70A08231 PUSH1 0xE0 SHL DUP2 MSTORE ADDRESS PUSH1 0x4 DUP3 ADD MSTORE DUP4 SWAP1 DUP6 SWAP1 PUSH1 0x1 PUSH1 0x1 PUSH1 0xA0 SHL SUB DUP4 AND SWAP1 PUSH4 0x70A08231 SWAP1 PUSH1 0x24 ADD PUSH1 0x20 PUSH1 0x40 MLOAD DUP1 DUP4 SUB DUP2 DUP7 GAS STATICCALL ISZERO DUP1 ISZERO PUSH2 0xFDE JUMPI RETURNDATASIZE PUSH1 0x0 DUP1 RETURNDATACOPY RETURNDATASIZE PUSH1 0x0 REVERT JUMPDEST POP POP POP POP PUSH1 0x40 MLOAD RETURNDATASIZE PUSH1 0x1F NOT PUSH1 0x1F DUP3 ADD AND DUP3 ADD DUP1 PUSH1 0x40 MSTORE POP DUP2 ADD SWAP1 PUSH2 0x1002 SWAP2 SWAP1 PUSH2 0x2C3C JUMP JUMPDEST GT PUSH2 0x106E JUMPI PUSH1 0x40 MLOAD PUSH3 0x461BCD PUSH1 0xE5 SHL DUP2 MSTORE PUSH1 0x20 PUSH1 0x4 DUP3 ADD MSTORE PUSH1 0x36 PUSH1 0x24 DUP3 ADD MSTORE PUSH32 0x576520646F206E6F74206861766520656E6F756768206F66207468697320746F PUSH1 0x44 DUP3 ADD MSTORE PUSH22 0x35B2B7103337B9103CB7BA903A37903137B93937BB97 PUSH1 0x51 SHL PUSH1 0x64 DUP3 ADD MSTORE PUSH1 0x84 ADD PUSH2 0x91F JUMP JUMPDEST PUSH1 0x40 MLOAD PUSH4 0xA9059CBB PUSH1 0xE0 SHL DUP2 MSTORE CALLER PUSH1 0x4 DUP3 ADD MSTORE PUSH1 0x24 DUP2 ADD DUP7 SWAP1 MSTORE PUSH1 0x1 PUSH1 0x1 PUSH1 0xA0 SHL SUB DUP3 AND SWAP1 PUSH4 0xA9059CBB SWAP1 PUSH1 0x44 ADD PUSH1 0x20 PUSH1 0x40 MLOAD DUP1 DUP4 SUB DUP2 PUSH1 0x0 DUP8 GAS CALL ISZERO DUP1 ISZERO PUSH2 0x10BB JUMPI RETURNDATASIZE PUSH1 0x0 DUP1 RETURNDATACOPY RETURNDATASIZE PUSH1 0x0 REVERT JUMPDEST POP POP POP POP PUSH1 0x40 MLOAD RETURNDATASIZE PUSH1 0x1F NOT PUSH1 0x1F DUP3 ADD AND DUP3 ADD DUP1 PUSH1 0x40 MSTORE POP DUP2 ADD SWAP1 PUSH2 0x10DF SWAP2 SWAP1 PUSH2 0x2BB8 JUMP JUMPDEST POP PUSH1 0x0 DUP1 PUSH2 0x1147 CALLER PUSH1 0x2 DUP1 SLOAD DUP1 PUSH1 0x20 MUL PUSH1 0x20 ADD PUSH1 0x40 MLOAD SWAP1 DUP2 ADD PUSH1 0x40 MSTORE DUP1 SWAP3 SWAP2 SWAP1 DUP2 DUP2 MSTORE PUSH1 0x20 ADD DUP3 DUP1 SLOAD DUP1 ISZERO PUSH2 0x113D JUMPI PUSH1 0x20 MUL DUP3 ADD SWAP2 SWAP1 PUSH1 0x0 MSTORE PUSH1 0x20 PUSH1 0x0 KECCAK256 SWAP1 JUMPDEST DUP2 SLOAD PUSH1 0x1 PUSH1 0x1 PUSH1 0xA0 SHL SUB AND DUP2 MSTORE PUSH1 0x1 SWAP1 SWAP2 ADD SWAP1 PUSH1 0x20 ADD DUP1 DUP4 GT PUSH2 0x111F JUMPI JUMPDEST POP POP POP POP POP PUSH2 0x2257 JUMP JUMPDEST SWAP2 POP SWAP2 POP DUP2 ISZERO PUSH2 0x1183 JUMPI PUSH2 0x117E DUP7 DUP9 DUP4 PUSH1 0x40 MLOAD DUP1 PUSH1 0x40 ADD PUSH1 0x40 MSTORE DUP1 PUSH1 0x9 DUP2 MSTORE PUSH1 0x20 ADD PUSH9 0x626F72726F77657273 PUSH1 0xB8 SHL DUP2 MSTORE POP PUSH2 0x22D9 JUMP JUMPDEST PUSH2 0xC09 JUMP JUMPDEST PUSH1 0x2 DUP1 SLOAD PUSH1 0x1 DUP2 ADD SWAP1 SWAP2 SSTORE PUSH32 0x405787FA12A823E0F2B7631CC41B3BA8828B3321CA811111FA75CD3AA3BB5ACE ADD DUP1 SLOAD PUSH1 0x1 PUSH1 0x1 PUSH1 0xA0 SHL SUB NOT AND CALLER SWAP1 DUP2 OR SWAP1 SWAP2 SSTORE PUSH1 0x1 PUSH1 0x1 PUSH1 0xA0 SHL SUB DUP8 AND PUSH1 0x0 SWAP1 DUP2 MSTORE PUSH1 0x4 PUSH1 0x20 SWAP1 DUP2 MSTORE PUSH1 0x40 DUP1 DUP4 KECCAK256 SWAP4 DUP4 MSTORE SWAP3 SWAP1 MSTORE SWAP1 DUP2 KECCAK256 DUP9 SWAP1 SSTORE PUSH1 0xD DUP1 SLOAD DUP9 SWAP3 PUSH1 0x6 SWAP3 SWAP1 SWAP2 SWAP1 DUP3 PUSH2 0x1200 DUP4 PUSH2 0x2B25 JUMP JUMPDEST SWAP1 SWAP2 SSTORE POP DUP2 MSTORE PUSH1 0x20 DUP1 DUP3 ADD SWAP3 SWAP1 SWAP3 MSTORE PUSH1 0x40 SWAP1 DUP2 ADD PUSH1 0x0 SWAP1 DUP2 KECCAK256 CALLER DUP3 MSTORE SWAP1 SWAP3 MSTORE SWAP1 KECCAK256 DUP1 SLOAD PUSH1 0x1 PUSH1 0x1 PUSH1 0xA0 SHL SUB NOT AND PUSH1 0x1 PUSH1 0x1 PUSH1 0xA0 SHL SUB SWAP3 SWAP1 SWAP3 AND SWAP2 SWAP1 SWAP2 OR SWAP1 SSTORE POP POP POP POP POP POP POP JUMP JUMPDEST PUSH1 0x0 SLOAD PUSH1 0x1 PUSH1 0x1 PUSH1 0xA0 SHL SUB AND CALLER EQ PUSH2 0x1272 JUMPI PUSH1 0x40 MLOAD PUSH3 0x461BCD PUSH1 0xE5 SHL DUP2 MSTORE PUSH1 0x4 ADD PUSH2 0x91F SWAP1 PUSH2 0x2C07 JUMP JUMPDEST PUSH2 0x127C PUSH1 0x0 PUSH2 0x261A JUMP JUMPDEST JUMP JUMPDEST PUSH1 0x2 DUP2 DUP2 SLOAD DUP2 LT PUSH2 0x128E JUMPI PUSH1 0x0 DUP1 REVERT JUMPDEST PUSH1 0x0 SWAP2 DUP3 MSTORE PUSH1 0x20 SWAP1 SWAP2 KECCAK256 ADD SLOAD PUSH1 0x1 PUSH1 0x1 PUSH1 0xA0 SHL SUB AND SWAP1 POP DUP2 JUMP JUMPDEST PUSH1 0x0 DUP1 DUP1 JUMPDEST PUSH1 0xC SLOAD DUP2 LT ISZERO PUSH2 0x7F0 JUMPI PUSH1 0x0 DUP2 DUP2 MSTORE PUSH1 0x5 PUSH1 0x20 SWAP1 DUP2 MSTORE PUSH1 0x40 DUP1 DUP4 KECCAK256 PUSH1 0x1 PUSH1 0x1 PUSH1 0xA0 SHL SUB DUP1 DUP10 AND DUP6 MSTORE SWAP3 MSTORE SWAP1 SWAP2 KECCAK256 SLOAD AND DUP1 ISZERO PUSH2 0x13DD JUMPI PUSH1 0x0 PUSH2 0x12ED DUP3 PUSH2 0x1F80 JUMP JUMPDEST PUSH1 0x20 DUP2 DUP2 ADD MLOAD PUSH1 0x1 PUSH1 0x1 PUSH1 0xA0 SHL SUB DUP6 DUP2 AND PUSH1 0x0 SWAP1 DUP2 MSTORE PUSH1 0x4 DUP5 MSTORE PUSH1 0x40 DUP1 DUP3 KECCAK256 SWAP3 DUP13 AND DUP3 MSTORE SWAP2 SWAP1 SWAP4 MSTORE DUP3 KECCAK256 SLOAD SWAP3 SWAP4 POP SWAP2 ISZERO ISZERO SWAP1 DUP2 PUSH2 0x1350 JUMPI POP PUSH1 0x1 PUSH1 0x1 PUSH1 0xA0 SHL SUB DUP1 DUP6 AND PUSH1 0x0 SWAP1 DUP2 MSTORE PUSH1 0x3 PUSH1 0x20 SWAP1 DUP2 MSTORE PUSH1 0x40 DUP1 DUP4 KECCAK256 SWAP4 DUP13 AND DUP4 MSTORE SWAP3 SWAP1 MSTORE KECCAK256 SLOAD PUSH2 0x139B JUMP JUMPDEST PUSH1 0x1 PUSH1 0x1 PUSH1 0xA0 SHL SUB DUP1 DUP7 AND PUSH1 0x0 DUP2 DUP2 MSTORE PUSH1 0x4 PUSH1 0x20 SWAP1 DUP2 MSTORE PUSH1 0x40 DUP1 DUP4 KECCAK256 SWAP5 DUP15 AND DUP1 DUP5 MSTORE SWAP5 DUP3 MSTORE DUP1 DUP4 KECCAK256 SLOAD SWAP4 DUP4 MSTORE PUSH1 0x3 DUP3 MSTORE DUP1 DUP4 KECCAK256 SWAP5 DUP4 MSTORE SWAP4 SWAP1 MSTORE SWAP2 SWAP1 SWAP2 KECCAK256 SLOAD PUSH2 0x1398 SWAP2 SWAP1 PUSH2 0x2BDA JUMP JUMPDEST SWAP1 POP JUMPDEST PUSH1 0x0 PUSH2 0x13A7 DUP3 DUP8 PUSH2 0x1F42 JUMP JUMPDEST SWAP1 POP PUSH1 0x0 PUSH8 0xDE0B6B3A7640000 PUSH2 0x13BE DUP7 DUP5 PUSH2 0x2B40 JUMP JUMPDEST PUSH2 0x13C8 SWAP2 SWAP1 PUSH2 0x2B5F JUMP JUMPDEST SWAP1 POP PUSH2 0x13D4 DUP2 DUP11 PUSH2 0x2B0D JUMP JUMPDEST SWAP9 POP POP POP POP POP POP POP JUMPDEST POP DUP1 PUSH2 0x13E8 DUP2 PUSH2 0x2B25 JUMP JUMPDEST SWAP2 POP POP PUSH2 0x12AD JUMP JUMPDEST PUSH1 0x60 PUSH1 0x2 DUP1 SLOAD DUP1 PUSH1 0x20 MUL PUSH1 0x20 ADD PUSH1 0x40 MLOAD SWAP1 DUP2 ADD PUSH1 0x40 MSTORE DUP1 SWAP3 SWAP2 SWAP1 DUP2 DUP2 MSTORE PUSH1 0x20 ADD DUP3 DUP1 SLOAD DUP1 ISZERO PUSH2 0xDF6 JUMPI PUSH1 0x20 MUL DUP3 ADD SWAP2 SWAP1 PUSH1 0x0 MSTORE PUSH1 0x20 PUSH1 0x0 KECCAK256 SWAP1 DUP2 SLOAD PUSH1 0x1 PUSH1 0x1 PUSH1 0xA0 SHL SUB AND DUP2 MSTORE PUSH1 0x1 SWAP1 SWAP2 ADD SWAP1 PUSH1 0x20 ADD DUP1 DUP4 GT PUSH2 0xDD8 JUMPI POP POP POP POP POP SWAP1 POP SWAP1 JUMP JUMPDEST PUSH1 0x1 DUP2 DUP2 SLOAD DUP2 LT PUSH2 0x128E JUMPI PUSH1 0x0 DUP1 REVERT JUMPDEST PUSH2 0x14DA DUP3 PUSH1 0x9 DUP1 SLOAD DUP1 PUSH1 0x20 MUL PUSH1 0x20 ADD PUSH1 0x40 MLOAD SWAP1 DUP2 ADD PUSH1 0x40 MSTORE DUP1 SWAP3 SWAP2 SWAP1 DUP2 DUP2 MSTORE PUSH1 0x20 ADD PUSH1 0x0 SWAP1 DUP3 DUP3 LT ISZERO PUSH2 0xE8B JUMPI PUSH1 0x0 DUP5 DUP2 MSTORE PUSH1 0x20 SWAP1 DUP2 SWAP1 KECCAK256 PUSH1 0x40 DUP1 MLOAD PUSH1 0x60 DUP2 ADD DUP3 MSTORE PUSH1 0x3 DUP7 MUL SWAP1 SWAP3 ADD DUP1 SLOAD PUSH1 0x1 PUSH1 0x1 PUSH1 0xA0 SHL SUB AND DUP4 MSTORE PUSH1 0x1 DUP1 DUP3 ADD SLOAD DUP5 DUP7 ADD MSTORE PUSH1 0x2 SWAP1 SWAP2 ADD SLOAD SWAP2 DUP4 ADD SWAP2 SWAP1 SWAP2 MSTORE SWAP1 DUP4 MSTORE SWAP1 SWAP3 ADD SWAP2 ADD PUSH2 0xE36 JUMP JUMPDEST PUSH2 0x151F JUMPI PUSH1 0x40 MLOAD PUSH3 0x461BCD PUSH1 0xE5 SHL DUP2 MSTORE PUSH1 0x20 PUSH1 0x4 DUP3 ADD MSTORE PUSH1 0x16 PUSH1 0x24 DUP3 ADD MSTORE PUSH22 0x151BDAD95B881A5CC81B9BDD081CDD5C1C1BDC9D1959 PUSH1 0x52 SHL PUSH1 0x44 DUP3 ADD MSTORE PUSH1 0x64 ADD PUSH2 0x91F JUMP JUMPDEST PUSH1 0x0 DUP2 GT PUSH2 0x1585 JUMPI PUSH1 0x40 MLOAD PUSH3 0x461BCD PUSH1 0xE5 SHL DUP2 MSTORE PUSH1 0x20 PUSH1 0x4 DUP3 ADD MSTORE PUSH1 0x2D PUSH1 0x24 DUP3 ADD MSTORE PUSH32 0x54686520616D6F756E7420746F20737570706C792073686F756C642062652067 PUSH1 0x44 DUP3 ADD MSTORE PUSH13 0x726561746572207468616E203 PUSH1 0x9C SHL PUSH1 0x64 DUP3 ADD MSTORE PUSH1 0x84 ADD PUSH2 0x91F JUMP JUMPDEST PUSH1 0x40 MLOAD PUSH4 0x70A08231 PUSH1 0xE0 SHL DUP2 MSTORE CALLER PUSH1 0x4 DUP3 ADD MSTORE DUP3 SWAP1 DUP3 SWAP1 PUSH1 0x1 PUSH1 0x1 PUSH1 0xA0 SHL SUB DUP4 AND SWAP1 PUSH4 0x70A08231 SWAP1 PUSH1 0x24 ADD PUSH1 0x20 PUSH1 0x40 MLOAD DUP1 DUP4 SUB DUP2 DUP7 GAS STATICCALL ISZERO DUP1 ISZERO PUSH2 0x15CD JUMPI RETURNDATASIZE PUSH1 0x0 DUP1 RETURNDATACOPY RETURNDATASIZE PUSH1 0x0 REVERT JUMPDEST POP POP POP POP PUSH1 0x40 MLOAD RETURNDATASIZE PUSH1 0x1F NOT PUSH1 0x1F DUP3 ADD AND DUP3 ADD DUP1 PUSH1 0x40 MSTORE POP DUP2 ADD SWAP1 PUSH2 0x15F1 SWAP2 SWAP1 PUSH2 0x2C3C JUMP JUMPDEST LT ISZERO PUSH2 0x1659 JUMPI PUSH1 0x40 MLOAD PUSH3 0x461BCD PUSH1 0xE5 SHL DUP2 MSTORE PUSH1 0x20 PUSH1 0x4 DUP3 ADD MSTORE PUSH1 0x31 PUSH1 0x24 DUP3 ADD MSTORE PUSH32 0x596F75206861766520696E73756666696369656E7420746F6B656E20746F2073 PUSH1 0x44 DUP3 ADD MSTORE PUSH17 0x1D5C1C1B1E481D1A185D08185B5BDD5B9D PUSH1 0x7A SHL PUSH1 0x64 DUP3 ADD MSTORE PUSH1 0x84 ADD PUSH2 0x91F JUMP JUMPDEST PUSH1 0x40 MLOAD PUSH4 0x23B872DD PUSH1 0xE0 SHL DUP2 MSTORE CALLER PUSH1 0x4 DUP3 ADD MSTORE ADDRESS PUSH1 0x24 DUP3 ADD MSTORE PUSH1 0x44 DUP2 ADD DUP4 SWAP1 MSTORE PUSH1 0x1 PUSH1 0x1 PUSH1 0xA0 SHL SUB DUP3 AND SWAP1 PUSH4 0x23B872DD SWAP1 PUSH1 0x64 ADD PUSH1 0x20 PUSH1 0x40 MLOAD DUP1 DUP4 SUB DUP2 PUSH1 0x0 DUP8 GAS CALL ISZERO DUP1 ISZERO PUSH2 0x16AC JUMPI RETURNDATASIZE PUSH1 0x0 DUP1 RETURNDATACOPY RETURNDATASIZE PUSH1 0x0 REVERT JUMPDEST POP POP POP POP PUSH1 0x40 MLOAD RETURNDATASIZE PUSH1 0x1F NOT PUSH1 0x1F DUP3 ADD AND DUP3 ADD DUP1 PUSH1 0x40 MSTORE POP DUP2 ADD SWAP1 PUSH2 0x16D0 SWAP2 SWAP1 PUSH2 0x2BB8 JUMP JUMPDEST POP PUSH1 0x0 DUP1 PUSH2 0x1736 CALLER PUSH1 0x1 DUP1 SLOAD DUP1 PUSH1 0x20 MUL PUSH1 0x20 ADD PUSH1 0x40 MLOAD SWAP1 DUP2 ADD PUSH1 0x40 MSTORE DUP1 SWAP3 SWAP2 SWAP1 DUP2 DUP2 MSTORE PUSH1 0x20 ADD DUP3 DUP1 SLOAD DUP1 ISZERO PUSH2 0x113D JUMPI PUSH1 0x20 MUL DUP3 ADD SWAP2 SWAP1 PUSH1 0x0 MSTORE PUSH1 0x20 PUSH1 0x0 KECCAK256 SWAP1 DUP2 SLOAD PUSH1 0x1 PUSH1 0x1 PUSH1 0xA0 SHL SUB AND DUP2 MSTORE PUSH1 0x1 SWAP1 SWAP2 ADD SWAP1 PUSH1 0x20 ADD DUP1 DUP4 GT PUSH2 0x111F JUMPI POP POP POP POP POP PUSH2 0x2257 JUMP JUMPDEST SWAP2 POP SWAP2 POP DUP2 ISZERO PUSH2 0x1770 JUMPI PUSH2 0x176B DUP6 DUP6 DUP4 PUSH1 0x40 MLOAD DUP1 PUSH1 0x40 ADD PUSH1 0x40 MSTORE DUP1 PUSH1 0x7 DUP2 MSTORE PUSH1 0x20 ADD PUSH7 0x6C656E64657273 PUSH1 0xC8 SHL DUP2 MSTORE POP PUSH2 0x22D9 JUMP JUMPDEST PUSH2 0x182C JUMP JUMPDEST PUSH1 0x1 DUP1 SLOAD DUP1 DUP3 ADD SWAP1 SWAP2 SSTORE PUSH32 0xB10E2D527612073B26EECDFD717E6A320CF44B4AFAC2B0732D9FCBE2B7FA0CF6 ADD DUP1 SLOAD PUSH1 0x1 PUSH1 0x1 PUSH1 0xA0 SHL SUB NOT AND CALLER SWAP1 DUP2 OR SWAP1 SWAP2 SSTORE PUSH1 0x1 PUSH1 0x1 PUSH1 0xA0 SHL SUB DUP7 AND PUSH1 0x0 SWAP1 DUP2 MSTORE PUSH1 0x3 PUSH1 0x20 SWAP1 DUP2 MSTORE PUSH1 0x40 DUP1 DUP4 KECCAK256 SWAP4 DUP4 MSTORE SWAP3 SWAP1 MSTORE SWAP1 DUP2 KECCAK256 DUP6 SWAP1 SSTORE PUSH1 0xC DUP1 SLOAD DUP8 SWAP3 PUSH1 0x5 SWAP3 SWAP1 SWAP2 SWAP1 DUP3 PUSH2 0x17EC DUP4 PUSH2 0x2B25 JUMP JUMPDEST SWAP1 SWAP2 SSTORE POP DUP2 MSTORE PUSH1 0x20 DUP1 DUP3 ADD SWAP3 SWAP1 SWAP3 MSTORE PUSH1 0x40 SWAP1 DUP2 ADD PUSH1 0x0 SWAP1 DUP2 KECCAK256 CALLER DUP3 MSTORE SWAP1 SWAP3 MSTORE SWAP1 KECCAK256 DUP1 SLOAD PUSH1 0x1 PUSH1 0x1 PUSH1 0xA0 SHL SUB NOT AND PUSH1 0x1 PUSH1 0x1 PUSH1 0xA0 SHL SUB SWAP3 SWAP1 SWAP3 AND SWAP2 SWAP1 SWAP2 OR SWAP1 SSTORE JUMPDEST PUSH2 0x1837 CALLER DUP7 DUP7 PUSH2 0x266A JUMP JUMPDEST POP POP POP POP POP JUMP JUMPDEST PUSH1 0x0 DUP1 DUP1 JUMPDEST PUSH1 0xC SLOAD DUP2 LT ISZERO PUSH2 0x7F0 JUMPI PUSH1 0x0 DUP2 DUP2 MSTORE PUSH1 0x5 PUSH1 0x20 SWAP1 DUP2 MSTORE PUSH1 0x40 DUP1 DUP4 KECCAK256 PUSH1 0x1 PUSH1 0x1 PUSH1 0xA0 SHL SUB DUP1 DUP10 AND DUP6 MSTORE SWAP3 MSTORE SWAP1 SWAP2 KECCAK256 SLOAD AND DUP1 ISZERO PUSH2 0x18BC JUMPI PUSH1 0x1 PUSH1 0x1 PUSH1 0xA0 SHL SUB DUP1 DUP3 AND PUSH1 0x0 SWAP1 DUP2 MSTORE PUSH1 0x3 PUSH1 0x20 SWAP1 DUP2 MSTORE PUSH1 0x40 DUP1 DUP4 KECCAK256 SWAP4 DUP10 AND DUP4 MSTORE SWAP3 SWAP1 MSTORE SWAP1 DUP2 KECCAK256 SLOAD SWAP1 PUSH2 0x18AB DUP3 DUP5 PUSH2 0x1F42 JUMP JUMPDEST SWAP1 POP PUSH2 0x18B7 DUP2 DUP7 PUSH2 0x2B0D JUMP JUMPDEST SWAP5 POP POP POP JUMPDEST POP DUP1 PUSH2 0x18C7 DUP2 PUSH2 0x2B25 JUMP JUMPDEST SWAP2 POP POP PUSH2 0x1843 JUMP JUMPDEST PUSH1 0x2 SLOAD PUSH1 0x0 SWAP1 DUP2 SWAP1 ISZERO PUSH2 0x7F2 JUMPI PUSH1 0x0 JUMPDEST PUSH1 0x2 SLOAD DUP2 LT ISZERO PUSH2 0x7F0 JUMPI PUSH1 0x0 PUSH1 0x2 DUP3 DUP2 SLOAD DUP2 LT PUSH2 0x18FE JUMPI PUSH2 0x18FE PUSH2 0x2AE1 JUMP JUMPDEST PUSH1 0x0 SWAP2 DUP3 MSTORE PUSH1 0x20 DUP1 DUP4 KECCAK256 SWAP1 SWAP2 ADD SLOAD PUSH1 0x1 PUSH1 0x1 PUSH1 0xA0 SHL SUB DUP9 DUP2 AND DUP5 MSTORE PUSH1 0x4 DUP4 MSTORE PUSH1 0x40 DUP1 DUP6 KECCAK256 SWAP2 SWAP1 SWAP3 AND DUP1 DUP6 MSTORE SWAP3 MSTORE SWAP1 SWAP2 KECCAK256 SLOAD SWAP1 SWAP2 POP PUSH2 0x193C SWAP1 DUP5 PUSH2 0x2B0D JUMP JUMPDEST SWAP3 POP POP DUP1 DUP1 PUSH2 0x194A SWAP1 PUSH2 0x2B25 JUMP JUMPDEST SWAP2 POP POP PUSH2 0x18DF JUMP JUMPDEST PUSH1 0x0 SLOAD PUSH1 0x1 PUSH1 0x1 PUSH1 0xA0 SHL SUB AND CALLER EQ PUSH2 0x197C JUMPI PUSH1 0x40 MLOAD PUSH3 0x461BCD PUSH1 0xE5 SHL DUP2 MSTORE PUSH1 0x4 ADD PUSH2 0x91F SWAP1 PUSH2 0x2C07 JUMP JUMPDEST PUSH1 0x1 PUSH1 0x1 PUSH1 0xA0 SHL SUB SWAP2 DUP3 AND PUSH1 0x0 SWAP1 DUP2 MSTORE PUSH1 0x7 PUSH1 0x20 MSTORE PUSH1 0x40 SWAP1 KECCAK256 DUP1 SLOAD PUSH1 0x1 PUSH1 0x1 PUSH1 0xA0 SHL SUB NOT AND SWAP2 SWAP1 SWAP3 AND OR SWAP1 SSTORE JUMP JUMPDEST PUSH1 0x0 SLOAD PUSH1 0x1 PUSH1 0x1 PUSH1 0xA0 SHL SUB AND CALLER EQ PUSH2 0x19D4 JUMPI PUSH1 0x40 MLOAD PUSH3 0x461BCD PUSH1 0xE5 SHL DUP2 MSTORE PUSH1 0x4 ADD PUSH2 0x91F SWAP1 PUSH2 0x2C07 JUMP JUMPDEST PUSH1 0x0 PUSH1 0x40 MLOAD DUP1 PUSH1 0x60 ADD PUSH1 0x40 MSTORE DUP1 DUP6 PUSH1 0x1 PUSH1 0x1 PUSH1 0xA0 SHL SUB AND DUP2 MSTORE PUSH1 0x20 ADD DUP5 DUP2 MSTORE PUSH1 0x20 ADD DUP4 DUP2 MSTORE POP SWAP1 POP PUSH2 0x1A76 DUP2 PUSH1 0x9 DUP1 SLOAD DUP1 PUSH1 0x20 MUL PUSH1 0x20 ADD PUSH1 0x40 MLOAD SWAP1 DUP2 ADD PUSH1 0x40 MSTORE DUP1 SWAP3 SWAP2 SWAP1 DUP2 DUP2 MSTORE PUSH1 0x20 ADD PUSH1 0x0 SWAP1 DUP3 DUP3 LT ISZERO PUSH2 0xCDF JUMPI PUSH1 0x0 DUP5 DUP2 MSTORE PUSH1 0x20 SWAP1 DUP2 SWAP1 KECCAK256 PUSH1 0x40 DUP1 MLOAD PUSH1 0x60 DUP2 ADD DUP3 MSTORE PUSH1 0x3 DUP7 MUL SWAP1 SWAP3 ADD DUP1 SLOAD PUSH1 0x1 PUSH1 0x1 PUSH1 0xA0 SHL SUB AND DUP4 MSTORE PUSH1 0x1 DUP1 DUP3 ADD SLOAD DUP5 DUP7 ADD MSTORE PUSH1 0x2 SWAP1 SWAP2 ADD SLOAD SWAP2 DUP4 ADD SWAP2 SWAP1 SWAP2 MSTORE SWAP1 DUP4 MSTORE SWAP1 SWAP3 ADD SWAP2 ADD PUSH2 0xC8A JUMP JUMPDEST PUSH2 0xD98 JUMPI PUSH1 0x9 DUP1 SLOAD PUSH1 0x1 DUP2 ADD DUP3 SSTORE PUSH1 0x0 SWAP2 SWAP1 SWAP2 MSTORE DUP2 MLOAD PUSH32 0x6E1540171B6C0C960B71A7020D9F60077F6AF931A8BBF590DA0223DACF75C7AF PUSH1 0x3 SWAP1 SWAP3 MUL SWAP2 DUP3 ADD DUP1 SLOAD PUSH1 0x1 PUSH1 0x1 PUSH1 0xA0 SHL SUB NOT AND PUSH1 0x1 PUSH1 0x1 PUSH1 0xA0 SHL SUB SWAP1 SWAP3 AND SWAP2 SWAP1 SWAP2 OR SWAP1 SSTORE PUSH1 0x20 DUP3 ADD MLOAD PUSH32 0x6E1540171B6C0C960B71A7020D9F60077F6AF931A8BBF590DA0223DACF75C7B0 DUP3 ADD SSTORE PUSH1 0x40 SWAP1 SWAP2 ADD MLOAD PUSH32 0x6E1540171B6C0C960B71A7020D9F60077F6AF931A8BBF590DA0223DACF75C7B1 SWAP1 SWAP2 ADD SSTORE POP POP POP JUMP JUMPDEST PUSH1 0x0 PUSH1 0x0 NOT DUP2 JUMPDEST DUP4 MLOAD DUP2 LT ISZERO PUSH2 0x1B90 JUMPI PUSH1 0x0 DUP5 DUP3 DUP2 MLOAD DUP2 LT PUSH2 0x1B4F JUMPI PUSH2 0x1B4F PUSH2 0x2AE1 JUMP JUMPDEST PUSH1 0x20 MUL PUSH1 0x20 ADD ADD MLOAD SWAP1 POP DUP6 PUSH1 0x1 PUSH1 0x1 PUSH1 0xA0 SHL SUB AND DUP2 PUSH1 0x1 PUSH1 0x1 PUSH1 0xA0 SHL SUB AND EQ ISZERO PUSH2 0x1B7D JUMPI POP SWAP2 POP PUSH2 0x7F2 SWAP1 POP JUMP JUMPDEST POP DUP1 PUSH2 0x1B88 DUP2 PUSH2 0x2B25 JUMP JUMPDEST SWAP2 POP POP PUSH2 0x1B32 JUMP JUMPDEST POP SWAP4 SWAP3 POP POP POP JUMP JUMPDEST PUSH1 0x0 SLOAD PUSH1 0x1 PUSH1 0x1 PUSH1 0xA0 SHL SUB AND CALLER EQ PUSH2 0x1BC2 JUMPI PUSH1 0x40 MLOAD PUSH3 0x461BCD PUSH1 0xE5 SHL DUP2 MSTORE PUSH1 0x4 ADD PUSH2 0x91F SWAP1 PUSH2 0x2C07 JUMP JUMPDEST PUSH1 0x1 PUSH1 0x1 PUSH1 0xA0 SHL SUB DUP2 AND PUSH2 0x1C27 JUMPI PUSH1 0x40 MLOAD PUSH3 0x461BCD PUSH1 0xE5 SHL DUP2 MSTORE PUSH1 0x20 PUSH1 0x4 DUP3 ADD MSTORE PUSH1 0x26 PUSH1 0x24 DUP3 ADD MSTORE PUSH32 0x4F776E61626C653A206E6577206F776E657220697320746865207A65726F2061 PUSH1 0x44 DUP3 ADD MSTORE PUSH6 0x646472657373 PUSH1 0xD0 SHL PUSH1 0x64 DUP3 ADD MSTORE PUSH1 0x84 ADD PUSH2 0x91F JUMP JUMPDEST PUSH2 0x1C30 DUP2 PUSH2 0x261A JUMP JUMPDEST POP JUMP JUMPDEST PUSH1 0x0 DUP2 GT PUSH2 0x1C53 JUMPI PUSH1 0x40 MLOAD PUSH3 0x461BCD PUSH1 0xE5 SHL DUP2 MSTORE PUSH1 0x4 ADD PUSH2 0x91F SWAP1 PUSH2 0x2B81 JUMP JUMPDEST PUSH1 0x0 PUSH2 0x1CB7 CALLER PUSH1 0x1 DUP1 SLOAD DUP1 PUSH1 0x20 MUL PUSH1 0x20 ADD PUSH1 0x40 MLOAD SWAP1 DUP2 ADD PUSH1 0x40 MSTORE DUP1 SWAP3 SWAP2 SWAP1 DUP2 DUP2 MSTORE PUSH1 0x20 ADD DUP3 DUP1 SLOAD DUP1 ISZERO PUSH2 0x984 JUMPI PUSH1 0x20 MUL DUP3 ADD SWAP2 SWAP1 PUSH1 0x0 MSTORE PUSH1 0x20 PUSH1 0x0 KECCAK256 SWAP1 DUP2 SLOAD PUSH1 0x1 PUSH1 0x1 PUSH1 0xA0 SHL SUB AND DUP2 MSTORE PUSH1 0x1 SWAP1 SWAP2 ADD SWAP1 PUSH1 0x20 ADD DUP1 DUP4 GT PUSH2 0x966 JUMPI POP POP POP POP POP PUSH2 0x1B2B JUMP JUMPDEST SWAP1 POP PUSH1 0x0 DUP2 SLT ISZERO PUSH2 0x1D23 JUMPI PUSH1 0x40 MLOAD PUSH3 0x461BCD PUSH1 0xE5 SHL DUP2 MSTORE PUSH1 0x20 PUSH1 0x4 DUP3 ADD MSTORE PUSH1 0x30 PUSH1 0x24 DUP3 ADD MSTORE PUSH32 0x557365722061646472657373206973206E6F7420666F756E6420696E20746865 PUSH1 0x44 DUP3 ADD MSTORE PUSH16 0x206C697374206F66206C656E64657273 PUSH1 0x80 SHL PUSH1 0x64 DUP3 ADD MSTORE PUSH1 0x84 ADD PUSH2 0x91F JUMP JUMPDEST PUSH1 0x1 PUSH1 0x1 PUSH1 0xA0 SHL SUB DUP4 AND PUSH1 0x0 SWAP1 DUP2 MSTORE PUSH1 0x3 PUSH1 0x20 SWAP1 DUP2 MSTORE PUSH1 0x40 DUP1 DUP4 KECCAK256 CALLER DUP5 MSTORE SWAP1 SWAP2 MSTORE SWAP1 KECCAK256 SLOAD DUP4 SWAP1 DUP4 DUP2 LT ISZERO PUSH2 0x1D56 JUMPI PUSH1 0x0 DUP1 REVERT JUMPDEST PUSH1 0x0 PUSH2 0x1D62 DUP6 DUP8 PUSH2 0x1F42 JUMP JUMPDEST PUSH1 0xB SLOAD PUSH1 0x40 MLOAD PUSH4 0x23B872DD PUSH1 0xE0 SHL DUP2 MSTORE CALLER PUSH1 0x4 DUP3 ADD MSTORE ADDRESS PUSH1 0x24 DUP3 ADD MSTORE PUSH1 0x44 DUP2 ADD DUP4 SWAP1 MSTORE SWAP2 SWAP3 POP PUSH1 0x1 PUSH1 0x1 PUSH1 0xA0 SHL SUB AND SWAP1 PUSH4 0x23B872DD SWAP1 PUSH1 0x64 ADD PUSH1 0x20 PUSH1 0x40 MLOAD DUP1 DUP4 SUB DUP2 PUSH1 0x0 DUP8 GAS CALL ISZERO DUP1 ISZERO PUSH2 0x1DBA JUMPI RETURNDATASIZE PUSH1 0x0 DUP1 RETURNDATACOPY RETURNDATASIZE PUSH1 0x0 REVERT JUMPDEST POP POP POP POP PUSH1 0x40 MLOAD RETURNDATASIZE PUSH1 0x1F NOT PUSH1 0x1F DUP3 ADD AND DUP3 ADD DUP1 PUSH1 0x40 MSTORE POP DUP2 ADD SWAP1 PUSH2 0x1DDE SWAP2 SWAP1 PUSH2 0x2BB8 JUMP JUMPDEST POP PUSH1 0x40 MLOAD PUSH4 0xA9059CBB PUSH1 0xE0 SHL DUP2 MSTORE CALLER PUSH1 0x4 DUP3 ADD MSTORE PUSH1 0x24 DUP2 ADD DUP7 SWAP1 MSTORE PUSH1 0x1 PUSH1 0x1 PUSH1 0xA0 SHL SUB DUP5 AND SWAP1 PUSH4 0xA9059CBB SWAP1 PUSH1 0x44 ADD PUSH1 0x20 PUSH1 0x40 MLOAD DUP1 DUP4 SUB DUP2 PUSH1 0x0 DUP8 GAS CALL ISZERO DUP1 ISZERO PUSH2 0x1E2C JUMPI RETURNDATASIZE PUSH1 0x0 DUP1 RETURNDATACOPY RETURNDATASIZE PUSH1 0x0 REVERT JUMPDEST POP POP POP POP PUSH1 0x40 MLOAD RETURNDATASIZE PUSH1 0x1F NOT PUSH1 0x1F DUP3 ADD AND DUP3 ADD DUP1 PUSH1 0x40 MSTORE POP DUP2 ADD SWAP1 PUSH2 0x1E50 SWAP2 SWAP1 PUSH2 0x2BB8 JUMP JUMPDEST POP PUSH1 0x1 PUSH1 0x1 PUSH1 0xA0 SHL SUB DUP7 AND PUSH1 0x0 SWAP1 DUP2 MSTORE PUSH1 0x3 PUSH1 0x20 SWAP1 DUP2 MSTORE PUSH1 0x40 DUP1 DUP4 KECCAK256 CALLER DUP5 MSTORE SWAP1 SWAP2 MSTORE SWAP1 KECCAK256 SLOAD PUSH2 0x1E80 SWAP1 DUP7 SWAP1 PUSH2 0x2BDA JUMP JUMPDEST PUSH1 0x1 PUSH1 0x1 PUSH1 0xA0 SHL SUB DUP8 AND PUSH1 0x0 SWAP1 DUP2 MSTORE PUSH1 0x3 PUSH1 0x20 SWAP1 DUP2 MSTORE PUSH1 0x40 DUP1 DUP4 KECCAK256 CALLER DUP1 DUP6 MSTORE SWAP3 MSTORE DUP3 KECCAK256 SWAP3 SWAP1 SWAP3 SSTORE SWAP1 PUSH2 0x1EB1 SWAP1 PUSH2 0x183E JUMP JUMPDEST SWAP1 POP DUP1 PUSH2 0xC09 JUMPI PUSH1 0x1 DUP1 SLOAD PUSH2 0x1EC7 SWAP1 DUP3 SWAP1 PUSH2 0x2BDA JUMP JUMPDEST DUP2 SLOAD DUP2 LT PUSH2 0x1ED7 JUMPI PUSH2 0x1ED7 PUSH2 0x2AE1 JUMP JUMPDEST PUSH1 0x0 SWAP2 DUP3 MSTORE PUSH1 0x20 SWAP1 SWAP2 KECCAK256 ADD SLOAD PUSH1 0x1 DUP1 SLOAD PUSH1 0x1 PUSH1 0x1 PUSH1 0xA0 SHL SUB SWAP1 SWAP3 AND SWAP2 DUP8 SWAP1 DUP2 LT PUSH2 0x1F03 JUMPI PUSH2 0x1F03 PUSH2 0x2AE1 JUMP JUMPDEST SWAP1 PUSH1 0x0 MSTORE PUSH1 0x20 PUSH1 0x0 KECCAK256 ADD PUSH1 0x0 PUSH2 0x100 EXP DUP2 SLOAD DUP2 PUSH1 0x1 PUSH1 0x1 PUSH1 0xA0 SHL SUB MUL NOT AND SWAP1 DUP4 PUSH1 0x1 PUSH1 0x1 PUSH1 0xA0 SHL SUB AND MUL OR SWAP1 SSTORE POP PUSH1 0x1 DUP1 SLOAD DUP1 PUSH2 0xBE6 JUMPI PUSH2 0xBE6 PUSH2 0x2BF1 JUMP JUMPDEST PUSH1 0x0 DUP1 PUSH1 0x0 PUSH2 0x1F50 DUP5 PUSH2 0x2067 JUMP JUMPDEST SWAP1 SWAP3 POP SWAP1 POP PUSH1 0x0 PUSH2 0x1F62 DUP3 PUSH1 0xA PUSH2 0x2D39 JUMP JUMPDEST PUSH2 0x1F6C DUP5 DUP9 PUSH2 0x2B40 JUMP JUMPDEST PUSH2 0x1F76 SWAP2 SWAP1 PUSH2 0x2B5F JUMP JUMPDEST SWAP7 SWAP6 POP POP POP POP POP POP JUMP JUMPDEST PUSH2 0x1FAD PUSH1 0x40 MLOAD DUP1 PUSH1 0x60 ADD PUSH1 0x40 MSTORE DUP1 PUSH1 0x0 PUSH1 0x1 PUSH1 0x1 PUSH1 0xA0 SHL SUB AND DUP2 MSTORE PUSH1 0x20 ADD PUSH1 0x0 DUP2 MSTORE PUSH1 0x20 ADD PUSH1 0x0 DUP2 MSTORE POP SWAP1 JUMP JUMPDEST PUSH2 0x1FDA PUSH1 0x40 MLOAD DUP1 PUSH1 0x60 ADD PUSH1 0x40 MSTORE DUP1 PUSH1 0x0 PUSH1 0x1 PUSH1 0x1 PUSH1 0xA0 SHL SUB AND DUP2 MSTORE PUSH1 0x20 ADD PUSH1 0x0 DUP2 MSTORE PUSH1 0x20 ADD PUSH1 0x0 DUP2 MSTORE POP SWAP1 JUMP JUMPDEST PUSH1 0x0 JUMPDEST PUSH1 0xA SLOAD DUP2 LT ISZERO PUSH2 0x7F0 JUMPI PUSH1 0x0 PUSH1 0xA DUP3 DUP2 SLOAD DUP2 LT PUSH2 0x1FFC JUMPI PUSH2 0x1FFC PUSH2 0x2AE1 JUMP JUMPDEST PUSH1 0x0 SWAP2 DUP3 MSTORE PUSH1 0x20 SWAP2 DUP3 SWAP1 KECCAK256 PUSH1 0x40 DUP1 MLOAD PUSH1 0x60 DUP2 ADD DUP3 MSTORE PUSH1 0x3 SWAP1 SWAP4 MUL SWAP1 SWAP2 ADD DUP1 SLOAD PUSH1 0x1 PUSH1 0x1 PUSH1 0xA0 SHL SUB SWAP1 DUP2 AND DUP1 DUP6 MSTORE PUSH1 0x1 DUP4 ADD SLOAD SWAP6 DUP6 ADD SWAP6 SWAP1 SWAP6 MSTORE PUSH1 0x2 SWAP1 SWAP2 ADD SLOAD SWAP2 DUP4 ADD SWAP2 SWAP1 SWAP2 MSTORE SWAP1 SWAP3 POP DUP7 AND EQ ISZERO PUSH2 0x2054 JUMPI SWAP2 POP PUSH2 0x7F0 JUMP JUMPDEST POP DUP1 PUSH2 0x205F DUP2 PUSH2 0x2B25 JUMP JUMPDEST SWAP2 POP POP PUSH2 0x1FDD JUMP JUMPDEST PUSH1 0x1 PUSH1 0x1 PUSH1 0xA0 SHL SUB DUP1 DUP3 AND PUSH1 0x0 SWAP1 DUP2 MSTORE PUSH1 0x7 PUSH1 0x20 MSTORE PUSH1 0x40 DUP1 DUP3 KECCAK256 SLOAD DUP2 MLOAD PUSH4 0x3FABE5A3 PUSH1 0xE2 SHL DUP2 MSTORE SWAP2 MLOAD SWAP3 SWAP4 DUP5 SWAP4 SWAP2 AND SWAP2 DUP3 SWAP2 DUP5 SWAP2 DUP4 SWAP2 PUSH4 0xFEAF968C SWAP2 PUSH1 0x4 DUP1 DUP3 ADD SWAP3 PUSH1 0xA0 SWAP3 SWAP1 SWAP2 SWAP1 DUP3 SWAP1 SUB ADD DUP2 DUP7 GAS STATICCALL ISZERO DUP1 ISZERO PUSH2 0x20C8 JUMPI RETURNDATASIZE PUSH1 0x0 DUP1 RETURNDATACOPY RETURNDATASIZE PUSH1 0x0 REVERT JUMPDEST POP POP POP POP PUSH1 0x40 MLOAD RETURNDATASIZE PUSH1 0x1F NOT PUSH1 0x1F DUP3 ADD AND DUP3 ADD DUP1 PUSH1 0x40 MSTORE POP DUP2 ADD SWAP1 PUSH2 0x20EC SWAP2 SWAP1 PUSH2 0x2D5F JUMP JUMPDEST POP POP POP SWAP2 POP POP PUSH1 0x0 DUP3 PUSH1 0x1 PUSH1 0x1 PUSH1 0xA0 SHL SUB AND PUSH4 0x313CE567 PUSH1 0x40 MLOAD DUP2 PUSH4 0xFFFFFFFF AND PUSH1 0xE0 SHL DUP2 MSTORE PUSH1 0x4 ADD PUSH1 0x20 PUSH1 0x40 MLOAD DUP1 DUP4 SUB DUP2 DUP7 GAS STATICCALL ISZERO DUP1 ISZERO PUSH2 0x2132 JUMPI RETURNDATASIZE PUSH1 0x0 DUP1 RETURNDATACOPY RETURNDATASIZE PUSH1 0x0 REVERT JUMPDEST POP POP POP POP PUSH1 0x40 MLOAD RETURNDATASIZE PUSH1 0x1F NOT PUSH1 0x1F DUP3 ADD AND DUP3 ADD DUP1 PUSH1 0x40 MSTORE POP DUP2 ADD SWAP1 PUSH2 0x2156 SWAP2 SWAP1 PUSH2 0x2DAF JUMP JUMPDEST SWAP2 SWAP8 PUSH1 0xFF SWAP1 SWAP3 AND SWAP7 POP SWAP1 SWAP5 POP POP POP POP POP JUMP JUMPDEST DUP1 MLOAD PUSH1 0x0 SWAP1 ISZERO PUSH2 0x21DE JUMPI PUSH1 0x0 JUMPDEST DUP3 MLOAD DUP2 LT ISZERO PUSH2 0x21DC JUMPI PUSH1 0x0 DUP4 DUP3 DUP2 MLOAD DUP2 LT PUSH2 0x2192 JUMPI PUSH2 0x2192 PUSH2 0x2AE1 JUMP JUMPDEST PUSH1 0x20 MUL PUSH1 0x20 ADD ADD MLOAD SWAP1 POP DUP5 PUSH1 0x0 ADD MLOAD PUSH1 0x1 PUSH1 0x1 PUSH1 0xA0 SHL SUB AND DUP2 PUSH1 0x0 ADD MLOAD PUSH1 0x1 PUSH1 0x1 PUSH1 0xA0 SHL SUB AND EQ ISZERO PUSH2 0x21C9 JUMPI PUSH1 0x1 SWAP3 POP POP POP PUSH2 0x7F2 JUMP JUMPDEST POP DUP1 PUSH2 0x21D4 DUP2 PUSH2 0x2B25 JUMP JUMPDEST SWAP2 POP POP PUSH2 0x2175 JUMP JUMPDEST POP JUMPDEST POP PUSH1 0x0 SWAP3 SWAP2 POP POP JUMP JUMPDEST DUP1 MLOAD PUSH1 0x0 SWAP1 ISZERO PUSH2 0x21DE JUMPI PUSH1 0x0 JUMPDEST DUP3 MLOAD DUP2 LT ISZERO PUSH2 0x21DC JUMPI PUSH1 0x0 DUP4 DUP3 DUP2 MLOAD DUP2 LT PUSH2 0x2211 JUMPI PUSH2 0x2211 PUSH2 0x2AE1 JUMP JUMPDEST PUSH1 0x20 MUL PUSH1 0x20 ADD ADD MLOAD SWAP1 POP DUP5 PUSH1 0x1 PUSH1 0x1 PUSH1 0xA0 SHL SUB AND DUP2 PUSH1 0x0 ADD MLOAD PUSH1 0x1 PUSH1 0x1 PUSH1 0xA0 SHL SUB AND EQ ISZERO PUSH2 0x2244 JUMPI PUSH1 0x1 SWAP3 POP POP POP PUSH2 0x7F2 JUMP JUMPDEST POP DUP1 PUSH2 0x224F DUP2 PUSH2 0x2B25 JUMP JUMPDEST SWAP2 POP POP PUSH2 0x21F4 JUMP JUMPDEST PUSH1 0x0 DUP1 PUSH1 0x0 DUP4 MLOAD GT ISZERO PUSH2 0x22C9 JUMPI PUSH1 0x0 JUMPDEST DUP4 MLOAD DUP2 LT ISZERO PUSH2 0x22C7 JUMPI PUSH1 0x0 DUP5 DUP3 DUP2 MLOAD DUP2 LT PUSH2 0x2284 JUMPI PUSH2 0x2284 PUSH2 0x2AE1 JUMP JUMPDEST PUSH1 0x20 MUL PUSH1 0x20 ADD ADD MLOAD SWAP1 POP DUP6 PUSH1 0x1 PUSH1 0x1 PUSH1 0xA0 SHL SUB AND DUP2 PUSH1 0x1 PUSH1 0x1 PUSH1 0xA0 SHL SUB AND EQ ISZERO PUSH2 0x22B4 JUMPI POP PUSH1 0x1 SWAP3 POP SWAP1 POP PUSH2 0x22D2 JUMP JUMPDEST POP DUP1 PUSH2 0x22BF DUP2 PUSH2 0x2B25 JUMP JUMPDEST SWAP2 POP POP PUSH2 0x2267 JUMP JUMPDEST POP JUMPDEST POP PUSH1 0x0 SWAP1 POP PUSH1 0x0 NOT JUMPDEST SWAP3 POP SWAP3 SWAP1 POP JUMP JUMPDEST PUSH1 0x40 MLOAD PUSH7 0x6C656E64657273 PUSH1 0xC8 SHL PUSH1 0x20 DUP3 ADD MSTORE PUSH1 0x27 ADD PUSH1 0x40 MLOAD PUSH1 0x20 DUP2 DUP4 SUB SUB DUP2 MSTORE SWAP1 PUSH1 0x40 MSTORE DUP1 MLOAD SWAP1 PUSH1 0x20 ADD KECCAK256 DUP2 PUSH1 0x40 MLOAD PUSH1 0x20 ADD PUSH2 0x2316 SWAP2 SWAP1 PUSH2 0x2DD2 JUMP JUMPDEST PUSH1 0x40 MLOAD PUSH1 0x20 DUP2 DUP4 SUB SUB DUP2 MSTORE SWAP1 PUSH1 0x40 MSTORE DUP1 MLOAD SWAP1 PUSH1 0x20 ADD KECCAK256 EQ ISZERO PUSH2 0x2476 JUMPI PUSH1 0x0 PUSH1 0x1 DUP4 DUP2 SLOAD DUP2 LT PUSH2 0x2347 JUMPI PUSH2 0x2347 PUSH2 0x2AE1 JUMP JUMPDEST SWAP1 PUSH1 0x0 MSTORE PUSH1 0x20 PUSH1 0x0 KECCAK256 ADD PUSH1 0x0 SWAP1 SLOAD SWAP1 PUSH2 0x100 EXP SWAP1 DIV PUSH1 0x1 PUSH1 0x1 PUSH1 0xA0 SHL SUB AND SWAP1 POP PUSH1 0x0 PUSH2 0x2399 DUP3 DUP8 PUSH1 0xC SLOAD PUSH1 0x40 MLOAD DUP1 PUSH1 0x40 ADD PUSH1 0x40 MSTORE DUP1 PUSH1 0xA DUP2 MSTORE PUSH1 0x20 ADD PUSH10 0x1D1BDAD95B9CD3195B9D PUSH1 0xB2 SHL DUP2 MSTORE POP PUSH2 0x270F JUMP JUMPDEST SWAP1 POP DUP1 ISZERO PUSH2 0x23FD JUMPI PUSH1 0x1 PUSH1 0x1 PUSH1 0xA0 SHL SUB DUP1 DUP8 AND PUSH1 0x0 SWAP1 DUP2 MSTORE PUSH1 0x3 PUSH1 0x20 SWAP1 DUP2 MSTORE PUSH1 0x40 DUP1 DUP4 KECCAK256 SWAP4 DUP7 AND DUP4 MSTORE SWAP3 SWAP1 MSTORE KECCAK256 SLOAD PUSH2 0x23D2 SWAP1 DUP7 SWAP1 PUSH2 0x2B0D JUMP JUMPDEST PUSH1 0x1 PUSH1 0x1 PUSH1 0xA0 SHL SUB DUP1 DUP9 AND PUSH1 0x0 SWAP1 DUP2 MSTORE PUSH1 0x3 PUSH1 0x20 SWAP1 DUP2 MSTORE PUSH1 0x40 DUP1 DUP4 KECCAK256 SWAP4 DUP8 AND DUP4 MSTORE SWAP3 SWAP1 MSTORE KECCAK256 SSTORE PUSH2 0x246F JUMP JUMPDEST PUSH1 0xC DUP1 SLOAD DUP8 SWAP2 PUSH1 0x5 SWAP2 PUSH1 0x0 SWAP2 DUP3 PUSH2 0x2413 DUP4 PUSH2 0x2B25 JUMP JUMPDEST SWAP1 SWAP2 SSTORE POP DUP2 MSTORE PUSH1 0x20 DUP1 DUP3 ADD SWAP3 SWAP1 SWAP3 MSTORE PUSH1 0x40 SWAP1 DUP2 ADD PUSH1 0x0 SWAP1 DUP2 KECCAK256 PUSH1 0x1 PUSH1 0x1 PUSH1 0xA0 SHL SUB DUP8 DUP2 AND DUP1 DUP5 MSTORE SWAP2 DUP6 MSTORE DUP4 DUP4 KECCAK256 DUP1 SLOAD PUSH1 0x1 PUSH1 0x1 PUSH1 0xA0 SHL SUB NOT AND SWAP7 DUP3 AND SWAP7 SWAP1 SWAP7 OR SWAP1 SWAP6 SSTORE SWAP4 DUP11 AND DUP2 MSTORE PUSH1 0x3 DUP4 MSTORE DUP2 DUP2 KECCAK256 SWAP4 DUP2 MSTORE SWAP3 SWAP1 SWAP2 MSTORE SWAP1 KECCAK256 DUP6 SWAP1 SSTORE JUMPDEST POP POP PUSH2 0xD98 JUMP JUMPDEST PUSH1 0x40 MLOAD PUSH9 0x626F72726F77657273 PUSH1 0xB8 SHL PUSH1 0x20 DUP3 ADD MSTORE PUSH1 0x29 ADD PUSH1 0x40 MLOAD PUSH1 0x20 DUP2 DUP4 SUB SUB DUP2 MSTORE SWAP1 PUSH1 0x40 MSTORE DUP1 MLOAD SWAP1 PUSH1 0x20 ADD KECCAK256 DUP2 PUSH1 0x40 MLOAD PUSH1 0x20 ADD PUSH2 0x24B5 SWAP2 SWAP1 PUSH2 0x2DD2 JUMP JUMPDEST PUSH1 0x40 MLOAD PUSH1 0x20 DUP2 DUP4 SUB SUB DUP2 MSTORE SWAP1 PUSH1 0x40 MSTORE DUP1 MLOAD SWAP1 PUSH1 0x20 ADD KECCAK256 EQ ISZERO PUSH2 0xD98 JUMPI PUSH1 0x0 PUSH1 0x2 DUP4 DUP2 SLOAD DUP2 LT PUSH2 0x24E6 JUMPI PUSH2 0x24E6 PUSH2 0x2AE1 JUMP JUMPDEST SWAP1 PUSH1 0x0 MSTORE PUSH1 0x20 PUSH1 0x0 KECCAK256 ADD PUSH1 0x0 SWAP1 SLOAD SWAP1 PUSH2 0x100 EXP SWAP1 DIV PUSH1 0x1 PUSH1 0x1 PUSH1 0xA0 SHL SUB AND SWAP1 POP PUSH1 0x0 PUSH2 0x253C DUP3 DUP8 PUSH1 0xD SLOAD PUSH1 0x40 MLOAD DUP1 PUSH1 0x40 ADD PUSH1 0x40 MSTORE DUP1 PUSH1 0xE DUP2 MSTORE PUSH1 0x20 ADD PUSH14 0x1D1BDAD95B9CD09BDC9C9BDDD959 PUSH1 0x92 SHL DUP2 MSTORE POP PUSH2 0x270F JUMP JUMPDEST SWAP1 POP DUP1 ISZERO PUSH2 0x25A0 JUMPI PUSH1 0x1 PUSH1 0x1 PUSH1 0xA0 SHL SUB DUP1 DUP8 AND PUSH1 0x0 SWAP1 DUP2 MSTORE PUSH1 0x4 PUSH1 0x20 SWAP1 DUP2 MSTORE PUSH1 0x40 DUP1 DUP4 KECCAK256 SWAP4 DUP7 AND DUP4 MSTORE SWAP3 SWAP1 MSTORE KECCAK256 SLOAD PUSH2 0x2575 SWAP1 DUP7 SWAP1 PUSH2 0x2B0D JUMP JUMPDEST PUSH1 0x1 PUSH1 0x1 PUSH1 0xA0 SHL SUB DUP1 DUP9 AND PUSH1 0x0 SWAP1 DUP2 MSTORE PUSH1 0x4 PUSH1 0x20 SWAP1 DUP2 MSTORE PUSH1 0x40 DUP1 DUP4 KECCAK256 SWAP4 DUP8 AND DUP4 MSTORE SWAP3 SWAP1 MSTORE KECCAK256 SSTORE PUSH2 0x2612 JUMP JUMPDEST PUSH1 0xD DUP1 SLOAD DUP8 SWAP2 PUSH1 0x6 SWAP2 PUSH1 0x0 SWAP2 DUP3 PUSH2 0x25B6 DUP4 PUSH2 0x2B25 JUMP JUMPDEST SWAP1 SWAP2 SSTORE POP DUP2 MSTORE PUSH1 0x20 DUP1 DUP3 ADD SWAP3 SWAP1 SWAP3 MSTORE PUSH1 0x40 SWAP1 DUP2 ADD PUSH1 0x0 SWAP1 DUP2 KECCAK256 PUSH1 0x1 PUSH1 0x1 PUSH1 0xA0 SHL SUB DUP8 DUP2 AND DUP1 DUP5 MSTORE SWAP2 DUP6 MSTORE DUP4 DUP4 KECCAK256 DUP1 SLOAD PUSH1 0x1 PUSH1 0x1 PUSH1 0xA0 SHL SUB NOT AND SWAP7 DUP3 AND SWAP7 SWAP1 SWAP7 OR SWAP1 SWAP6 SSTORE SWAP4 DUP11 AND DUP2 MSTORE PUSH1 0x4 DUP4 MSTORE DUP2 DUP2 KECCAK256 SWAP4 DUP2 MSTORE SWAP3 SWAP1 SWAP2 MSTORE SWAP1 KECCAK256 DUP6 SWAP1 SSTORE JUMPDEST POP POP POP POP POP POP JUMP JUMPDEST PUSH1 0x0 DUP1 SLOAD PUSH1 0x1 PUSH1 0x1 PUSH1 0xA0 SHL SUB DUP4 DUP2 AND PUSH1 0x1 PUSH1 0x1 PUSH1 0xA0 SHL SUB NOT DUP4 AND DUP2 OR DUP5 SSTORE PUSH1 0x40 MLOAD SWAP2 SWAP1 SWAP3 AND SWAP3 DUP4 SWAP2 PUSH32 0x8BE0079C531659141344CD1FD0A4F28419497F9722A3DAAFE3B4186F6B6457E0 SWAP2 SWAP1 LOG3 POP POP JUMP JUMPDEST PUSH1 0x0 DUP2 GT PUSH2 0x268A JUMPI PUSH1 0x40 MLOAD PUSH3 0x461BCD PUSH1 0xE5 SHL DUP2 MSTORE PUSH1 0x4 ADD PUSH2 0x91F SWAP1 PUSH2 0x2B81 JUMP JUMPDEST PUSH1 0x0 PUSH2 0x2696 DUP3 DUP5 PUSH2 0x1F42 JUMP JUMPDEST PUSH1 0xB SLOAD PUSH1 0x40 MLOAD PUSH4 0xA9059CBB PUSH1 0xE0 SHL DUP2 MSTORE PUSH1 0x1 PUSH1 0x1 PUSH1 0xA0 SHL SUB DUP8 DUP2 AND PUSH1 0x4 DUP4 ADD MSTORE PUSH1 0x24 DUP3 ADD DUP5 SWAP1 MSTORE SWAP3 SWAP4 POP SWAP2 AND SWAP1 PUSH4 0xA9059CBB SWAP1 PUSH1 0x44 ADD PUSH1 0x20 PUSH1 0x40 MLOAD DUP1 DUP4 SUB DUP2 PUSH1 0x0 DUP8 GAS CALL ISZERO DUP1 ISZERO PUSH2 0x26EB JUMPI RETURNDATASIZE PUSH1 0x0 DUP1 RETURNDATACOPY RETURNDATASIZE PUSH1 0x0 REVERT JUMPDEST POP POP POP POP PUSH1 0x40 MLOAD RETURNDATASIZE PUSH1 0x1F NOT PUSH1 0x1F DUP3 ADD AND DUP3 ADD DUP1 PUSH1 0x40 MSTORE POP DUP2 ADD SWAP1 PUSH2 0x1837 SWAP2 SWAP1 PUSH2 0x2BB8 JUMP JUMPDEST PUSH1 0x0 DUP3 ISZERO PUSH2 0x2891 JUMPI PUSH1 0x40 MLOAD PUSH10 0x1D1BDAD95B9CD3195B9D PUSH1 0xB2 SHL PUSH1 0x20 DUP3 ADD MSTORE PUSH1 0x2A ADD PUSH1 0x40 MLOAD PUSH1 0x20 DUP2 DUP4 SUB SUB DUP2 MSTORE SWAP1 PUSH1 0x40 MSTORE DUP1 MLOAD SWAP1 PUSH1 0x20 ADD KECCAK256 DUP3 PUSH1 0x40 MLOAD PUSH1 0x20 ADD PUSH2 0x2757 SWAP2 SWAP1 PUSH2 0x2DD2 JUMP JUMPDEST PUSH1 0x40 MLOAD PUSH1 0x20 DUP2 DUP4 SUB SUB DUP2 MSTORE SWAP1 PUSH1 0x40 MSTORE DUP1 MLOAD SWAP1 PUSH1 0x20 ADD KECCAK256 EQ ISZERO PUSH2 0x27D4 JUMPI PUSH1 0x0 JUMPDEST PUSH1 0xD SLOAD DUP2 LT ISZERO PUSH2 0x27CE JUMPI PUSH1 0x0 DUP2 DUP2 MSTORE PUSH1 0x5 PUSH1 0x20 SWAP1 DUP2 MSTORE PUSH1 0x40 DUP1 DUP4 KECCAK256 PUSH1 0x1 PUSH1 0x1 PUSH1 0xA0 SHL SUB DUP1 DUP12 AND DUP6 MSTORE SWAP3 MSTORE SWAP1 SWAP2 KECCAK256 SLOAD DUP2 AND SWAP1 DUP7 AND DUP2 EQ ISZERO PUSH2 0x27BB JUMPI PUSH1 0x1 SWAP3 POP POP POP PUSH2 0x866 JUMP JUMPDEST POP DUP1 PUSH2 0x27C6 DUP2 PUSH2 0x2B25 JUMP JUMPDEST SWAP2 POP POP PUSH2 0x2776 JUMP JUMPDEST POP PUSH2 0x2891 JUMP JUMPDEST PUSH1 0x40 MLOAD PUSH14 0x1D1BDAD95B9CD09BDC9C9BDDD959 PUSH1 0x92 SHL PUSH1 0x20 DUP3 ADD MSTORE PUSH1 0x2E ADD PUSH1 0x40 MLOAD PUSH1 0x20 DUP2 DUP4 SUB SUB DUP2 MSTORE SWAP1 PUSH1 0x40 MSTORE DUP1 MLOAD SWAP1 PUSH1 0x20 ADD KECCAK256 DUP3 PUSH1 0x40 MLOAD PUSH1 0x20 ADD PUSH2 0x2818 SWAP2 SWAP1 PUSH2 0x2DD2 JUMP JUMPDEST PUSH1 0x40 MLOAD PUSH1 0x20 DUP2 DUP4 SUB SUB DUP2 MSTORE SWAP1 PUSH1 0x40 MSTORE DUP1 MLOAD SWAP1 PUSH1 0x20 ADD KECCAK256 EQ ISZERO PUSH2 0x2891 JUMPI PUSH1 0x0 JUMPDEST PUSH1 0xC SLOAD DUP2 LT ISZERO PUSH2 0x288F JUMPI PUSH1 0x0 DUP2 DUP2 MSTORE PUSH1 0x6 PUSH1 0x20 SWAP1 DUP2 MSTORE PUSH1 0x40 DUP1 DUP4 KECCAK256 PUSH1 0x1 PUSH1 0x1 PUSH1 0xA0 SHL SUB DUP1 DUP12 AND DUP6 MSTORE SWAP3 MSTORE SWAP1 SWAP2 KECCAK256 SLOAD DUP2 AND SWAP1 DUP7 AND DUP2 EQ ISZERO PUSH2 0x287C JUMPI PUSH1 0x1 SWAP3 POP POP POP PUSH2 0x866 JUMP JUMPDEST POP DUP1 PUSH2 0x2887 DUP2 PUSH2 0x2B25 JUMP JUMPDEST SWAP2 POP POP PUSH2 0x2837 JUMP JUMPDEST POP JUMPDEST POP PUSH1 0x0 SWAP5 SWAP4 POP POP POP POP JUMP JUMPDEST DUP1 CALLDATALOAD PUSH1 0x1 PUSH1 0x1 PUSH1 0xA0 SHL SUB DUP2 AND DUP2 EQ PUSH2 0x28B3 JUMPI PUSH1 0x0 DUP1 REVERT JUMPDEST SWAP2 SWAP1 POP JUMP JUMPDEST PUSH1 0x0 PUSH1 0x20 DUP3 DUP5 SUB SLT ISZERO PUSH2 0x28CA JUMPI PUSH1 0x0 DUP1 REVERT JUMPDEST PUSH2 0x28D3 DUP3 PUSH2 0x289C JUMP JUMPDEST SWAP4 SWAP3 POP POP POP JUMP JUMPDEST PUSH1 0x0 PUSH1 0x20 DUP3 DUP5 SUB SLT ISZERO PUSH2 0x28EC JUMPI PUSH1 0x0 DUP1 REVERT JUMPDEST POP CALLDATALOAD SWAP2 SWAP1 POP JUMP JUMPDEST PUSH1 0x0 DUP1 PUSH1 0x40 DUP4 DUP6 SUB SLT ISZERO PUSH2 0x2906 JUMPI PUSH1 0x0 DUP1 REVERT JUMPDEST PUSH2 0x290F DUP4 PUSH2 0x289C JUMP JUMPDEST SWAP5 PUSH1 0x20 SWAP4 SWAP1 SWAP4 ADD CALLDATALOAD SWAP4 POP POP POP JUMP JUMPDEST PUSH1 0x0 DUP1 PUSH1 0x40 DUP4 DUP6 SUB SLT ISZERO PUSH2 0x2930 JUMPI PUSH1 0x0 DUP1 REVERT JUMPDEST PUSH2 0x2939 DUP4 PUSH2 0x289C JUMP JUMPDEST SWAP2 POP PUSH2 0x2947 PUSH1 0x20 DUP5 ADD PUSH2 0x289C JUMP JUMPDEST SWAP1 POP SWAP3 POP SWAP3 SWAP1 POP JUMP JUMPDEST PUSH1 0x0 DUP1 PUSH1 0x0 PUSH1 0x60 DUP5 DUP7 SUB SLT ISZERO PUSH2 0x2965 JUMPI PUSH1 0x0 DUP1 REVERT JUMPDEST PUSH2 0x296E DUP5 PUSH2 0x289C JUMP JUMPDEST SWAP6 PUSH1 0x20 DUP6 ADD CALLDATALOAD SWAP6 POP PUSH1 0x40 SWAP1 SWAP5 ADD CALLDATALOAD SWAP4 SWAP3 POP POP POP JUMP JUMPDEST PUSH1 0x20 DUP1 DUP3 MSTORE DUP3 MLOAD DUP3 DUP3 ADD DUP2 SWAP1 MSTORE PUSH1 0x0 SWAP2 SWAP1 DUP5 DUP3 ADD SWAP1 PUSH1 0x40 DUP6 ADD SWAP1 DUP5 JUMPDEST DUP2 DUP2 LT ISZERO PUSH2 0x29C4 JUMPI DUP4 MLOAD PUSH1 0x1 PUSH1 0x1 PUSH1 0xA0 SHL SUB AND DUP4 MSTORE SWAP3 DUP5 ADD SWAP3 SWAP2 DUP5 ADD SWAP2 PUSH1 0x1 ADD PUSH2 0x299F JUMP JUMPDEST POP SWAP1 SWAP7 SWAP6 POP POP POP POP POP POP JUMP JUMPDEST PUSH1 0x0 DUP1 PUSH1 0x40 DUP4 DUP6 SUB SLT ISZERO PUSH2 0x29E3 JUMPI PUSH1 0x0 DUP1 REVERT JUMPDEST DUP3 CALLDATALOAD SWAP2 POP PUSH2 0x2947 PUSH1 0x20 DUP5 ADD PUSH2 0x289C JUMP JUMPDEST PUSH4 0x4E487B71 PUSH1 0xE0 SHL PUSH1 0x0 MSTORE PUSH1 0x41 PUSH1 0x4 MSTORE PUSH1 0x24 PUSH1 0x0 REVERT JUMPDEST PUSH1 0x0 DUP1 PUSH1 0x40 DUP4 DUP6 SUB SLT ISZERO PUSH2 0x2A1C JUMPI PUSH1 0x0 DUP1 REVERT JUMPDEST PUSH2 0x2A25 DUP4 PUSH2 0x289C JUMP JUMPDEST SWAP2 POP PUSH1 0x20 DUP1 DUP5 ADD CALLDATALOAD PUSH8 0xFFFFFFFFFFFFFFFF DUP1 DUP3 GT ISZERO PUSH2 0x2A43 JUMPI PUSH1 0x0 DUP1 REVERT JUMPDEST DUP2 DUP7 ADD SWAP2 POP DUP7 PUSH1 0x1F DUP4 ADD SLT PUSH2 0x2A57 JUMPI PUSH1 0x0 DUP1 REVERT JUMPDEST DUP2 CALLDATALOAD DUP2 DUP2 GT ISZERO PUSH2 0x2A69 JUMPI PUSH2 0x2A69 PUSH2 0x29F3 JUMP JUMPDEST DUP1 PUSH1 0x5 SHL PUSH1 0x40 MLOAD PUSH1 0x1F NOT PUSH1 0x3F DUP4 ADD AND DUP2 ADD DUP2 DUP2 LT DUP6 DUP3 GT OR ISZERO PUSH2 0x2A8E JUMPI PUSH2 0x2A8E PUSH2 0x29F3 JUMP JUMPDEST PUSH1 0x40 MSTORE SWAP2 DUP3 MSTORE DUP5 DUP3 ADD SWAP3 POP DUP4 DUP2 ADD DUP6 ADD SWAP2 DUP10 DUP4 GT ISZERO PUSH2 0x2AAC JUMPI PUSH1 0x0 DUP1 REVERT JUMPDEST SWAP4 DUP6 ADD SWAP4 JUMPDEST DUP3 DUP6 LT ISZERO PUSH2 0x2AD1 JUMPI PUSH2 0x2AC2 DUP6 PUSH2 0x289C JUMP JUMPDEST DUP5 MSTORE SWAP4 DUP6 ADD SWAP4 SWAP3 DUP6 ADD SWAP3 PUSH2 0x2AB1 JUMP JUMPDEST DUP1 SWAP7 POP POP POP POP POP POP POP SWAP3 POP SWAP3 SWAP1 POP JUMP JUMPDEST PUSH4 0x4E487B71 PUSH1 0xE0 SHL PUSH1 0x0 MSTORE PUSH1 0x32 PUSH1 0x4 MSTORE PUSH1 0x24 PUSH1 0x0 REVERT JUMPDEST PUSH4 0x4E487B71 PUSH1 0xE0 SHL PUSH1 0x0 MSTORE PUSH1 0x11 PUSH1 0x4 MSTORE PUSH1 0x24 PUSH1 0x0 REVERT JUMPDEST PUSH1 0x0 DUP3 NOT DUP3 GT ISZERO PUSH2 0x2B20 JUMPI PUSH2 0x2B20 PUSH2 0x2AF7 JUMP JUMPDEST POP ADD SWAP1 JUMP JUMPDEST PUSH1 0x0 PUSH1 0x0 NOT DUP3 EQ ISZERO PUSH2 0x2B39 JUMPI PUSH2 0x2B39 PUSH2 0x2AF7 JUMP JUMPDEST POP PUSH1 0x1 ADD SWAP1 JUMP JUMPDEST PUSH1 0x0 DUP2 PUSH1 0x0 NOT DIV DUP4 GT DUP3 ISZERO ISZERO AND ISZERO PUSH2 0x2B5A JUMPI PUSH2 0x2B5A PUSH2 0x2AF7 JUMP JUMPDEST POP MUL SWAP1 JUMP JUMPDEST PUSH1 0x0 DUP3 PUSH2 0x2B7C JUMPI PUSH4 0x4E487B71 PUSH1 0xE0 SHL PUSH1 0x0 MSTORE PUSH1 0x12 PUSH1 0x4 MSTORE PUSH1 0x24 PUSH1 0x0 REVERT JUMPDEST POP DIV SWAP1 JUMP JUMPDEST PUSH1 0x20 DUP1 DUP3 MSTORE PUSH1 0x1F SWAP1 DUP3 ADD MSTORE PUSH32 0x416D6F756E742073686F756C642062652067726561746572207468616E203000 PUSH1 0x40 DUP3 ADD MSTORE PUSH1 0x60 ADD SWAP1 JUMP JUMPDEST PUSH1 0x0 PUSH1 0x20 DUP3 DUP5 SUB SLT ISZERO PUSH2 0x2BCA JUMPI PUSH1 0x0 DUP1 REVERT JUMPDEST DUP2 MLOAD DUP1 ISZERO ISZERO DUP2 EQ PUSH2 0x28D3 JUMPI PUSH1 0x0 DUP1 REVERT JUMPDEST PUSH1 0x0 DUP3 DUP3 LT ISZERO PUSH2 0x2BEC JUMPI PUSH2 0x2BEC PUSH2 0x2AF7 JUMP JUMPDEST POP SUB SWAP1 JUMP JUMPDEST PUSH4 0x4E487B71 PUSH1 0xE0 SHL PUSH1 0x0 MSTORE PUSH1 0x31 PUSH1 0x4 MSTORE PUSH1 0x24 PUSH1 0x0 REVERT JUMPDEST PUSH1 0x20 DUP1 DUP3 MSTORE DUP2 DUP2 ADD MSTORE PUSH32 0x4F776E61626C653A2063616C6C6572206973206E6F7420746865206F776E6572 PUSH1 0x40 DUP3 ADD MSTORE PUSH1 0x60 ADD SWAP1 JUMP JUMPDEST PUSH1 0x0 PUSH1 0x20 DUP3 DUP5 SUB SLT ISZERO PUSH2 0x2C4E JUMPI PUSH1 0x0 DUP1 REVERT JUMPDEST POP MLOAD SWAP2 SWAP1 POP JUMP JUMPDEST PUSH1 0x1 DUP2 DUP2 JUMPDEST DUP1 DUP6 GT ISZERO PUSH2 0x2C90 JUMPI DUP2 PUSH1 0x0 NOT DIV DUP3 GT ISZERO PUSH2 0x2C76 JUMPI PUSH2 0x2C76 PUSH2 0x2AF7 JUMP JUMPDEST DUP1 DUP6 AND ISZERO PUSH2 0x2C83 JUMPI SWAP2 DUP2 MUL SWAP2 JUMPDEST SWAP4 DUP5 SHR SWAP4 SWAP1 DUP1 MUL SWAP1 PUSH2 0x2C5A JUMP JUMPDEST POP SWAP3 POP SWAP3 SWAP1 POP JUMP JUMPDEST PUSH1 0x0 DUP3 PUSH2 0x2CA7 JUMPI POP PUSH1 0x1 PUSH2 0x7F2 JUMP JUMPDEST DUP2 PUSH2 0x2CB4 JUMPI POP PUSH1 0x0 PUSH2 0x7F2 JUMP JUMPDEST DUP2 PUSH1 0x1 DUP2 EQ PUSH2 0x2CCA JUMPI PUSH1 0x2 DUP2 EQ PUSH2 0x2CD4 JUMPI PUSH2 0x2CF0 JUMP JUMPDEST PUSH1 0x1 SWAP2 POP POP PUSH2 0x7F2 JUMP JUMPDEST PUSH1 0xFF DUP5 GT ISZERO PUSH2 0x2CE5 JUMPI PUSH2 0x2CE5 PUSH2 0x2AF7 JUMP JUMPDEST POP POP PUSH1 0x1 DUP3 SHL PUSH2 0x7F2 JUMP JUMPDEST POP PUSH1 0x20 DUP4 LT PUSH2 0x133 DUP4 LT AND PUSH1 0x4E DUP5 LT PUSH1 0xB DUP5 LT AND OR ISZERO PUSH2 0x2D13 JUMPI POP DUP2 DUP2 EXP PUSH2 0x7F2 JUMP JUMPDEST PUSH2 0x2D1D DUP4 DUP4 PUSH2 0x2C55 JUMP JUMPDEST DUP1 PUSH1 0x0 NOT DIV DUP3 GT ISZERO PUSH2 0x2D31 JUMPI PUSH2 0x2D31 PUSH2 0x2AF7 JUMP JUMPDEST MUL SWAP4 SWAP3 POP POP POP JUMP JUMPDEST PUSH1 0x0 PUSH2 0x28D3 DUP4 DUP4 PUSH2 0x2C98 JUMP JUMPDEST DUP1 MLOAD PUSH10 0xFFFFFFFFFFFFFFFFFFFF DUP2 AND DUP2 EQ PUSH2 0x28B3 JUMPI PUSH1 0x0 DUP1 REVERT JUMPDEST PUSH1 0x0 DUP1 PUSH1 0x0 DUP1 PUSH1 0x0 PUSH1 0xA0 DUP7 DUP9 SUB SLT ISZERO PUSH2 0x2D77 JUMPI PUSH1 0x0 DUP1 REVERT JUMPDEST PUSH2 0x2D80 DUP7 PUSH2 0x2D45 JUMP JUMPDEST SWAP5 POP PUSH1 0x20 DUP7 ADD MLOAD SWAP4 POP PUSH1 0x40 DUP7 ADD MLOAD SWAP3 POP PUSH1 0x60 DUP7 ADD MLOAD SWAP2 POP PUSH2 0x2DA3 PUSH1 0x80 DUP8 ADD PUSH2 0x2D45 JUMP JUMPDEST SWAP1 POP SWAP3 SWAP6 POP SWAP3 SWAP6 SWAP1 SWAP4 POP JUMP JUMPDEST PUSH1 0x0 PUSH1 0x20 DUP3 DUP5 SUB SLT ISZERO PUSH2 0x2DC1 JUMPI PUSH1 0x0 DUP1 REVERT JUMPDEST DUP2 MLOAD PUSH1 0xFF DUP2 AND DUP2 EQ PUSH2 0x28D3 JUMPI PUSH1 0x0 DUP1 REVERT JUMPDEST PUSH1 0x0 DUP3 MLOAD PUSH1 0x0 JUMPDEST DUP2 DUP2 LT ISZERO PUSH2 0x2DF3 JUMPI PUSH1 0x20 DUP2 DUP7 ADD DUP2 ADD MLOAD DUP6 DUP4 ADD MSTORE ADD PUSH2 0x2DD9 JUMP JUMPDEST DUP2 DUP2 GT ISZERO PUSH2 0x2E02 JUMPI PUSH1 0x0 DUP3 DUP6 ADD MSTORE JUMPDEST POP SWAP2 SWAP1 SWAP2 ADD SWAP3 SWAP2 POP POP JUMP INVALID LOG2 PUSH5 0x6970667358 0x22 SLT KECCAK256 0xA5 ORIGIN PUSH1 0x62 SWAP1 0x23 SMOD COINBASE SHL KECCAK256 0x4A CODESIZE 0x4C PUSH19 0x903B36753EC70EC2FE101ECDF42C97E731EF64 PUSH20 0x6F6C634300080B00330000000000000000000000 ","sha1":"0170f7d5d20ccd9003612b9accaf7529d361aff3","source":"// SPDX-License-Identifier: MIT\npragma solidity >=0.4.22 <0.9.0;\n\nimport \"@chainlink/contracts/src/v0.8/interfaces/AggregatorV3Interface.sol\";\nimport \"@openzeppelin/contracts/access/Ownable.sol\";\nimport \"@openzeppelin/contracts/token/ERC20/IERC20.sol\";\n\n// Set up you contract to convert DAI to USD or ETH to USD\ncontract LendingAndBorrowing is Ownable {\n    address[] public lenders;\n    address[] public borrowers;\n\n    mapping(address => mapping(address => uint256)) public tokensLentAmount;\n    mapping(address => mapping(address => uint256)) public tokensBorrowedAmount;\n\n    mapping(uint256 => mapping(address => address)) public tokensLent;\n    mapping(uint256 => mapping(address => address)) public tokensBorrowed;\n\n    mapping(address => address) public tokenToPriceFeed;\n\n    mapping(uint256 => mapping(address => address)) public tokensLentOrBorrowed;\n\n    struct Token {\n        address tokenAddress;\n        uint256 LTV;\n        uint256 stableRate;\n    }\n\n    Token[] public tokensForLending;\n    Token[] public tokensForBorrowing;\n\n    IERC20 public larToken;\n\n    uint256 public noOfTokensLent = 0;\n    uint256 public noOfTokensBorrowed = 0;\n\n    constructor(address _token) {\n        larToken = IERC20(_token);\n    }\n\n    function addTokensForLending(\n        address tokenAddress,\n        uint256 LTV,\n        uint256 borrowStableRate\n    ) public onlyOwner {\n        Token memory token = Token(tokenAddress, LTV, borrowStableRate);\n\n        if (!tokenIsAlreadyThere(token, tokensForLending)) {\n            tokensForLending.push(token);\n        }\n    }\n\n    function addTokensForBorrowing(\n        address tokenAddress,\n        uint256 LTV,\n        uint256 borrowStableRate\n    ) public onlyOwner {\n        Token memory token = Token(tokenAddress, LTV, borrowStableRate);\n\n        if (!tokenIsAlreadyThere(token, tokensForBorrowing)) {\n            tokensForBorrowing.push(token);\n        }\n    }\n\n    function addTokenToPriceFeedMapping(\n        address tokenAddress,\n        address tokenToUsdPriceFeed\n    ) public onlyOwner {\n        tokenToPriceFeed[tokenAddress] = tokenToUsdPriceFeed;\n    }\n\n    function getLendersArray() public view returns (address[] memory) {\n        return lenders;\n    }\n\n    function getBorrowersArray() public view returns (address[] memory) {\n        return borrowers;\n    }\n\n    function lend(address tokenAddress, uint256 amount) public payable {\n        require(\n            tokenIsAllowed(tokenAddress, tokensForLending),\n            \"Token is not supported\"\n        );\n\n        require(amount > 0, \"The amount to supply should be greater than 0\");\n\n        IERC20 token = IERC20(tokenAddress);\n\n        require(\n            token.balanceOf(msg.sender) >= amount,\n            \"You have insufficient token to supply that amount\"\n        );\n\n        token.transferFrom(msg.sender, address(this), amount);\n\n        (bool userPresent, int256 userIndex) = isUserPresentIn(\n            msg.sender,\n            lenders\n        );\n\n        if (userPresent) {\n            updateUserTokensBorrowedOrLent(\n                tokenAddress,\n                amount,\n                userIndex,\n                \"lenders\"\n            );\n        } else {\n            lenders.push(msg.sender);\n            tokensLentAmount[tokenAddress][msg.sender] = amount;\n            tokensLent[noOfTokensLent++][msg.sender] = tokenAddress;\n        }\n\n        rewardUserToken(msg.sender, tokenAddress, amount);\n    }\n\n    function borrow(uint256 amount, address tokenAddress) public {\n        require(\n            tokenIsAllowed(tokenAddress, tokensForBorrowing),\n            \"Token is not supported for borrowing\"\n        );\n        require(amount > 0, \"Amount should be greater than 0\");\n\n        uint256 totalAmountAvailableForBorrowInDollars = getUserTotalAmountAvailableForBorrowInDollars(\n                msg.sender\n            );\n        uint256 amountInDollars = getAmountInDollars(amount, tokenAddress);\n\n        require(\n            amountInDollars <= totalAmountAvailableForBorrowInDollars,\n            \"You don't have enough collateral to borrow this amount\"\n        );\n\n        IERC20 token = IERC20(tokenAddress);\n\n        require(\n            token.balanceOf(address(this)) > amount,\n            \"We do not have enough of this token for you to borrow.\"\n        );\n\n        token.transfer(msg.sender, amount);\n\n        (bool userPresent, int256 userIndex) = isUserPresentIn(\n            msg.sender,\n            borrowers\n        );\n\n        if (userPresent) {\n            updateUserTokensBorrowedOrLent(\n                tokenAddress,\n                amount,\n                userIndex,\n                \"borrowers\"\n            );\n        } else {\n            borrowers.push(msg.sender);\n            tokensBorrowedAmount[tokenAddress][msg.sender] = amount;\n            tokensBorrowed[noOfTokensBorrowed++][msg.sender] = tokenAddress;\n        }\n    }\n\n    function payDebt(address tokenAddress, uint256 amount) public {\n        require(amount > 0, \"Amount should be greater than 0\");\n\n        int256 index = indexOf(msg.sender, borrowers);\n        require(\n            index >= 0,\n            \"User address is not found in the list of borrowers\"\n        );\n\n        uint256 tokenBorrowed = tokensBorrowedAmount[tokenAddress][msg.sender];\n\n        require(tokenBorrowed > 0, \"You  are not owing\");\n        IERC20 token = IERC20(tokenAddress);\n\n        uint256 totalTokenAmountToCollectFromUser = amount +\n            interest(tokenAddress, tokenBorrowed);\n\n        token.transferFrom(\n            msg.sender,\n            address(this),\n            totalTokenAmountToCollectFromUser\n        );\n\n        tokensBorrowedAmount[tokenAddress][msg.sender] =\n            tokensBorrowedAmount[tokenAddress][msg.sender] -\n            amount;\n\n        // Check If all the amount borrowed = 0;\n        uint256 totalAmountBorrowed = getTotalAmountBorrowedInDollars(\n            msg.sender\n        );\n\n        if (totalAmountBorrowed == 0) {\n            borrowers[uint256(index)] = borrowers[borrowers.length - 1];\n            borrowers.pop();\n        }\n    }\n\n    function withdraw(address tokenAddress, uint256 amount) public {\n        require(amount > 0, \"Amount should be greater than 0\");\n\n        int256 index = indexOf(msg.sender, lenders);\n        require(index >= 0, \"User address is not found in the list of lenders\");\n\n        IERC20 token = IERC20(tokenAddress);\n\n        uint256 tokenAmountLent = tokensLentAmount[tokenAddress][msg.sender];\n\n        require(tokenAmountLent >= amount);\n\n        uint256 larTokenToRemove = getAmountInDollars(amount, tokenAddress);\n        larToken.transferFrom(msg.sender, address(this), larTokenToRemove);\n\n        // uint tokenAmountToTransferToUser = getTotalLendingInterest(amount, tokenAddress);\n\n        // if (tokensLentAmount[tokenAddress][msg.sender])\n\n        token.transfer(msg.sender, amount);\n\n        tokensLentAmount[tokenAddress][msg.sender] =\n            tokensLentAmount[tokenAddress][msg.sender] -\n            amount;\n\n        // Check If all the amount lent = 0;\n        uint256 totalAmountLent = getTotalAmountLentInDollars(msg.sender);\n\n        if (totalAmountLent == 0) {\n            lenders[uint256(index)] = lenders[lenders.length - 1];\n            lenders.pop();\n        }\n    }\n\n    function indexOf(address user, address[] memory addressArray)\n        public\n        returns (int256)\n    {\n        int256 index = -1;\n\n        for (uint256 i = 0; i < addressArray.length; i++) {\n            address currentAddress = addressArray[i];\n            if (currentAddress == user) {\n                return int256(i);\n            }\n        }\n        return index;\n    }\n\n    function getTotalAmountBorrowedInDollars(address user)\n        public\n        view\n        returns (uint256)\n    {\n        uint256 totalAmountBorrowed = 0;\n        for (uint256 i = 0; i < noOfTokensBorrowed; i++) {\n            address userBorrowedTokenAddressFound = tokensBorrowed[i][user];\n\n            if (\n                userBorrowedTokenAddressFound !=\n                0x0000000000000000000000000000000000000000\n            ) {\n                uint256 tokenAmountBorrowed = tokensBorrowedAmount[\n                    userBorrowedTokenAddressFound\n                ][user];\n\n                uint256 tokenAmountBorrowedInDollars = getAmountInDollars(\n                    tokenAmountBorrowed,\n                    userBorrowedTokenAddressFound\n                );\n\n                totalAmountBorrowed += tokenAmountBorrowedInDollars;\n            }\n        }\n        return totalAmountBorrowed;\n    }\n\n    function getTotalAmountLentInDollars(address user)\n        public\n        view\n        returns (uint256)\n    {\n        uint256 totalAmountLent = 0;\n        for (uint256 i = 0; i < noOfTokensLent; i++) {\n            address userLentTokenAddressFound = tokensLent[i][user];\n\n            if (\n                userLentTokenAddressFound !=\n                0x0000000000000000000000000000000000000000\n            ) {\n                uint256 tokenAmountLent = tokensLentAmount[\n                    userLentTokenAddressFound\n                ][user];\n\n                uint256 tokenAmountLentInDollars = getAmountInDollars(\n                    tokenAmountLent,\n                    userLentTokenAddressFound\n                );\n\n                totalAmountLent += tokenAmountLentInDollars;\n            }\n        }\n        return totalAmountLent;\n    }\n\n    function interest(address tokenAddress, uint256 tokenBorrowed)\n        public\n        view\n        returns (uint256)\n    {\n        Token memory token = getTokenFrom(tokenAddress);\n        return (tokenBorrowed * token.stableRate) / 10**18;\n    }\n\n    function getTokenFrom(address tokenAddress)\n        public\n        view\n        returns (Token memory)\n    {\n        Token memory token;\n        for (uint256 i = 0; i < tokensForBorrowing.length; i++) {\n            Token memory currentToken = tokensForBorrowing[i];\n            if (currentToken.tokenAddress == tokenAddress) {\n                token = currentToken;\n                break;\n            }\n        }\n        return token;\n    }\n\n    function getUserTotalAmountAvailableForBorrowInDollars(address user)\n        public\n        view\n        returns (uint256)\n    {\n        uint256 totalAvailableToBorrow = 0;\n\n        for (uint256 i = 0; i < noOfTokensLent; i++) {\n            address userLentTokenAddressFound = tokensLent[i][user];\n\n            if (\n                userLentTokenAddressFound !=\n                0x0000000000000000000000000000000000000000\n            ) {\n                Token memory token = getTokenFrom(userLentTokenAddressFound);\n                uint256 tokenLoanToValueRatio = token.LTV;\n\n                bool isBorrowed = tokenIsBorrowed(\n                    user,\n                    userLentTokenAddressFound\n                );\n\n                uint256 tokenAmountAvailable;\n\n                if (!isBorrowed) {\n                    tokenAmountAvailable = tokensLentAmount[\n                        userLentTokenAddressFound\n                    ][user];\n                } else {\n                    tokenAmountAvailable =\n                        tokensLentAmount[userLentTokenAddressFound][user] -\n                        tokensBorrowedAmount[userLentTokenAddressFound][user];\n                }\n                uint256 currentTokenAmountInDollars = getAmountInDollars(\n                    tokenAmountAvailable,\n                    userLentTokenAddressFound\n                );\n                uint256 availableToBorrow = (currentTokenAmountInDollars *\n                    tokenLoanToValueRatio) / 10**18;\n\n                totalAvailableToBorrow += availableToBorrow;\n            }\n        }\n\n        return totalAvailableToBorrow;\n    }\n\n    function tokenIsBorrowed(address user, address token)\n        private\n        view\n        returns (bool)\n    {\n        return tokensBorrowedAmount[token][user] != 0;\n    }\n\n    function tokenIsAllowed(address tokenAddress, Token[] memory tokenArray)\n        private\n        pure\n        returns (bool)\n    {\n        if (tokenArray.length > 0) {\n            for (uint256 i = 0; i < tokenArray.length; i++) {\n                Token memory currentToken = tokenArray[i];\n                if (currentToken.tokenAddress == tokenAddress) {\n                    return true;\n                }\n            }\n        }\n\n        return false;\n    }\n\n    function tokenIsAlreadyThere(Token memory token, Token[] memory tokenArray)\n        private\n        pure\n        returns (bool)\n    {\n        if (tokenArray.length > 0) {\n            for (uint256 i = 0; i < tokenArray.length; i++) {\n                Token memory currentToken = tokenArray[i];\n                if (currentToken.tokenAddress == token.tokenAddress) {\n                    return true;\n                }\n            }\n        }\n\n        return false;\n    }\n\n    function rewardUserToken(\n        address user,\n        address tokenAddress,\n        uint256 amount\n    ) private {\n        // Send some tokens to the user equivalent to the token amount lent.\n        require(amount > 0, \"Amount should be greater than 0\");\n\n        uint256 amountIndollars = getAmountInDollars(amount, tokenAddress);\n        larToken.transfer(user, amountIndollars);\n    }\n\n    function getAmountInDollars(uint256 amount, address tokenAddress)\n        public\n        view\n        returns (uint256)\n    {\n        (\n            uint256 dollarPerToken,\n            uint256 decimals\n        ) = oneTokenEqualsHowManyDollars(tokenAddress);\n        uint256 totalAmountInDollars = (amount * dollarPerToken) /\n            (10**decimals);\n        return totalAmountInDollars;\n    }\n\n    function oneTokenEqualsHowManyDollars(address tokenAddress)\n        public\n        view\n        returns (uint256, uint256)\n    {\n        address tokenToUsd = tokenToPriceFeed[tokenAddress];\n        AggregatorV3Interface priceFeed = AggregatorV3Interface(tokenToUsd);\n\n        (, int256 price, , , ) = priceFeed.latestRoundData();\n\n        uint256 decimals = priceFeed.decimals();\n\n        return (uint256(price), decimals);\n    }\n\n    function updateUserTokensBorrowedOrLent(\n        address tokenAddress,\n        uint256 amount,\n        int256 userIndex,\n        string memory lendersOrBorrowers\n    ) internal {\n        if (\n            keccak256(abi.encodePacked(lendersOrBorrowers)) ==\n            keccak256(abi.encodePacked(\"lenders\"))\n        ) {\n            address currentUser = lenders[uint256(userIndex)];\n\n            bool tokenLendedAlready = hasLentOrBorrowedToken(\n                currentUser,\n                tokenAddress,\n                noOfTokensLent,\n                \"tokensLent\"\n            );\n\n            if (tokenLendedAlready) {\n                tokensLentAmount[tokenAddress][currentUser] =\n                    tokensLentAmount[tokenAddress][currentUser] +\n                    amount;\n            } else {\n                tokensLent[noOfTokensLent++][currentUser] = tokenAddress;\n                tokensLentAmount[tokenAddress][currentUser] = amount;\n            }\n        } else if (\n            keccak256(abi.encodePacked(lendersOrBorrowers)) ==\n            keccak256(abi.encodePacked(\"borrowers\"))\n        ) {\n            address currentUser = borrowers[uint256(userIndex)];\n\n            bool tokenBorrowedAlready = hasLentOrBorrowedToken(\n                currentUser,\n                tokenAddress,\n                noOfTokensBorrowed,\n                \"tokensBorrowed\"\n            );\n\n            if (tokenBorrowedAlready) {\n                tokensBorrowedAmount[tokenAddress][currentUser] =\n                    tokensBorrowedAmount[tokenAddress][currentUser] +\n                    amount;\n            } else {\n                tokensBorrowed[noOfTokensBorrowed++][\n                    currentUser\n                ] = tokenAddress;\n                tokensBorrowedAmount[tokenAddress][currentUser] = amount;\n            }\n        }\n    }\n\n    function hasLentOrBorrowedToken(\n        address currentUser,\n        address tokenAddress,\n        uint256 noOfTokenslentOrBorrowed,\n        string memory _tokensLentOrBorrowed\n    ) private view returns (bool) {\n        if (noOfTokenslentOrBorrowed > 0) {\n            if (\n                keccak256(abi.encodePacked(_tokensLentOrBorrowed)) ==\n                keccak256(abi.encodePacked(\"tokensLent\"))\n            ) {\n                for (uint256 i = 0; i < noOfTokensBorrowed; i++) {\n                    address tokenAddressFound = tokensLent[i][currentUser];\n                    if (tokenAddressFound == tokenAddress) {\n                        return true;\n                    }\n                }\n            } else if (\n                keccak256(abi.encodePacked(_tokensLentOrBorrowed)) ==\n                keccak256(abi.encodePacked(\"tokensBorrowed\"))\n            ) {\n                for (uint256 i = 0; i < noOfTokensLent; i++) {\n                    address tokenAddressFound = tokensBorrowed[i][currentUser];\n                    if (tokenAddressFound == tokenAddress) {\n                        return true;\n                    }\n                }\n            }\n        }\n\n        return false;\n    }\n\n    function isUserPresentIn(address userAddress, address[] memory users)\n        private\n        pure\n        returns (bool, int256)\n    {\n        if (users.length > 0) {\n            for (uint256 i = 0; i < users.length; i++) {\n                address currentUserAddress = users[i];\n                if (currentUserAddress == userAddress) {\n                    return (true, int256(i));\n                }\n            }\n        }\n\n        return (false, -1);\n    }\n\n    function getTotalTokenSupplied(address tokenAddres)\n        public\n        view\n        returns (uint256)\n    {\n        uint256 totalTokenSupplied = 0;\n        if (lenders.length > 0) {\n            for (uint256 i = 0; i < lenders.length; i++) {\n                address curentLender = lenders[i];\n                totalTokenSupplied += tokensLentAmount[tokenAddres][\n                    curentLender\n                ];\n            }\n        }\n\n        return totalTokenSupplied;\n    }\n\n    function getTotalTokenBorrowed(address tokenAddress)\n        public\n        view\n        returns (uint256)\n    {\n        uint256 totalTokenBorrowed = 0;\n        if (borrowers.length > 0) {\n            for (uint256 i = 0; i < borrowers.length; i++) {\n                address curentBorrower = borrowers[i];\n                totalTokenBorrowed += tokensBorrowedAmount[tokenAddress][\n                    curentBorrower\n                ];\n            }\n        }\n        return totalTokenBorrowed;\n    }\n}\n","sourcePath":"contracts/LendingAndBorrowing.sol","type":"contract","deployment":{"address":"0x54147e1C9EB8842347086cBAF8321a6b23DE5BED","chainid":"42","blockHeight":30919290}}