{"abi":[{"inputs":[{"internalType":"address","name":"_token","type":"address"}],"stateMutability":"nonpayable","type":"constructor","name":"constructor"},{"anonymous":false,"inputs":[{"indexed":true,"internalType":"address","name":"previousOwner","type":"address"},{"indexed":true,"internalType":"address","name":"newOwner","type":"address"}],"name":"OwnershipTransferred","type":"event"},{"inputs":[{"internalType":"address","name":"tokenAddress","type":"address"},{"internalType":"address","name":"tokenToUsdPriceFeed","type":"address"}],"name":"addTokenToPriceFeedMapping","outputs":[],"stateMutability":"nonpayable","type":"function"},{"inputs":[{"internalType":"string","name":"name","type":"string"},{"internalType":"address","name":"tokenAddress","type":"address"},{"internalType":"uint256","name":"LTV","type":"uint256"},{"internalType":"uint256","name":"borrowStableRate","type":"uint256"}],"name":"addTokensForBorrowing","outputs":[],"stateMutability":"nonpayable","type":"function"},{"inputs":[{"internalType":"string","name":"name","type":"string"},{"internalType":"address","name":"tokenAddress","type":"address"},{"internalType":"uint256","name":"LTV","type":"uint256"},{"internalType":"uint256","name":"borrowStableRate","type":"uint256"}],"name":"addTokensForLending","outputs":[],"stateMutability":"nonpayable","type":"function"},{"inputs":[{"internalType":"uint256","name":"amount","type":"uint256"},{"internalType":"address","name":"tokenAddress","type":"address"}],"name":"borrow","outputs":[],"stateMutability":"nonpayable","type":"function"},{"inputs":[{"internalType":"uint256","name":"","type":"uint256"}],"name":"borrowers","outputs":[{"internalType":"address","name":"","type":"address"}],"stateMutability":"view","type":"function"},{"inputs":[{"internalType":"uint256","name":"amount","type":"uint256"},{"internalType":"address","name":"tokenAddress","type":"address"}],"name":"getAmountInDollars","outputs":[{"internalType":"uint256","name":"","type":"uint256"}],"stateMutability":"view","type":"function"},{"inputs":[],"name":"getBorrowersArray","outputs":[{"internalType":"address[]","name":"","type":"address[]"}],"stateMutability":"view","type":"function"},{"inputs":[],"name":"getLendersArray","outputs":[{"internalType":"address[]","name":"","type":"address[]"}],"stateMutability":"view","type":"function"},{"inputs":[{"internalType":"address","name":"tokenAddress","type":"address"}],"name":"getTokenFrom","outputs":[{"components":[{"internalType":"address","name":"tokenAddress","type":"address"},{"internalType":"uint256","name":"LTV","type":"uint256"},{"internalType":"uint256","name":"stableRate","type":"uint256"},{"internalType":"string","name":"name","type":"string"}],"internalType":"struct LendingAndBorrowing.Token","name":"","type":"tuple"}],"stateMutability":"view","type":"function"},{"inputs":[],"name":"getTokensForBorrowingArray","outputs":[{"components":[{"internalType":"address","name":"tokenAddress","type":"address"},{"internalType":"uint256","name":"LTV","type":"uint256"},{"internalType":"uint256","name":"stableRate","type":"uint256"},{"internalType":"string","name":"name","type":"string"}],"internalType":"struct LendingAndBorrowing.Token[]","name":"","type":"tuple[]"}],"stateMutability":"view","type":"function"},{"inputs":[],"name":"getTokensForLendingArray","outputs":[{"components":[{"internalType":"address","name":"tokenAddress","type":"address"},{"internalType":"uint256","name":"LTV","type":"uint256"},{"internalType":"uint256","name":"stableRate","type":"uint256"},{"internalType":"string","name":"name","type":"string"}],"internalType":"struct LendingAndBorrowing.Token[]","name":"","type":"tuple[]"}],"stateMutability":"view","type":"function"},{"inputs":[{"internalType":"address","name":"user","type":"address"}],"name":"getTotalAmountBorrowedInDollars","outputs":[{"internalType":"uint256","name":"","type":"uint256"}],"stateMutability":"view","type":"function"},{"inputs":[{"internalType":"address","name":"user","type":"address"}],"name":"getTotalAmountLentInDollars","outputs":[{"internalType":"uint256","name":"","type":"uint256"}],"stateMutability":"view","type":"function"},{"inputs":[{"internalType":"address","name":"tokenAddress","type":"address"}],"name":"getTotalTokenBorrowed","outputs":[{"internalType":"uint256","name":"","type":"uint256"}],"stateMutability":"view","type":"function"},{"inputs":[{"internalType":"address","name":"tokenAddres","type":"address"}],"name":"getTotalTokenSupplied","outputs":[{"internalType":"uint256","name":"","type":"uint256"}],"stateMutability":"view","type":"function"},{"inputs":[{"internalType":"address","name":"user","type":"address"}],"name":"getUserTotalAmountAvailableForBorrowInDollars","outputs":[{"internalType":"uint256","name":"","type":"uint256"}],"stateMutability":"view","type":"function"},{"inputs":[{"internalType":"address","name":"currentUser","type":"address"},{"internalType":"address","name":"tokenAddress","type":"address"},{"internalType":"uint256","name":"noOfTokenslentOrBorrowed","type":"uint256"},{"internalType":"string","name":"_tokensLentOrBorrowed","type":"string"}],"name":"hasLentOrBorrowedToken","outputs":[{"internalType":"bool","name":"","type":"bool"}],"stateMutability":"view","type":"function"},{"inputs":[{"internalType":"address","name":"user","type":"address"},{"internalType":"address[]","name":"addressArray","type":"address[]"}],"name":"indexOf","outputs":[{"internalType":"int256","name":"","type":"int256"}],"stateMutability":"nonpayable","type":"function"},{"inputs":[{"internalType":"address","name":"tokenAddress","type":"address"},{"internalType":"uint256","name":"tokenBorrowed","type":"uint256"}],"name":"interest","outputs":[{"internalType":"uint256","name":"","type":"uint256"}],"stateMutability":"view","type":"function"},{"inputs":[],"name":"larToken","outputs":[{"internalType":"contract IERC20","name":"","type":"address"}],"stateMutability":"view","type":"function"},{"inputs":[{"internalType":"address","name":"tokenAddress","type":"address"},{"internalType":"uint256","name":"amount","type":"uint256"}],"name":"lend","outputs":[],"stateMutability":"payable","type":"function"},{"inputs":[{"internalType":"uint256","name":"","type":"uint256"}],"name":"lenders","outputs":[{"internalType":"address","name":"","type":"address"}],"stateMutability":"view","type":"function"},{"inputs":[],"name":"noOfTokensBorrowed","outputs":[{"internalType":"uint256","name":"","type":"uint256"}],"stateMutability":"view","type":"function"},{"inputs":[],"name":"noOfTokensLent","outputs":[{"internalType":"uint256","name":"","type":"uint256"}],"stateMutability":"view","type":"function"},{"inputs":[{"internalType":"address","name":"tokenAddress","type":"address"}],"name":"oneTokenEqualsHowManyDollars","outputs":[{"internalType":"uint256","name":"","type":"uint256"},{"internalType":"uint256","name":"","type":"uint256"}],"stateMutability":"view","type":"function"},{"inputs":[],"name":"owner","outputs":[{"internalType":"address","name":"","type":"address"}],"stateMutability":"view","type":"function"},{"inputs":[{"internalType":"address","name":"tokenAddress","type":"address"},{"internalType":"uint256","name":"amount","type":"uint256"}],"name":"payDebt","outputs":[],"stateMutability":"nonpayable","type":"function"},{"inputs":[],"name":"renounceOwnership","outputs":[],"stateMutability":"nonpayable","type":"function"},{"inputs":[{"internalType":"address","name":"","type":"address"}],"name":"tokenToPriceFeed","outputs":[{"internalType":"address","name":"","type":"address"}],"stateMutability":"view","type":"function"},{"inputs":[{"internalType":"uint256","name":"","type":"uint256"},{"internalType":"address","name":"","type":"address"}],"name":"tokensBorrowed","outputs":[{"internalType":"address","name":"","type":"address"}],"stateMutability":"view","type":"function"},{"inputs":[{"internalType":"address","name":"","type":"address"},{"internalType":"address","name":"","type":"address"}],"name":"tokensBorrowedAmount","outputs":[{"internalType":"uint256","name":"","type":"uint256"}],"stateMutability":"view","type":"function"},{"inputs":[{"internalType":"uint256","name":"","type":"uint256"}],"name":"tokensForBorrowing","outputs":[{"internalType":"address","name":"tokenAddress","type":"address"},{"internalType":"uint256","name":"LTV","type":"uint256"},{"internalType":"uint256","name":"stableRate","type":"uint256"},{"internalType":"string","name":"name","type":"string"}],"stateMutability":"view","type":"function"},{"inputs":[{"internalType":"uint256","name":"","type":"uint256"}],"name":"tokensForLending","outputs":[{"internalType":"address","name":"tokenAddress","type":"address"},{"internalType":"uint256","name":"LTV","type":"uint256"},{"internalType":"uint256","name":"stableRate","type":"uint256"},{"internalType":"string","name":"name","type":"string"}],"stateMutability":"view","type":"function"},{"inputs":[{"internalType":"uint256","name":"","type":"uint256"},{"internalType":"address","name":"","type":"address"}],"name":"tokensLent","outputs":[{"internalType":"address","name":"","type":"address"}],"stateMutability":"view","type":"function"},{"inputs":[{"internalType":"address","name":"","type":"address"},{"internalType":"address","name":"","type":"address"}],"name":"tokensLentAmount","outputs":[{"internalType":"uint256","name":"","type":"uint256"}],"stateMutability":"view","type":"function"},{"inputs":[{"internalType":"uint256","name":"","type":"uint256"},{"internalType":"address","name":"","type":"address"}],"name":"tokensLentOrBorrowed","outputs":[{"internalType":"address","name":"","type":"address"}],"stateMutability":"view","type":"function"},{"inputs":[{"internalType":"address","name":"newOwner","type":"address"}],"name":"transferOwnership","outputs":[],"stateMutability":"nonpayable","type":"function"},{"inputs":[{"internalType":"address","name":"tokenAddress","type":"address"},{"internalType":"uint256","name":"amount","type":"uint256"}],"name":"withdraw","outputs":[],"stateMutability":"nonpayable","type":"function"}],"bytecode":"60806040526000600c556000600d553480156200001b57600080fd5b5060405162003b9838038062003b988339810160408190526200003e91620000bf565b62000049336200006f565b600b80546001600160a01b0319166001600160a01b0392909216919091179055620000f1565b600080546001600160a01b038381166001600160a01b0319831681178455604051919092169283917f8be0079c531659141344cd1fd0a4f28419497f9722a3daafe3b4186f6b6457e09190a35050565b600060208284031215620000d257600080fd5b81516001600160a01b0381168114620000ea57600080fd5b9392505050565b613a9780620001016000396000f3fe6080604052600436106102255760003560e01c8063929eea2111610123578063cd927409116100ab578063fb24af7f1161006f578063fb24af7f14610700578063fc757b8814610720578063fdc8070e1461074d578063fe726f8014610782578063ff2f4465146107a257600080fd5b8063cd9274091461064a578063d7a9a25c1461068b578063f1c0e349146106a0578063f2fde38b146106c0578063f3fef3a3146106e057600080fd5b8063ab56ee66116100f2578063ab56ee6614610593578063b3d16f8d146105b3578063b9f09bb8146105d3578063c0a8a540146105e9578063c4543b671461062a57600080fd5b8063929eea2114610508578063a2fb342d14610528578063a7772b971461053b578063a8b741521461055b57600080fd5b80634b3fd148116101b15780637924d93f116101755780637924d93f1461045f5780637b9ec9971461047f5780638078f22c1461049f5780638cf1806b146104d55780638da5cb5b146104ea57600080fd5b80634b3fd1481461038b5780634fa9f5a4146103ab578063541d8338146103db578063715018a6146103f157806374fd0ce01461040657600080fd5b80631818dd0b116101f85780631818dd0b146102cd5780631c9e5224146102ef57806327e8e184146103115780633c9d509314610349578063447007fd1461036b57600080fd5b806306254c6a1461022a57806308ae7fc21461025d57806311f4f5d31461028d5780631419f093146102ad575b600080fd5b34801561023657600080fd5b5061024a6102453660046132a0565b6107c2565b6040519081526020015b60405180910390f35b34801561026957600080fd5b5061027d6102783660046132c2565b61084d565b6040516102549493929190613333565b34801561029957600080fd5b5061024a6102a8366004613360565b61091f565b3480156102b957600080fd5b5061024a6102c83660046132a0565b610958565b3480156102d957600080fd5b506102ed6102e8366004613360565b6109e9565b005b3480156102fb57600080fd5b50610304610cfc565b60405161025491906133c5565b34801561031d57600080fd5b5061024a61032c366004613427565b600360209081526000928352604080842090915290825290205481565b34801561035557600080fd5b5061035e610e18565b604051610254919061345a565b34801561037757600080fd5b5061027d6103863660046132c2565b610e7a565b34801561039757600080fd5b506102ed6103a63660046134a7565b610e8a565b3480156103b757600080fd5b506103cb6103c6366004613581565b61135c565b6040519015158152602001610254565b3480156103e757600080fd5b5061024a600d5481565b3480156103fd57600080fd5b506102ed6114e9565b34801561041257600080fd5b506104476104213660046134a7565b60066020908152600092835260408084209091529082529020546001600160a01b031681565b6040516001600160a01b039091168152602001610254565b34801561046b57600080fd5b5061044761047a3660046132c2565b61151f565b34801561048b57600080fd5b5061024a61049a3660046132a0565b611549565b3480156104ab57600080fd5b506104476104ba3660046132a0565b6007602052600090815260409020546001600160a01b031681565b3480156104e157600080fd5b5061035e611916565b3480156104f657600080fd5b506000546001600160a01b0316610447565b34801561051457600080fd5b506104476105233660046132c2565b611976565b6102ed610536366004613360565b611986565b34801561054757600080fd5b5061024a6105563660046132a0565b611dff565b34801561056757600080fd5b5061024a610576366004613427565b600460209081526000928352604080842090915290825290205481565b34801561059f57600080fd5b5061024a6105ae3660046132a0565b611e90565b3480156105bf57600080fd5b506102ed6105ce366004613427565b611f13565b3480156105df57600080fd5b5061024a600c5481565b3480156105f557600080fd5b506104476106043660046134a7565b60086020908152600092835260408084209091529082529020546001600160a01b031681565b34801561063657600080fd5b506102ed6106453660046135e9565b611f6b565b34801561065657600080fd5b506104476106653660046134a7565b60056020908152600092835260408084209091529082529020546001600160a01b031681565b34801561069757600080fd5b506103046121d3565b3480156106ac57600080fd5b5061024a6106bb366004613646565b6122e6565b3480156106cc57600080fd5b506102ed6106db3660046132a0565b612353565b3480156106ec57600080fd5b506102ed6106fb366004613360565b6123ee565b34801561070c57600080fd5b5061024a61071b3660046134a7565b6126fd565b34801561072c57600080fd5b5061074061073b3660046132a0565b61273b565b6040516102549190613706565b34801561075957600080fd5b5061076d6107683660046132a0565b6128ed565b60408051928352602083019190915201610254565b34801561078e57600080fd5b50600b54610447906001600160a01b031681565b3480156107ae57600080fd5b506102ed6107bd3660046135e9565b6129ee565b6001546000908190156108475760005b600154811015610845576000600182815481106107f1576107f1613719565b60009182526020808320909101546001600160a01b0388811684526003835260408085209190921680855292529091205490915061082f9084613745565b925050808061083d9061375d565b9150506107d2565b505b92915050565b6009818154811061085d57600080fd5b600091825260209091206004909102018054600182015460028301546003840180546001600160a01b0390941695509193909290919061089c90613778565b80601f01602080910402602001604051908101604052809291908181526020018280546108c890613778565b80156109155780601f106108ea57610100808354040283529160200191610915565b820191906000526020600020905b8154815290600101906020018083116108f857829003601f168201915b5050505050905084565b60008061092b8461273b565b9050670de0b6b3a764000081604001518461094691906137b3565b61095091906137d2565b949350505050565b600080805b600d548110156108455760008181526006602090815260408083206001600160a01b0380891685529252909120541680156109d6576001600160a01b038082166000908152600460209081526040808320938916835292905290812054906109c582846126fd565b90506109d18186613745565b945050505b50806109e18161375d565b91505061095d565b60008111610a125760405162461bcd60e51b8152600401610a09906137f4565b60405180910390fd5b6000610a78336002805480602002602001604051908101604052809291908181526020018280548015610a6e57602002820191906000526020600020905b81546001600160a01b03168152600190910190602001808311610a50575b50505050506122e6565b90506000811215610ae65760405162461bcd60e51b815260206004820152603260248201527f557365722061646472657373206973206e6f7420666f756e6420696e20746865604482015271206c697374206f6620626f72726f7765727360701b6064820152608401610a09565b6001600160a01b038316600090815260046020908152604080832033845290915290205480610b4c5760405162461bcd60e51b8152602060048201526012602482015271596f752020617265206e6f74206f77696e6760701b6044820152606401610a09565b836000610b59828461091f565b610b639086613745565b6040516323b872dd60e01b8152336004820152306024820152604481018290529091506001600160a01b038316906323b872dd906064016020604051808303816000875af1158015610bb9573d6000803e3d6000fd5b505050506040513d601f19601f82011682018060405250810190610bdd919061382b565b506001600160a01b0386166000908152600460209081526040808320338452909152902054610c0d90869061384d565b6001600160a01b038716600090815260046020908152604080832033808552925282209290925590610c3e90610958565b905080610cf35760028054610c559060019061384d565b81548110610c6557610c65613719565b600091825260209091200154600280546001600160a01b039092169187908110610c9157610c91613719565b9060005260206000200160006101000a8154816001600160a01b0302191690836001600160a01b031602179055506002805480610cd057610cd0613864565b600082815260209020810160001990810180546001600160a01b03191690550190555b50505050505050565b60606009805480602002602001604051908101604052809291908181526020016000905b82821015610e0f576000848152602090819020604080516080810182526004860290920180546001600160a01b03168352600181015493830193909352600283015490820152600382018054919291606084019190610d7e90613778565b80601f0160208091040260200160405190810160405280929190818152602001828054610daa90613778565b8015610df75780601f10610dcc57610100808354040283529160200191610df7565b820191906000526020600020905b815481529060010190602001808311610dda57829003601f168201915b50505050508152505081526020019060010190610d20565b50505050905090565b60606001805480602002602001604051908101604052809291908181526020018280548015610e7057602002820191906000526020600020905b81546001600160a01b03168152600190910190602001808311610e52575b5050505050905090565b600a818154811061085d57600080fd5b610fa881600a805480602002602001604051908101604052809291908181526020016000905b82821015610f9f576000848152602090819020604080516080810182526004860290920180546001600160a01b03168352600181015493830193909352600283015490820152600382018054919291606084019190610f0e90613778565b80601f0160208091040260200160405190810160405280929190818152602001828054610f3a90613778565b8015610f875780601f10610f5c57610100808354040283529160200191610f87565b820191906000526020600020905b815481529060010190602001808311610f6a57829003601f168201915b50505050508152505081526020019060010190610eb0565b50505050612c43565b6110005760405162461bcd60e51b8152602060048201526024808201527f546f6b656e206973206e6f7420737570706f7274656420666f7220626f72726f60448201526377696e6760e01b6064820152608401610a09565b600082116110205760405162461bcd60e51b8152600401610a09906137f4565b600061102b33611549565b9050600061103984846126fd565b9050818111156110aa5760405162461bcd60e51b815260206004820152603660248201527f596f7520646f6e2774206861766520656e6f75676820636f6c6c61746572616c604482015275081d1bc8189bdc9c9bddc81d1a1a5cc8185b5bdd5b9d60521b6064820152608401610a09565b6040516370a0823160e01b8152306004820152839085906001600160a01b038316906370a0823190602401602060405180830381865afa1580156110f2573d6000803e3d6000fd5b505050506040513d601f19601f82011682018060405250810190611116919061387a565b116111825760405162461bcd60e51b815260206004820152603660248201527f576520646f206e6f74206861766520656e6f756768206f66207468697320746f60448201527535b2b7103337b9103cb7ba903a37903137b93937bb9760511b6064820152608401610a09565b60405163a9059cbb60e01b8152336004820152602481018690526001600160a01b0382169063a9059cbb906044016020604051808303816000875af11580156111cf573d6000803e3d6000fd5b505050506040513d601f19601f820116820180604052508101906111f3919061382b565b5060008061125b33600280548060200260200160405190810160405280929190818152602001828054801561125157602002820191906000526020600020905b81546001600160a01b03168152600190910190602001808311611233575b5050505050612cbe565b9150915081156112975761129286888360405180604001604052806009815260200168626f72726f7765727360b81b815250612d40565b610cf3565b60028054600181019091557f405787fa12a823e0f2b7631cc41b3ba8828b3321ca811111fa75cd3aa3bb5ace0180546001600160a01b031916339081179091556001600160a01b0387166000908152600460209081526040808320938352929052908120889055600d80548892600692909190826113148361375d565b90915550815260208082019290925260409081016000908120338252909252902080546001600160a01b0319166001600160a01b039290921691909117905550505050505050565b600082156114de57604051691d1bdad95b9cd3195b9d60b21b6020820152602a0160405160208183030381529060405280519060200120826040516020016113a49190613893565b6040516020818303038152906040528051906020012014156114215760005b600c5481101561141b5760008181526005602090815260408083206001600160a01b03808b168552925290912054811690861681141561140857600192505050610950565b50806114138161375d565b9150506113c3565b506114de565b6040516d1d1bdad95b9cd09bdc9c9bddd95960921b6020820152602e0160405160208183030381529060405280519060200120826040516020016114659190613893565b6040516020818303038152906040528051906020012014156114de5760005b600d548110156114dc5760008181526006602090815260408083206001600160a01b03808b16855292529091205481169086168114156114c957600192505050610950565b50806114d48161375d565b915050611484565b505b506000949350505050565b6000546001600160a01b031633146115135760405162461bcd60e51b8152600401610a09906138af565b61151d6000613082565b565b6002818154811061152f57600080fd5b6000918252602090912001546001600160a01b0316905081565b60008080805b60015481101561173f5760006001828154811061156e5761156e613719565b6000918252602090912001546001600160a01b039081169150861681141561172c5760005b60095481101561172a576000600982815481106115b2576115b2613719565b90600052602060002090600402016040518060800160405290816000820160009054906101000a90046001600160a01b03166001600160a01b03166001600160a01b03168152602001600182015481526020016002820154815260200160038201805461161e90613778565b80601f016020809104026020016040519081016040528092919081815260200182805461164a90613778565b80156116975780601f1061166c57610100808354040283529160200191611697565b820191906000526020600020905b81548152906001019060200180831161167a57829003601f168201915b50505091909252505081516001600160a01b039081166000908152600360209081526040808320938e168352929052908120548351939450929091506116de9083906126fd565b90506000670de0b6b3a76400008460200151836116fb91906137b3565b61170591906137d2565b9050611711818a613745565b98505050505080806117229061375d565b915050611593565b505b50806117378161375d565b91505061154f565b5060005b60025481101561190b5760006002828154811061176257611762613719565b6000918252602090912001546001600160a01b03908116915086168114156118f85760005b600a548110156118f6576000600a82815481106117a6576117a6613719565b90600052602060002090600402016040518060800160405290816000820160009054906101000a90046001600160a01b03166001600160a01b03166001600160a01b03168152602001600182015481526020016002820154815260200160038201805461181290613778565b80601f016020809104026020016040519081016040528092919081815260200182805461183e90613778565b801561188b5780601f106118605761010080835404028352916020019161188b565b820191906000526020600020905b81548152906001019060200180831161186e57829003601f168201915b50505091909252505081516001600160a01b039081166000908152600460209081526040808320938e168352929052908120548351939450929091506118d29083906126fd565b90506118de8188613745565b965050505080806118ee9061375d565b915050611787565b505b50806119038161375d565b915050611743565b50610950818361384d565b60606002805480602002602001604051908101604052809291908181526020018280548015610e70576020028201919060005260206000209081546001600160a01b03168152600190910190602001808311610e52575050505050905090565b6001818154811061152f57600080fd5b611a9b826009805480602002602001604051908101604052809291908181526020016000905b82821015610f9f576000848152602090819020604080516080810182526004860290920180546001600160a01b03168352600181015493830193909352600283015490820152600382018054919291606084019190611a0a90613778565b80601f0160208091040260200160405190810160405280929190818152602001828054611a3690613778565b8015611a835780601f10611a5857610100808354040283529160200191611a83565b820191906000526020600020905b815481529060010190602001808311611a6657829003601f168201915b505050505081525050815260200190600101906119ac565b611ae05760405162461bcd60e51b8152602060048201526016602482015275151bdad95b881a5cc81b9bdd081cdd5c1c1bdc9d195960521b6044820152606401610a09565b60008111611b465760405162461bcd60e51b815260206004820152602d60248201527f54686520616d6f756e7420746f20737570706c792073686f756c64206265206760448201526c0726561746572207468616e203609c1b6064820152608401610a09565b6040516370a0823160e01b8152336004820152829082906001600160a01b038316906370a0823190602401602060405180830381865afa158015611b8e573d6000803e3d6000fd5b505050506040513d601f19601f82011682018060405250810190611bb2919061387a565b1015611c1a5760405162461bcd60e51b815260206004820152603160248201527f596f75206861766520696e73756666696369656e7420746f6b656e20746f20736044820152701d5c1c1b1e481d1a185d08185b5bdd5b9d607a1b6064820152608401610a09565b6040516323b872dd60e01b8152336004820152306024820152604481018390526001600160a01b038216906323b872dd906064016020604051808303816000875af1158015611c6d573d6000803e3d6000fd5b505050506040513d601f19601f82011682018060405250810190611c91919061382b565b50600080611cf7336001805480602002602001604051908101604052809291908181526020018280548015611251576020028201919060005260206000209081546001600160a01b03168152600190910190602001808311611233575050505050612cbe565b915091508115611d3157611d2c858583604051806040016040528060078152602001666c656e6465727360c81b815250612d40565b611ded565b600180548082019091557fb10e2d527612073b26eecdfd717e6a320cf44b4afac2b0732d9fcbe2b7fa0cf60180546001600160a01b031916339081179091556001600160a01b0386166000908152600360209081526040808320938352929052908120859055600c8054879260059290919082611dad8361375d565b90915550815260208082019290925260409081016000908120338252909252902080546001600160a01b0319166001600160a01b03929092169190911790555b611df83386866130d2565b5050505050565b600080805b600c548110156108455760008181526005602090815260408083206001600160a01b038089168552925290912054168015611e7d576001600160a01b03808216600090815260036020908152604080832093891683529290529081205490611e6c82846126fd565b9050611e788186613745565b945050505b5080611e888161375d565b915050611e04565b6002546000908190156108475760005b60025481101561084557600060028281548110611ebf57611ebf613719565b60009182526020808320909101546001600160a01b03888116845260048352604080852091909216808552925290912054909150611efd9084613745565b9250508080611f0b9061375d565b915050611ea0565b6000546001600160a01b03163314611f3d5760405162461bcd60e51b8152600401610a09906138af565b6001600160a01b03918216600090815260076020526040902080546001600160a01b03191691909216179055565b6000546001600160a01b03163314611f955760405162461bcd60e51b8152600401610a09906138af565b60006040518060800160405280856001600160a01b031681526020018481526020018381526020018681525090506120e1816009805480602002602001604051908101604052809291908181526020016000905b828210156120d8576000848152602090819020604080516080810182526004860290920180546001600160a01b0316835260018101549383019390935260028301549082015260038201805491929160608401919061204790613778565b80601f016020809104026020016040519081016040528092919081815260200182805461207390613778565b80156120c05780601f10612095576101008083540402835291602001916120c0565b820191906000526020600020905b8154815290600101906020018083116120a357829003601f168201915b50505050508152505081526020019060010190611fe9565b50505050613177565b611df8576009805460018101825560009190915281517f6e1540171b6c0c960b71a7020d9f60077f6af931a8bbf590da0223dacf75c7af600490920291820180546001600160a01b0319166001600160a01b039092169190911781556020808401517f6e1540171b6c0c960b71a7020d9f60077f6af931a8bbf590da0223dacf75c7b084015560408401517f6e1540171b6c0c960b71a7020d9f60077f6af931a8bbf590da0223dacf75c7b18401556060840151805185946121c9937f6e1540171b6c0c960b71a7020d9f60077f6af931a8bbf590da0223dacf75c7b29091019201906131eb565b5050505050505050565b6060600a805480602002602001604051908101604052809291908181526020016000905b82821015610e0f576000848152602090819020604080516080810182526004860290920180546001600160a01b0316835260018101549383019390935260028301549082015260038201805491929160608401919061225590613778565b80601f016020809104026020016040519081016040528092919081815260200182805461228190613778565b80156122ce5780601f106122a3576101008083540402835291602001916122ce565b820191906000526020600020905b8154815290600101906020018083116122b157829003601f168201915b505050505081525050815260200190600101906121f7565b6000600019815b835181101561234b57600084828151811061230a5761230a613719565b60200260200101519050856001600160a01b0316816001600160a01b03161415612338575091506108479050565b50806123438161375d565b9150506122ed565b509392505050565b6000546001600160a01b0316331461237d5760405162461bcd60e51b8152600401610a09906138af565b6001600160a01b0381166123e25760405162461bcd60e51b815260206004820152602660248201527f4f776e61626c653a206e6577206f776e657220697320746865207a65726f206160448201526564647265737360d01b6064820152608401610a09565b6123eb81613082565b50565b6000811161240e5760405162461bcd60e51b8152600401610a09906137f4565b6000612472336001805480602002602001604051908101604052809291908181526020018280548015610a6e576020028201919060005260206000209081546001600160a01b03168152600190910190602001808311610a505750505050506122e6565b905060008112156124de5760405162461bcd60e51b815260206004820152603060248201527f557365722061646472657373206973206e6f7420666f756e6420696e2074686560448201526f206c697374206f66206c656e6465727360801b6064820152608401610a09565b6001600160a01b038316600090815260036020908152604080832033845290915290205483908381101561251157600080fd5b600061251d85876126fd565b600b546040516323b872dd60e01b8152336004820152306024820152604481018390529192506001600160a01b0316906323b872dd906064016020604051808303816000875af1158015612575573d6000803e3d6000fd5b505050506040513d601f19601f82011682018060405250810190612599919061382b565b5060405163a9059cbb60e01b8152336004820152602481018690526001600160a01b0384169063a9059cbb906044016020604051808303816000875af11580156125e7573d6000803e3d6000fd5b505050506040513d601f19601f8201168201806040525081019061260b919061382b565b506001600160a01b038616600090815260036020908152604080832033845290915290205461263b90869061384d565b6001600160a01b03871660009081526003602090815260408083203380855292528220929092559061266c90611dff565b905080610cf3576001805461268290829061384d565b8154811061269257612692613719565b600091825260209091200154600180546001600160a01b0390921691879081106126be576126be613719565b9060005260206000200160006101000a8154816001600160a01b0302191690836001600160a01b031602179055506001805480610cd057610cd0613864565b600080600061270b846128ed565b9092509050600061271d82600a6139c8565b61272784886137b3565b61273191906137d2565b9695505050505050565b61276f604051806080016040528060006001600160a01b031681526020016000815260200160008152602001606081525090565b6127a3604051806080016040528060006001600160a01b031681526020016000815260200160008152602001606081525090565b60005b600a54811015610845576000600a82815481106127c5576127c5613719565b90600052602060002090600402016040518060800160405290816000820160009054906101000a90046001600160a01b03166001600160a01b03166001600160a01b03168152602001600182015481526020016002820154815260200160038201805461283190613778565b80601f016020809104026020016040519081016040528092919081815260200182805461285d90613778565b80156128aa5780601f1061287f576101008083540402835291602001916128aa565b820191906000526020600020905b81548152906001019060200180831161288d57829003601f168201915b5050505050815250509050846001600160a01b031681600001516001600160a01b031614156128da579150610845565b50806128e58161375d565b9150506127a6565b6001600160a01b03808216600090815260076020526040808220548151633fabe5a360e21b815291519293849391169182918491839163feaf968c9160048082019260a0929091908290030181865afa15801561294e573d6000803e3d6000fd5b505050506040513d601f19601f8201168201806040525081019061297291906139ee565b5050509150506000826001600160a01b031663313ce5676040518163ffffffff1660e01b8152600401602060405180830381865afa1580156129b8573d6000803e3d6000fd5b505050506040513d601f19601f820116820180604052508101906129dc9190613a3e565b919760ff909216965090945050505050565b6000546001600160a01b03163314612a185760405162461bcd60e51b8152600401610a09906138af565b60006040518060800160405280856001600160a01b03168152602001848152602001838152602001868152509050612b5b81600a805480602002602001604051908101604052809291908181526020016000905b828210156120d8576000848152602090819020604080516080810182526004860290920180546001600160a01b03168352600181015493830193909352600283015490820152600382018054919291606084019190612aca90613778565b80601f0160208091040260200160405190810160405280929190818152602001828054612af690613778565b8015612b435780601f10612b1857610100808354040283529160200191612b43565b820191906000526020600020905b815481529060010190602001808311612b2657829003601f168201915b50505050508152505081526020019060010190612a6c565b611df857600a805460018101825560009190915281517fc65a7bb8d6351c1cf70c95a316cc6a92839c986682d98bc35f958f4883f9d2a8600490920291820180546001600160a01b0319166001600160a01b039092169190911781556020808401517fc65a7bb8d6351c1cf70c95a316cc6a92839c986682d98bc35f958f4883f9d2a984015560408401517fc65a7bb8d6351c1cf70c95a316cc6a92839c986682d98bc35f958f4883f9d2aa8401556060840151805185946121c9937fc65a7bb8d6351c1cf70c95a316cc6a92839c986682d98bc35f958f4883f9d2ab9091019201906131eb565b805160009015612cb55760005b8251811015612cb3576000838281518110612c6d57612c6d613719565b60200260200101519050846001600160a01b031681600001516001600160a01b03161415612ca057600192505050610847565b5080612cab8161375d565b915050612c50565b505b50600092915050565b600080600083511115612d305760005b8351811015612d2e576000848281518110612ceb57612ceb613719565b60200260200101519050856001600160a01b0316816001600160a01b03161415612d1b5750600192509050612d39565b5080612d268161375d565b915050612cce565b505b50600090506000195b9250929050565b604051666c656e6465727360c81b60208201526027016040516020818303038152906040528051906020012081604051602001612d7d9190613893565b604051602081830303815290604052805190602001201415612edd57600060018381548110612dae57612dae613719565b9060005260206000200160009054906101000a90046001600160a01b031690506000612e008287600c546040518060400160405280600a8152602001691d1bdad95b9cd3195b9d60b21b81525061135c565b90508015612e64576001600160a01b03808716600090815260036020908152604080832093861683529290522054612e39908690613745565b6001600160a01b03808816600090815260036020908152604080832093871683529290522055612ed6565b600c8054879160059160009182612e7a8361375d565b909155508152602080820192909252604090810160009081206001600160a01b0387811680845291855283832080546001600160a01b03191696821696909617909555938a168152600383528181209381529290915290208590555b505061307c565b60405168626f72726f7765727360b81b60208201526029016040516020818303038152906040528051906020012081604051602001612f1c9190613893565b60405160208183030381529060405280519060200120141561307c57600060028381548110612f4d57612f4d613719565b9060005260206000200160009054906101000a90046001600160a01b031690506000612fa38287600d546040518060400160405280600e81526020016d1d1bdad95b9cd09bdc9c9bddd95960921b81525061135c565b90508015613007576001600160a01b03808716600090815260046020908152604080832093861683529290522054612fdc908690613745565b6001600160a01b03808816600090815260046020908152604080832093871683529290522055613079565b600d805487916006916000918261301d8361375d565b909155508152602080820192909252604090810160009081206001600160a01b0387811680845291855283832080546001600160a01b03191696821696909617909555938a168152600483528181209381529290915290208590555b50505b50505050565b600080546001600160a01b038381166001600160a01b0319831681178455604051919092169283917f8be0079c531659141344cd1fd0a4f28419497f9722a3daafe3b4186f6b6457e09190a35050565b600081116130f25760405162461bcd60e51b8152600401610a09906137f4565b60006130fe82846126fd565b600b5460405163a9059cbb60e01b81526001600160a01b0387811660048301526024820184905292935091169063a9059cbb906044016020604051808303816000875af1158015613153573d6000803e3d6000fd5b505050506040513d601f19601f82011682018060405250810190611df8919061382b565b805160009015612cb55760005b8251811015612cb35760008382815181106131a1576131a1613719565b6020026020010151905084600001516001600160a01b031681600001516001600160a01b031614156131d857600192505050610847565b50806131e38161375d565b915050613184565b8280546131f790613778565b90600052602060002090601f016020900481019282613219576000855561325f565b82601f1061323257805160ff191683800117855561325f565b8280016001018555821561325f579182015b8281111561325f578251825591602001919060010190613244565b5061326b92915061326f565b5090565b5b8082111561326b5760008155600101613270565b80356001600160a01b038116811461329b57600080fd5b919050565b6000602082840312156132b257600080fd5b6132bb82613284565b9392505050565b6000602082840312156132d457600080fd5b5035919050565b60005b838110156132f65781810151838201526020016132de565b8381111561307c5750506000910152565b6000815180845261331f8160208601602086016132db565b601f01601f19169290920160200192915050565b60018060a01b03851681528360208201528260408201526080606082015260006127316080830184613307565b6000806040838503121561337357600080fd5b61337c83613284565b946020939093013593505050565b60018060a01b038151168252602081015160208301526040810151604083015260006060820151608060608501526109506080850182613307565b6000602080830181845280855180835260408601915060408160051b870101925083870160005b8281101561341a57603f1988860301845261340885835161338a565b945092850192908501906001016133ec565b5092979650505050505050565b6000806040838503121561343a57600080fd5b61344383613284565b915061345160208401613284565b90509250929050565b6020808252825182820181905260009190848201906040850190845b8181101561349b5783516001600160a01b031683529284019291840191600101613476565b50909695505050505050565b600080604083850312156134ba57600080fd5b8235915061345160208401613284565b634e487b7160e01b600052604160045260246000fd5b604051601f8201601f1916810167ffffffffffffffff81118282101715613509576135096134ca565b604052919050565b600082601f83011261352257600080fd5b813567ffffffffffffffff81111561353c5761353c6134ca565b61354f601f8201601f19166020016134e0565b81815284602083860101111561356457600080fd5b816020850160208301376000918101602001919091529392505050565b6000806000806080858703121561359757600080fd5b6135a085613284565b93506135ae60208601613284565b925060408501359150606085013567ffffffffffffffff8111156135d157600080fd5b6135dd87828801613511565b91505092959194509250565b600080600080608085870312156135ff57600080fd5b843567ffffffffffffffff81111561361657600080fd5b61362287828801613511565b94505061363160208601613284565b93969395505050506040820135916060013590565b6000806040838503121561365957600080fd5b61366283613284565b915060208084013567ffffffffffffffff8082111561368057600080fd5b818601915086601f83011261369457600080fd5b8135818111156136a6576136a66134ca565b8060051b91506136b78483016134e0565b81815291830184019184810190898411156136d157600080fd5b938501935b838510156136f6576136e785613284565b825293850193908501906136d6565b8096505050505050509250929050565b6020815260006132bb602083018461338a565b634e487b7160e01b600052603260045260246000fd5b634e487b7160e01b600052601160045260246000fd5b600082198211156137585761375861372f565b500190565b60006000198214156137715761377161372f565b5060010190565b600181811c9082168061378c57607f821691505b602082108114156137ad57634e487b7160e01b600052602260045260246000fd5b50919050565b60008160001904831182151516156137cd576137cd61372f565b500290565b6000826137ef57634e487b7160e01b600052601260045260246000fd5b500490565b6020808252601f908201527f416d6f756e742073686f756c642062652067726561746572207468616e203000604082015260600190565b60006020828403121561383d57600080fd5b815180151581146132bb57600080fd5b60008282101561385f5761385f61372f565b500390565b634e487b7160e01b600052603160045260246000fd5b60006020828403121561388c57600080fd5b5051919050565b600082516138a58184602087016132db565b9190910192915050565b6020808252818101527f4f776e61626c653a2063616c6c6572206973206e6f7420746865206f776e6572604082015260600190565b600181815b8085111561391f5781600019048211156139055761390561372f565b8085161561391257918102915b93841c93908002906138e9565b509250929050565b60008261393657506001610847565b8161394357506000610847565b816001811461395957600281146139635761397f565b6001915050610847565b60ff8411156139745761397461372f565b50506001821b610847565b5060208310610133831016604e8410600b84101617156139a2575081810a610847565b6139ac83836138e4565b80600019048211156139c0576139c061372f565b029392505050565b60006132bb8383613927565b805169ffffffffffffffffffff8116811461329b57600080fd5b600080600080600060a08688031215613a0657600080fd5b613a0f866139d4565b9450602086015193506040860151925060608601519150613a32608087016139d4565b90509295509295909350565b600060208284031215613a5057600080fd5b815160ff811681146132bb57600080fdfea264697066735822122047f21fbb727cf76feef59d385c736883459b5c18df7eafe7daef034e4ccbd06164736f6c634300080b0033","bytecodeSha1":"223f118fff3058dbf9cc1e58fb8c13db49424baf","compiler":{"evm_version":"istanbul","optimizer":{"enabled":true,"runs":200},"version":"0.8.11+commit.d7f03943"},"contractName":"LendingAndBorrowing","language":"Solidity","natspec":{"kind":"dev","methods":{"owner()":{"details":"Returns the address of the current owner."},"renounceOwnership()":{"details":"Leaves the contract without owner. It will not be possible to call `onlyOwner` functions anymore. Can only be called by the current owner. NOTE: Renouncing ownership will leave the contract without an owner, thereby removing any functionality that is only available to the owner."},"transferOwnership(address)":{"details":"Transfers ownership of the contract to a new account (`newOwner`). Can only be called by the current owner."}},"version":1},"opcodes":"PUSH1 0x80 PUSH1 0x40 MSTORE PUSH1 0x4 CALLDATASIZE LT PUSH2 0x225 JUMPI PUSH1 0x0 CALLDATALOAD PUSH1 0xE0 SHR DUP1 PUSH4 0x929EEA21 GT PUSH2 0x123 JUMPI DUP1 PUSH4 0xCD927409 GT PUSH2 0xAB JUMPI DUP1 PUSH4 0xFB24AF7F GT PUSH2 0x6F JUMPI DUP1 PUSH4 0xFB24AF7F EQ PUSH2 0x700 JUMPI DUP1 PUSH4 0xFC757B88 EQ PUSH2 0x720 JUMPI DUP1 PUSH4 0xFDC8070E EQ PUSH2 0x74D JUMPI DUP1 PUSH4 0xFE726F80 EQ PUSH2 0x782 JUMPI DUP1 PUSH4 0xFF2F4465 EQ PUSH2 0x7A2 JUMPI PUSH1 0x0 DUP1 REVERT JUMPDEST DUP1 PUSH4 0xCD927409 EQ PUSH2 0x64A JUMPI DUP1 PUSH4 0xD7A9A25C EQ PUSH2 0x68B JUMPI DUP1 PUSH4 0xF1C0E349 EQ PUSH2 0x6A0 JUMPI DUP1 PUSH4 0xF2FDE38B EQ PUSH2 0x6C0 JUMPI DUP1 PUSH4 0xF3FEF3A3 EQ PUSH2 0x6E0 JUMPI PUSH1 0x0 DUP1 REVERT JUMPDEST DUP1 PUSH4 0xAB56EE66 GT PUSH2 0xF2 JUMPI DUP1 PUSH4 0xAB56EE66 EQ PUSH2 0x593 JUMPI DUP1 PUSH4 0xB3D16F8D EQ PUSH2 0x5B3 JUMPI DUP1 PUSH4 0xB9F09BB8 EQ PUSH2 0x5D3 JUMPI DUP1 PUSH4 0xC0A8A540 EQ PUSH2 0x5E9 JUMPI DUP1 PUSH4 0xC4543B67 EQ PUSH2 0x62A JUMPI PUSH1 0x0 DUP1 REVERT JUMPDEST DUP1 PUSH4 0x929EEA21 EQ PUSH2 0x508 JUMPI DUP1 PUSH4 0xA2FB342D EQ PUSH2 0x528 JUMPI DUP1 PUSH4 0xA7772B97 EQ PUSH2 0x53B JUMPI DUP1 PUSH4 0xA8B74152 EQ PUSH2 0x55B JUMPI PUSH1 0x0 DUP1 REVERT JUMPDEST DUP1 PUSH4 0x4B3FD148 GT PUSH2 0x1B1 JUMPI DUP1 PUSH4 0x7924D93F GT PUSH2 0x175 JUMPI DUP1 PUSH4 0x7924D93F EQ PUSH2 0x45F JUMPI DUP1 PUSH4 0x7B9EC997 EQ PUSH2 0x47F JUMPI DUP1 PUSH4 0x8078F22C EQ PUSH2 0x49F JUMPI DUP1 PUSH4 0x8CF1806B EQ PUSH2 0x4D5 JUMPI DUP1 PUSH4 0x8DA5CB5B EQ PUSH2 0x4EA JUMPI PUSH1 0x0 DUP1 REVERT JUMPDEST DUP1 PUSH4 0x4B3FD148 EQ PUSH2 0x38B JUMPI DUP1 PUSH4 0x4FA9F5A4 EQ PUSH2 0x3AB JUMPI DUP1 PUSH4 0x541D8338 EQ PUSH2 0x3DB JUMPI DUP1 PUSH4 0x715018A6 EQ PUSH2 0x3F1 JUMPI DUP1 PUSH4 0x74FD0CE0 EQ PUSH2 0x406 JUMPI PUSH1 0x0 DUP1 REVERT JUMPDEST DUP1 PUSH4 0x1818DD0B GT PUSH2 0x1F8 JUMPI DUP1 PUSH4 0x1818DD0B EQ PUSH2 0x2CD JUMPI DUP1 PUSH4 0x1C9E5224 EQ PUSH2 0x2EF JUMPI DUP1 PUSH4 0x27E8E184 EQ PUSH2 0x311 JUMPI DUP1 PUSH4 0x3C9D5093 EQ PUSH2 0x349 JUMPI DUP1 PUSH4 0x447007FD EQ PUSH2 0x36B JUMPI PUSH1 0x0 DUP1 REVERT JUMPDEST DUP1 PUSH4 0x6254C6A EQ PUSH2 0x22A JUMPI DUP1 PUSH4 0x8AE7FC2 EQ PUSH2 0x25D JUMPI DUP1 PUSH4 0x11F4F5D3 EQ PUSH2 0x28D JUMPI DUP1 PUSH4 0x1419F093 EQ PUSH2 0x2AD JUMPI JUMPDEST PUSH1 0x0 DUP1 REVERT JUMPDEST CALLVALUE DUP1 ISZERO PUSH2 0x236 JUMPI PUSH1 0x0 DUP1 REVERT JUMPDEST POP PUSH2 0x24A PUSH2 0x245 CALLDATASIZE PUSH1 0x4 PUSH2 0x32A0 JUMP JUMPDEST PUSH2 0x7C2 JUMP JUMPDEST PUSH1 0x40 MLOAD SWAP1 DUP2 MSTORE PUSH1 0x20 ADD JUMPDEST PUSH1 0x40 MLOAD DUP1 SWAP2 SUB SWAP1 RETURN JUMPDEST CALLVALUE DUP1 ISZERO PUSH2 0x269 JUMPI PUSH1 0x0 DUP1 REVERT JUMPDEST POP PUSH2 0x27D PUSH2 0x278 CALLDATASIZE PUSH1 0x4 PUSH2 0x32C2 JUMP JUMPDEST PUSH2 0x84D JUMP JUMPDEST PUSH1 0x40 MLOAD PUSH2 0x254 SWAP5 SWAP4 SWAP3 SWAP2 SWAP1 PUSH2 0x3333 JUMP JUMPDEST CALLVALUE DUP1 ISZERO PUSH2 0x299 JUMPI PUSH1 0x0 DUP1 REVERT JUMPDEST POP PUSH2 0x24A PUSH2 0x2A8 CALLDATASIZE PUSH1 0x4 PUSH2 0x3360 JUMP JUMPDEST PUSH2 0x91F JUMP JUMPDEST CALLVALUE DUP1 ISZERO PUSH2 0x2B9 JUMPI PUSH1 0x0 DUP1 REVERT JUMPDEST POP PUSH2 0x24A PUSH2 0x2C8 CALLDATASIZE PUSH1 0x4 PUSH2 0x32A0 JUMP JUMPDEST PUSH2 0x958 JUMP JUMPDEST CALLVALUE DUP1 ISZERO PUSH2 0x2D9 JUMPI PUSH1 0x0 DUP1 REVERT JUMPDEST POP PUSH2 0x2ED PUSH2 0x2E8 CALLDATASIZE PUSH1 0x4 PUSH2 0x3360 JUMP JUMPDEST PUSH2 0x9E9 JUMP JUMPDEST STOP JUMPDEST CALLVALUE DUP1 ISZERO PUSH2 0x2FB JUMPI PUSH1 0x0 DUP1 REVERT JUMPDEST POP PUSH2 0x304 PUSH2 0xCFC JUMP JUMPDEST PUSH1 0x40 MLOAD PUSH2 0x254 SWAP2 SWAP1 PUSH2 0x33C5 JUMP JUMPDEST CALLVALUE DUP1 ISZERO PUSH2 0x31D JUMPI PUSH1 0x0 DUP1 REVERT JUMPDEST POP PUSH2 0x24A PUSH2 0x32C CALLDATASIZE PUSH1 0x4 PUSH2 0x3427 JUMP JUMPDEST PUSH1 0x3 PUSH1 0x20 SWAP1 DUP2 MSTORE PUSH1 0x0 SWAP3 DUP4 MSTORE PUSH1 0x40 DUP1 DUP5 KECCAK256 SWAP1 SWAP2 MSTORE SWAP1 DUP3 MSTORE SWAP1 KECCAK256 SLOAD DUP2 JUMP JUMPDEST CALLVALUE DUP1 ISZERO PUSH2 0x355 JUMPI PUSH1 0x0 DUP1 REVERT JUMPDEST POP PUSH2 0x35E PUSH2 0xE18 JUMP JUMPDEST PUSH1 0x40 MLOAD PUSH2 0x254 SWAP2 SWAP1 PUSH2 0x345A JUMP JUMPDEST CALLVALUE DUP1 ISZERO PUSH2 0x377 JUMPI PUSH1 0x0 DUP1 REVERT JUMPDEST POP PUSH2 0x27D PUSH2 0x386 CALLDATASIZE PUSH1 0x4 PUSH2 0x32C2 JUMP JUMPDEST PUSH2 0xE7A JUMP JUMPDEST CALLVALUE DUP1 ISZERO PUSH2 0x397 JUMPI PUSH1 0x0 DUP1 REVERT JUMPDEST POP PUSH2 0x2ED PUSH2 0x3A6 CALLDATASIZE PUSH1 0x4 PUSH2 0x34A7 JUMP JUMPDEST PUSH2 0xE8A JUMP JUMPDEST CALLVALUE DUP1 ISZERO PUSH2 0x3B7 JUMPI PUSH1 0x0 DUP1 REVERT JUMPDEST POP PUSH2 0x3CB PUSH2 0x3C6 CALLDATASIZE PUSH1 0x4 PUSH2 0x3581 JUMP JUMPDEST PUSH2 0x135C JUMP JUMPDEST PUSH1 0x40 MLOAD SWAP1 ISZERO ISZERO DUP2 MSTORE PUSH1 0x20 ADD PUSH2 0x254 JUMP JUMPDEST CALLVALUE DUP1 ISZERO PUSH2 0x3E7 JUMPI PUSH1 0x0 DUP1 REVERT JUMPDEST POP PUSH2 0x24A PUSH1 0xD SLOAD DUP2 JUMP JUMPDEST CALLVALUE DUP1 ISZERO PUSH2 0x3FD JUMPI PUSH1 0x0 DUP1 REVERT JUMPDEST POP PUSH2 0x2ED PUSH2 0x14E9 JUMP JUMPDEST CALLVALUE DUP1 ISZERO PUSH2 0x412 JUMPI PUSH1 0x0 DUP1 REVERT JUMPDEST POP PUSH2 0x447 PUSH2 0x421 CALLDATASIZE PUSH1 0x4 PUSH2 0x34A7 JUMP JUMPDEST PUSH1 0x6 PUSH1 0x20 SWAP1 DUP2 MSTORE PUSH1 0x0 SWAP3 DUP4 MSTORE PUSH1 0x40 DUP1 DUP5 KECCAK256 SWAP1 SWAP2 MSTORE SWAP1 DUP3 MSTORE SWAP1 KECCAK256 SLOAD PUSH1 0x1 PUSH1 0x1 PUSH1 0xA0 SHL SUB AND DUP2 JUMP JUMPDEST PUSH1 0x40 MLOAD PUSH1 0x1 PUSH1 0x1 PUSH1 0xA0 SHL SUB SWAP1 SWAP2 AND DUP2 MSTORE PUSH1 0x20 ADD PUSH2 0x254 JUMP JUMPDEST CALLVALUE DUP1 ISZERO PUSH2 0x46B JUMPI PUSH1 0x0 DUP1 REVERT JUMPDEST POP PUSH2 0x447 PUSH2 0x47A CALLDATASIZE PUSH1 0x4 PUSH2 0x32C2 JUMP JUMPDEST PUSH2 0x151F JUMP JUMPDEST CALLVALUE DUP1 ISZERO PUSH2 0x48B JUMPI PUSH1 0x0 DUP1 REVERT JUMPDEST POP PUSH2 0x24A PUSH2 0x49A CALLDATASIZE PUSH1 0x4 PUSH2 0x32A0 JUMP JUMPDEST PUSH2 0x1549 JUMP JUMPDEST CALLVALUE DUP1 ISZERO PUSH2 0x4AB JUMPI PUSH1 0x0 DUP1 REVERT JUMPDEST POP PUSH2 0x447 PUSH2 0x4BA CALLDATASIZE PUSH1 0x4 PUSH2 0x32A0 JUMP JUMPDEST PUSH1 0x7 PUSH1 0x20 MSTORE PUSH1 0x0 SWAP1 DUP2 MSTORE PUSH1 0x40 SWAP1 KECCAK256 SLOAD PUSH1 0x1 PUSH1 0x1 PUSH1 0xA0 SHL SUB AND DUP2 JUMP JUMPDEST CALLVALUE DUP1 ISZERO PUSH2 0x4E1 JUMPI PUSH1 0x0 DUP1 REVERT JUMPDEST POP PUSH2 0x35E PUSH2 0x1916 JUMP JUMPDEST CALLVALUE DUP1 ISZERO PUSH2 0x4F6 JUMPI PUSH1 0x0 DUP1 REVERT JUMPDEST POP PUSH1 0x0 SLOAD PUSH1 0x1 PUSH1 0x1 PUSH1 0xA0 SHL SUB AND PUSH2 0x447 JUMP JUMPDEST CALLVALUE DUP1 ISZERO PUSH2 0x514 JUMPI PUSH1 0x0 DUP1 REVERT JUMPDEST POP PUSH2 0x447 PUSH2 0x523 CALLDATASIZE PUSH1 0x4 PUSH2 0x32C2 JUMP JUMPDEST PUSH2 0x1976 JUMP JUMPDEST PUSH2 0x2ED PUSH2 0x536 CALLDATASIZE PUSH1 0x4 PUSH2 0x3360 JUMP JUMPDEST PUSH2 0x1986 JUMP JUMPDEST CALLVALUE DUP1 ISZERO PUSH2 0x547 JUMPI PUSH1 0x0 DUP1 REVERT JUMPDEST POP PUSH2 0x24A PUSH2 0x556 CALLDATASIZE PUSH1 0x4 PUSH2 0x32A0 JUMP JUMPDEST PUSH2 0x1DFF JUMP JUMPDEST CALLVALUE DUP1 ISZERO PUSH2 0x567 JUMPI PUSH1 0x0 DUP1 REVERT JUMPDEST POP PUSH2 0x24A PUSH2 0x576 CALLDATASIZE PUSH1 0x4 PUSH2 0x3427 JUMP JUMPDEST PUSH1 0x4 PUSH1 0x20 SWAP1 DUP2 MSTORE PUSH1 0x0 SWAP3 DUP4 MSTORE PUSH1 0x40 DUP1 DUP5 KECCAK256 SWAP1 SWAP2 MSTORE SWAP1 DUP3 MSTORE SWAP1 KECCAK256 SLOAD DUP2 JUMP JUMPDEST CALLVALUE DUP1 ISZERO PUSH2 0x59F JUMPI PUSH1 0x0 DUP1 REVERT JUMPDEST POP PUSH2 0x24A PUSH2 0x5AE CALLDATASIZE PUSH1 0x4 PUSH2 0x32A0 JUMP JUMPDEST PUSH2 0x1E90 JUMP JUMPDEST CALLVALUE DUP1 ISZERO PUSH2 0x5BF JUMPI PUSH1 0x0 DUP1 REVERT JUMPDEST POP PUSH2 0x2ED PUSH2 0x5CE CALLDATASIZE PUSH1 0x4 PUSH2 0x3427 JUMP JUMPDEST PUSH2 0x1F13 JUMP JUMPDEST CALLVALUE DUP1 ISZERO PUSH2 0x5DF JUMPI PUSH1 0x0 DUP1 REVERT JUMPDEST POP PUSH2 0x24A PUSH1 0xC SLOAD DUP2 JUMP JUMPDEST CALLVALUE DUP1 ISZERO PUSH2 0x5F5 JUMPI PUSH1 0x0 DUP1 REVERT JUMPDEST POP PUSH2 0x447 PUSH2 0x604 CALLDATASIZE PUSH1 0x4 PUSH2 0x34A7 JUMP JUMPDEST PUSH1 0x8 PUSH1 0x20 SWAP1 DUP2 MSTORE PUSH1 0x0 SWAP3 DUP4 MSTORE PUSH1 0x40 DUP1 DUP5 KECCAK256 SWAP1 SWAP2 MSTORE SWAP1 DUP3 MSTORE SWAP1 KECCAK256 SLOAD PUSH1 0x1 PUSH1 0x1 PUSH1 0xA0 SHL SUB AND DUP2 JUMP JUMPDEST CALLVALUE DUP1 ISZERO PUSH2 0x636 JUMPI PUSH1 0x0 DUP1 REVERT JUMPDEST POP PUSH2 0x2ED PUSH2 0x645 CALLDATASIZE PUSH1 0x4 PUSH2 0x35E9 JUMP JUMPDEST PUSH2 0x1F6B JUMP JUMPDEST CALLVALUE DUP1 ISZERO PUSH2 0x656 JUMPI PUSH1 0x0 DUP1 REVERT JUMPDEST POP PUSH2 0x447 PUSH2 0x665 CALLDATASIZE PUSH1 0x4 PUSH2 0x34A7 JUMP JUMPDEST PUSH1 0x5 PUSH1 0x20 SWAP1 DUP2 MSTORE PUSH1 0x0 SWAP3 DUP4 MSTORE PUSH1 0x40 DUP1 DUP5 KECCAK256 SWAP1 SWAP2 MSTORE SWAP1 DUP3 MSTORE SWAP1 KECCAK256 SLOAD PUSH1 0x1 PUSH1 0x1 PUSH1 0xA0 SHL SUB AND DUP2 JUMP JUMPDEST CALLVALUE DUP1 ISZERO PUSH2 0x697 JUMPI PUSH1 0x0 DUP1 REVERT JUMPDEST POP PUSH2 0x304 PUSH2 0x21D3 JUMP JUMPDEST CALLVALUE DUP1 ISZERO PUSH2 0x6AC JUMPI PUSH1 0x0 DUP1 REVERT JUMPDEST POP PUSH2 0x24A PUSH2 0x6BB CALLDATASIZE PUSH1 0x4 PUSH2 0x3646 JUMP JUMPDEST PUSH2 0x22E6 JUMP JUMPDEST CALLVALUE DUP1 ISZERO PUSH2 0x6CC JUMPI PUSH1 0x0 DUP1 REVERT JUMPDEST POP PUSH2 0x2ED PUSH2 0x6DB CALLDATASIZE PUSH1 0x4 PUSH2 0x32A0 JUMP JUMPDEST PUSH2 0x2353 JUMP JUMPDEST CALLVALUE DUP1 ISZERO PUSH2 0x6EC JUMPI PUSH1 0x0 DUP1 REVERT JUMPDEST POP PUSH2 0x2ED PUSH2 0x6FB CALLDATASIZE PUSH1 0x4 PUSH2 0x3360 JUMP JUMPDEST PUSH2 0x23EE JUMP JUMPDEST CALLVALUE DUP1 ISZERO PUSH2 0x70C JUMPI PUSH1 0x0 DUP1 REVERT JUMPDEST POP PUSH2 0x24A PUSH2 0x71B CALLDATASIZE PUSH1 0x4 PUSH2 0x34A7 JUMP JUMPDEST PUSH2 0x26FD JUMP JUMPDEST CALLVALUE DUP1 ISZERO PUSH2 0x72C JUMPI PUSH1 0x0 DUP1 REVERT JUMPDEST POP PUSH2 0x740 PUSH2 0x73B CALLDATASIZE PUSH1 0x4 PUSH2 0x32A0 JUMP JUMPDEST PUSH2 0x273B JUMP JUMPDEST PUSH1 0x40 MLOAD PUSH2 0x254 SWAP2 SWAP1 PUSH2 0x3706 JUMP JUMPDEST CALLVALUE DUP1 ISZERO PUSH2 0x759 JUMPI PUSH1 0x0 DUP1 REVERT JUMPDEST POP PUSH2 0x76D PUSH2 0x768 CALLDATASIZE PUSH1 0x4 PUSH2 0x32A0 JUMP JUMPDEST PUSH2 0x28ED JUMP JUMPDEST PUSH1 0x40 DUP1 MLOAD SWAP3 DUP4 MSTORE PUSH1 0x20 DUP4 ADD SWAP2 SWAP1 SWAP2 MSTORE ADD PUSH2 0x254 JUMP JUMPDEST CALLVALUE DUP1 ISZERO PUSH2 0x78E JUMPI PUSH1 0x0 DUP1 REVERT JUMPDEST POP PUSH1 0xB SLOAD PUSH2 0x447 SWAP1 PUSH1 0x1 PUSH1 0x1 PUSH1 0xA0 SHL SUB AND DUP2 JUMP JUMPDEST CALLVALUE DUP1 ISZERO PUSH2 0x7AE JUMPI PUSH1 0x0 DUP1 REVERT JUMPDEST POP PUSH2 0x2ED PUSH2 0x7BD CALLDATASIZE PUSH1 0x4 PUSH2 0x35E9 JUMP JUMPDEST PUSH2 0x29EE JUMP JUMPDEST PUSH1 0x1 SLOAD PUSH1 0x0 SWAP1 DUP2 SWAP1 ISZERO PUSH2 0x847 JUMPI PUSH1 0x0 JUMPDEST PUSH1 0x1 SLOAD DUP2 LT ISZERO PUSH2 0x845 JUMPI PUSH1 0x0 PUSH1 0x1 DUP3 DUP2 SLOAD DUP2 LT PUSH2 0x7F1 JUMPI PUSH2 0x7F1 PUSH2 0x3719 JUMP JUMPDEST PUSH1 0x0 SWAP2 DUP3 MSTORE PUSH1 0x20 DUP1 DUP4 KECCAK256 SWAP1 SWAP2 ADD SLOAD PUSH1 0x1 PUSH1 0x1 PUSH1 0xA0 SHL SUB DUP9 DUP2 AND DUP5 MSTORE PUSH1 0x3 DUP4 MSTORE PUSH1 0x40 DUP1 DUP6 KECCAK256 SWAP2 SWAP1 SWAP3 AND DUP1 DUP6 MSTORE SWAP3 MSTORE SWAP1 SWAP2 KECCAK256 SLOAD SWAP1 SWAP2 POP PUSH2 0x82F SWAP1 DUP5 PUSH2 0x3745 JUMP JUMPDEST SWAP3 POP POP DUP1 DUP1 PUSH2 0x83D SWAP1 PUSH2 0x375D JUMP JUMPDEST SWAP2 POP POP PUSH2 0x7D2 JUMP JUMPDEST POP JUMPDEST SWAP3 SWAP2 POP POP JUMP JUMPDEST PUSH1 0x9 DUP2 DUP2 SLOAD DUP2 LT PUSH2 0x85D JUMPI PUSH1 0x0 DUP1 REVERT JUMPDEST PUSH1 0x0 SWAP2 DUP3 MSTORE PUSH1 0x20 SWAP1 SWAP2 KECCAK256 PUSH1 0x4 SWAP1 SWAP2 MUL ADD DUP1 SLOAD PUSH1 0x1 DUP3 ADD SLOAD PUSH1 0x2 DUP4 ADD SLOAD PUSH1 0x3 DUP5 ADD DUP1 SLOAD PUSH1 0x1 PUSH1 0x1 PUSH1 0xA0 SHL SUB SWAP1 SWAP5 AND SWAP6 POP SWAP2 SWAP4 SWAP1 SWAP3 SWAP1 SWAP2 SWAP1 PUSH2 0x89C SWAP1 PUSH2 0x3778 JUMP JUMPDEST DUP1 PUSH1 0x1F ADD PUSH1 0x20 DUP1 SWAP2 DIV MUL PUSH1 0x20 ADD PUSH1 0x40 MLOAD SWAP1 DUP2 ADD PUSH1 0x40 MSTORE DUP1 SWAP3 SWAP2 SWAP1 DUP2 DUP2 MSTORE PUSH1 0x20 ADD DUP3 DUP1 SLOAD PUSH2 0x8C8 SWAP1 PUSH2 0x3778 JUMP JUMPDEST DUP1 ISZERO PUSH2 0x915 JUMPI DUP1 PUSH1 0x1F LT PUSH2 0x8EA JUMPI PUSH2 0x100 DUP1 DUP4 SLOAD DIV MUL DUP4 MSTORE SWAP2 PUSH1 0x20 ADD SWAP2 PUSH2 0x915 JUMP JUMPDEST DUP3 ADD SWAP2 SWAP1 PUSH1 0x0 MSTORE PUSH1 0x20 PUSH1 0x0 KECCAK256 SWAP1 JUMPDEST DUP2 SLOAD DUP2 MSTORE SWAP1 PUSH1 0x1 ADD SWAP1 PUSH1 0x20 ADD DUP1 DUP4 GT PUSH2 0x8F8 JUMPI DUP3 SWAP1 SUB PUSH1 0x1F AND DUP3 ADD SWAP2 JUMPDEST POP POP POP POP POP SWAP1 POP DUP5 JUMP JUMPDEST PUSH1 0x0 DUP1 PUSH2 0x92B DUP5 PUSH2 0x273B JUMP JUMPDEST SWAP1 POP PUSH8 0xDE0B6B3A7640000 DUP2 PUSH1 0x40 ADD MLOAD DUP5 PUSH2 0x946 SWAP2 SWAP1 PUSH2 0x37B3 JUMP JUMPDEST PUSH2 0x950 SWAP2 SWAP1 PUSH2 0x37D2 JUMP JUMPDEST SWAP5 SWAP4 POP POP POP POP JUMP JUMPDEST PUSH1 0x0 DUP1 DUP1 JUMPDEST PUSH1 0xD SLOAD DUP2 LT ISZERO PUSH2 0x845 JUMPI PUSH1 0x0 DUP2 DUP2 MSTORE PUSH1 0x6 PUSH1 0x20 SWAP1 DUP2 MSTORE PUSH1 0x40 DUP1 DUP4 KECCAK256 PUSH1 0x1 PUSH1 0x1 PUSH1 0xA0 SHL SUB DUP1 DUP10 AND DUP6 MSTORE SWAP3 MSTORE SWAP1 SWAP2 KECCAK256 SLOAD AND DUP1 ISZERO PUSH2 0x9D6 JUMPI PUSH1 0x1 PUSH1 0x1 PUSH1 0xA0 SHL SUB DUP1 DUP3 AND PUSH1 0x0 SWAP1 DUP2 MSTORE PUSH1 0x4 PUSH1 0x20 SWAP1 DUP2 MSTORE PUSH1 0x40 DUP1 DUP4 KECCAK256 SWAP4 DUP10 AND DUP4 MSTORE SWAP3 SWAP1 MSTORE SWAP1 DUP2 KECCAK256 SLOAD SWAP1 PUSH2 0x9C5 DUP3 DUP5 PUSH2 0x26FD JUMP JUMPDEST SWAP1 POP PUSH2 0x9D1 DUP2 DUP7 PUSH2 0x3745 JUMP JUMPDEST SWAP5 POP POP POP JUMPDEST POP DUP1 PUSH2 0x9E1 DUP2 PUSH2 0x375D JUMP JUMPDEST SWAP2 POP POP PUSH2 0x95D JUMP JUMPDEST PUSH1 0x0 DUP2 GT PUSH2 0xA12 JUMPI PUSH1 0x40 MLOAD PUSH3 0x461BCD PUSH1 0xE5 SHL DUP2 MSTORE PUSH1 0x4 ADD PUSH2 0xA09 SWAP1 PUSH2 0x37F4 JUMP JUMPDEST PUSH1 0x40 MLOAD DUP1 SWAP2 SUB SWAP1 REVERT JUMPDEST PUSH1 0x0 PUSH2 0xA78 CALLER PUSH1 0x2 DUP1 SLOAD DUP1 PUSH1 0x20 MUL PUSH1 0x20 ADD PUSH1 0x40 MLOAD SWAP1 DUP2 ADD PUSH1 0x40 MSTORE DUP1 SWAP3 SWAP2 SWAP1 DUP2 DUP2 MSTORE PUSH1 0x20 ADD DUP3 DUP1 SLOAD DUP1 ISZERO PUSH2 0xA6E JUMPI PUSH1 0x20 MUL DUP3 ADD SWAP2 SWAP1 PUSH1 0x0 MSTORE PUSH1 0x20 PUSH1 0x0 KECCAK256 SWAP1 JUMPDEST DUP2 SLOAD PUSH1 0x1 PUSH1 0x1 PUSH1 0xA0 SHL SUB AND DUP2 MSTORE PUSH1 0x1 SWAP1 SWAP2 ADD SWAP1 PUSH1 0x20 ADD DUP1 DUP4 GT PUSH2 0xA50 JUMPI JUMPDEST POP POP POP POP POP PUSH2 0x22E6 JUMP JUMPDEST SWAP1 POP PUSH1 0x0 DUP2 SLT ISZERO PUSH2 0xAE6 JUMPI PUSH1 0x40 MLOAD PUSH3 0x461BCD PUSH1 0xE5 SHL DUP2 MSTORE PUSH1 0x20 PUSH1 0x4 DUP3 ADD MSTORE PUSH1 0x32 PUSH1 0x24 DUP3 ADD MSTORE PUSH32 0x557365722061646472657373206973206E6F7420666F756E6420696E20746865 PUSH1 0x44 DUP3 ADD MSTORE PUSH18 0x206C697374206F6620626F72726F77657273 PUSH1 0x70 SHL PUSH1 0x64 DUP3 ADD MSTORE PUSH1 0x84 ADD PUSH2 0xA09 JUMP JUMPDEST PUSH1 0x1 PUSH1 0x1 PUSH1 0xA0 SHL SUB DUP4 AND PUSH1 0x0 SWAP1 DUP2 MSTORE PUSH1 0x4 PUSH1 0x20 SWAP1 DUP2 MSTORE PUSH1 0x40 DUP1 DUP4 KECCAK256 CALLER DUP5 MSTORE SWAP1 SWAP2 MSTORE SWAP1 KECCAK256 SLOAD DUP1 PUSH2 0xB4C JUMPI PUSH1 0x40 MLOAD PUSH3 0x461BCD PUSH1 0xE5 SHL DUP2 MSTORE PUSH1 0x20 PUSH1 0x4 DUP3 ADD MSTORE PUSH1 0x12 PUSH1 0x24 DUP3 ADD MSTORE PUSH18 0x596F752020617265206E6F74206F77696E67 PUSH1 0x70 SHL PUSH1 0x44 DUP3 ADD MSTORE PUSH1 0x64 ADD PUSH2 0xA09 JUMP JUMPDEST DUP4 PUSH1 0x0 PUSH2 0xB59 DUP3 DUP5 PUSH2 0x91F JUMP JUMPDEST PUSH2 0xB63 SWAP1 DUP7 PUSH2 0x3745 JUMP JUMPDEST PUSH1 0x40 MLOAD PUSH4 0x23B872DD PUSH1 0xE0 SHL DUP2 MSTORE CALLER PUSH1 0x4 DUP3 ADD MSTORE ADDRESS PUSH1 0x24 DUP3 ADD MSTORE PUSH1 0x44 DUP2 ADD DUP3 SWAP1 MSTORE SWAP1 SWAP2 POP PUSH1 0x1 PUSH1 0x1 PUSH1 0xA0 SHL SUB DUP4 AND SWAP1 PUSH4 0x23B872DD SWAP1 PUSH1 0x64 ADD PUSH1 0x20 PUSH1 0x40 MLOAD DUP1 DUP4 SUB DUP2 PUSH1 0x0 DUP8 GAS CALL ISZERO DUP1 ISZERO PUSH2 0xBB9 JUMPI RETURNDATASIZE PUSH1 0x0 DUP1 RETURNDATACOPY RETURNDATASIZE PUSH1 0x0 REVERT JUMPDEST POP POP POP POP PUSH1 0x40 MLOAD RETURNDATASIZE PUSH1 0x1F NOT PUSH1 0x1F DUP3 ADD AND DUP3 ADD DUP1 PUSH1 0x40 MSTORE POP DUP2 ADD SWAP1 PUSH2 0xBDD SWAP2 SWAP1 PUSH2 0x382B JUMP JUMPDEST POP PUSH1 0x1 PUSH1 0x1 PUSH1 0xA0 SHL SUB DUP7 AND PUSH1 0x0 SWAP1 DUP2 MSTORE PUSH1 0x4 PUSH1 0x20 SWAP1 DUP2 MSTORE PUSH1 0x40 DUP1 DUP4 KECCAK256 CALLER DUP5 MSTORE SWAP1 SWAP2 MSTORE SWAP1 KECCAK256 SLOAD PUSH2 0xC0D SWAP1 DUP7 SWAP1 PUSH2 0x384D JUMP JUMPDEST PUSH1 0x1 PUSH1 0x1 PUSH1 0xA0 SHL SUB DUP8 AND PUSH1 0x0 SWAP1 DUP2 MSTORE PUSH1 0x4 PUSH1 0x20 SWAP1 DUP2 MSTORE PUSH1 0x40 DUP1 DUP4 KECCAK256 CALLER DUP1 DUP6 MSTORE SWAP3 MSTORE DUP3 KECCAK256 SWAP3 SWAP1 SWAP3 SSTORE SWAP1 PUSH2 0xC3E SWAP1 PUSH2 0x958 JUMP JUMPDEST SWAP1 POP DUP1 PUSH2 0xCF3 JUMPI PUSH1 0x2 DUP1 SLOAD PUSH2 0xC55 SWAP1 PUSH1 0x1 SWAP1 PUSH2 0x384D JUMP JUMPDEST DUP2 SLOAD DUP2 LT PUSH2 0xC65 JUMPI PUSH2 0xC65 PUSH2 0x3719 JUMP JUMPDEST PUSH1 0x0 SWAP2 DUP3 MSTORE PUSH1 0x20 SWAP1 SWAP2 KECCAK256 ADD SLOAD PUSH1 0x2 DUP1 SLOAD PUSH1 0x1 PUSH1 0x1 PUSH1 0xA0 SHL SUB SWAP1 SWAP3 AND SWAP2 DUP8 SWAP1 DUP2 LT PUSH2 0xC91 JUMPI PUSH2 0xC91 PUSH2 0x3719 JUMP JUMPDEST SWAP1 PUSH1 0x0 MSTORE PUSH1 0x20 PUSH1 0x0 KECCAK256 ADD PUSH1 0x0 PUSH2 0x100 EXP DUP2 SLOAD DUP2 PUSH1 0x1 PUSH1 0x1 PUSH1 0xA0 SHL SUB MUL NOT AND SWAP1 DUP4 PUSH1 0x1 PUSH1 0x1 PUSH1 0xA0 SHL SUB AND MUL OR SWAP1 SSTORE POP PUSH1 0x2 DUP1 SLOAD DUP1 PUSH2 0xCD0 JUMPI PUSH2 0xCD0 PUSH2 0x3864 JUMP JUMPDEST PUSH1 0x0 DUP3 DUP2 MSTORE PUSH1 0x20 SWAP1 KECCAK256 DUP2 ADD PUSH1 0x0 NOT SWAP1 DUP2 ADD DUP1 SLOAD PUSH1 0x1 PUSH1 0x1 PUSH1 0xA0 SHL SUB NOT AND SWAP1 SSTORE ADD SWAP1 SSTORE JUMPDEST POP POP POP POP POP POP POP JUMP JUMPDEST PUSH1 0x60 PUSH1 0x9 DUP1 SLOAD DUP1 PUSH1 0x20 MUL PUSH1 0x20 ADD PUSH1 0x40 MLOAD SWAP1 DUP2 ADD PUSH1 0x40 MSTORE DUP1 SWAP3 SWAP2 SWAP1 DUP2 DUP2 MSTORE PUSH1 0x20 ADD PUSH1 0x0 SWAP1 JUMPDEST DUP3 DUP3 LT ISZERO PUSH2 0xE0F JUMPI PUSH1 0x0 DUP5 DUP2 MSTORE PUSH1 0x20 SWAP1 DUP2 SWAP1 KECCAK256 PUSH1 0x40 DUP1 MLOAD PUSH1 0x80 DUP2 ADD DUP3 MSTORE PUSH1 0x4 DUP7 MUL SWAP1 SWAP3 ADD DUP1 SLOAD PUSH1 0x1 PUSH1 0x1 PUSH1 0xA0 SHL SUB AND DUP4 MSTORE PUSH1 0x1 DUP2 ADD SLOAD SWAP4 DUP4 ADD SWAP4 SWAP1 SWAP4 MSTORE PUSH1 0x2 DUP4 ADD SLOAD SWAP1 DUP3 ADD MSTORE PUSH1 0x3 DUP3 ADD DUP1 SLOAD SWAP2 SWAP3 SWAP2 PUSH1 0x60 DUP5 ADD SWAP2 SWAP1 PUSH2 0xD7E SWAP1 PUSH2 0x3778 JUMP JUMPDEST DUP1 PUSH1 0x1F ADD PUSH1 0x20 DUP1 SWAP2 DIV MUL PUSH1 0x20 ADD PUSH1 0x40 MLOAD SWAP1 DUP2 ADD PUSH1 0x40 MSTORE DUP1 SWAP3 SWAP2 SWAP1 DUP2 DUP2 MSTORE PUSH1 0x20 ADD DUP3 DUP1 SLOAD PUSH2 0xDAA SWAP1 PUSH2 0x3778 JUMP JUMPDEST DUP1 ISZERO PUSH2 0xDF7 JUMPI DUP1 PUSH1 0x1F LT PUSH2 0xDCC JUMPI PUSH2 0x100 DUP1 DUP4 SLOAD DIV MUL DUP4 MSTORE SWAP2 PUSH1 0x20 ADD SWAP2 PUSH2 0xDF7 JUMP JUMPDEST DUP3 ADD SWAP2 SWAP1 PUSH1 0x0 MSTORE PUSH1 0x20 PUSH1 0x0 KECCAK256 SWAP1 JUMPDEST DUP2 SLOAD DUP2 MSTORE SWAP1 PUSH1 0x1 ADD SWAP1 PUSH1 0x20 ADD DUP1 DUP4 GT PUSH2 0xDDA JUMPI DUP3 SWAP1 SUB PUSH1 0x1F AND DUP3 ADD SWAP2 JUMPDEST POP POP POP POP POP DUP2 MSTORE POP POP DUP2 MSTORE PUSH1 0x20 ADD SWAP1 PUSH1 0x1 ADD SWAP1 PUSH2 0xD20 JUMP JUMPDEST POP POP POP POP SWAP1 POP SWAP1 JUMP JUMPDEST PUSH1 0x60 PUSH1 0x1 DUP1 SLOAD DUP1 PUSH1 0x20 MUL PUSH1 0x20 ADD PUSH1 0x40 MLOAD SWAP1 DUP2 ADD PUSH1 0x40 MSTORE DUP1 SWAP3 SWAP2 SWAP1 DUP2 DUP2 MSTORE PUSH1 0x20 ADD DUP3 DUP1 SLOAD DUP1 ISZERO PUSH2 0xE70 JUMPI PUSH1 0x20 MUL DUP3 ADD SWAP2 SWAP1 PUSH1 0x0 MSTORE PUSH1 0x20 PUSH1 0x0 KECCAK256 SWAP1 JUMPDEST DUP2 SLOAD PUSH1 0x1 PUSH1 0x1 PUSH1 0xA0 SHL SUB AND DUP2 MSTORE PUSH1 0x1 SWAP1 SWAP2 ADD SWAP1 PUSH1 0x20 ADD DUP1 DUP4 GT PUSH2 0xE52 JUMPI JUMPDEST POP POP POP POP POP SWAP1 POP SWAP1 JUMP JUMPDEST PUSH1 0xA DUP2 DUP2 SLOAD DUP2 LT PUSH2 0x85D JUMPI PUSH1 0x0 DUP1 REVERT JUMPDEST PUSH2 0xFA8 DUP2 PUSH1 0xA DUP1 SLOAD DUP1 PUSH1 0x20 MUL PUSH1 0x20 ADD PUSH1 0x40 MLOAD SWAP1 DUP2 ADD PUSH1 0x40 MSTORE DUP1 SWAP3 SWAP2 SWAP1 DUP2 DUP2 MSTORE PUSH1 0x20 ADD PUSH1 0x0 SWAP1 JUMPDEST DUP3 DUP3 LT ISZERO PUSH2 0xF9F JUMPI PUSH1 0x0 DUP5 DUP2 MSTORE PUSH1 0x20 SWAP1 DUP2 SWAP1 KECCAK256 PUSH1 0x40 DUP1 MLOAD PUSH1 0x80 DUP2 ADD DUP3 MSTORE PUSH1 0x4 DUP7 MUL SWAP1 SWAP3 ADD DUP1 SLOAD PUSH1 0x1 PUSH1 0x1 PUSH1 0xA0 SHL SUB AND DUP4 MSTORE PUSH1 0x1 DUP2 ADD SLOAD SWAP4 DUP4 ADD SWAP4 SWAP1 SWAP4 MSTORE PUSH1 0x2 DUP4 ADD SLOAD SWAP1 DUP3 ADD MSTORE PUSH1 0x3 DUP3 ADD DUP1 SLOAD SWAP2 SWAP3 SWAP2 PUSH1 0x60 DUP5 ADD SWAP2 SWAP1 PUSH2 0xF0E SWAP1 PUSH2 0x3778 JUMP JUMPDEST DUP1 PUSH1 0x1F ADD PUSH1 0x20 DUP1 SWAP2 DIV MUL PUSH1 0x20 ADD PUSH1 0x40 MLOAD SWAP1 DUP2 ADD PUSH1 0x40 MSTORE DUP1 SWAP3 SWAP2 SWAP1 DUP2 DUP2 MSTORE PUSH1 0x20 ADD DUP3 DUP1 SLOAD PUSH2 0xF3A SWAP1 PUSH2 0x3778 JUMP JUMPDEST DUP1 ISZERO PUSH2 0xF87 JUMPI DUP1 PUSH1 0x1F LT PUSH2 0xF5C JUMPI PUSH2 0x100 DUP1 DUP4 SLOAD DIV MUL DUP4 MSTORE SWAP2 PUSH1 0x20 ADD SWAP2 PUSH2 0xF87 JUMP JUMPDEST DUP3 ADD SWAP2 SWAP1 PUSH1 0x0 MSTORE PUSH1 0x20 PUSH1 0x0 KECCAK256 SWAP1 JUMPDEST DUP2 SLOAD DUP2 MSTORE SWAP1 PUSH1 0x1 ADD SWAP1 PUSH1 0x20 ADD DUP1 DUP4 GT PUSH2 0xF6A JUMPI DUP3 SWAP1 SUB PUSH1 0x1F AND DUP3 ADD SWAP2 JUMPDEST POP POP POP POP POP DUP2 MSTORE POP POP DUP2 MSTORE PUSH1 0x20 ADD SWAP1 PUSH1 0x1 ADD SWAP1 PUSH2 0xEB0 JUMP JUMPDEST POP POP POP POP PUSH2 0x2C43 JUMP JUMPDEST PUSH2 0x1000 JUMPI PUSH1 0x40 MLOAD PUSH3 0x461BCD PUSH1 0xE5 SHL DUP2 MSTORE PUSH1 0x20 PUSH1 0x4 DUP3 ADD MSTORE PUSH1 0x24 DUP1 DUP3 ADD MSTORE PUSH32 0x546F6B656E206973206E6F7420737570706F7274656420666F7220626F72726F PUSH1 0x44 DUP3 ADD MSTORE PUSH4 0x77696E67 PUSH1 0xE0 SHL PUSH1 0x64 DUP3 ADD MSTORE PUSH1 0x84 ADD PUSH2 0xA09 JUMP JUMPDEST PUSH1 0x0 DUP3 GT PUSH2 0x1020 JUMPI PUSH1 0x40 MLOAD PUSH3 0x461BCD PUSH1 0xE5 SHL DUP2 MSTORE PUSH1 0x4 ADD PUSH2 0xA09 SWAP1 PUSH2 0x37F4 JUMP JUMPDEST PUSH1 0x0 PUSH2 0x102B CALLER PUSH2 0x1549 JUMP JUMPDEST SWAP1 POP PUSH1 0x0 PUSH2 0x1039 DUP5 DUP5 PUSH2 0x26FD JUMP JUMPDEST SWAP1 POP DUP2 DUP2 GT ISZERO PUSH2 0x10AA JUMPI PUSH1 0x40 MLOAD PUSH3 0x461BCD PUSH1 0xE5 SHL DUP2 MSTORE PUSH1 0x20 PUSH1 0x4 DUP3 ADD MSTORE PUSH1 0x36 PUSH1 0x24 DUP3 ADD MSTORE PUSH32 0x596F7520646F6E2774206861766520656E6F75676820636F6C6C61746572616C PUSH1 0x44 DUP3 ADD MSTORE PUSH22 0x81D1BC8189BDC9C9BDDC81D1A1A5CC8185B5BDD5B9D PUSH1 0x52 SHL PUSH1 0x64 DUP3 ADD MSTORE PUSH1 0x84 ADD PUSH2 0xA09 JUMP JUMPDEST PUSH1 0x40 MLOAD PUSH4 0x70A08231 PUSH1 0xE0 SHL DUP2 MSTORE ADDRESS PUSH1 0x4 DUP3 ADD MSTORE DUP4 SWAP1 DUP6 SWAP1 PUSH1 0x1 PUSH1 0x1 PUSH1 0xA0 SHL SUB DUP4 AND SWAP1 PUSH4 0x70A08231 SWAP1 PUSH1 0x24 ADD PUSH1 0x20 PUSH1 0x40 MLOAD DUP1 DUP4 SUB DUP2 DUP7 GAS STATICCALL ISZERO DUP1 ISZERO PUSH2 0x10F2 JUMPI RETURNDATASIZE PUSH1 0x0 DUP1 RETURNDATACOPY RETURNDATASIZE PUSH1 0x0 REVERT JUMPDEST POP POP POP POP PUSH1 0x40 MLOAD RETURNDATASIZE PUSH1 0x1F NOT PUSH1 0x1F DUP3 ADD AND DUP3 ADD DUP1 PUSH1 0x40 MSTORE POP DUP2 ADD SWAP1 PUSH2 0x1116 SWAP2 SWAP1 PUSH2 0x387A JUMP JUMPDEST GT PUSH2 0x1182 JUMPI PUSH1 0x40 MLOAD PUSH3 0x461BCD PUSH1 0xE5 SHL DUP2 MSTORE PUSH1 0x20 PUSH1 0x4 DUP3 ADD MSTORE PUSH1 0x36 PUSH1 0x24 DUP3 ADD MSTORE PUSH32 0x576520646F206E6F74206861766520656E6F756768206F66207468697320746F PUSH1 0x44 DUP3 ADD MSTORE PUSH22 0x35B2B7103337B9103CB7BA903A37903137B93937BB97 PUSH1 0x51 SHL PUSH1 0x64 DUP3 ADD MSTORE PUSH1 0x84 ADD PUSH2 0xA09 JUMP JUMPDEST PUSH1 0x40 MLOAD PUSH4 0xA9059CBB PUSH1 0xE0 SHL DUP2 MSTORE CALLER PUSH1 0x4 DUP3 ADD MSTORE PUSH1 0x24 DUP2 ADD DUP7 SWAP1 MSTORE PUSH1 0x1 PUSH1 0x1 PUSH1 0xA0 SHL SUB DUP3 AND SWAP1 PUSH4 0xA9059CBB SWAP1 PUSH1 0x44 ADD PUSH1 0x20 PUSH1 0x40 MLOAD DUP1 DUP4 SUB DUP2 PUSH1 0x0 DUP8 GAS CALL ISZERO DUP1 ISZERO PUSH2 0x11CF JUMPI RETURNDATASIZE PUSH1 0x0 DUP1 RETURNDATACOPY RETURNDATASIZE PUSH1 0x0 REVERT JUMPDEST POP POP POP POP PUSH1 0x40 MLOAD RETURNDATASIZE PUSH1 0x1F NOT PUSH1 0x1F DUP3 ADD AND DUP3 ADD DUP1 PUSH1 0x40 MSTORE POP DUP2 ADD SWAP1 PUSH2 0x11F3 SWAP2 SWAP1 PUSH2 0x382B JUMP JUMPDEST POP PUSH1 0x0 DUP1 PUSH2 0x125B CALLER PUSH1 0x2 DUP1 SLOAD DUP1 PUSH1 0x20 MUL PUSH1 0x20 ADD PUSH1 0x40 MLOAD SWAP1 DUP2 ADD PUSH1 0x40 MSTORE DUP1 SWAP3 SWAP2 SWAP1 DUP2 DUP2 MSTORE PUSH1 0x20 ADD DUP3 DUP1 SLOAD DUP1 ISZERO PUSH2 0x1251 JUMPI PUSH1 0x20 MUL DUP3 ADD SWAP2 SWAP1 PUSH1 0x0 MSTORE PUSH1 0x20 PUSH1 0x0 KECCAK256 SWAP1 JUMPDEST DUP2 SLOAD PUSH1 0x1 PUSH1 0x1 PUSH1 0xA0 SHL SUB AND DUP2 MSTORE PUSH1 0x1 SWAP1 SWAP2 ADD SWAP1 PUSH1 0x20 ADD DUP1 DUP4 GT PUSH2 0x1233 JUMPI JUMPDEST POP POP POP POP POP PUSH2 0x2CBE JUMP JUMPDEST SWAP2 POP SWAP2 POP DUP2 ISZERO PUSH2 0x1297 JUMPI PUSH2 0x1292 DUP7 DUP9 DUP4 PUSH1 0x40 MLOAD DUP1 PUSH1 0x40 ADD PUSH1 0x40 MSTORE DUP1 PUSH1 0x9 DUP2 MSTORE PUSH1 0x20 ADD PUSH9 0x626F72726F77657273 PUSH1 0xB8 SHL DUP2 MSTORE POP PUSH2 0x2D40 JUMP JUMPDEST PUSH2 0xCF3 JUMP JUMPDEST PUSH1 0x2 DUP1 SLOAD PUSH1 0x1 DUP2 ADD SWAP1 SWAP2 SSTORE PUSH32 0x405787FA12A823E0F2B7631CC41B3BA8828B3321CA811111FA75CD3AA3BB5ACE ADD DUP1 SLOAD PUSH1 0x1 PUSH1 0x1 PUSH1 0xA0 SHL SUB NOT AND CALLER SWAP1 DUP2 OR SWAP1 SWAP2 SSTORE PUSH1 0x1 PUSH1 0x1 PUSH1 0xA0 SHL SUB DUP8 AND PUSH1 0x0 SWAP1 DUP2 MSTORE PUSH1 0x4 PUSH1 0x20 SWAP1 DUP2 MSTORE PUSH1 0x40 DUP1 DUP4 KECCAK256 SWAP4 DUP4 MSTORE SWAP3 SWAP1 MSTORE SWAP1 DUP2 KECCAK256 DUP9 SWAP1 SSTORE PUSH1 0xD DUP1 SLOAD DUP9 SWAP3 PUSH1 0x6 SWAP3 SWAP1 SWAP2 SWAP1 DUP3 PUSH2 0x1314 DUP4 PUSH2 0x375D JUMP JUMPDEST SWAP1 SWAP2 SSTORE POP DUP2 MSTORE PUSH1 0x20 DUP1 DUP3 ADD SWAP3 SWAP1 SWAP3 MSTORE PUSH1 0x40 SWAP1 DUP2 ADD PUSH1 0x0 SWAP1 DUP2 KECCAK256 CALLER DUP3 MSTORE SWAP1 SWAP3 MSTORE SWAP1 KECCAK256 DUP1 SLOAD PUSH1 0x1 PUSH1 0x1 PUSH1 0xA0 SHL SUB NOT AND PUSH1 0x1 PUSH1 0x1 PUSH1 0xA0 SHL SUB SWAP3 SWAP1 SWAP3 AND SWAP2 SWAP1 SWAP2 OR SWAP1 SSTORE POP POP POP POP POP POP POP JUMP JUMPDEST PUSH1 0x0 DUP3 ISZERO PUSH2 0x14DE JUMPI PUSH1 0x40 MLOAD PUSH10 0x1D1BDAD95B9CD3195B9D PUSH1 0xB2 SHL PUSH1 0x20 DUP3 ADD MSTORE PUSH1 0x2A ADD PUSH1 0x40 MLOAD PUSH1 0x20 DUP2 DUP4 SUB SUB DUP2 MSTORE SWAP1 PUSH1 0x40 MSTORE DUP1 MLOAD SWAP1 PUSH1 0x20 ADD KECCAK256 DUP3 PUSH1 0x40 MLOAD PUSH1 0x20 ADD PUSH2 0x13A4 SWAP2 SWAP1 PUSH2 0x3893 JUMP JUMPDEST PUSH1 0x40 MLOAD PUSH1 0x20 DUP2 DUP4 SUB SUB DUP2 MSTORE SWAP1 PUSH1 0x40 MSTORE DUP1 MLOAD SWAP1 PUSH1 0x20 ADD KECCAK256 EQ ISZERO PUSH2 0x1421 JUMPI PUSH1 0x0 JUMPDEST PUSH1 0xC SLOAD DUP2 LT ISZERO PUSH2 0x141B JUMPI PUSH1 0x0 DUP2 DUP2 MSTORE PUSH1 0x5 PUSH1 0x20 SWAP1 DUP2 MSTORE PUSH1 0x40 DUP1 DUP4 KECCAK256 PUSH1 0x1 PUSH1 0x1 PUSH1 0xA0 SHL SUB DUP1 DUP12 AND DUP6 MSTORE SWAP3 MSTORE SWAP1 SWAP2 KECCAK256 SLOAD DUP2 AND SWAP1 DUP7 AND DUP2 EQ ISZERO PUSH2 0x1408 JUMPI PUSH1 0x1 SWAP3 POP POP POP PUSH2 0x950 JUMP JUMPDEST POP DUP1 PUSH2 0x1413 DUP2 PUSH2 0x375D JUMP JUMPDEST SWAP2 POP POP PUSH2 0x13C3 JUMP JUMPDEST POP PUSH2 0x14DE JUMP JUMPDEST PUSH1 0x40 MLOAD PUSH14 0x1D1BDAD95B9CD09BDC9C9BDDD959 PUSH1 0x92 SHL PUSH1 0x20 DUP3 ADD MSTORE PUSH1 0x2E ADD PUSH1 0x40 MLOAD PUSH1 0x20 DUP2 DUP4 SUB SUB DUP2 MSTORE SWAP1 PUSH1 0x40 MSTORE DUP1 MLOAD SWAP1 PUSH1 0x20 ADD KECCAK256 DUP3 PUSH1 0x40 MLOAD PUSH1 0x20 ADD PUSH2 0x1465 SWAP2 SWAP1 PUSH2 0x3893 JUMP JUMPDEST PUSH1 0x40 MLOAD PUSH1 0x20 DUP2 DUP4 SUB SUB DUP2 MSTORE SWAP1 PUSH1 0x40 MSTORE DUP1 MLOAD SWAP1 PUSH1 0x20 ADD KECCAK256 EQ ISZERO PUSH2 0x14DE JUMPI PUSH1 0x0 JUMPDEST PUSH1 0xD SLOAD DUP2 LT ISZERO PUSH2 0x14DC JUMPI PUSH1 0x0 DUP2 DUP2 MSTORE PUSH1 0x6 PUSH1 0x20 SWAP1 DUP2 MSTORE PUSH1 0x40 DUP1 DUP4 KECCAK256 PUSH1 0x1 PUSH1 0x1 PUSH1 0xA0 SHL SUB DUP1 DUP12 AND DUP6 MSTORE SWAP3 MSTORE SWAP1 SWAP2 KECCAK256 SLOAD DUP2 AND SWAP1 DUP7 AND DUP2 EQ ISZERO PUSH2 0x14C9 JUMPI PUSH1 0x1 SWAP3 POP POP POP PUSH2 0x950 JUMP JUMPDEST POP DUP1 PUSH2 0x14D4 DUP2 PUSH2 0x375D JUMP JUMPDEST SWAP2 POP POP PUSH2 0x1484 JUMP JUMPDEST POP JUMPDEST POP PUSH1 0x0 SWAP5 SWAP4 POP POP POP POP JUMP JUMPDEST PUSH1 0x0 SLOAD PUSH1 0x1 PUSH1 0x1 PUSH1 0xA0 SHL SUB AND CALLER EQ PUSH2 0x1513 JUMPI PUSH1 0x40 MLOAD PUSH3 0x461BCD PUSH1 0xE5 SHL DUP2 MSTORE PUSH1 0x4 ADD PUSH2 0xA09 SWAP1 PUSH2 0x38AF JUMP JUMPDEST PUSH2 0x151D PUSH1 0x0 PUSH2 0x3082 JUMP JUMPDEST JUMP JUMPDEST PUSH1 0x2 DUP2 DUP2 SLOAD DUP2 LT PUSH2 0x152F JUMPI PUSH1 0x0 DUP1 REVERT JUMPDEST PUSH1 0x0 SWAP2 DUP3 MSTORE PUSH1 0x20 SWAP1 SWAP2 KECCAK256 ADD SLOAD PUSH1 0x1 PUSH1 0x1 PUSH1 0xA0 SHL SUB AND SWAP1 POP DUP2 JUMP JUMPDEST PUSH1 0x0 DUP1 DUP1 DUP1 JUMPDEST PUSH1 0x1 SLOAD DUP2 LT ISZERO PUSH2 0x173F JUMPI PUSH1 0x0 PUSH1 0x1 DUP3 DUP2 SLOAD DUP2 LT PUSH2 0x156E JUMPI PUSH2 0x156E PUSH2 0x3719 JUMP JUMPDEST PUSH1 0x0 SWAP2 DUP3 MSTORE PUSH1 0x20 SWAP1 SWAP2 KECCAK256 ADD SLOAD PUSH1 0x1 PUSH1 0x1 PUSH1 0xA0 SHL SUB SWAP1 DUP2 AND SWAP2 POP DUP7 AND DUP2 EQ ISZERO PUSH2 0x172C JUMPI PUSH1 0x0 JUMPDEST PUSH1 0x9 SLOAD DUP2 LT ISZERO PUSH2 0x172A JUMPI PUSH1 0x0 PUSH1 0x9 DUP3 DUP2 SLOAD DUP2 LT PUSH2 0x15B2 JUMPI PUSH2 0x15B2 PUSH2 0x3719 JUMP JUMPDEST SWAP1 PUSH1 0x0 MSTORE PUSH1 0x20 PUSH1 0x0 KECCAK256 SWAP1 PUSH1 0x4 MUL ADD PUSH1 0x40 MLOAD DUP1 PUSH1 0x80 ADD PUSH1 0x40 MSTORE SWAP1 DUP2 PUSH1 0x0 DUP3 ADD PUSH1 0x0 SWAP1 SLOAD SWAP1 PUSH2 0x100 EXP SWAP1 DIV PUSH1 0x1 PUSH1 0x1 PUSH1 0xA0 SHL SUB AND PUSH1 0x1 PUSH1 0x1 PUSH1 0xA0 SHL SUB AND PUSH1 0x1 PUSH1 0x1 PUSH1 0xA0 SHL SUB AND DUP2 MSTORE PUSH1 0x20 ADD PUSH1 0x1 DUP3 ADD SLOAD DUP2 MSTORE PUSH1 0x20 ADD PUSH1 0x2 DUP3 ADD SLOAD DUP2 MSTORE PUSH1 0x20 ADD PUSH1 0x3 DUP3 ADD DUP1 SLOAD PUSH2 0x161E SWAP1 PUSH2 0x3778 JUMP JUMPDEST DUP1 PUSH1 0x1F ADD PUSH1 0x20 DUP1 SWAP2 DIV MUL PUSH1 0x20 ADD PUSH1 0x40 MLOAD SWAP1 DUP2 ADD PUSH1 0x40 MSTORE DUP1 SWAP3 SWAP2 SWAP1 DUP2 DUP2 MSTORE PUSH1 0x20 ADD DUP3 DUP1 SLOAD PUSH2 0x164A SWAP1 PUSH2 0x3778 JUMP JUMPDEST DUP1 ISZERO PUSH2 0x1697 JUMPI DUP1 PUSH1 0x1F LT PUSH2 0x166C JUMPI PUSH2 0x100 DUP1 DUP4 SLOAD DIV MUL DUP4 MSTORE SWAP2 PUSH1 0x20 ADD SWAP2 PUSH2 0x1697 JUMP JUMPDEST DUP3 ADD SWAP2 SWAP1 PUSH1 0x0 MSTORE PUSH1 0x20 PUSH1 0x0 KECCAK256 SWAP1 JUMPDEST DUP2 SLOAD DUP2 MSTORE SWAP1 PUSH1 0x1 ADD SWAP1 PUSH1 0x20 ADD DUP1 DUP4 GT PUSH2 0x167A JUMPI DUP3 SWAP1 SUB PUSH1 0x1F AND DUP3 ADD SWAP2 JUMPDEST POP POP POP SWAP2 SWAP1 SWAP3 MSTORE POP POP DUP2 MLOAD PUSH1 0x1 PUSH1 0x1 PUSH1 0xA0 SHL SUB SWAP1 DUP2 AND PUSH1 0x0 SWAP1 DUP2 MSTORE PUSH1 0x3 PUSH1 0x20 SWAP1 DUP2 MSTORE PUSH1 0x40 DUP1 DUP4 KECCAK256 SWAP4 DUP15 AND DUP4 MSTORE SWAP3 SWAP1 MSTORE SWAP1 DUP2 KECCAK256 SLOAD DUP4 MLOAD SWAP4 SWAP5 POP SWAP3 SWAP1 SWAP2 POP PUSH2 0x16DE SWAP1 DUP4 SWAP1 PUSH2 0x26FD JUMP JUMPDEST SWAP1 POP PUSH1 0x0 PUSH8 0xDE0B6B3A7640000 DUP5 PUSH1 0x20 ADD MLOAD DUP4 PUSH2 0x16FB SWAP2 SWAP1 PUSH2 0x37B3 JUMP JUMPDEST PUSH2 0x1705 SWAP2 SWAP1 PUSH2 0x37D2 JUMP JUMPDEST SWAP1 POP PUSH2 0x1711 DUP2 DUP11 PUSH2 0x3745 JUMP JUMPDEST SWAP9 POP POP POP POP POP DUP1 DUP1 PUSH2 0x1722 SWAP1 PUSH2 0x375D JUMP JUMPDEST SWAP2 POP POP PUSH2 0x1593 JUMP JUMPDEST POP JUMPDEST POP DUP1 PUSH2 0x1737 DUP2 PUSH2 0x375D JUMP JUMPDEST SWAP2 POP POP PUSH2 0x154F JUMP JUMPDEST POP PUSH1 0x0 JUMPDEST PUSH1 0x2 SLOAD DUP2 LT ISZERO PUSH2 0x190B JUMPI PUSH1 0x0 PUSH1 0x2 DUP3 DUP2 SLOAD DUP2 LT PUSH2 0x1762 JUMPI PUSH2 0x1762 PUSH2 0x3719 JUMP JUMPDEST PUSH1 0x0 SWAP2 DUP3 MSTORE PUSH1 0x20 SWAP1 SWAP2 KECCAK256 ADD SLOAD PUSH1 0x1 PUSH1 0x1 PUSH1 0xA0 SHL SUB SWAP1 DUP2 AND SWAP2 POP DUP7 AND DUP2 EQ ISZERO PUSH2 0x18F8 JUMPI PUSH1 0x0 JUMPDEST PUSH1 0xA SLOAD DUP2 LT ISZERO PUSH2 0x18F6 JUMPI PUSH1 0x0 PUSH1 0xA DUP3 DUP2 SLOAD DUP2 LT PUSH2 0x17A6 JUMPI PUSH2 0x17A6 PUSH2 0x3719 JUMP JUMPDEST SWAP1 PUSH1 0x0 MSTORE PUSH1 0x20 PUSH1 0x0 KECCAK256 SWAP1 PUSH1 0x4 MUL ADD PUSH1 0x40 MLOAD DUP1 PUSH1 0x80 ADD PUSH1 0x40 MSTORE SWAP1 DUP2 PUSH1 0x0 DUP3 ADD PUSH1 0x0 SWAP1 SLOAD SWAP1 PUSH2 0x100 EXP SWAP1 DIV PUSH1 0x1 PUSH1 0x1 PUSH1 0xA0 SHL SUB AND PUSH1 0x1 PUSH1 0x1 PUSH1 0xA0 SHL SUB AND PUSH1 0x1 PUSH1 0x1 PUSH1 0xA0 SHL SUB AND DUP2 MSTORE PUSH1 0x20 ADD PUSH1 0x1 DUP3 ADD SLOAD DUP2 MSTORE PUSH1 0x20 ADD PUSH1 0x2 DUP3 ADD SLOAD DUP2 MSTORE PUSH1 0x20 ADD PUSH1 0x3 DUP3 ADD DUP1 SLOAD PUSH2 0x1812 SWAP1 PUSH2 0x3778 JUMP JUMPDEST DUP1 PUSH1 0x1F ADD PUSH1 0x20 DUP1 SWAP2 DIV MUL PUSH1 0x20 ADD PUSH1 0x40 MLOAD SWAP1 DUP2 ADD PUSH1 0x40 MSTORE DUP1 SWAP3 SWAP2 SWAP1 DUP2 DUP2 MSTORE PUSH1 0x20 ADD DUP3 DUP1 SLOAD PUSH2 0x183E SWAP1 PUSH2 0x3778 JUMP JUMPDEST DUP1 ISZERO PUSH2 0x188B JUMPI DUP1 PUSH1 0x1F LT PUSH2 0x1860 JUMPI PUSH2 0x100 DUP1 DUP4 SLOAD DIV MUL DUP4 MSTORE SWAP2 PUSH1 0x20 ADD SWAP2 PUSH2 0x188B JUMP JUMPDEST DUP3 ADD SWAP2 SWAP1 PUSH1 0x0 MSTORE PUSH1 0x20 PUSH1 0x0 KECCAK256 SWAP1 JUMPDEST DUP2 SLOAD DUP2 MSTORE SWAP1 PUSH1 0x1 ADD SWAP1 PUSH1 0x20 ADD DUP1 DUP4 GT PUSH2 0x186E JUMPI DUP3 SWAP1 SUB PUSH1 0x1F AND DUP3 ADD SWAP2 JUMPDEST POP POP POP SWAP2 SWAP1 SWAP3 MSTORE POP POP DUP2 MLOAD PUSH1 0x1 PUSH1 0x1 PUSH1 0xA0 SHL SUB SWAP1 DUP2 AND PUSH1 0x0 SWAP1 DUP2 MSTORE PUSH1 0x4 PUSH1 0x20 SWAP1 DUP2 MSTORE PUSH1 0x40 DUP1 DUP4 KECCAK256 SWAP4 DUP15 AND DUP4 MSTORE SWAP3 SWAP1 MSTORE SWAP1 DUP2 KECCAK256 SLOAD DUP4 MLOAD SWAP4 SWAP5 POP SWAP3 SWAP1 SWAP2 POP PUSH2 0x18D2 SWAP1 DUP4 SWAP1 PUSH2 0x26FD JUMP JUMPDEST SWAP1 POP PUSH2 0x18DE DUP2 DUP9 PUSH2 0x3745 JUMP JUMPDEST SWAP7 POP POP POP POP DUP1 DUP1 PUSH2 0x18EE SWAP1 PUSH2 0x375D JUMP JUMPDEST SWAP2 POP POP PUSH2 0x1787 JUMP JUMPDEST POP JUMPDEST POP DUP1 PUSH2 0x1903 DUP2 PUSH2 0x375D JUMP JUMPDEST SWAP2 POP POP PUSH2 0x1743 JUMP JUMPDEST POP PUSH2 0x950 DUP2 DUP4 PUSH2 0x384D JUMP JUMPDEST PUSH1 0x60 PUSH1 0x2 DUP1 SLOAD DUP1 PUSH1 0x20 MUL PUSH1 0x20 ADD PUSH1 0x40 MLOAD SWAP1 DUP2 ADD PUSH1 0x40 MSTORE DUP1 SWAP3 SWAP2 SWAP1 DUP2 DUP2 MSTORE PUSH1 0x20 ADD DUP3 DUP1 SLOAD DUP1 ISZERO PUSH2 0xE70 JUMPI PUSH1 0x20 MUL DUP3 ADD SWAP2 SWAP1 PUSH1 0x0 MSTORE PUSH1 0x20 PUSH1 0x0 KECCAK256 SWAP1 DUP2 SLOAD PUSH1 0x1 PUSH1 0x1 PUSH1 0xA0 SHL SUB AND DUP2 MSTORE PUSH1 0x1 SWAP1 SWAP2 ADD SWAP1 PUSH1 0x20 ADD DUP1 DUP4 GT PUSH2 0xE52 JUMPI POP POP POP POP POP SWAP1 POP SWAP1 JUMP JUMPDEST PUSH1 0x1 DUP2 DUP2 SLOAD DUP2 LT PUSH2 0x152F JUMPI PUSH1 0x0 DUP1 REVERT JUMPDEST PUSH2 0x1A9B DUP3 PUSH1 0x9 DUP1 SLOAD DUP1 PUSH1 0x20 MUL PUSH1 0x20 ADD PUSH1 0x40 MLOAD SWAP1 DUP2 ADD PUSH1 0x40 MSTORE DUP1 SWAP3 SWAP2 SWAP1 DUP2 DUP2 MSTORE PUSH1 0x20 ADD PUSH1 0x0 SWAP1 JUMPDEST DUP3 DUP3 LT ISZERO PUSH2 0xF9F JUMPI PUSH1 0x0 DUP5 DUP2 MSTORE PUSH1 0x20 SWAP1 DUP2 SWAP1 KECCAK256 PUSH1 0x40 DUP1 MLOAD PUSH1 0x80 DUP2 ADD DUP3 MSTORE PUSH1 0x4 DUP7 MUL SWAP1 SWAP3 ADD DUP1 SLOAD PUSH1 0x1 PUSH1 0x1 PUSH1 0xA0 SHL SUB AND DUP4 MSTORE PUSH1 0x1 DUP2 ADD SLOAD SWAP4 DUP4 ADD SWAP4 SWAP1 SWAP4 MSTORE PUSH1 0x2 DUP4 ADD SLOAD SWAP1 DUP3 ADD MSTORE PUSH1 0x3 DUP3 ADD DUP1 SLOAD SWAP2 SWAP3 SWAP2 PUSH1 0x60 DUP5 ADD SWAP2 SWAP1 PUSH2 0x1A0A SWAP1 PUSH2 0x3778 JUMP JUMPDEST DUP1 PUSH1 0x1F ADD PUSH1 0x20 DUP1 SWAP2 DIV MUL PUSH1 0x20 ADD PUSH1 0x40 MLOAD SWAP1 DUP2 ADD PUSH1 0x40 MSTORE DUP1 SWAP3 SWAP2 SWAP1 DUP2 DUP2 MSTORE PUSH1 0x20 ADD DUP3 DUP1 SLOAD PUSH2 0x1A36 SWAP1 PUSH2 0x3778 JUMP JUMPDEST DUP1 ISZERO PUSH2 0x1A83 JUMPI DUP1 PUSH1 0x1F LT PUSH2 0x1A58 JUMPI PUSH2 0x100 DUP1 DUP4 SLOAD DIV MUL DUP4 MSTORE SWAP2 PUSH1 0x20 ADD SWAP2 PUSH2 0x1A83 JUMP JUMPDEST DUP3 ADD SWAP2 SWAP1 PUSH1 0x0 MSTORE PUSH1 0x20 PUSH1 0x0 KECCAK256 SWAP1 JUMPDEST DUP2 SLOAD DUP2 MSTORE SWAP1 PUSH1 0x1 ADD SWAP1 PUSH1 0x20 ADD DUP1 DUP4 GT PUSH2 0x1A66 JUMPI DUP3 SWAP1 SUB PUSH1 0x1F AND DUP3 ADD SWAP2 JUMPDEST POP POP POP POP POP DUP2 MSTORE POP POP DUP2 MSTORE PUSH1 0x20 ADD SWAP1 PUSH1 0x1 ADD SWAP1 PUSH2 0x19AC JUMP JUMPDEST PUSH2 0x1AE0 JUMPI PUSH1 0x40 MLOAD PUSH3 0x461BCD PUSH1 0xE5 SHL DUP2 MSTORE PUSH1 0x20 PUSH1 0x4 DUP3 ADD MSTORE PUSH1 0x16 PUSH1 0x24 DUP3 ADD MSTORE PUSH22 0x151BDAD95B881A5CC81B9BDD081CDD5C1C1BDC9D1959 PUSH1 0x52 SHL PUSH1 0x44 DUP3 ADD MSTORE PUSH1 0x64 ADD PUSH2 0xA09 JUMP JUMPDEST PUSH1 0x0 DUP2 GT PUSH2 0x1B46 JUMPI PUSH1 0x40 MLOAD PUSH3 0x461BCD PUSH1 0xE5 SHL DUP2 MSTORE PUSH1 0x20 PUSH1 0x4 DUP3 ADD MSTORE PUSH1 0x2D PUSH1 0x24 DUP3 ADD MSTORE PUSH32 0x54686520616D6F756E7420746F20737570706C792073686F756C642062652067 PUSH1 0x44 DUP3 ADD MSTORE PUSH13 0x726561746572207468616E203 PUSH1 0x9C SHL PUSH1 0x64 DUP3 ADD MSTORE PUSH1 0x84 ADD PUSH2 0xA09 JUMP JUMPDEST PUSH1 0x40 MLOAD PUSH4 0x70A08231 PUSH1 0xE0 SHL DUP2 MSTORE CALLER PUSH1 0x4 DUP3 ADD MSTORE DUP3 SWAP1 DUP3 SWAP1 PUSH1 0x1 PUSH1 0x1 PUSH1 0xA0 SHL SUB DUP4 AND SWAP1 PUSH4 0x70A08231 SWAP1 PUSH1 0x24 ADD PUSH1 0x20 PUSH1 0x40 MLOAD DUP1 DUP4 SUB DUP2 DUP7 GAS STATICCALL ISZERO DUP1 ISZERO PUSH2 0x1B8E JUMPI RETURNDATASIZE PUSH1 0x0 DUP1 RETURNDATACOPY RETURNDATASIZE PUSH1 0x0 REVERT JUMPDEST POP POP POP POP PUSH1 0x40 MLOAD RETURNDATASIZE PUSH1 0x1F NOT PUSH1 0x1F DUP3 ADD AND DUP3 ADD DUP1 PUSH1 0x40 MSTORE POP DUP2 ADD SWAP1 PUSH2 0x1BB2 SWAP2 SWAP1 PUSH2 0x387A JUMP JUMPDEST LT ISZERO PUSH2 0x1C1A JUMPI PUSH1 0x40 MLOAD PUSH3 0x461BCD PUSH1 0xE5 SHL DUP2 MSTORE PUSH1 0x20 PUSH1 0x4 DUP3 ADD MSTORE PUSH1 0x31 PUSH1 0x24 DUP3 ADD MSTORE PUSH32 0x596F75206861766520696E73756666696369656E7420746F6B656E20746F2073 PUSH1 0x44 DUP3 ADD MSTORE PUSH17 0x1D5C1C1B1E481D1A185D08185B5BDD5B9D PUSH1 0x7A SHL PUSH1 0x64 DUP3 ADD MSTORE PUSH1 0x84 ADD PUSH2 0xA09 JUMP JUMPDEST PUSH1 0x40 MLOAD PUSH4 0x23B872DD PUSH1 0xE0 SHL DUP2 MSTORE CALLER PUSH1 0x4 DUP3 ADD MSTORE ADDRESS PUSH1 0x24 DUP3 ADD MSTORE PUSH1 0x44 DUP2 ADD DUP4 SWAP1 MSTORE PUSH1 0x1 PUSH1 0x1 PUSH1 0xA0 SHL SUB DUP3 AND SWAP1 PUSH4 0x23B872DD SWAP1 PUSH1 0x64 ADD PUSH1 0x20 PUSH1 0x40 MLOAD DUP1 DUP4 SUB DUP2 PUSH1 0x0 DUP8 GAS CALL ISZERO DUP1 ISZERO PUSH2 0x1C6D JUMPI RETURNDATASIZE PUSH1 0x0 DUP1 RETURNDATACOPY RETURNDATASIZE PUSH1 0x0 REVERT JUMPDEST POP POP POP POP PUSH1 0x40 MLOAD RETURNDATASIZE PUSH1 0x1F NOT PUSH1 0x1F DUP3 ADD AND DUP3 ADD DUP1 PUSH1 0x40 MSTORE POP DUP2 ADD SWAP1 PUSH2 0x1C91 SWAP2 SWAP1 PUSH2 0x382B JUMP JUMPDEST POP PUSH1 0x0 DUP1 PUSH2 0x1CF7 CALLER PUSH1 0x1 DUP1 SLOAD DUP1 PUSH1 0x20 MUL PUSH1 0x20 ADD PUSH1 0x40 MLOAD SWAP1 DUP2 ADD PUSH1 0x40 MSTORE DUP1 SWAP3 SWAP2 SWAP1 DUP2 DUP2 MSTORE PUSH1 0x20 ADD DUP3 DUP1 SLOAD DUP1 ISZERO PUSH2 0x1251 JUMPI PUSH1 0x20 MUL DUP3 ADD SWAP2 SWAP1 PUSH1 0x0 MSTORE PUSH1 0x20 PUSH1 0x0 KECCAK256 SWAP1 DUP2 SLOAD PUSH1 0x1 PUSH1 0x1 PUSH1 0xA0 SHL SUB AND DUP2 MSTORE PUSH1 0x1 SWAP1 SWAP2 ADD SWAP1 PUSH1 0x20 ADD DUP1 DUP4 GT PUSH2 0x1233 JUMPI POP POP POP POP POP PUSH2 0x2CBE JUMP JUMPDEST SWAP2 POP SWAP2 POP DUP2 ISZERO PUSH2 0x1D31 JUMPI PUSH2 0x1D2C DUP6 DUP6 DUP4 PUSH1 0x40 MLOAD DUP1 PUSH1 0x40 ADD PUSH1 0x40 MSTORE DUP1 PUSH1 0x7 DUP2 MSTORE PUSH1 0x20 ADD PUSH7 0x6C656E64657273 PUSH1 0xC8 SHL DUP2 MSTORE POP PUSH2 0x2D40 JUMP JUMPDEST PUSH2 0x1DED JUMP JUMPDEST PUSH1 0x1 DUP1 SLOAD DUP1 DUP3 ADD SWAP1 SWAP2 SSTORE PUSH32 0xB10E2D527612073B26EECDFD717E6A320CF44B4AFAC2B0732D9FCBE2B7FA0CF6 ADD DUP1 SLOAD PUSH1 0x1 PUSH1 0x1 PUSH1 0xA0 SHL SUB NOT AND CALLER SWAP1 DUP2 OR SWAP1 SWAP2 SSTORE PUSH1 0x1 PUSH1 0x1 PUSH1 0xA0 SHL SUB DUP7 AND PUSH1 0x0 SWAP1 DUP2 MSTORE PUSH1 0x3 PUSH1 0x20 SWAP1 DUP2 MSTORE PUSH1 0x40 DUP1 DUP4 KECCAK256 SWAP4 DUP4 MSTORE SWAP3 SWAP1 MSTORE SWAP1 DUP2 KECCAK256 DUP6 SWAP1 SSTORE PUSH1 0xC DUP1 SLOAD DUP8 SWAP3 PUSH1 0x5 SWAP3 SWAP1 SWAP2 SWAP1 DUP3 PUSH2 0x1DAD DUP4 PUSH2 0x375D JUMP JUMPDEST SWAP1 SWAP2 SSTORE POP DUP2 MSTORE PUSH1 0x20 DUP1 DUP3 ADD SWAP3 SWAP1 SWAP3 MSTORE PUSH1 0x40 SWAP1 DUP2 ADD PUSH1 0x0 SWAP1 DUP2 KECCAK256 CALLER DUP3 MSTORE SWAP1 SWAP3 MSTORE SWAP1 KECCAK256 DUP1 SLOAD PUSH1 0x1 PUSH1 0x1 PUSH1 0xA0 SHL SUB NOT AND PUSH1 0x1 PUSH1 0x1 PUSH1 0xA0 SHL SUB SWAP3 SWAP1 SWAP3 AND SWAP2 SWAP1 SWAP2 OR SWAP1 SSTORE JUMPDEST PUSH2 0x1DF8 CALLER DUP7 DUP7 PUSH2 0x30D2 JUMP JUMPDEST POP POP POP POP POP JUMP JUMPDEST PUSH1 0x0 DUP1 DUP1 JUMPDEST PUSH1 0xC SLOAD DUP2 LT ISZERO PUSH2 0x845 JUMPI PUSH1 0x0 DUP2 DUP2 MSTORE PUSH1 0x5 PUSH1 0x20 SWAP1 DUP2 MSTORE PUSH1 0x40 DUP1 DUP4 KECCAK256 PUSH1 0x1 PUSH1 0x1 PUSH1 0xA0 SHL SUB DUP1 DUP10 AND DUP6 MSTORE SWAP3 MSTORE SWAP1 SWAP2 KECCAK256 SLOAD AND DUP1 ISZERO PUSH2 0x1E7D JUMPI PUSH1 0x1 PUSH1 0x1 PUSH1 0xA0 SHL SUB DUP1 DUP3 AND PUSH1 0x0 SWAP1 DUP2 MSTORE PUSH1 0x3 PUSH1 0x20 SWAP1 DUP2 MSTORE PUSH1 0x40 DUP1 DUP4 KECCAK256 SWAP4 DUP10 AND DUP4 MSTORE SWAP3 SWAP1 MSTORE SWAP1 DUP2 KECCAK256 SLOAD SWAP1 PUSH2 0x1E6C DUP3 DUP5 PUSH2 0x26FD JUMP JUMPDEST SWAP1 POP PUSH2 0x1E78 DUP2 DUP7 PUSH2 0x3745 JUMP JUMPDEST SWAP5 POP POP POP JUMPDEST POP DUP1 PUSH2 0x1E88 DUP2 PUSH2 0x375D JUMP JUMPDEST SWAP2 POP POP PUSH2 0x1E04 JUMP JUMPDEST PUSH1 0x2 SLOAD PUSH1 0x0 SWAP1 DUP2 SWAP1 ISZERO PUSH2 0x847 JUMPI PUSH1 0x0 JUMPDEST PUSH1 0x2 SLOAD DUP2 LT ISZERO PUSH2 0x845 JUMPI PUSH1 0x0 PUSH1 0x2 DUP3 DUP2 SLOAD DUP2 LT PUSH2 0x1EBF JUMPI PUSH2 0x1EBF PUSH2 0x3719 JUMP JUMPDEST PUSH1 0x0 SWAP2 DUP3 MSTORE PUSH1 0x20 DUP1 DUP4 KECCAK256 SWAP1 SWAP2 ADD SLOAD PUSH1 0x1 PUSH1 0x1 PUSH1 0xA0 SHL SUB DUP9 DUP2 AND DUP5 MSTORE PUSH1 0x4 DUP4 MSTORE PUSH1 0x40 DUP1 DUP6 KECCAK256 SWAP2 SWAP1 SWAP3 AND DUP1 DUP6 MSTORE SWAP3 MSTORE SWAP1 SWAP2 KECCAK256 SLOAD SWAP1 SWAP2 POP PUSH2 0x1EFD SWAP1 DUP5 PUSH2 0x3745 JUMP JUMPDEST SWAP3 POP POP DUP1 DUP1 PUSH2 0x1F0B SWAP1 PUSH2 0x375D JUMP JUMPDEST SWAP2 POP POP PUSH2 0x1EA0 JUMP JUMPDEST PUSH1 0x0 SLOAD PUSH1 0x1 PUSH1 0x1 PUSH1 0xA0 SHL SUB AND CALLER EQ PUSH2 0x1F3D JUMPI PUSH1 0x40 MLOAD PUSH3 0x461BCD PUSH1 0xE5 SHL DUP2 MSTORE PUSH1 0x4 ADD PUSH2 0xA09 SWAP1 PUSH2 0x38AF JUMP JUMPDEST PUSH1 0x1 PUSH1 0x1 PUSH1 0xA0 SHL SUB SWAP2 DUP3 AND PUSH1 0x0 SWAP1 DUP2 MSTORE PUSH1 0x7 PUSH1 0x20 MSTORE PUSH1 0x40 SWAP1 KECCAK256 DUP1 SLOAD PUSH1 0x1 PUSH1 0x1 PUSH1 0xA0 SHL SUB NOT AND SWAP2 SWAP1 SWAP3 AND OR SWAP1 SSTORE JUMP JUMPDEST PUSH1 0x0 SLOAD PUSH1 0x1 PUSH1 0x1 PUSH1 0xA0 SHL SUB AND CALLER EQ PUSH2 0x1F95 JUMPI PUSH1 0x40 MLOAD PUSH3 0x461BCD PUSH1 0xE5 SHL DUP2 MSTORE PUSH1 0x4 ADD PUSH2 0xA09 SWAP1 PUSH2 0x38AF JUMP JUMPDEST PUSH1 0x0 PUSH1 0x40 MLOAD DUP1 PUSH1 0x80 ADD PUSH1 0x40 MSTORE DUP1 DUP6 PUSH1 0x1 PUSH1 0x1 PUSH1 0xA0 SHL SUB AND DUP2 MSTORE PUSH1 0x20 ADD DUP5 DUP2 MSTORE PUSH1 0x20 ADD DUP4 DUP2 MSTORE PUSH1 0x20 ADD DUP7 DUP2 MSTORE POP SWAP1 POP PUSH2 0x20E1 DUP2 PUSH1 0x9 DUP1 SLOAD DUP1 PUSH1 0x20 MUL PUSH1 0x20 ADD PUSH1 0x40 MLOAD SWAP1 DUP2 ADD PUSH1 0x40 MSTORE DUP1 SWAP3 SWAP2 SWAP1 DUP2 DUP2 MSTORE PUSH1 0x20 ADD PUSH1 0x0 SWAP1 JUMPDEST DUP3 DUP3 LT ISZERO PUSH2 0x20D8 JUMPI PUSH1 0x0 DUP5 DUP2 MSTORE PUSH1 0x20 SWAP1 DUP2 SWAP1 KECCAK256 PUSH1 0x40 DUP1 MLOAD PUSH1 0x80 DUP2 ADD DUP3 MSTORE PUSH1 0x4 DUP7 MUL SWAP1 SWAP3 ADD DUP1 SLOAD PUSH1 0x1 PUSH1 0x1 PUSH1 0xA0 SHL SUB AND DUP4 MSTORE PUSH1 0x1 DUP2 ADD SLOAD SWAP4 DUP4 ADD SWAP4 SWAP1 SWAP4 MSTORE PUSH1 0x2 DUP4 ADD SLOAD SWAP1 DUP3 ADD MSTORE PUSH1 0x3 DUP3 ADD DUP1 SLOAD SWAP2 SWAP3 SWAP2 PUSH1 0x60 DUP5 ADD SWAP2 SWAP1 PUSH2 0x2047 SWAP1 PUSH2 0x3778 JUMP JUMPDEST DUP1 PUSH1 0x1F ADD PUSH1 0x20 DUP1 SWAP2 DIV MUL PUSH1 0x20 ADD PUSH1 0x40 MLOAD SWAP1 DUP2 ADD PUSH1 0x40 MSTORE DUP1 SWAP3 SWAP2 SWAP1 DUP2 DUP2 MSTORE PUSH1 0x20 ADD DUP3 DUP1 SLOAD PUSH2 0x2073 SWAP1 PUSH2 0x3778 JUMP JUMPDEST DUP1 ISZERO PUSH2 0x20C0 JUMPI DUP1 PUSH1 0x1F LT PUSH2 0x2095 JUMPI PUSH2 0x100 DUP1 DUP4 SLOAD DIV MUL DUP4 MSTORE SWAP2 PUSH1 0x20 ADD SWAP2 PUSH2 0x20C0 JUMP JUMPDEST DUP3 ADD SWAP2 SWAP1 PUSH1 0x0 MSTORE PUSH1 0x20 PUSH1 0x0 KECCAK256 SWAP1 JUMPDEST DUP2 SLOAD DUP2 MSTORE SWAP1 PUSH1 0x1 ADD SWAP1 PUSH1 0x20 ADD DUP1 DUP4 GT PUSH2 0x20A3 JUMPI DUP3 SWAP1 SUB PUSH1 0x1F AND DUP3 ADD SWAP2 JUMPDEST POP POP POP POP POP DUP2 MSTORE POP POP DUP2 MSTORE PUSH1 0x20 ADD SWAP1 PUSH1 0x1 ADD SWAP1 PUSH2 0x1FE9 JUMP JUMPDEST POP POP POP POP PUSH2 0x3177 JUMP JUMPDEST PUSH2 0x1DF8 JUMPI PUSH1 0x9 DUP1 SLOAD PUSH1 0x1 DUP2 ADD DUP3 SSTORE PUSH1 0x0 SWAP2 SWAP1 SWAP2 MSTORE DUP2 MLOAD PUSH32 0x6E1540171B6C0C960B71A7020D9F60077F6AF931A8BBF590DA0223DACF75C7AF PUSH1 0x4 SWAP1 SWAP3 MUL SWAP2 DUP3 ADD DUP1 SLOAD PUSH1 0x1 PUSH1 0x1 PUSH1 0xA0 SHL SUB NOT AND PUSH1 0x1 PUSH1 0x1 PUSH1 0xA0 SHL SUB SWAP1 SWAP3 AND SWAP2 SWAP1 SWAP2 OR DUP2 SSTORE PUSH1 0x20 DUP1 DUP5 ADD MLOAD PUSH32 0x6E1540171B6C0C960B71A7020D9F60077F6AF931A8BBF590DA0223DACF75C7B0 DUP5 ADD SSTORE PUSH1 0x40 DUP5 ADD MLOAD PUSH32 0x6E1540171B6C0C960B71A7020D9F60077F6AF931A8BBF590DA0223DACF75C7B1 DUP5 ADD SSTORE PUSH1 0x60 DUP5 ADD MLOAD DUP1 MLOAD DUP6 SWAP5 PUSH2 0x21C9 SWAP4 PUSH32 0x6E1540171B6C0C960B71A7020D9F60077F6AF931A8BBF590DA0223DACF75C7B2 SWAP1 SWAP2 ADD SWAP3 ADD SWAP1 PUSH2 0x31EB JUMP JUMPDEST POP POP POP POP POP POP POP POP JUMP JUMPDEST PUSH1 0x60 PUSH1 0xA DUP1 SLOAD DUP1 PUSH1 0x20 MUL PUSH1 0x20 ADD PUSH1 0x40 MLOAD SWAP1 DUP2 ADD PUSH1 0x40 MSTORE DUP1 SWAP3 SWAP2 SWAP1 DUP2 DUP2 MSTORE PUSH1 0x20 ADD PUSH1 0x0 SWAP1 JUMPDEST DUP3 DUP3 LT ISZERO PUSH2 0xE0F JUMPI PUSH1 0x0 DUP5 DUP2 MSTORE PUSH1 0x20 SWAP1 DUP2 SWAP1 KECCAK256 PUSH1 0x40 DUP1 MLOAD PUSH1 0x80 DUP2 ADD DUP3 MSTORE PUSH1 0x4 DUP7 MUL SWAP1 SWAP3 ADD DUP1 SLOAD PUSH1 0x1 PUSH1 0x1 PUSH1 0xA0 SHL SUB AND DUP4 MSTORE PUSH1 0x1 DUP2 ADD SLOAD SWAP4 DUP4 ADD SWAP4 SWAP1 SWAP4 MSTORE PUSH1 0x2 DUP4 ADD SLOAD SWAP1 DUP3 ADD MSTORE PUSH1 0x3 DUP3 ADD DUP1 SLOAD SWAP2 SWAP3 SWAP2 PUSH1 0x60 DUP5 ADD SWAP2 SWAP1 PUSH2 0x2255 SWAP1 PUSH2 0x3778 JUMP JUMPDEST DUP1 PUSH1 0x1F ADD PUSH1 0x20 DUP1 SWAP2 DIV MUL PUSH1 0x20 ADD PUSH1 0x40 MLOAD SWAP1 DUP2 ADD PUSH1 0x40 MSTORE DUP1 SWAP3 SWAP2 SWAP1 DUP2 DUP2 MSTORE PUSH1 0x20 ADD DUP3 DUP1 SLOAD PUSH2 0x2281 SWAP1 PUSH2 0x3778 JUMP JUMPDEST DUP1 ISZERO PUSH2 0x22CE JUMPI DUP1 PUSH1 0x1F LT PUSH2 0x22A3 JUMPI PUSH2 0x100 DUP1 DUP4 SLOAD DIV MUL DUP4 MSTORE SWAP2 PUSH1 0x20 ADD SWAP2 PUSH2 0x22CE JUMP JUMPDEST DUP3 ADD SWAP2 SWAP1 PUSH1 0x0 MSTORE PUSH1 0x20 PUSH1 0x0 KECCAK256 SWAP1 JUMPDEST DUP2 SLOAD DUP2 MSTORE SWAP1 PUSH1 0x1 ADD SWAP1 PUSH1 0x20 ADD DUP1 DUP4 GT PUSH2 0x22B1 JUMPI DUP3 SWAP1 SUB PUSH1 0x1F AND DUP3 ADD SWAP2 JUMPDEST POP POP POP POP POP DUP2 MSTORE POP POP DUP2 MSTORE PUSH1 0x20 ADD SWAP1 PUSH1 0x1 ADD SWAP1 PUSH2 0x21F7 JUMP JUMPDEST PUSH1 0x0 PUSH1 0x0 NOT DUP2 JUMPDEST DUP4 MLOAD DUP2 LT ISZERO PUSH2 0x234B JUMPI PUSH1 0x0 DUP5 DUP3 DUP2 MLOAD DUP2 LT PUSH2 0x230A JUMPI PUSH2 0x230A PUSH2 0x3719 JUMP JUMPDEST PUSH1 0x20 MUL PUSH1 0x20 ADD ADD MLOAD SWAP1 POP DUP6 PUSH1 0x1 PUSH1 0x1 PUSH1 0xA0 SHL SUB AND DUP2 PUSH1 0x1 PUSH1 0x1 PUSH1 0xA0 SHL SUB AND EQ ISZERO PUSH2 0x2338 JUMPI POP SWAP2 POP PUSH2 0x847 SWAP1 POP JUMP JUMPDEST POP DUP1 PUSH2 0x2343 DUP2 PUSH2 0x375D JUMP JUMPDEST SWAP2 POP POP PUSH2 0x22ED JUMP JUMPDEST POP SWAP4 SWAP3 POP POP POP JUMP JUMPDEST PUSH1 0x0 SLOAD PUSH1 0x1 PUSH1 0x1 PUSH1 0xA0 SHL SUB AND CALLER EQ PUSH2 0x237D JUMPI PUSH1 0x40 MLOAD PUSH3 0x461BCD PUSH1 0xE5 SHL DUP2 MSTORE PUSH1 0x4 ADD PUSH2 0xA09 SWAP1 PUSH2 0x38AF JUMP JUMPDEST PUSH1 0x1 PUSH1 0x1 PUSH1 0xA0 SHL SUB DUP2 AND PUSH2 0x23E2 JUMPI PUSH1 0x40 MLOAD PUSH3 0x461BCD PUSH1 0xE5 SHL DUP2 MSTORE PUSH1 0x20 PUSH1 0x4 DUP3 ADD MSTORE PUSH1 0x26 PUSH1 0x24 DUP3 ADD MSTORE PUSH32 0x4F776E61626C653A206E6577206F776E657220697320746865207A65726F2061 PUSH1 0x44 DUP3 ADD MSTORE PUSH6 0x646472657373 PUSH1 0xD0 SHL PUSH1 0x64 DUP3 ADD MSTORE PUSH1 0x84 ADD PUSH2 0xA09 JUMP JUMPDEST PUSH2 0x23EB DUP2 PUSH2 0x3082 JUMP JUMPDEST POP JUMP JUMPDEST PUSH1 0x0 DUP2 GT PUSH2 0x240E JUMPI PUSH1 0x40 MLOAD PUSH3 0x461BCD PUSH1 0xE5 SHL DUP2 MSTORE PUSH1 0x4 ADD PUSH2 0xA09 SWAP1 PUSH2 0x37F4 JUMP JUMPDEST PUSH1 0x0 PUSH2 0x2472 CALLER PUSH1 0x1 DUP1 SLOAD DUP1 PUSH1 0x20 MUL PUSH1 0x20 ADD PUSH1 0x40 MLOAD SWAP1 DUP2 ADD PUSH1 0x40 MSTORE DUP1 SWAP3 SWAP2 SWAP1 DUP2 DUP2 MSTORE PUSH1 0x20 ADD DUP3 DUP1 SLOAD DUP1 ISZERO PUSH2 0xA6E JUMPI PUSH1 0x20 MUL DUP3 ADD SWAP2 SWAP1 PUSH1 0x0 MSTORE PUSH1 0x20 PUSH1 0x0 KECCAK256 SWAP1 DUP2 SLOAD PUSH1 0x1 PUSH1 0x1 PUSH1 0xA0 SHL SUB AND DUP2 MSTORE PUSH1 0x1 SWAP1 SWAP2 ADD SWAP1 PUSH1 0x20 ADD DUP1 DUP4 GT PUSH2 0xA50 JUMPI POP POP POP POP POP PUSH2 0x22E6 JUMP JUMPDEST SWAP1 POP PUSH1 0x0 DUP2 SLT ISZERO PUSH2 0x24DE JUMPI PUSH1 0x40 MLOAD PUSH3 0x461BCD PUSH1 0xE5 SHL DUP2 MSTORE PUSH1 0x20 PUSH1 0x4 DUP3 ADD MSTORE PUSH1 0x30 PUSH1 0x24 DUP3 ADD MSTORE PUSH32 0x557365722061646472657373206973206E6F7420666F756E6420696E20746865 PUSH1 0x44 DUP3 ADD MSTORE PUSH16 0x206C697374206F66206C656E64657273 PUSH1 0x80 SHL PUSH1 0x64 DUP3 ADD MSTORE PUSH1 0x84 ADD PUSH2 0xA09 JUMP JUMPDEST PUSH1 0x1 PUSH1 0x1 PUSH1 0xA0 SHL SUB DUP4 AND PUSH1 0x0 SWAP1 DUP2 MSTORE PUSH1 0x3 PUSH1 0x20 SWAP1 DUP2 MSTORE PUSH1 0x40 DUP1 DUP4 KECCAK256 CALLER DUP5 MSTORE SWAP1 SWAP2 MSTORE SWAP1 KECCAK256 SLOAD DUP4 SWAP1 DUP4 DUP2 LT ISZERO PUSH2 0x2511 JUMPI PUSH1 0x0 DUP1 REVERT JUMPDEST PUSH1 0x0 PUSH2 0x251D DUP6 DUP8 PUSH2 0x26FD JUMP JUMPDEST PUSH1 0xB SLOAD PUSH1 0x40 MLOAD PUSH4 0x23B872DD PUSH1 0xE0 SHL DUP2 MSTORE CALLER PUSH1 0x4 DUP3 ADD MSTORE ADDRESS PUSH1 0x24 DUP3 ADD MSTORE PUSH1 0x44 DUP2 ADD DUP4 SWAP1 MSTORE SWAP2 SWAP3 POP PUSH1 0x1 PUSH1 0x1 PUSH1 0xA0 SHL SUB AND SWAP1 PUSH4 0x23B872DD SWAP1 PUSH1 0x64 ADD PUSH1 0x20 PUSH1 0x40 MLOAD DUP1 DUP4 SUB DUP2 PUSH1 0x0 DUP8 GAS CALL ISZERO DUP1 ISZERO PUSH2 0x2575 JUMPI RETURNDATASIZE PUSH1 0x0 DUP1 RETURNDATACOPY RETURNDATASIZE PUSH1 0x0 REVERT JUMPDEST POP POP POP POP PUSH1 0x40 MLOAD RETURNDATASIZE PUSH1 0x1F NOT PUSH1 0x1F DUP3 ADD AND DUP3 ADD DUP1 PUSH1 0x40 MSTORE POP DUP2 ADD SWAP1 PUSH2 0x2599 SWAP2 SWAP1 PUSH2 0x382B JUMP JUMPDEST POP PUSH1 0x40 MLOAD PUSH4 0xA9059CBB PUSH1 0xE0 SHL DUP2 MSTORE CALLER PUSH1 0x4 DUP3 ADD MSTORE PUSH1 0x24 DUP2 ADD DUP7 SWAP1 MSTORE PUSH1 0x1 PUSH1 0x1 PUSH1 0xA0 SHL SUB DUP5 AND SWAP1 PUSH4 0xA9059CBB SWAP1 PUSH1 0x44 ADD PUSH1 0x20 PUSH1 0x40 MLOAD DUP1 DUP4 SUB DUP2 PUSH1 0x0 DUP8 GAS CALL ISZERO DUP1 ISZERO PUSH2 0x25E7 JUMPI RETURNDATASIZE PUSH1 0x0 DUP1 RETURNDATACOPY RETURNDATASIZE PUSH1 0x0 REVERT JUMPDEST POP POP POP POP PUSH1 0x40 MLOAD RETURNDATASIZE PUSH1 0x1F NOT PUSH1 0x1F DUP3 ADD AND DUP3 ADD DUP1 PUSH1 0x40 MSTORE POP DUP2 ADD SWAP1 PUSH2 0x260B SWAP2 SWAP1 PUSH2 0x382B JUMP JUMPDEST POP PUSH1 0x1 PUSH1 0x1 PUSH1 0xA0 SHL SUB DUP7 AND PUSH1 0x0 SWAP1 DUP2 MSTORE PUSH1 0x3 PUSH1 0x20 SWAP1 DUP2 MSTORE PUSH1 0x40 DUP1 DUP4 KECCAK256 CALLER DUP5 MSTORE SWAP1 SWAP2 MSTORE SWAP1 KECCAK256 SLOAD PUSH2 0x263B SWAP1 DUP7 SWAP1 PUSH2 0x384D JUMP JUMPDEST PUSH1 0x1 PUSH1 0x1 PUSH1 0xA0 SHL SUB DUP8 AND PUSH1 0x0 SWAP1 DUP2 MSTORE PUSH1 0x3 PUSH1 0x20 SWAP1 DUP2 MSTORE PUSH1 0x40 DUP1 DUP4 KECCAK256 CALLER DUP1 DUP6 MSTORE SWAP3 MSTORE DUP3 KECCAK256 SWAP3 SWAP1 SWAP3 SSTORE SWAP1 PUSH2 0x266C SWAP1 PUSH2 0x1DFF JUMP JUMPDEST SWAP1 POP DUP1 PUSH2 0xCF3 JUMPI PUSH1 0x1 DUP1 SLOAD PUSH2 0x2682 SWAP1 DUP3 SWAP1 PUSH2 0x384D JUMP JUMPDEST DUP2 SLOAD DUP2 LT PUSH2 0x2692 JUMPI PUSH2 0x2692 PUSH2 0x3719 JUMP JUMPDEST PUSH1 0x0 SWAP2 DUP3 MSTORE PUSH1 0x20 SWAP1 SWAP2 KECCAK256 ADD SLOAD PUSH1 0x1 DUP1 SLOAD PUSH1 0x1 PUSH1 0x1 PUSH1 0xA0 SHL SUB SWAP1 SWAP3 AND SWAP2 DUP8 SWAP1 DUP2 LT PUSH2 0x26BE JUMPI PUSH2 0x26BE PUSH2 0x3719 JUMP JUMPDEST SWAP1 PUSH1 0x0 MSTORE PUSH1 0x20 PUSH1 0x0 KECCAK256 ADD PUSH1 0x0 PUSH2 0x100 EXP DUP2 SLOAD DUP2 PUSH1 0x1 PUSH1 0x1 PUSH1 0xA0 SHL SUB MUL NOT AND SWAP1 DUP4 PUSH1 0x1 PUSH1 0x1 PUSH1 0xA0 SHL SUB AND MUL OR SWAP1 SSTORE POP PUSH1 0x1 DUP1 SLOAD DUP1 PUSH2 0xCD0 JUMPI PUSH2 0xCD0 PUSH2 0x3864 JUMP JUMPDEST PUSH1 0x0 DUP1 PUSH1 0x0 PUSH2 0x270B DUP5 PUSH2 0x28ED JUMP JUMPDEST SWAP1 SWAP3 POP SWAP1 POP PUSH1 0x0 PUSH2 0x271D DUP3 PUSH1 0xA PUSH2 0x39C8 JUMP JUMPDEST PUSH2 0x2727 DUP5 DUP9 PUSH2 0x37B3 JUMP JUMPDEST PUSH2 0x2731 SWAP2 SWAP1 PUSH2 0x37D2 JUMP JUMPDEST SWAP7 SWAP6 POP POP POP POP POP POP JUMP JUMPDEST PUSH2 0x276F PUSH1 0x40 MLOAD DUP1 PUSH1 0x80 ADD PUSH1 0x40 MSTORE DUP1 PUSH1 0x0 PUSH1 0x1 PUSH1 0x1 PUSH1 0xA0 SHL SUB AND DUP2 MSTORE PUSH1 0x20 ADD PUSH1 0x0 DUP2 MSTORE PUSH1 0x20 ADD PUSH1 0x0 DUP2 MSTORE PUSH1 0x20 ADD PUSH1 0x60 DUP2 MSTORE POP SWAP1 JUMP JUMPDEST PUSH2 0x27A3 PUSH1 0x40 MLOAD DUP1 PUSH1 0x80 ADD PUSH1 0x40 MSTORE DUP1 PUSH1 0x0 PUSH1 0x1 PUSH1 0x1 PUSH1 0xA0 SHL SUB AND DUP2 MSTORE PUSH1 0x20 ADD PUSH1 0x0 DUP2 MSTORE PUSH1 0x20 ADD PUSH1 0x0 DUP2 MSTORE PUSH1 0x20 ADD PUSH1 0x60 DUP2 MSTORE POP SWAP1 JUMP JUMPDEST PUSH1 0x0 JUMPDEST PUSH1 0xA SLOAD DUP2 LT ISZERO PUSH2 0x845 JUMPI PUSH1 0x0 PUSH1 0xA DUP3 DUP2 SLOAD DUP2 LT PUSH2 0x27C5 JUMPI PUSH2 0x27C5 PUSH2 0x3719 JUMP JUMPDEST SWAP1 PUSH1 0x0 MSTORE PUSH1 0x20 PUSH1 0x0 KECCAK256 SWAP1 PUSH1 0x4 MUL ADD PUSH1 0x40 MLOAD DUP1 PUSH1 0x80 ADD PUSH1 0x40 MSTORE SWAP1 DUP2 PUSH1 0x0 DUP3 ADD PUSH1 0x0 SWAP1 SLOAD SWAP1 PUSH2 0x100 EXP SWAP1 DIV PUSH1 0x1 PUSH1 0x1 PUSH1 0xA0 SHL SUB AND PUSH1 0x1 PUSH1 0x1 PUSH1 0xA0 SHL SUB AND PUSH1 0x1 PUSH1 0x1 PUSH1 0xA0 SHL SUB AND DUP2 MSTORE PUSH1 0x20 ADD PUSH1 0x1 DUP3 ADD SLOAD DUP2 MSTORE PUSH1 0x20 ADD PUSH1 0x2 DUP3 ADD SLOAD DUP2 MSTORE PUSH1 0x20 ADD PUSH1 0x3 DUP3 ADD DUP1 SLOAD PUSH2 0x2831 SWAP1 PUSH2 0x3778 JUMP JUMPDEST DUP1 PUSH1 0x1F ADD PUSH1 0x20 DUP1 SWAP2 DIV MUL PUSH1 0x20 ADD PUSH1 0x40 MLOAD SWAP1 DUP2 ADD PUSH1 0x40 MSTORE DUP1 SWAP3 SWAP2 SWAP1 DUP2 DUP2 MSTORE PUSH1 0x20 ADD DUP3 DUP1 SLOAD PUSH2 0x285D SWAP1 PUSH2 0x3778 JUMP JUMPDEST DUP1 ISZERO PUSH2 0x28AA JUMPI DUP1 PUSH1 0x1F LT PUSH2 0x287F JUMPI PUSH2 0x100 DUP1 DUP4 SLOAD DIV MUL DUP4 MSTORE SWAP2 PUSH1 0x20 ADD SWAP2 PUSH2 0x28AA JUMP JUMPDEST DUP3 ADD SWAP2 SWAP1 PUSH1 0x0 MSTORE PUSH1 0x20 PUSH1 0x0 KECCAK256 SWAP1 JUMPDEST DUP2 SLOAD DUP2 MSTORE SWAP1 PUSH1 0x1 ADD SWAP1 PUSH1 0x20 ADD DUP1 DUP4 GT PUSH2 0x288D JUMPI DUP3 SWAP1 SUB PUSH1 0x1F AND DUP3 ADD SWAP2 JUMPDEST POP POP POP POP POP DUP2 MSTORE POP POP SWAP1 POP DUP5 PUSH1 0x1 PUSH1 0x1 PUSH1 0xA0 SHL SUB AND DUP2 PUSH1 0x0 ADD MLOAD PUSH1 0x1 PUSH1 0x1 PUSH1 0xA0 SHL SUB AND EQ ISZERO PUSH2 0x28DA JUMPI SWAP2 POP PUSH2 0x845 JUMP JUMPDEST POP DUP1 PUSH2 0x28E5 DUP2 PUSH2 0x375D JUMP JUMPDEST SWAP2 POP POP PUSH2 0x27A6 JUMP JUMPDEST PUSH1 0x1 PUSH1 0x1 PUSH1 0xA0 SHL SUB DUP1 DUP3 AND PUSH1 0x0 SWAP1 DUP2 MSTORE PUSH1 0x7 PUSH1 0x20 MSTORE PUSH1 0x40 DUP1 DUP3 KECCAK256 SLOAD DUP2 MLOAD PUSH4 0x3FABE5A3 PUSH1 0xE2 SHL DUP2 MSTORE SWAP2 MLOAD SWAP3 SWAP4 DUP5 SWAP4 SWAP2 AND SWAP2 DUP3 SWAP2 DUP5 SWAP2 DUP4 SWAP2 PUSH4 0xFEAF968C SWAP2 PUSH1 0x4 DUP1 DUP3 ADD SWAP3 PUSH1 0xA0 SWAP3 SWAP1 SWAP2 SWAP1 DUP3 SWAP1 SUB ADD DUP2 DUP7 GAS STATICCALL ISZERO DUP1 ISZERO PUSH2 0x294E JUMPI RETURNDATASIZE PUSH1 0x0 DUP1 RETURNDATACOPY RETURNDATASIZE PUSH1 0x0 REVERT JUMPDEST POP POP POP POP PUSH1 0x40 MLOAD RETURNDATASIZE PUSH1 0x1F NOT PUSH1 0x1F DUP3 ADD AND DUP3 ADD DUP1 PUSH1 0x40 MSTORE POP DUP2 ADD SWAP1 PUSH2 0x2972 SWAP2 SWAP1 PUSH2 0x39EE JUMP JUMPDEST POP POP POP SWAP2 POP POP PUSH1 0x0 DUP3 PUSH1 0x1 PUSH1 0x1 PUSH1 0xA0 SHL SUB AND PUSH4 0x313CE567 PUSH1 0x40 MLOAD DUP2 PUSH4 0xFFFFFFFF AND PUSH1 0xE0 SHL DUP2 MSTORE PUSH1 0x4 ADD PUSH1 0x20 PUSH1 0x40 MLOAD DUP1 DUP4 SUB DUP2 DUP7 GAS STATICCALL ISZERO DUP1 ISZERO PUSH2 0x29B8 JUMPI RETURNDATASIZE PUSH1 0x0 DUP1 RETURNDATACOPY RETURNDATASIZE PUSH1 0x0 REVERT JUMPDEST POP POP POP POP PUSH1 0x40 MLOAD RETURNDATASIZE PUSH1 0x1F NOT PUSH1 0x1F DUP3 ADD AND DUP3 ADD DUP1 PUSH1 0x40 MSTORE POP DUP2 ADD SWAP1 PUSH2 0x29DC SWAP2 SWAP1 PUSH2 0x3A3E JUMP JUMPDEST SWAP2 SWAP8 PUSH1 0xFF SWAP1 SWAP3 AND SWAP7 POP SWAP1 SWAP5 POP POP POP POP POP JUMP JUMPDEST PUSH1 0x0 SLOAD PUSH1 0x1 PUSH1 0x1 PUSH1 0xA0 SHL SUB AND CALLER EQ PUSH2 0x2A18 JUMPI PUSH1 0x40 MLOAD PUSH3 0x461BCD PUSH1 0xE5 SHL DUP2 MSTORE PUSH1 0x4 ADD PUSH2 0xA09 SWAP1 PUSH2 0x38AF JUMP JUMPDEST PUSH1 0x0 PUSH1 0x40 MLOAD DUP1 PUSH1 0x80 ADD PUSH1 0x40 MSTORE DUP1 DUP6 PUSH1 0x1 PUSH1 0x1 PUSH1 0xA0 SHL SUB AND DUP2 MSTORE PUSH1 0x20 ADD DUP5 DUP2 MSTORE PUSH1 0x20 ADD DUP4 DUP2 MSTORE PUSH1 0x20 ADD DUP7 DUP2 MSTORE POP SWAP1 POP PUSH2 0x2B5B DUP2 PUSH1 0xA DUP1 SLOAD DUP1 PUSH1 0x20 MUL PUSH1 0x20 ADD PUSH1 0x40 MLOAD SWAP1 DUP2 ADD PUSH1 0x40 MSTORE DUP1 SWAP3 SWAP2 SWAP1 DUP2 DUP2 MSTORE PUSH1 0x20 ADD PUSH1 0x0 SWAP1 JUMPDEST DUP3 DUP3 LT ISZERO PUSH2 0x20D8 JUMPI PUSH1 0x0 DUP5 DUP2 MSTORE PUSH1 0x20 SWAP1 DUP2 SWAP1 KECCAK256 PUSH1 0x40 DUP1 MLOAD PUSH1 0x80 DUP2 ADD DUP3 MSTORE PUSH1 0x4 DUP7 MUL SWAP1 SWAP3 ADD DUP1 SLOAD PUSH1 0x1 PUSH1 0x1 PUSH1 0xA0 SHL SUB AND DUP4 MSTORE PUSH1 0x1 DUP2 ADD SLOAD SWAP4 DUP4 ADD SWAP4 SWAP1 SWAP4 MSTORE PUSH1 0x2 DUP4 ADD SLOAD SWAP1 DUP3 ADD MSTORE PUSH1 0x3 DUP3 ADD DUP1 SLOAD SWAP2 SWAP3 SWAP2 PUSH1 0x60 DUP5 ADD SWAP2 SWAP1 PUSH2 0x2ACA SWAP1 PUSH2 0x3778 JUMP JUMPDEST DUP1 PUSH1 0x1F ADD PUSH1 0x20 DUP1 SWAP2 DIV MUL PUSH1 0x20 ADD PUSH1 0x40 MLOAD SWAP1 DUP2 ADD PUSH1 0x40 MSTORE DUP1 SWAP3 SWAP2 SWAP1 DUP2 DUP2 MSTORE PUSH1 0x20 ADD DUP3 DUP1 SLOAD PUSH2 0x2AF6 SWAP1 PUSH2 0x3778 JUMP JUMPDEST DUP1 ISZERO PUSH2 0x2B43 JUMPI DUP1 PUSH1 0x1F LT PUSH2 0x2B18 JUMPI PUSH2 0x100 DUP1 DUP4 SLOAD DIV MUL DUP4 MSTORE SWAP2 PUSH1 0x20 ADD SWAP2 PUSH2 0x2B43 JUMP JUMPDEST DUP3 ADD SWAP2 SWAP1 PUSH1 0x0 MSTORE PUSH1 0x20 PUSH1 0x0 KECCAK256 SWAP1 JUMPDEST DUP2 SLOAD DUP2 MSTORE SWAP1 PUSH1 0x1 ADD SWAP1 PUSH1 0x20 ADD DUP1 DUP4 GT PUSH2 0x2B26 JUMPI DUP3 SWAP1 SUB PUSH1 0x1F AND DUP3 ADD SWAP2 JUMPDEST POP POP POP POP POP DUP2 MSTORE POP POP DUP2 MSTORE PUSH1 0x20 ADD SWAP1 PUSH1 0x1 ADD SWAP1 PUSH2 0x2A6C JUMP JUMPDEST PUSH2 0x1DF8 JUMPI PUSH1 0xA DUP1 SLOAD PUSH1 0x1 DUP2 ADD DUP3 SSTORE PUSH1 0x0 SWAP2 SWAP1 SWAP2 MSTORE DUP2 MLOAD PUSH32 0xC65A7BB8D6351C1CF70C95A316CC6A92839C986682D98BC35F958F4883F9D2A8 PUSH1 0x4 SWAP1 SWAP3 MUL SWAP2 DUP3 ADD DUP1 SLOAD PUSH1 0x1 PUSH1 0x1 PUSH1 0xA0 SHL SUB NOT AND PUSH1 0x1 PUSH1 0x1 PUSH1 0xA0 SHL SUB SWAP1 SWAP3 AND SWAP2 SWAP1 SWAP2 OR DUP2 SSTORE PUSH1 0x20 DUP1 DUP5 ADD MLOAD PUSH32 0xC65A7BB8D6351C1CF70C95A316CC6A92839C986682D98BC35F958F4883F9D2A9 DUP5 ADD SSTORE PUSH1 0x40 DUP5 ADD MLOAD PUSH32 0xC65A7BB8D6351C1CF70C95A316CC6A92839C986682D98BC35F958F4883F9D2AA DUP5 ADD SSTORE PUSH1 0x60 DUP5 ADD MLOAD DUP1 MLOAD DUP6 SWAP5 PUSH2 0x21C9 SWAP4 PUSH32 0xC65A7BB8D6351C1CF70C95A316CC6A92839C986682D98BC35F958F4883F9D2AB SWAP1 SWAP2 ADD SWAP3 ADD SWAP1 PUSH2 0x31EB JUMP JUMPDEST DUP1 MLOAD PUSH1 0x0 SWAP1 ISZERO PUSH2 0x2CB5 JUMPI PUSH1 0x0 JUMPDEST DUP3 MLOAD DUP2 LT ISZERO PUSH2 0x2CB3 JUMPI PUSH1 0x0 DUP4 DUP3 DUP2 MLOAD DUP2 LT PUSH2 0x2C6D JUMPI PUSH2 0x2C6D PUSH2 0x3719 JUMP JUMPDEST PUSH1 0x20 MUL PUSH1 0x20 ADD ADD MLOAD SWAP1 POP DUP5 PUSH1 0x1 PUSH1 0x1 PUSH1 0xA0 SHL SUB AND DUP2 PUSH1 0x0 ADD MLOAD PUSH1 0x1 PUSH1 0x1 PUSH1 0xA0 SHL SUB AND EQ ISZERO PUSH2 0x2CA0 JUMPI PUSH1 0x1 SWAP3 POP POP POP PUSH2 0x847 JUMP JUMPDEST POP DUP1 PUSH2 0x2CAB DUP2 PUSH2 0x375D JUMP JUMPDEST SWAP2 POP POP PUSH2 0x2C50 JUMP JUMPDEST POP JUMPDEST POP PUSH1 0x0 SWAP3 SWAP2 POP POP JUMP JUMPDEST PUSH1 0x0 DUP1 PUSH1 0x0 DUP4 MLOAD GT ISZERO PUSH2 0x2D30 JUMPI PUSH1 0x0 JUMPDEST DUP4 MLOAD DUP2 LT ISZERO PUSH2 0x2D2E JUMPI PUSH1 0x0 DUP5 DUP3 DUP2 MLOAD DUP2 LT PUSH2 0x2CEB JUMPI PUSH2 0x2CEB PUSH2 0x3719 JUMP JUMPDEST PUSH1 0x20 MUL PUSH1 0x20 ADD ADD MLOAD SWAP1 POP DUP6 PUSH1 0x1 PUSH1 0x1 PUSH1 0xA0 SHL SUB AND DUP2 PUSH1 0x1 PUSH1 0x1 PUSH1 0xA0 SHL SUB AND EQ ISZERO PUSH2 0x2D1B JUMPI POP PUSH1 0x1 SWAP3 POP SWAP1 POP PUSH2 0x2D39 JUMP JUMPDEST POP DUP1 PUSH2 0x2D26 DUP2 PUSH2 0x375D JUMP JUMPDEST SWAP2 POP POP PUSH2 0x2CCE JUMP JUMPDEST POP JUMPDEST POP PUSH1 0x0 SWAP1 POP PUSH1 0x0 NOT JUMPDEST SWAP3 POP SWAP3 SWAP1 POP JUMP JUMPDEST PUSH1 0x40 MLOAD PUSH7 0x6C656E64657273 PUSH1 0xC8 SHL PUSH1 0x20 DUP3 ADD MSTORE PUSH1 0x27 ADD PUSH1 0x40 MLOAD PUSH1 0x20 DUP2 DUP4 SUB SUB DUP2 MSTORE SWAP1 PUSH1 0x40 MSTORE DUP1 MLOAD SWAP1 PUSH1 0x20 ADD KECCAK256 DUP2 PUSH1 0x40 MLOAD PUSH1 0x20 ADD PUSH2 0x2D7D SWAP2 SWAP1 PUSH2 0x3893 JUMP JUMPDEST PUSH1 0x40 MLOAD PUSH1 0x20 DUP2 DUP4 SUB SUB DUP2 MSTORE SWAP1 PUSH1 0x40 MSTORE DUP1 MLOAD SWAP1 PUSH1 0x20 ADD KECCAK256 EQ ISZERO PUSH2 0x2EDD JUMPI PUSH1 0x0 PUSH1 0x1 DUP4 DUP2 SLOAD DUP2 LT PUSH2 0x2DAE JUMPI PUSH2 0x2DAE PUSH2 0x3719 JUMP JUMPDEST SWAP1 PUSH1 0x0 MSTORE PUSH1 0x20 PUSH1 0x0 KECCAK256 ADD PUSH1 0x0 SWAP1 SLOAD SWAP1 PUSH2 0x100 EXP SWAP1 DIV PUSH1 0x1 PUSH1 0x1 PUSH1 0xA0 SHL SUB AND SWAP1 POP PUSH1 0x0 PUSH2 0x2E00 DUP3 DUP8 PUSH1 0xC SLOAD PUSH1 0x40 MLOAD DUP1 PUSH1 0x40 ADD PUSH1 0x40 MSTORE DUP1 PUSH1 0xA DUP2 MSTORE PUSH1 0x20 ADD PUSH10 0x1D1BDAD95B9CD3195B9D PUSH1 0xB2 SHL DUP2 MSTORE POP PUSH2 0x135C JUMP JUMPDEST SWAP1 POP DUP1 ISZERO PUSH2 0x2E64 JUMPI PUSH1 0x1 PUSH1 0x1 PUSH1 0xA0 SHL SUB DUP1 DUP8 AND PUSH1 0x0 SWAP1 DUP2 MSTORE PUSH1 0x3 PUSH1 0x20 SWAP1 DUP2 MSTORE PUSH1 0x40 DUP1 DUP4 KECCAK256 SWAP4 DUP7 AND DUP4 MSTORE SWAP3 SWAP1 MSTORE KECCAK256 SLOAD PUSH2 0x2E39 SWAP1 DUP7 SWAP1 PUSH2 0x3745 JUMP JUMPDEST PUSH1 0x1 PUSH1 0x1 PUSH1 0xA0 SHL SUB DUP1 DUP9 AND PUSH1 0x0 SWAP1 DUP2 MSTORE PUSH1 0x3 PUSH1 0x20 SWAP1 DUP2 MSTORE PUSH1 0x40 DUP1 DUP4 KECCAK256 SWAP4 DUP8 AND DUP4 MSTORE SWAP3 SWAP1 MSTORE KECCAK256 SSTORE PUSH2 0x2ED6 JUMP JUMPDEST PUSH1 0xC DUP1 SLOAD DUP8 SWAP2 PUSH1 0x5 SWAP2 PUSH1 0x0 SWAP2 DUP3 PUSH2 0x2E7A DUP4 PUSH2 0x375D JUMP JUMPDEST SWAP1 SWAP2 SSTORE POP DUP2 MSTORE PUSH1 0x20 DUP1 DUP3 ADD SWAP3 SWAP1 SWAP3 MSTORE PUSH1 0x40 SWAP1 DUP2 ADD PUSH1 0x0 SWAP1 DUP2 KECCAK256 PUSH1 0x1 PUSH1 0x1 PUSH1 0xA0 SHL SUB DUP8 DUP2 AND DUP1 DUP5 MSTORE SWAP2 DUP6 MSTORE DUP4 DUP4 KECCAK256 DUP1 SLOAD PUSH1 0x1 PUSH1 0x1 PUSH1 0xA0 SHL SUB NOT AND SWAP7 DUP3 AND SWAP7 SWAP1 SWAP7 OR SWAP1 SWAP6 SSTORE SWAP4 DUP11 AND DUP2 MSTORE PUSH1 0x3 DUP4 MSTORE DUP2 DUP2 KECCAK256 SWAP4 DUP2 MSTORE SWAP3 SWAP1 SWAP2 MSTORE SWAP1 KECCAK256 DUP6 SWAP1 SSTORE JUMPDEST POP POP PUSH2 0x307C JUMP JUMPDEST PUSH1 0x40 MLOAD PUSH9 0x626F72726F77657273 PUSH1 0xB8 SHL PUSH1 0x20 DUP3 ADD MSTORE PUSH1 0x29 ADD PUSH1 0x40 MLOAD PUSH1 0x20 DUP2 DUP4 SUB SUB DUP2 MSTORE SWAP1 PUSH1 0x40 MSTORE DUP1 MLOAD SWAP1 PUSH1 0x20 ADD KECCAK256 DUP2 PUSH1 0x40 MLOAD PUSH1 0x20 ADD PUSH2 0x2F1C SWAP2 SWAP1 PUSH2 0x3893 JUMP JUMPDEST PUSH1 0x40 MLOAD PUSH1 0x20 DUP2 DUP4 SUB SUB DUP2 MSTORE SWAP1 PUSH1 0x40 MSTORE DUP1 MLOAD SWAP1 PUSH1 0x20 ADD KECCAK256 EQ ISZERO PUSH2 0x307C JUMPI PUSH1 0x0 PUSH1 0x2 DUP4 DUP2 SLOAD DUP2 LT PUSH2 0x2F4D JUMPI PUSH2 0x2F4D PUSH2 0x3719 JUMP JUMPDEST SWAP1 PUSH1 0x0 MSTORE PUSH1 0x20 PUSH1 0x0 KECCAK256 ADD PUSH1 0x0 SWAP1 SLOAD SWAP1 PUSH2 0x100 EXP SWAP1 DIV PUSH1 0x1 PUSH1 0x1 PUSH1 0xA0 SHL SUB AND SWAP1 POP PUSH1 0x0 PUSH2 0x2FA3 DUP3 DUP8 PUSH1 0xD SLOAD PUSH1 0x40 MLOAD DUP1 PUSH1 0x40 ADD PUSH1 0x40 MSTORE DUP1 PUSH1 0xE DUP2 MSTORE PUSH1 0x20 ADD PUSH14 0x1D1BDAD95B9CD09BDC9C9BDDD959 PUSH1 0x92 SHL DUP2 MSTORE POP PUSH2 0x135C JUMP JUMPDEST SWAP1 POP DUP1 ISZERO PUSH2 0x3007 JUMPI PUSH1 0x1 PUSH1 0x1 PUSH1 0xA0 SHL SUB DUP1 DUP8 AND PUSH1 0x0 SWAP1 DUP2 MSTORE PUSH1 0x4 PUSH1 0x20 SWAP1 DUP2 MSTORE PUSH1 0x40 DUP1 DUP4 KECCAK256 SWAP4 DUP7 AND DUP4 MSTORE SWAP3 SWAP1 MSTORE KECCAK256 SLOAD PUSH2 0x2FDC SWAP1 DUP7 SWAP1 PUSH2 0x3745 JUMP JUMPDEST PUSH1 0x1 PUSH1 0x1 PUSH1 0xA0 SHL SUB DUP1 DUP9 AND PUSH1 0x0 SWAP1 DUP2 MSTORE PUSH1 0x4 PUSH1 0x20 SWAP1 DUP2 MSTORE PUSH1 0x40 DUP1 DUP4 KECCAK256 SWAP4 DUP8 AND DUP4 MSTORE SWAP3 SWAP1 MSTORE KECCAK256 SSTORE PUSH2 0x3079 JUMP JUMPDEST PUSH1 0xD DUP1 SLOAD DUP8 SWAP2 PUSH1 0x6 SWAP2 PUSH1 0x0 SWAP2 DUP3 PUSH2 0x301D DUP4 PUSH2 0x375D JUMP JUMPDEST SWAP1 SWAP2 SSTORE POP DUP2 MSTORE PUSH1 0x20 DUP1 DUP3 ADD SWAP3 SWAP1 SWAP3 MSTORE PUSH1 0x40 SWAP1 DUP2 ADD PUSH1 0x0 SWAP1 DUP2 KECCAK256 PUSH1 0x1 PUSH1 0x1 PUSH1 0xA0 SHL SUB DUP8 DUP2 AND DUP1 DUP5 MSTORE SWAP2 DUP6 MSTORE DUP4 DUP4 KECCAK256 DUP1 SLOAD PUSH1 0x1 PUSH1 0x1 PUSH1 0xA0 SHL SUB NOT AND SWAP7 DUP3 AND SWAP7 SWAP1 SWAP7 OR SWAP1 SWAP6 SSTORE SWAP4 DUP11 AND DUP2 MSTORE PUSH1 0x4 DUP4 MSTORE DUP2 DUP2 KECCAK256 SWAP4 DUP2 MSTORE SWAP3 SWAP1 SWAP2 MSTORE SWAP1 KECCAK256 DUP6 SWAP1 SSTORE JUMPDEST POP POP JUMPDEST POP POP POP POP JUMP JUMPDEST PUSH1 0x0 DUP1 SLOAD PUSH1 0x1 PUSH1 0x1 PUSH1 0xA0 SHL SUB DUP4 DUP2 AND PUSH1 0x1 PUSH1 0x1 PUSH1 0xA0 SHL SUB NOT DUP4 AND DUP2 OR DUP5 SSTORE PUSH1 0x40 MLOAD SWAP2 SWAP1 SWAP3 AND SWAP3 DUP4 SWAP2 PUSH32 0x8BE0079C531659141344CD1FD0A4F28419497F9722A3DAAFE3B4186F6B6457E0 SWAP2 SWAP1 LOG3 POP POP JUMP JUMPDEST PUSH1 0x0 DUP2 GT PUSH2 0x30F2 JUMPI PUSH1 0x40 MLOAD PUSH3 0x461BCD PUSH1 0xE5 SHL DUP2 MSTORE PUSH1 0x4 ADD PUSH2 0xA09 SWAP1 PUSH2 0x37F4 JUMP JUMPDEST PUSH1 0x0 PUSH2 0x30FE DUP3 DUP5 PUSH2 0x26FD JUMP JUMPDEST PUSH1 0xB SLOAD PUSH1 0x40 MLOAD PUSH4 0xA9059CBB PUSH1 0xE0 SHL DUP2 MSTORE PUSH1 0x1 PUSH1 0x1 PUSH1 0xA0 SHL SUB DUP8 DUP2 AND PUSH1 0x4 DUP4 ADD MSTORE PUSH1 0x24 DUP3 ADD DUP5 SWAP1 MSTORE SWAP3 SWAP4 POP SWAP2 AND SWAP1 PUSH4 0xA9059CBB SWAP1 PUSH1 0x44 ADD PUSH1 0x20 PUSH1 0x40 MLOAD DUP1 DUP4 SUB DUP2 PUSH1 0x0 DUP8 GAS CALL ISZERO DUP1 ISZERO PUSH2 0x3153 JUMPI RETURNDATASIZE PUSH1 0x0 DUP1 RETURNDATACOPY RETURNDATASIZE PUSH1 0x0 REVERT JUMPDEST POP POP POP POP PUSH1 0x40 MLOAD RETURNDATASIZE PUSH1 0x1F NOT PUSH1 0x1F DUP3 ADD AND DUP3 ADD DUP1 PUSH1 0x40 MSTORE POP DUP2 ADD SWAP1 PUSH2 0x1DF8 SWAP2 SWAP1 PUSH2 0x382B JUMP JUMPDEST DUP1 MLOAD PUSH1 0x0 SWAP1 ISZERO PUSH2 0x2CB5 JUMPI PUSH1 0x0 JUMPDEST DUP3 MLOAD DUP2 LT ISZERO PUSH2 0x2CB3 JUMPI PUSH1 0x0 DUP4 DUP3 DUP2 MLOAD DUP2 LT PUSH2 0x31A1 JUMPI PUSH2 0x31A1 PUSH2 0x3719 JUMP JUMPDEST PUSH1 0x20 MUL PUSH1 0x20 ADD ADD MLOAD SWAP1 POP DUP5 PUSH1 0x0 ADD MLOAD PUSH1 0x1 PUSH1 0x1 PUSH1 0xA0 SHL SUB AND DUP2 PUSH1 0x0 ADD MLOAD PUSH1 0x1 PUSH1 0x1 PUSH1 0xA0 SHL SUB AND EQ ISZERO PUSH2 0x31D8 JUMPI PUSH1 0x1 SWAP3 POP POP POP PUSH2 0x847 JUMP JUMPDEST POP DUP1 PUSH2 0x31E3 DUP2 PUSH2 0x375D JUMP JUMPDEST SWAP2 POP POP PUSH2 0x3184 JUMP JUMPDEST DUP3 DUP1 SLOAD PUSH2 0x31F7 SWAP1 PUSH2 0x3778 JUMP JUMPDEST SWAP1 PUSH1 0x0 MSTORE PUSH1 0x20 PUSH1 0x0 KECCAK256 SWAP1 PUSH1 0x1F ADD PUSH1 0x20 SWAP1 DIV DUP2 ADD SWAP3 DUP3 PUSH2 0x3219 JUMPI PUSH1 0x0 DUP6 SSTORE PUSH2 0x325F JUMP JUMPDEST DUP3 PUSH1 0x1F LT PUSH2 0x3232 JUMPI DUP1 MLOAD PUSH1 0xFF NOT AND DUP4 DUP1 ADD OR DUP6 SSTORE PUSH2 0x325F JUMP JUMPDEST DUP3 DUP1 ADD PUSH1 0x1 ADD DUP6 SSTORE DUP3 ISZERO PUSH2 0x325F JUMPI SWAP2 DUP3 ADD JUMPDEST DUP3 DUP2 GT ISZERO PUSH2 0x325F JUMPI DUP3 MLOAD DUP3 SSTORE SWAP2 PUSH1 0x20 ADD SWAP2 SWAP1 PUSH1 0x1 ADD SWAP1 PUSH2 0x3244 JUMP JUMPDEST POP PUSH2 0x326B SWAP3 SWAP2 POP PUSH2 0x326F JUMP JUMPDEST POP SWAP1 JUMP JUMPDEST JUMPDEST DUP1 DUP3 GT ISZERO PUSH2 0x326B JUMPI PUSH1 0x0 DUP2 SSTORE PUSH1 0x1 ADD PUSH2 0x3270 JUMP JUMPDEST DUP1 CALLDATALOAD PUSH1 0x1 PUSH1 0x1 PUSH1 0xA0 SHL SUB DUP2 AND DUP2 EQ PUSH2 0x329B JUMPI PUSH1 0x0 DUP1 REVERT JUMPDEST SWAP2 SWAP1 POP JUMP JUMPDEST PUSH1 0x0 PUSH1 0x20 DUP3 DUP5 SUB SLT ISZERO PUSH2 0x32B2 JUMPI PUSH1 0x0 DUP1 REVERT JUMPDEST PUSH2 0x32BB DUP3 PUSH2 0x3284 JUMP JUMPDEST SWAP4 SWAP3 POP POP POP JUMP JUMPDEST PUSH1 0x0 PUSH1 0x20 DUP3 DUP5 SUB SLT ISZERO PUSH2 0x32D4 JUMPI PUSH1 0x0 DUP1 REVERT JUMPDEST POP CALLDATALOAD SWAP2 SWAP1 POP JUMP JUMPDEST PUSH1 0x0 JUMPDEST DUP4 DUP2 LT ISZERO PUSH2 0x32F6 JUMPI DUP2 DUP2 ADD MLOAD DUP4 DUP3 ADD MSTORE PUSH1 0x20 ADD PUSH2 0x32DE JUMP JUMPDEST DUP4 DUP2 GT ISZERO PUSH2 0x307C JUMPI POP POP PUSH1 0x0 SWAP2 ADD MSTORE JUMP JUMPDEST PUSH1 0x0 DUP2 MLOAD DUP1 DUP5 MSTORE PUSH2 0x331F DUP2 PUSH1 0x20 DUP7 ADD PUSH1 0x20 DUP7 ADD PUSH2 0x32DB JUMP JUMPDEST PUSH1 0x1F ADD PUSH1 0x1F NOT AND SWAP3 SWAP1 SWAP3 ADD PUSH1 0x20 ADD SWAP3 SWAP2 POP POP JUMP JUMPDEST PUSH1 0x1 DUP1 PUSH1 0xA0 SHL SUB DUP6 AND DUP2 MSTORE DUP4 PUSH1 0x20 DUP3 ADD MSTORE DUP3 PUSH1 0x40 DUP3 ADD MSTORE PUSH1 0x80 PUSH1 0x60 DUP3 ADD MSTORE PUSH1 0x0 PUSH2 0x2731 PUSH1 0x80 DUP4 ADD DUP5 PUSH2 0x3307 JUMP JUMPDEST PUSH1 0x0 DUP1 PUSH1 0x40 DUP4 DUP6 SUB SLT ISZERO PUSH2 0x3373 JUMPI PUSH1 0x0 DUP1 REVERT JUMPDEST PUSH2 0x337C DUP4 PUSH2 0x3284 JUMP JUMPDEST SWAP5 PUSH1 0x20 SWAP4 SWAP1 SWAP4 ADD CALLDATALOAD SWAP4 POP POP POP JUMP JUMPDEST PUSH1 0x1 DUP1 PUSH1 0xA0 SHL SUB DUP2 MLOAD AND DUP3 MSTORE PUSH1 0x20 DUP2 ADD MLOAD PUSH1 0x20 DUP4 ADD MSTORE PUSH1 0x40 DUP2 ADD MLOAD PUSH1 0x40 DUP4 ADD MSTORE PUSH1 0x0 PUSH1 0x60 DUP3 ADD MLOAD PUSH1 0x80 PUSH1 0x60 DUP6 ADD MSTORE PUSH2 0x950 PUSH1 0x80 DUP6 ADD DUP3 PUSH2 0x3307 JUMP JUMPDEST PUSH1 0x0 PUSH1 0x20 DUP1 DUP4 ADD DUP2 DUP5 MSTORE DUP1 DUP6 MLOAD DUP1 DUP4 MSTORE PUSH1 0x40 DUP7 ADD SWAP2 POP PUSH1 0x40 DUP2 PUSH1 0x5 SHL DUP8 ADD ADD SWAP3 POP DUP4 DUP8 ADD PUSH1 0x0 JUMPDEST DUP3 DUP2 LT ISZERO PUSH2 0x341A JUMPI PUSH1 0x3F NOT DUP9 DUP7 SUB ADD DUP5 MSTORE PUSH2 0x3408 DUP6 DUP4 MLOAD PUSH2 0x338A JUMP JUMPDEST SWAP5 POP SWAP3 DUP6 ADD SWAP3 SWAP1 DUP6 ADD SWAP1 PUSH1 0x1 ADD PUSH2 0x33EC JUMP JUMPDEST POP SWAP3 SWAP8 SWAP7 POP POP POP POP POP POP POP JUMP JUMPDEST PUSH1 0x0 DUP1 PUSH1 0x40 DUP4 DUP6 SUB SLT ISZERO PUSH2 0x343A JUMPI PUSH1 0x0 DUP1 REVERT JUMPDEST PUSH2 0x3443 DUP4 PUSH2 0x3284 JUMP JUMPDEST SWAP2 POP PUSH2 0x3451 PUSH1 0x20 DUP5 ADD PUSH2 0x3284 JUMP JUMPDEST SWAP1 POP SWAP3 POP SWAP3 SWAP1 POP JUMP JUMPDEST PUSH1 0x20 DUP1 DUP3 MSTORE DUP3 MLOAD DUP3 DUP3 ADD DUP2 SWAP1 MSTORE PUSH1 0x0 SWAP2 SWAP1 DUP5 DUP3 ADD SWAP1 PUSH1 0x40 DUP6 ADD SWAP1 DUP5 JUMPDEST DUP2 DUP2 LT ISZERO PUSH2 0x349B JUMPI DUP4 MLOAD PUSH1 0x1 PUSH1 0x1 PUSH1 0xA0 SHL SUB AND DUP4 MSTORE SWAP3 DUP5 ADD SWAP3 SWAP2 DUP5 ADD SWAP2 PUSH1 0x1 ADD PUSH2 0x3476 JUMP JUMPDEST POP SWAP1 SWAP7 SWAP6 POP POP POP POP POP POP JUMP JUMPDEST PUSH1 0x0 DUP1 PUSH1 0x40 DUP4 DUP6 SUB SLT ISZERO PUSH2 0x34BA JUMPI PUSH1 0x0 DUP1 REVERT JUMPDEST DUP3 CALLDATALOAD SWAP2 POP PUSH2 0x3451 PUSH1 0x20 DUP5 ADD PUSH2 0x3284 JUMP JUMPDEST PUSH4 0x4E487B71 PUSH1 0xE0 SHL PUSH1 0x0 MSTORE PUSH1 0x41 PUSH1 0x4 MSTORE PUSH1 0x24 PUSH1 0x0 REVERT JUMPDEST PUSH1 0x40 MLOAD PUSH1 0x1F DUP3 ADD PUSH1 0x1F NOT AND DUP2 ADD PUSH8 0xFFFFFFFFFFFFFFFF DUP2 GT DUP3 DUP3 LT OR ISZERO PUSH2 0x3509 JUMPI PUSH2 0x3509 PUSH2 0x34CA JUMP JUMPDEST PUSH1 0x40 MSTORE SWAP2 SWAP1 POP JUMP JUMPDEST PUSH1 0x0 DUP3 PUSH1 0x1F DUP4 ADD SLT PUSH2 0x3522 JUMPI PUSH1 0x0 DUP1 REVERT JUMPDEST DUP2 CALLDATALOAD PUSH8 0xFFFFFFFFFFFFFFFF DUP2 GT ISZERO PUSH2 0x353C JUMPI PUSH2 0x353C PUSH2 0x34CA JUMP JUMPDEST PUSH2 0x354F PUSH1 0x1F DUP3 ADD PUSH1 0x1F NOT AND PUSH1 0x20 ADD PUSH2 0x34E0 JUMP JUMPDEST DUP2 DUP2 MSTORE DUP5 PUSH1 0x20 DUP4 DUP7 ADD ADD GT ISZERO PUSH2 0x3564 JUMPI PUSH1 0x0 DUP1 REVERT JUMPDEST DUP2 PUSH1 0x20 DUP6 ADD PUSH1 0x20 DUP4 ADD CALLDATACOPY PUSH1 0x0 SWAP2 DUP2 ADD PUSH1 0x20 ADD SWAP2 SWAP1 SWAP2 MSTORE SWAP4 SWAP3 POP POP POP JUMP JUMPDEST PUSH1 0x0 DUP1 PUSH1 0x0 DUP1 PUSH1 0x80 DUP6 DUP8 SUB SLT ISZERO PUSH2 0x3597 JUMPI PUSH1 0x0 DUP1 REVERT JUMPDEST PUSH2 0x35A0 DUP6 PUSH2 0x3284 JUMP JUMPDEST SWAP4 POP PUSH2 0x35AE PUSH1 0x20 DUP7 ADD PUSH2 0x3284 JUMP JUMPDEST SWAP3 POP PUSH1 0x40 DUP6 ADD CALLDATALOAD SWAP2 POP PUSH1 0x60 DUP6 ADD CALLDATALOAD PUSH8 0xFFFFFFFFFFFFFFFF DUP2 GT ISZERO PUSH2 0x35D1 JUMPI PUSH1 0x0 DUP1 REVERT JUMPDEST PUSH2 0x35DD DUP8 DUP3 DUP9 ADD PUSH2 0x3511 JUMP JUMPDEST SWAP2 POP POP SWAP3 SWAP6 SWAP2 SWAP5 POP SWAP3 POP JUMP JUMPDEST PUSH1 0x0 DUP1 PUSH1 0x0 DUP1 PUSH1 0x80 DUP6 DUP8 SUB SLT ISZERO PUSH2 0x35FF JUMPI PUSH1 0x0 DUP1 REVERT JUMPDEST DUP5 CALLDATALOAD PUSH8 0xFFFFFFFFFFFFFFFF DUP2 GT ISZERO PUSH2 0x3616 JUMPI PUSH1 0x0 DUP1 REVERT JUMPDEST PUSH2 0x3622 DUP8 DUP3 DUP9 ADD PUSH2 0x3511 JUMP JUMPDEST SWAP5 POP POP PUSH2 0x3631 PUSH1 0x20 DUP7 ADD PUSH2 0x3284 JUMP JUMPDEST SWAP4 SWAP7 SWAP4 SWAP6 POP POP POP POP PUSH1 0x40 DUP3 ADD CALLDATALOAD SWAP2 PUSH1 0x60 ADD CALLDATALOAD SWAP1 JUMP JUMPDEST PUSH1 0x0 DUP1 PUSH1 0x40 DUP4 DUP6 SUB SLT ISZERO PUSH2 0x3659 JUMPI PUSH1 0x0 DUP1 REVERT JUMPDEST PUSH2 0x3662 DUP4 PUSH2 0x3284 JUMP JUMPDEST SWAP2 POP PUSH1 0x20 DUP1 DUP5 ADD CALLDATALOAD PUSH8 0xFFFFFFFFFFFFFFFF DUP1 DUP3 GT ISZERO PUSH2 0x3680 JUMPI PUSH1 0x0 DUP1 REVERT JUMPDEST DUP2 DUP7 ADD SWAP2 POP DUP7 PUSH1 0x1F DUP4 ADD SLT PUSH2 0x3694 JUMPI PUSH1 0x0 DUP1 REVERT JUMPDEST DUP2 CALLDATALOAD DUP2 DUP2 GT ISZERO PUSH2 0x36A6 JUMPI PUSH2 0x36A6 PUSH2 0x34CA JUMP JUMPDEST DUP1 PUSH1 0x5 SHL SWAP2 POP PUSH2 0x36B7 DUP5 DUP4 ADD PUSH2 0x34E0 JUMP JUMPDEST DUP2 DUP2 MSTORE SWAP2 DUP4 ADD DUP5 ADD SWAP2 DUP5 DUP2 ADD SWAP1 DUP10 DUP5 GT ISZERO PUSH2 0x36D1 JUMPI PUSH1 0x0 DUP1 REVERT JUMPDEST SWAP4 DUP6 ADD SWAP4 JUMPDEST DUP4 DUP6 LT ISZERO PUSH2 0x36F6 JUMPI PUSH2 0x36E7 DUP6 PUSH2 0x3284 JUMP JUMPDEST DUP3 MSTORE SWAP4 DUP6 ADD SWAP4 SWAP1 DUP6 ADD SWAP1 PUSH2 0x36D6 JUMP JUMPDEST DUP1 SWAP7 POP POP POP POP POP POP POP SWAP3 POP SWAP3 SWAP1 POP JUMP JUMPDEST PUSH1 0x20 DUP2 MSTORE PUSH1 0x0 PUSH2 0x32BB PUSH1 0x20 DUP4 ADD DUP5 PUSH2 0x338A JUMP JUMPDEST PUSH4 0x4E487B71 PUSH1 0xE0 SHL PUSH1 0x0 MSTORE PUSH1 0x32 PUSH1 0x4 MSTORE PUSH1 0x24 PUSH1 0x0 REVERT JUMPDEST PUSH4 0x4E487B71 PUSH1 0xE0 SHL PUSH1 0x0 MSTORE PUSH1 0x11 PUSH1 0x4 MSTORE PUSH1 0x24 PUSH1 0x0 REVERT JUMPDEST PUSH1 0x0 DUP3 NOT DUP3 GT ISZERO PUSH2 0x3758 JUMPI PUSH2 0x3758 PUSH2 0x372F JUMP JUMPDEST POP ADD SWAP1 JUMP JUMPDEST PUSH1 0x0 PUSH1 0x0 NOT DUP3 EQ ISZERO PUSH2 0x3771 JUMPI PUSH2 0x3771 PUSH2 0x372F JUMP JUMPDEST POP PUSH1 0x1 ADD SWAP1 JUMP JUMPDEST PUSH1 0x1 DUP2 DUP2 SHR SWAP1 DUP3 AND DUP1 PUSH2 0x378C JUMPI PUSH1 0x7F DUP3 AND SWAP2 POP JUMPDEST PUSH1 0x20 DUP3 LT DUP2 EQ ISZERO PUSH2 0x37AD JUMPI PUSH4 0x4E487B71 PUSH1 0xE0 SHL PUSH1 0x0 MSTORE PUSH1 0x22 PUSH1 0x4 MSTORE PUSH1 0x24 PUSH1 0x0 REVERT JUMPDEST POP SWAP2 SWAP1 POP JUMP JUMPDEST PUSH1 0x0 DUP2 PUSH1 0x0 NOT DIV DUP4 GT DUP3 ISZERO ISZERO AND ISZERO PUSH2 0x37CD JUMPI PUSH2 0x37CD PUSH2 0x372F JUMP JUMPDEST POP MUL SWAP1 JUMP JUMPDEST PUSH1 0x0 DUP3 PUSH2 0x37EF JUMPI PUSH4 0x4E487B71 PUSH1 0xE0 SHL PUSH1 0x0 MSTORE PUSH1 0x12 PUSH1 0x4 MSTORE PUSH1 0x24 PUSH1 0x0 REVERT JUMPDEST POP DIV SWAP1 JUMP JUMPDEST PUSH1 0x20 DUP1 DUP3 MSTORE PUSH1 0x1F SWAP1 DUP3 ADD MSTORE PUSH32 0x416D6F756E742073686F756C642062652067726561746572207468616E203000 PUSH1 0x40 DUP3 ADD MSTORE PUSH1 0x60 ADD SWAP1 JUMP JUMPDEST PUSH1 0x0 PUSH1 0x20 DUP3 DUP5 SUB SLT ISZERO PUSH2 0x383D JUMPI PUSH1 0x0 DUP1 REVERT JUMPDEST DUP2 MLOAD DUP1 ISZERO ISZERO DUP2 EQ PUSH2 0x32BB JUMPI PUSH1 0x0 DUP1 REVERT JUMPDEST PUSH1 0x0 DUP3 DUP3 LT ISZERO PUSH2 0x385F JUMPI PUSH2 0x385F PUSH2 0x372F JUMP JUMPDEST POP SUB SWAP1 JUMP JUMPDEST PUSH4 0x4E487B71 PUSH1 0xE0 SHL PUSH1 0x0 MSTORE PUSH1 0x31 PUSH1 0x4 MSTORE PUSH1 0x24 PUSH1 0x0 REVERT JUMPDEST PUSH1 0x0 PUSH1 0x20 DUP3 DUP5 SUB SLT ISZERO PUSH2 0x388C JUMPI PUSH1 0x0 DUP1 REVERT JUMPDEST POP MLOAD SWAP2 SWAP1 POP JUMP JUMPDEST PUSH1 0x0 DUP3 MLOAD PUSH2 0x38A5 DUP2 DUP5 PUSH1 0x20 DUP8 ADD PUSH2 0x32DB JUMP JUMPDEST SWAP2 SWAP1 SWAP2 ADD SWAP3 SWAP2 POP POP JUMP JUMPDEST PUSH1 0x20 DUP1 DUP3 MSTORE DUP2 DUP2 ADD MSTORE PUSH32 0x4F776E61626C653A2063616C6C6572206973206E6F7420746865206F776E6572 PUSH1 0x40 DUP3 ADD MSTORE PUSH1 0x60 ADD SWAP1 JUMP JUMPDEST PUSH1 0x1 DUP2 DUP2 JUMPDEST DUP1 DUP6 GT ISZERO PUSH2 0x391F JUMPI DUP2 PUSH1 0x0 NOT DIV DUP3 GT ISZERO PUSH2 0x3905 JUMPI PUSH2 0x3905 PUSH2 0x372F JUMP JUMPDEST DUP1 DUP6 AND ISZERO PUSH2 0x3912 JUMPI SWAP2 DUP2 MUL SWAP2 JUMPDEST SWAP4 DUP5 SHR SWAP4 SWAP1 DUP1 MUL SWAP1 PUSH2 0x38E9 JUMP JUMPDEST POP SWAP3 POP SWAP3 SWAP1 POP JUMP JUMPDEST PUSH1 0x0 DUP3 PUSH2 0x3936 JUMPI POP PUSH1 0x1 PUSH2 0x847 JUMP JUMPDEST DUP2 PUSH2 0x3943 JUMPI POP PUSH1 0x0 PUSH2 0x847 JUMP JUMPDEST DUP2 PUSH1 0x1 DUP2 EQ PUSH2 0x3959 JUMPI PUSH1 0x2 DUP2 EQ PUSH2 0x3963 JUMPI PUSH2 0x397F JUMP JUMPDEST PUSH1 0x1 SWAP2 POP POP PUSH2 0x847 JUMP JUMPDEST PUSH1 0xFF DUP5 GT ISZERO PUSH2 0x3974 JUMPI PUSH2 0x3974 PUSH2 0x372F JUMP JUMPDEST POP POP PUSH1 0x1 DUP3 SHL PUSH2 0x847 JUMP JUMPDEST POP PUSH1 0x20 DUP4 LT PUSH2 0x133 DUP4 LT AND PUSH1 0x4E DUP5 LT PUSH1 0xB DUP5 LT AND OR ISZERO PUSH2 0x39A2 JUMPI POP DUP2 DUP2 EXP PUSH2 0x847 JUMP JUMPDEST PUSH2 0x39AC DUP4 DUP4 PUSH2 0x38E4 JUMP JUMPDEST DUP1 PUSH1 0x0 NOT DIV DUP3 GT ISZERO PUSH2 0x39C0 JUMPI PUSH2 0x39C0 PUSH2 0x372F JUMP JUMPDEST MUL SWAP4 SWAP3 POP POP POP JUMP JUMPDEST PUSH1 0x0 PUSH2 0x32BB DUP4 DUP4 PUSH2 0x3927 JUMP JUMPDEST DUP1 MLOAD PUSH10 0xFFFFFFFFFFFFFFFFFFFF DUP2 AND DUP2 EQ PUSH2 0x329B JUMPI PUSH1 0x0 DUP1 REVERT JUMPDEST PUSH1 0x0 DUP1 PUSH1 0x0 DUP1 PUSH1 0x0 PUSH1 0xA0 DUP7 DUP9 SUB SLT ISZERO PUSH2 0x3A06 JUMPI PUSH1 0x0 DUP1 REVERT JUMPDEST PUSH2 0x3A0F DUP7 PUSH2 0x39D4 JUMP JUMPDEST SWAP5 POP PUSH1 0x20 DUP7 ADD MLOAD SWAP4 POP PUSH1 0x40 DUP7 ADD MLOAD SWAP3 POP PUSH1 0x60 DUP7 ADD MLOAD SWAP2 POP PUSH2 0x3A32 PUSH1 0x80 DUP8 ADD PUSH2 0x39D4 JUMP JUMPDEST SWAP1 POP SWAP3 SWAP6 POP SWAP3 SWAP6 SWAP1 SWAP4 POP JUMP JUMPDEST PUSH1 0x0 PUSH1 0x20 DUP3 DUP5 SUB SLT ISZERO PUSH2 0x3A50 JUMPI PUSH1 0x0 DUP1 REVERT JUMPDEST DUP2 MLOAD PUSH1 0xFF DUP2 AND DUP2 EQ PUSH2 0x32BB JUMPI PUSH1 0x0 DUP1 REVERT INVALID LOG2 PUSH5 0x6970667358 0x22 SLT KECCAK256 SELFBALANCE CALLCODE 0x1F 0xBB PUSH19 0x7CF76FEEF59D385C736883459B5C18DF7EAFE7 0xDA 0xEF SUB 0x4E 0x4C 0xCB 0xD0 PUSH2 0x6473 PUSH16 0x6C634300080B00330000000000000000 ","sha1":"1b4078d3011ec8833db97e3dda6b8e74365c9b70","source":"// SPDX-License-Identifier: MIT\npragma solidity >=0.4.22 <0.9.0;\n\nimport \"@chainlink/contracts/src/v0.8/interfaces/AggregatorV3Interface.sol\";\nimport \"@openzeppelin/contracts/access/Ownable.sol\";\nimport \"@openzeppelin/contracts/token/ERC20/IERC20.sol\";\n\n// Set up you contract to convert DAI to USD or ETH to USD\ncontract LendingAndBorrowing is Ownable {\n    address[] public lenders;\n    address[] public borrowers;\n\n    mapping(address => mapping(address => uint256)) public tokensLentAmount;\n    mapping(address => mapping(address => uint256)) public tokensBorrowedAmount;\n\n    mapping(uint256 => mapping(address => address)) public tokensLent;\n    mapping(uint256 => mapping(address => address)) public tokensBorrowed;\n\n    mapping(address => address) public tokenToPriceFeed;\n\n    mapping(uint256 => mapping(address => address)) public tokensLentOrBorrowed;\n\n    struct Token {\n        address tokenAddress;\n        uint256 LTV;\n        uint256 stableRate;\n        string name;\n    }\n\n    Token[] public tokensForLending;\n    Token[] public tokensForBorrowing;\n\n    IERC20 public larToken;\n\n    uint256 public noOfTokensLent = 0;\n    uint256 public noOfTokensBorrowed = 0;\n\n    constructor(address _token) {\n        larToken = IERC20(_token);\n    }\n\n    function addTokensForLending(\n        string memory name,\n        address tokenAddress,\n        uint256 LTV,\n        uint256 borrowStableRate\n    ) public onlyOwner {\n        Token memory token = Token(tokenAddress, LTV, borrowStableRate, name);\n\n        if (!tokenIsAlreadyThere(token, tokensForLending)) {\n            tokensForLending.push(token);\n        }\n    }\n\n    function addTokensForBorrowing(\n        string memory name,\n        address tokenAddress,\n        uint256 LTV,\n        uint256 borrowStableRate\n    ) public onlyOwner {\n        Token memory token = Token(tokenAddress, LTV, borrowStableRate, name);\n\n        if (!tokenIsAlreadyThere(token, tokensForBorrowing)) {\n            tokensForBorrowing.push(token);\n        }\n    }\n\n    function addTokenToPriceFeedMapping(\n        address tokenAddress,\n        address tokenToUsdPriceFeed\n    ) public onlyOwner {\n        tokenToPriceFeed[tokenAddress] = tokenToUsdPriceFeed;\n    }\n\n    function getLendersArray() public view returns (address[] memory) {\n        return lenders;\n    }\n\n    function getBorrowersArray() public view returns (address[] memory) {\n        return borrowers;\n    }\n\n    function getTokensForLendingArray() public view returns (Token[] memory) {\n        return tokensForLending;\n    }\n\n    function getTokensForBorrowingArray() public view returns (Token[] memory) {\n        return tokensForBorrowing;\n    }\n\n    function lend(address tokenAddress, uint256 amount) public payable {\n        require(\n            tokenIsAllowed(tokenAddress, tokensForLending),\n            \"Token is not supported\"\n        );\n\n        require(amount > 0, \"The amount to supply should be greater than 0\");\n\n        IERC20 token = IERC20(tokenAddress);\n\n        require(\n            token.balanceOf(msg.sender) >= amount,\n            \"You have insufficient token to supply that amount\"\n        );\n\n        token.transferFrom(msg.sender, address(this), amount);\n\n        (bool userPresent, int256 userIndex) = isUserPresentIn(\n            msg.sender,\n            lenders\n        );\n\n        if (userPresent) {\n            updateUserTokensBorrowedOrLent(\n                tokenAddress,\n                amount,\n                userIndex,\n                \"lenders\"\n            );\n        } else {\n            lenders.push(msg.sender);\n            tokensLentAmount[tokenAddress][msg.sender] = amount;\n            tokensLent[noOfTokensLent++][msg.sender] = tokenAddress;\n        }\n\n        rewardUserToken(msg.sender, tokenAddress, amount);\n    }\n\n    function borrow(uint256 amount, address tokenAddress) public {\n        require(\n            tokenIsAllowed(tokenAddress, tokensForBorrowing),\n            \"Token is not supported for borrowing\"\n        );\n        require(amount > 0, \"Amount should be greater than 0\");\n\n        uint256 totalAmountAvailableForBorrowInDollars = getUserTotalAmountAvailableForBorrowInDollars(\n                msg.sender\n            );\n        uint256 amountInDollars = getAmountInDollars(amount, tokenAddress);\n\n        require(\n            amountInDollars <= totalAmountAvailableForBorrowInDollars,\n            \"You don't have enough collateral to borrow this amount\"\n        );\n\n        IERC20 token = IERC20(tokenAddress);\n\n        require(\n            token.balanceOf(address(this)) > amount,\n            \"We do not have enough of this token for you to borrow.\"\n        );\n\n        token.transfer(msg.sender, amount);\n\n        (bool userPresent, int256 userIndex) = isUserPresentIn(\n            msg.sender,\n            borrowers\n        );\n\n        if (userPresent) {\n            updateUserTokensBorrowedOrLent(\n                tokenAddress,\n                amount,\n                userIndex,\n                \"borrowers\"\n            );\n        } else {\n            borrowers.push(msg.sender);\n            tokensBorrowedAmount[tokenAddress][msg.sender] = amount;\n            tokensBorrowed[noOfTokensBorrowed++][msg.sender] = tokenAddress;\n        }\n    }\n\n    function payDebt(address tokenAddress, uint256 amount) public {\n        require(amount > 0, \"Amount should be greater than 0\");\n\n        int256 index = indexOf(msg.sender, borrowers);\n        require(\n            index >= 0,\n            \"User address is not found in the list of borrowers\"\n        );\n\n        uint256 tokenBorrowed = tokensBorrowedAmount[tokenAddress][msg.sender];\n\n        require(tokenBorrowed > 0, \"You  are not owing\");\n        IERC20 token = IERC20(tokenAddress);\n\n        uint256 totalTokenAmountToCollectFromUser = amount +\n            interest(tokenAddress, tokenBorrowed);\n\n        token.transferFrom(\n            msg.sender,\n            address(this),\n            totalTokenAmountToCollectFromUser\n        );\n\n        tokensBorrowedAmount[tokenAddress][msg.sender] =\n            tokensBorrowedAmount[tokenAddress][msg.sender] -\n            amount;\n\n        // Check If all the amount borrowed = 0;\n        uint256 totalAmountBorrowed = getTotalAmountBorrowedInDollars(\n            msg.sender\n        );\n\n        if (totalAmountBorrowed == 0) {\n            borrowers[uint256(index)] = borrowers[borrowers.length - 1];\n            borrowers.pop();\n        }\n    }\n\n    function withdraw(address tokenAddress, uint256 amount) public {\n        require(amount > 0, \"Amount should be greater than 0\");\n\n        int256 index = indexOf(msg.sender, lenders);\n        require(index >= 0, \"User address is not found in the list of lenders\");\n\n        IERC20 token = IERC20(tokenAddress);\n\n        uint256 tokenAmountLent = tokensLentAmount[tokenAddress][msg.sender];\n\n        require(tokenAmountLent >= amount);\n\n        uint256 larTokenToRemove = getAmountInDollars(amount, tokenAddress);\n        larToken.transferFrom(msg.sender, address(this), larTokenToRemove);\n\n        // uint tokenAmountToTransferToUser = getTotalLendingInterest(amount, tokenAddress);\n\n        // if (tokensLentAmount[tokenAddress][msg.sender])\n\n        token.transfer(msg.sender, amount);\n\n        tokensLentAmount[tokenAddress][msg.sender] =\n            tokensLentAmount[tokenAddress][msg.sender] -\n            amount;\n\n        // Check If all the amount lent = 0;\n        uint256 totalAmountLent = getTotalAmountLentInDollars(msg.sender);\n\n        if (totalAmountLent == 0) {\n            lenders[uint256(index)] = lenders[lenders.length - 1];\n            lenders.pop();\n        }\n    }\n\n    function indexOf(address user, address[] memory addressArray)\n        public\n        returns (int256)\n    {\n        int256 index = -1;\n\n        for (uint256 i = 0; i < addressArray.length; i++) {\n            address currentAddress = addressArray[i];\n            if (currentAddress == user) {\n                return int256(i);\n            }\n        }\n        return index;\n    }\n\n    function getTotalAmountBorrowedInDollars(address user)\n        public\n        view\n        returns (uint256)\n    {\n        uint256 totalAmountBorrowed = 0;\n        for (uint256 i = 0; i < noOfTokensBorrowed; i++) {\n            address userBorrowedTokenAddressFound = tokensBorrowed[i][user];\n\n            if (\n                userBorrowedTokenAddressFound !=\n                0x0000000000000000000000000000000000000000\n            ) {\n                uint256 tokenAmountBorrowed = tokensBorrowedAmount[\n                    userBorrowedTokenAddressFound\n                ][user];\n\n                uint256 tokenAmountBorrowedInDollars = getAmountInDollars(\n                    tokenAmountBorrowed,\n                    userBorrowedTokenAddressFound\n                );\n\n                totalAmountBorrowed += tokenAmountBorrowedInDollars;\n            }\n        }\n        return totalAmountBorrowed;\n    }\n\n    function getTotalAmountLentInDollars(address user)\n        public\n        view\n        returns (uint256)\n    {\n        uint256 totalAmountLent = 0;\n        for (uint256 i = 0; i < noOfTokensLent; i++) {\n            address userLentTokenAddressFound = tokensLent[i][user];\n\n            if (\n                userLentTokenAddressFound !=\n                0x0000000000000000000000000000000000000000\n            ) {\n                uint256 tokenAmountLent = tokensLentAmount[\n                    userLentTokenAddressFound\n                ][user];\n\n                uint256 tokenAmountLentInDollars = getAmountInDollars(\n                    tokenAmountLent,\n                    userLentTokenAddressFound\n                );\n\n                totalAmountLent += tokenAmountLentInDollars;\n            }\n        }\n        return totalAmountLent;\n    }\n\n    function interest(address tokenAddress, uint256 tokenBorrowed)\n        public\n        view\n        returns (uint256)\n    {\n        Token memory token = getTokenFrom(tokenAddress);\n        return (tokenBorrowed * token.stableRate) / 10**18;\n    }\n\n    function getTokenFrom(address tokenAddress)\n        public\n        view\n        returns (Token memory)\n    {\n        Token memory token;\n        for (uint256 i = 0; i < tokensForBorrowing.length; i++) {\n            Token memory currentToken = tokensForBorrowing[i];\n            if (currentToken.tokenAddress == tokenAddress) {\n                token = currentToken;\n                break;\n            }\n        }\n        return token;\n    }\n\n    function getUserTotalAmountAvailableForBorrowInDollars(address user)\n        public\n        view\n        returns (uint256)\n    {\n        // uint256 totalAvailableToBorrow = 0;\n\n        uint256 userTotalCollateralToBorrow = 0;\n        uint256 userTotalCollateralAlreadyBorrowed = 0;\n\n        for (uint256 i = 0; i < lenders.length; i++) {\n            address currentLender = lenders[i];\n            if (currentLender == user) {\n                for (uint256 j = 0; j < tokensForLending.length; j++) {\n                    Token memory currentTokenForLending = tokensForLending[j];\n                    uint256 currentTokenLentAmount = tokensLentAmount[\n                        currentTokenForLending.tokenAddress\n                    ][user];\n                    uint256 currentTokenLentAmountInDollar = getAmountInDollars(\n                        currentTokenLentAmount,\n                        currentTokenForLending.tokenAddress\n                    );\n                    uint256 availableInDollar = (currentTokenLentAmountInDollar *\n                            currentTokenForLending.LTV) / 10**18;\n                    userTotalCollateralToBorrow += availableInDollar;\n                }\n            }\n        }\n\n        for (uint256 i = 0; i < borrowers.length; i++) {\n            address currentBorrower = borrowers[i];\n            if (currentBorrower == user) {\n                for (uint256 j = 0; j < tokensForBorrowing.length; j++) {\n                    Token memory currentTokenForBorrowing = tokensForBorrowing[j];\n                    uint256 currentTokenBorrowedAmount = tokensBorrowedAmount[\n                        currentTokenForBorrowing.tokenAddress\n                    ][user];\n                    uint256 currentTokenBorrowedAmountInDollar = getAmountInDollars(\n                        (currentTokenBorrowedAmount),\n                        currentTokenForBorrowing.tokenAddress\n                    );\n                    \n                    userTotalCollateralAlreadyBorrowed += currentTokenBorrowedAmountInDollar;\n                }\n            }\n        }\n\n        return userTotalCollateralToBorrow - userTotalCollateralAlreadyBorrowed;\n\n        // for (uint256 i = 0; i < noOfTokensLent; i++) {\n        //     address userLentTokenAddressFound = tokensLent[i][user];\n\n        //     if (\n        //         userLentTokenAddressFound !=\n        //         0x0000000000000000000000000000000000000000\n        //     ) {\n        //         Token memory token = getTokenFrom(userLentTokenAddressFound);\n        //         uint256 tokenLoanToValueRatio = token.LTV;\n\n        //         bool isBorrowed = tokenIsBorrowed(\n        //             user,\n        //             userLentTokenAddressFound\n        //         );\n\n        //         uint256 tokenAmountAvailable;\n\n        //         if (!isBorrowed) {\n        //             tokenAmountAvailable = tokensLentAmount[\n        //                 userLentTokenAddressFound\n        //             ][user];\n        //         } else {\n        //             tokenAmountAvailable =\n        //                 tokensLentAmount[userLentTokenAddressFound][user] -\n        //                 tokensBorrowedAmount[userLentTokenAddressFound][user];\n        //         }\n        //         uint256 currentTokenAmountInDollars = getAmountInDollars(\n        //             tokenAmountAvailable,\n        //             userLentTokenAddressFound\n        //         );\n        //         uint256 availableToBorrow = (currentTokenAmountInDollars *\n        //             tokenLoanToValueRatio) / 10**18;\n\n        //         totalAvailableToBorrow += availableToBorrow;\n        //     }\n        // }\n\n        // return totalAvailableToBorrow;\n    }\n\n    function tokenIsBorrowed(address user, address token)\n        private\n        view\n        returns (bool)\n    {\n        return tokensBorrowedAmount[token][user] != 0;\n    }\n\n    function tokenIsAllowed(address tokenAddress, Token[] memory tokenArray)\n        private\n        pure\n        returns (bool)\n    {\n        if (tokenArray.length > 0) {\n            for (uint256 i = 0; i < tokenArray.length; i++) {\n                Token memory currentToken = tokenArray[i];\n                if (currentToken.tokenAddress == tokenAddress) {\n                    return true;\n                }\n            }\n        }\n\n        return false;\n    }\n\n    function tokenIsAlreadyThere(Token memory token, Token[] memory tokenArray)\n        private\n        pure\n        returns (bool)\n    {\n        if (tokenArray.length > 0) {\n            for (uint256 i = 0; i < tokenArray.length; i++) {\n                Token memory currentToken = tokenArray[i];\n                if (currentToken.tokenAddress == token.tokenAddress) {\n                    return true;\n                }\n            }\n        }\n\n        return false;\n    }\n\n    function rewardUserToken(\n        address user,\n        address tokenAddress,\n        uint256 amount\n    ) private {\n        // Send some tokens to the user equivalent to the token amount lent.\n        require(amount > 0, \"Amount should be greater than 0\");\n\n        uint256 amountIndollars = getAmountInDollars(amount, tokenAddress);\n        larToken.transfer(user, amountIndollars);\n    }\n\n    function getAmountInDollars(uint256 amount, address tokenAddress)\n        public\n        view\n        returns (uint256)\n    {\n        (\n            uint256 dollarPerToken,\n            uint256 decimals\n        ) = oneTokenEqualsHowManyDollars(tokenAddress);\n        uint256 totalAmountInDollars = (amount * dollarPerToken) /\n            (10**decimals);\n        return totalAmountInDollars;\n    }\n\n    function oneTokenEqualsHowManyDollars(address tokenAddress)\n        public\n        view\n        returns (uint256, uint256)\n    {\n        address tokenToUsd = tokenToPriceFeed[tokenAddress];\n        AggregatorV3Interface priceFeed = AggregatorV3Interface(tokenToUsd);\n\n        (, int256 price, , , ) = priceFeed.latestRoundData();\n\n        uint256 decimals = priceFeed.decimals();\n\n        return (uint256(price), decimals);\n    }\n\n    function updateUserTokensBorrowedOrLent(\n        address tokenAddress,\n        uint256 amount,\n        int256 userIndex,\n        string memory lendersOrBorrowers\n    ) internal {\n        if (\n            keccak256(abi.encodePacked(lendersOrBorrowers)) ==\n            keccak256(abi.encodePacked(\"lenders\"))\n        ) {\n            address currentUser = lenders[uint256(userIndex)];\n\n            bool tokenLendedAlready = hasLentOrBorrowedToken(\n                currentUser,\n                tokenAddress,\n                noOfTokensLent,\n                \"tokensLent\"\n            );\n\n            if (tokenLendedAlready) {\n                tokensLentAmount[tokenAddress][currentUser] =\n                    tokensLentAmount[tokenAddress][currentUser] +\n                    amount;\n            } else {\n                tokensLent[noOfTokensLent++][currentUser] = tokenAddress;\n                tokensLentAmount[tokenAddress][currentUser] = amount;\n            }\n        } else if (\n            keccak256(abi.encodePacked(lendersOrBorrowers)) ==\n            keccak256(abi.encodePacked(\"borrowers\"))\n        ) {\n            address currentUser = borrowers[uint256(userIndex)];\n\n            bool tokenBorrowedAlready = hasLentOrBorrowedToken(\n                currentUser,\n                tokenAddress,\n                noOfTokensBorrowed,\n                \"tokensBorrowed\"\n            );\n\n            if (tokenBorrowedAlready) {\n                tokensBorrowedAmount[tokenAddress][currentUser] =\n                    tokensBorrowedAmount[tokenAddress][currentUser] +\n                    amount;\n            } else {\n                tokensBorrowed[noOfTokensBorrowed++][\n                    currentUser\n                ] = tokenAddress;\n                tokensBorrowedAmount[tokenAddress][currentUser] = amount;\n            }\n        }\n    }\n\n    function hasLentOrBorrowedToken(\n        address currentUser,\n        address tokenAddress,\n        uint256 noOfTokenslentOrBorrowed,\n        string memory _tokensLentOrBorrowed\n    ) public view returns (bool) {\n        if (noOfTokenslentOrBorrowed > 0) {\n            if (\n                keccak256(abi.encodePacked(_tokensLentOrBorrowed)) ==\n                keccak256(abi.encodePacked(\"tokensLent\"))\n            ) {\n                for (uint256 i = 0; i < noOfTokensLent; i++) {\n                    address tokenAddressFound = tokensLent[i][currentUser];\n                    if (tokenAddressFound == tokenAddress) {\n                        return true;\n                    }\n                }\n            } else if (\n                keccak256(abi.encodePacked(_tokensLentOrBorrowed)) ==\n                keccak256(abi.encodePacked(\"tokensBorrowed\"))\n            ) {\n                for (uint256 i = 0; i < noOfTokensBorrowed; i++) {\n                    address tokenAddressFound = tokensBorrowed[i][currentUser];\n                    if (tokenAddressFound == tokenAddress) {\n                        return true;\n                    }\n                }\n            }\n        }\n\n        return false;\n    }\n\n    function isUserPresentIn(address userAddress, address[] memory users)\n        private\n        pure\n        returns (bool, int256)\n    {\n        if (users.length > 0) {\n            for (uint256 i = 0; i < users.length; i++) {\n                address currentUserAddress = users[i];\n                if (currentUserAddress == userAddress) {\n                    return (true, int256(i));\n                }\n            }\n        }\n\n        return (false, -1);\n    }\n\n    function getTotalTokenSupplied(address tokenAddres)\n        public\n        view\n        returns (uint256)\n    {\n        uint256 totalTokenSupplied = 0;\n        if (lenders.length > 0) {\n            for (uint256 i = 0; i < lenders.length; i++) {\n                address curentLender = lenders[i];\n                totalTokenSupplied += tokensLentAmount[tokenAddres][\n                    curentLender\n                ];\n            }\n        }\n\n        return totalTokenSupplied;\n    }\n\n    function getTotalTokenBorrowed(address tokenAddress)\n        public\n        view\n        returns (uint256)\n    {\n        uint256 totalTokenBorrowed = 0;\n        if (borrowers.length > 0) {\n            for (uint256 i = 0; i < borrowers.length; i++) {\n                address curentBorrower = borrowers[i];\n                totalTokenBorrowed += tokensBorrowedAmount[tokenAddress][\n                    curentBorrower\n                ];\n            }\n        }\n        return totalTokenBorrowed;\n    }\n}\n","sourcePath":"contracts/LendingAndBorrowing.sol","type":"contract","deployment":{"address":"0xFa0EcDA98Dd9FbE57302DB6377EDAd32924139b7","chainid":"42","blockHeight":31010223}}