{"abi":[{"inputs":[{"internalType":"address","name":"_token","type":"address"}],"stateMutability":"nonpayable","type":"constructor","name":"constructor"},{"anonymous":false,"inputs":[{"indexed":false,"internalType":"address","name":"sender","type":"address"},{"indexed":false,"internalType":"uint256","name":"amountInDollars","type":"uint256"},{"indexed":false,"internalType":"uint256","name":"totalAmountAvailableForBorrowInDollars","type":"uint256"},{"indexed":false,"internalType":"bool","name":"userPresent","type":"bool"},{"indexed":false,"internalType":"int256","name":"userIndex","type":"int256"},{"indexed":false,"internalType":"address[]","name":"borrowers","type":"address[]"},{"indexed":false,"internalType":"uint256","name":"currentUserTokenBorrowedAmount","type":"uint256"}],"name":"Borrow","type":"event"},{"anonymous":false,"inputs":[{"indexed":true,"internalType":"address","name":"previousOwner","type":"address"},{"indexed":true,"internalType":"address","name":"newOwner","type":"address"}],"name":"OwnershipTransferred","type":"event"},{"anonymous":false,"inputs":[{"indexed":false,"internalType":"address","name":"sender","type":"address"},{"indexed":false,"internalType":"int256","name":"index","type":"int256"},{"indexed":false,"internalType":"uint256","name":"tokenAmountBorrowed","type":"uint256"},{"indexed":false,"internalType":"uint256","name":"totalTokenAmountToCollectFromUser","type":"uint256"},{"indexed":false,"internalType":"address[]","name":"borrowers","type":"address[]"}],"name":"PayDebt","type":"event"},{"anonymous":false,"inputs":[{"indexed":false,"internalType":"address","name":"sender","type":"address"},{"indexed":false,"internalType":"address[]","name":"lenders","type":"address[]"},{"indexed":false,"internalType":"uint256","name":"currentUserTokenLentAmount","type":"uint256"}],"name":"Supply","type":"event"},{"anonymous":false,"inputs":[{"indexed":false,"internalType":"address","name":"sender","type":"address"},{"indexed":false,"internalType":"uint256","name":"amount","type":"uint256"},{"indexed":false,"internalType":"uint256","name":"tokenToWithdrawInDollars","type":"uint256"},{"indexed":false,"internalType":"uint256","name":"availableToWithdraw","type":"uint256"},{"indexed":false,"internalType":"uint256","name":"totalAmountLentInDollars","type":"uint256"}],"name":"Withdraw","type":"event"},{"inputs":[{"internalType":"address","name":"tokenAddress","type":"address"},{"internalType":"address","name":"tokenToUsdPriceFeed","type":"address"}],"name":"addTokenToPriceFeedMapping","outputs":[],"stateMutability":"nonpayable","type":"function"},{"inputs":[{"internalType":"string","name":"name","type":"string"},{"internalType":"address","name":"tokenAddress","type":"address"},{"internalType":"uint256","name":"LTV","type":"uint256"},{"internalType":"uint256","name":"borrowStableRate","type":"uint256"}],"name":"addTokensForBorrowing","outputs":[],"stateMutability":"nonpayable","type":"function"},{"inputs":[{"internalType":"string","name":"name","type":"string"},{"internalType":"address","name":"tokenAddress","type":"address"},{"internalType":"uint256","name":"LTV","type":"uint256"},{"internalType":"uint256","name":"borrowStableRate","type":"uint256"}],"name":"addTokensForLending","outputs":[],"stateMutability":"nonpayable","type":"function"},{"inputs":[{"internalType":"uint256","name":"amount","type":"uint256"},{"internalType":"address","name":"tokenAddress","type":"address"}],"name":"borrow","outputs":[],"stateMutability":"nonpayable","type":"function"},{"inputs":[{"internalType":"uint256","name":"","type":"uint256"}],"name":"borrowers","outputs":[{"internalType":"address","name":"","type":"address"}],"stateMutability":"view","type":"function"},{"inputs":[{"internalType":"uint256","name":"amount","type":"uint256"},{"internalType":"address","name":"tokenAddress","type":"address"}],"name":"getAmountInDollars","outputs":[{"internalType":"uint256","name":"","type":"uint256"}],"stateMutability":"view","type":"function"},{"inputs":[],"name":"getBorrowersArray","outputs":[{"internalType":"address[]","name":"","type":"address[]"}],"stateMutability":"view","type":"function"},{"inputs":[],"name":"getLendersArray","outputs":[{"internalType":"address[]","name":"","type":"address[]"}],"stateMutability":"view","type":"function"},{"inputs":[{"internalType":"address","name":"user","type":"address"}],"name":"getTokenAvailableToWithdraw","outputs":[{"internalType":"uint256","name":"","type":"uint256"}],"stateMutability":"view","type":"function"},{"inputs":[{"internalType":"address","name":"tokenAddress","type":"address"}],"name":"getTokenFrom","outputs":[{"components":[{"internalType":"address","name":"tokenAddress","type":"address"},{"internalType":"uint256","name":"LTV","type":"uint256"},{"internalType":"uint256","name":"stableRate","type":"uint256"},{"internalType":"string","name":"name","type":"string"}],"internalType":"struct LendingAndBorrowing.Token","name":"","type":"tuple"}],"stateMutability":"view","type":"function"},{"inputs":[],"name":"getTokensForBorrowingArray","outputs":[{"components":[{"internalType":"address","name":"tokenAddress","type":"address"},{"internalType":"uint256","name":"LTV","type":"uint256"},{"internalType":"uint256","name":"stableRate","type":"uint256"},{"internalType":"string","name":"name","type":"string"}],"internalType":"struct LendingAndBorrowing.Token[]","name":"","type":"tuple[]"}],"stateMutability":"view","type":"function"},{"inputs":[],"name":"getTokensForLendingArray","outputs":[{"components":[{"internalType":"address","name":"tokenAddress","type":"address"},{"internalType":"uint256","name":"LTV","type":"uint256"},{"internalType":"uint256","name":"stableRate","type":"uint256"},{"internalType":"string","name":"name","type":"string"}],"internalType":"struct LendingAndBorrowing.Token[]","name":"","type":"tuple[]"}],"stateMutability":"view","type":"function"},{"inputs":[{"internalType":"address","name":"user","type":"address"}],"name":"getTotalAmountBorrowedInDollars","outputs":[{"internalType":"uint256","name":"","type":"uint256"}],"stateMutability":"view","type":"function"},{"inputs":[{"internalType":"address","name":"user","type":"address"}],"name":"getTotalAmountLentInDollars","outputs":[{"internalType":"uint256","name":"","type":"uint256"}],"stateMutability":"view","type":"function"},{"inputs":[{"internalType":"address","name":"tokenAddress","type":"address"}],"name":"getTotalTokenBorrowed","outputs":[{"internalType":"uint256","name":"","type":"uint256"}],"stateMutability":"view","type":"function"},{"inputs":[{"internalType":"address","name":"tokenAddres","type":"address"}],"name":"getTotalTokenSupplied","outputs":[{"internalType":"uint256","name":"","type":"uint256"}],"stateMutability":"view","type":"function"},{"inputs":[{"internalType":"address","name":"user","type":"address"}],"name":"getUserTotalAmountAvailableForBorrowInDollars","outputs":[{"internalType":"uint256","name":"","type":"uint256"}],"stateMutability":"view","type":"function"},{"inputs":[{"internalType":"address","name":"currentUser","type":"address"},{"internalType":"address","name":"tokenAddress","type":"address"},{"internalType":"uint256","name":"noOfTokenslentOrBorrowed","type":"uint256"},{"internalType":"string","name":"_tokensLentOrBorrowed","type":"string"}],"name":"hasLentOrBorrowedToken","outputs":[{"internalType":"bool","name":"","type":"bool"}],"stateMutability":"view","type":"function"},{"inputs":[{"internalType":"address","name":"user","type":"address"},{"internalType":"address[]","name":"addressArray","type":"address[]"}],"name":"indexOf","outputs":[{"internalType":"int256","name":"","type":"int256"}],"stateMutability":"nonpayable","type":"function"},{"inputs":[{"internalType":"address","name":"tokenAddress","type":"address"},{"internalType":"uint256","name":"tokenBorrowed","type":"uint256"}],"name":"interest","outputs":[{"internalType":"uint256","name":"","type":"uint256"}],"stateMutability":"view","type":"function"},{"inputs":[],"name":"larToken","outputs":[{"internalType":"contract IERC20","name":"","type":"address"}],"stateMutability":"view","type":"function"},{"inputs":[{"internalType":"address","name":"tokenAddress","type":"address"},{"internalType":"uint256","name":"amount","type":"uint256"}],"name":"lend","outputs":[],"stateMutability":"payable","type":"function"},{"inputs":[{"internalType":"uint256","name":"","type":"uint256"}],"name":"lenders","outputs":[{"internalType":"address","name":"","type":"address"}],"stateMutability":"view","type":"function"},{"inputs":[],"name":"noOfTokensBorrowed","outputs":[{"internalType":"uint256","name":"","type":"uint256"}],"stateMutability":"view","type":"function"},{"inputs":[],"name":"noOfTokensLent","outputs":[{"internalType":"uint256","name":"","type":"uint256"}],"stateMutability":"view","type":"function"},{"inputs":[{"internalType":"address","name":"tokenAddress","type":"address"}],"name":"oneTokenEqualsHowManyDollars","outputs":[{"internalType":"uint256","name":"","type":"uint256"},{"internalType":"uint256","name":"","type":"uint256"}],"stateMutability":"view","type":"function"},{"inputs":[],"name":"owner","outputs":[{"internalType":"address","name":"","type":"address"}],"stateMutability":"view","type":"function"},{"inputs":[{"internalType":"address","name":"tokenAddress","type":"address"},{"internalType":"uint256","name":"amount","type":"uint256"}],"name":"payDebt","outputs":[],"stateMutability":"nonpayable","type":"function"},{"inputs":[],"name":"renounceOwnership","outputs":[],"stateMutability":"nonpayable","type":"function"},{"inputs":[{"internalType":"address","name":"","type":"address"}],"name":"tokenToPriceFeed","outputs":[{"internalType":"address","name":"","type":"address"}],"stateMutability":"view","type":"function"},{"inputs":[{"internalType":"uint256","name":"","type":"uint256"},{"internalType":"address","name":"","type":"address"}],"name":"tokensBorrowed","outputs":[{"internalType":"address","name":"","type":"address"}],"stateMutability":"view","type":"function"},{"inputs":[{"internalType":"address","name":"","type":"address"},{"internalType":"address","name":"","type":"address"}],"name":"tokensBorrowedAmount","outputs":[{"internalType":"uint256","name":"","type":"uint256"}],"stateMutability":"view","type":"function"},{"inputs":[{"internalType":"uint256","name":"","type":"uint256"}],"name":"tokensForBorrowing","outputs":[{"internalType":"address","name":"tokenAddress","type":"address"},{"internalType":"uint256","name":"LTV","type":"uint256"},{"internalType":"uint256","name":"stableRate","type":"uint256"},{"internalType":"string","name":"name","type":"string"}],"stateMutability":"view","type":"function"},{"inputs":[{"internalType":"uint256","name":"","type":"uint256"}],"name":"tokensForLending","outputs":[{"internalType":"address","name":"tokenAddress","type":"address"},{"internalType":"uint256","name":"LTV","type":"uint256"},{"internalType":"uint256","name":"stableRate","type":"uint256"},{"internalType":"string","name":"name","type":"string"}],"stateMutability":"view","type":"function"},{"inputs":[{"internalType":"uint256","name":"","type":"uint256"},{"internalType":"address","name":"","type":"address"}],"name":"tokensLent","outputs":[{"internalType":"address","name":"","type":"address"}],"stateMutability":"view","type":"function"},{"inputs":[{"internalType":"address","name":"","type":"address"},{"internalType":"address","name":"","type":"address"}],"name":"tokensLentAmount","outputs":[{"internalType":"uint256","name":"","type":"uint256"}],"stateMutability":"view","type":"function"},{"inputs":[{"internalType":"uint256","name":"","type":"uint256"},{"internalType":"address","name":"","type":"address"}],"name":"tokensLentOrBorrowed","outputs":[{"internalType":"address","name":"","type":"address"}],"stateMutability":"view","type":"function"},{"inputs":[{"internalType":"address","name":"newOwner","type":"address"}],"name":"transferOwnership","outputs":[],"stateMutability":"nonpayable","type":"function"},{"inputs":[{"internalType":"address","name":"tokenAddress","type":"address"},{"internalType":"uint256","name":"amount","type":"uint256"}],"name":"withdraw","outputs":[],"stateMutability":"nonpayable","type":"function"}],"bytecode":"60806040526000600c556000600d553480156200001b57600080fd5b5060405162003f1538038062003f158339810160408190526200003e91620000bf565b62000049336200006f565b600b80546001600160a01b0319166001600160a01b0392909216919091179055620000f1565b600080546001600160a01b038381166001600160a01b0319831681178455604051919092169283917f8be0079c531659141344cd1fd0a4f28419497f9722a3daafe3b4186f6b6457e09190a35050565b600060208284031215620000d257600080fd5b81516001600160a01b0381168114620000ea57600080fd5b9392505050565b613e1480620001016000396000f3fe6080604052600436106102305760003560e01c80638da5cb5b1161012e578063cd927409116100ab578063fb24af7f1161006f578063fb24af7f1461072b578063fc757b881461074b578063fdc8070e14610778578063fe726f80146107ad578063ff2f4465146107cd57600080fd5b8063cd92740914610675578063d7a9a25c146106b6578063f1c0e349146106cb578063f2fde38b146106eb578063f3fef3a31461070b57600080fd5b8063ab56ee66116100f2578063ab56ee66146105be578063b3d16f8d146105de578063b9f09bb8146105fe578063c0a8a54014610614578063c4543b671461065557600080fd5b80638da5cb5b14610515578063929eea2114610533578063a2fb342d14610553578063a7772b9714610566578063a8b741521461058657600080fd5b80634b3fd148116101bc57806374fd0ce01161018057806374fd0ce0146104315780637924d93f1461048a5780637b9ec997146104aa5780638078f22c146104ca5780638cf1806b1461050057600080fd5b80634b3fd148146103965780634fa9f5a4146103b6578063541d8338146103e65780636352b568146103fc578063715018a61461041c57600080fd5b80631818dd0b116102035780631818dd0b146102d85780631c9e5224146102fa57806327e8e1841461031c5780633c9d509314610354578063447007fd1461037657600080fd5b806306254c6a1461023557806308ae7fc21461026857806311f4f5d3146102985780631419f093146102b8575b600080fd5b34801561024157600080fd5b50610255610250366004613513565b6107ed565b6040519081526020015b60405180910390f35b34801561027457600080fd5b50610288610283366004613535565b610878565b60405161025f94939291906135a6565b3480156102a457600080fd5b506102556102b33660046135d3565b61094a565b3480156102c457600080fd5b506102556102d3366004613513565b610983565b3480156102e457600080fd5b506102f86102f33660046135d3565b610a14565b005b34801561030657600080fd5b5061030f610d67565b60405161025f9190613638565b34801561032857600080fd5b5061025561033736600461369a565b600360209081526000928352604080842090915290825290205481565b34801561036057600080fd5b50610369610e83565b60405161025f91906136cd565b34801561038257600080fd5b50610288610391366004613535565b610ee5565b3480156103a257600080fd5b506102f86103b136600461371a565b610ef5565b3480156103c257600080fd5b506103d66103d13660046137f4565b61141f565b604051901515815260200161025f565b3480156103f257600080fd5b50610255600d5481565b34801561040857600080fd5b50610255610417366004613513565b6115ac565b34801561042857600080fd5b506102f86115dc565b34801561043d57600080fd5b5061047261044c36600461371a565b60066020908152600092835260408084209091529082529020546001600160a01b031681565b6040516001600160a01b03909116815260200161025f565b34801561049657600080fd5b506104726104a5366004613535565b611612565b3480156104b657600080fd5b506102556104c5366004613513565b61163c565b3480156104d657600080fd5b506104726104e5366004613513565b6007602052600090815260409020546001600160a01b031681565b34801561050c57600080fd5b50610369611a09565b34801561052157600080fd5b506000546001600160a01b0316610472565b34801561053f57600080fd5b5061047261054e366004613535565b611a69565b6102f86105613660046135d3565b611a79565b34801561057257600080fd5b50610255610581366004613513565b611f52565b34801561059257600080fd5b506102556105a136600461369a565b600460209081526000928352604080842090915290825290205481565b3480156105ca57600080fd5b506102556105d9366004613513565b611fe3565b3480156105ea57600080fd5b506102f86105f936600461369a565b612066565b34801561060a57600080fd5b50610255600c5481565b34801561062057600080fd5b5061047261062f36600461371a565b60086020908152600092835260408084209091529082529020546001600160a01b031681565b34801561066157600080fd5b506102f861067036600461385c565b6120be565b34801561068157600080fd5b5061047261069036600461371a565b60056020908152600092835260408084209091529082529020546001600160a01b031681565b3480156106c257600080fd5b5061030f612327565b3480156106d757600080fd5b506102556106e63660046138b9565b61243a565b3480156106f757600080fd5b506102f8610706366004613513565b6124a7565b34801561071757600080fd5b506102f86107263660046135d3565b612542565b34801561073757600080fd5b5061025561074636600461371a565b612970565b34801561075757600080fd5b5061076b610766366004613513565b6129ae565b60405161025f9190613979565b34801561078457600080fd5b50610798610793366004613513565b612b60565b6040805192835260208301919091520161025f565b3480156107b957600080fd5b50600b54610472906001600160a01b031681565b3480156107d957600080fd5b506102f86107e836600461385c565b612c61565b6001546000908190156108725760005b6001548110156108705760006001828154811061081c5761081c61398c565b60009182526020808320909101546001600160a01b0388811684526003835260408085209190921680855292529091205490915061085a90846139b8565b9250508080610868906139d0565b9150506107fd565b505b92915050565b6009818154811061088857600080fd5b600091825260209091206004909102018054600182015460028301546003840180546001600160a01b039094169550919390929091906108c7906139eb565b80601f01602080910402602001604051908101604052809291908181526020018280546108f3906139eb565b80156109405780601f1061091557610100808354040283529160200191610940565b820191906000526020600020905b81548152906001019060200180831161092357829003601f168201915b5050505050905084565b600080610956846129ae565b9050670de0b6b3a76400008160400151846109719190613a26565b61097b9190613a45565b949350505050565b600080805b600d548110156108705760008181526006602090815260408083206001600160a01b038089168552925290912054168015610a01576001600160a01b038082166000908152600460209081526040808320938916835292905290812054906109f08284612970565b90506109fc81866139b8565b945050505b5080610a0c816139d0565b915050610988565b60008111610a3d5760405162461bcd60e51b8152600401610a3490613a67565b60405180910390fd5b6000610aa3336002805480602002602001604051908101604052809291908181526020018280548015610a9957602002820191906000526020600020905b81546001600160a01b03168152600190910190602001808311610a7b575b505050505061243a565b90506000811215610b115760405162461bcd60e51b815260206004820152603260248201527f557365722061646472657373206973206e6f7420666f756e6420696e20746865604482015271206c697374206f6620626f72726f7765727360701b6064820152608401610a34565b6001600160a01b038316600090815260046020908152604080832033845290915290205480610b775760405162461bcd60e51b8152602060048201526012602482015271596f752020617265206e6f74206f77696e6760701b6044820152606401610a34565b836000610b84828461094a565b610b8e90866139b8565b6040516323b872dd60e01b8152336004820152306024820152604481018290529091506001600160a01b038316906323b872dd906064016020604051808303816000875af1158015610be4573d6000803e3d6000fd5b505050506040513d601f19601f82011682018060405250810190610c089190613a9e565b506001600160a01b0386166000908152600460209081526040808320338452909152902054610c38908690613ac0565b6001600160a01b038716600090815260046020908152604080832033808552925282209290925590610c6990610983565b905080610d1e5760028054610c8090600190613ac0565b81548110610c9057610c9061398c565b600091825260209091200154600280546001600160a01b039092169187908110610cbc57610cbc61398c565b9060005260206000200160006101000a8154816001600160a01b0302191690836001600160a01b031602179055506002805480610cfb57610cfb613ad7565b600082815260209020810160001990810180546001600160a01b03191690550190555b7ff17f5805b2095d17ffe834aff3fc2eeff114bfbc250e98f248783f8d34d40042338686856002604051610d56959493929190613b36565b60405180910390a150505050505050565b60606009805480602002602001604051908101604052809291908181526020016000905b82821015610e7a576000848152602090819020604080516080810182526004860290920180546001600160a01b03168352600181015493830193909352600283015490820152600382018054919291606084019190610de9906139eb565b80601f0160208091040260200160405190810160405280929190818152602001828054610e15906139eb565b8015610e625780601f10610e3757610100808354040283529160200191610e62565b820191906000526020600020905b815481529060010190602001808311610e4557829003601f168201915b50505050508152505081526020019060010190610d8b565b50505050905090565b60606001805480602002602001604051908101604052809291908181526020018280548015610edb57602002820191906000526020600020905b81546001600160a01b03168152600190910190602001808311610ebd575b5050505050905090565b600a818154811061088857600080fd5b61101381600a805480602002602001604051908101604052809291908181526020016000905b8282101561100a576000848152602090819020604080516080810182526004860290920180546001600160a01b03168352600181015493830193909352600283015490820152600382018054919291606084019190610f79906139eb565b80601f0160208091040260200160405190810160405280929190818152602001828054610fa5906139eb565b8015610ff25780601f10610fc757610100808354040283529160200191610ff2565b820191906000526020600020905b815481529060010190602001808311610fd557829003601f168201915b50505050508152505081526020019060010190610f1b565b50505050612eb6565b61106b5760405162461bcd60e51b8152602060048201526024808201527f546f6b656e206973206e6f7420737570706f7274656420666f7220626f72726f60448201526377696e6760e01b6064820152608401610a34565b6000821161108b5760405162461bcd60e51b8152600401610a3490613a67565b60006110963361163c565b905060006110a48484612970565b9050818111156111155760405162461bcd60e51b815260206004820152603660248201527f596f7520646f6e2774206861766520656e6f75676820636f6c6c61746572616c604482015275081d1bc8189bdc9c9bddc81d1a1a5cc8185b5bdd5b9d60521b6064820152608401610a34565b6040516370a0823160e01b8152306004820152839085906001600160a01b038316906370a0823190602401602060405180830381865afa15801561115d573d6000803e3d6000fd5b505050506040513d601f19601f820116820180604052508101906111819190613b74565b116111ed5760405162461bcd60e51b815260206004820152603660248201527f576520646f206e6f74206861766520656e6f756768206f66207468697320746f60448201527535b2b7103337b9103cb7ba903a37903137b93937bb9760511b6064820152608401610a34565b60405163a9059cbb60e01b8152336004820152602481018690526001600160a01b0382169063a9059cbb906044016020604051808303816000875af115801561123a573d6000803e3d6000fd5b505050506040513d601f19601f8201168201806040525081019061125e9190613a9e565b506000806112c63360028054806020026020016040519081016040528092919081815260200182805480156112bc57602002820191906000526020600020905b81546001600160a01b0316815260019091019060200180831161129e575b5050505050612f31565b915091508115611302576112fd86888360405180604001604052806009815260200168626f72726f7765727360b81b815250612fb3565b6113bf565b60028054600181019091557f405787fa12a823e0f2b7631cc41b3ba8828b3321ca811111fa75cd3aa3bb5ace0180546001600160a01b031916339081179091556001600160a01b0387166000908152600460209081526040808320938352929052908120889055600d805488926006929091908261137f836139d0565b90915550815260208082019290925260409081016000908120338252909252902080546001600160a01b0319166001600160a01b03929092169190911790555b6001600160a01b0386166000908152600460209081526040808320338085529252918290205491517f699548a5535b752f15032eb2be1672b2e5e62ddc5d461d4edb5a9321d7cbd25292610d56929188918a918891889160029190613b8d565b600082156115a157604051691d1bdad95b9cd3195b9d60b21b6020820152602a0160405160208183030381529060405280519060200120826040516020016114679190613bdc565b6040516020818303038152906040528051906020012014156114e45760005b600c548110156114de5760008181526005602090815260408083206001600160a01b03808b16855292529091205481169086168114156114cb5760019250505061097b565b50806114d6816139d0565b915050611486565b506115a1565b6040516d1d1bdad95b9cd09bdc9c9bddd95960921b6020820152602e0160405160208183030381529060405280519060200120826040516020016115289190613bdc565b6040516020818303038152906040528051906020012014156115a15760005b600d5481101561159f5760008181526006602090815260408083206001600160a01b03808b168552925290912054811690861681141561158c5760019250505061097b565b5080611597816139d0565b915050611547565b505b506000949350505050565b6000806115b883611f52565b905060006115c584610983565b905060006115d38284613ac0565b95945050505050565b6000546001600160a01b031633146116065760405162461bcd60e51b8152600401610a3490613bf8565b61161060006132f5565b565b6002818154811061162257600080fd5b6000918252602090912001546001600160a01b0316905081565b60008080805b600154811015611832576000600182815481106116615761166161398c565b6000918252602090912001546001600160a01b039081169150861681141561181f5760005b60095481101561181d576000600982815481106116a5576116a561398c565b90600052602060002090600402016040518060800160405290816000820160009054906101000a90046001600160a01b03166001600160a01b03166001600160a01b031681526020016001820154815260200160028201548152602001600382018054611711906139eb565b80601f016020809104026020016040519081016040528092919081815260200182805461173d906139eb565b801561178a5780601f1061175f5761010080835404028352916020019161178a565b820191906000526020600020905b81548152906001019060200180831161176d57829003601f168201915b50505091909252505081516001600160a01b039081166000908152600360209081526040808320938e168352929052908120548351939450929091506117d1908390612970565b90506000670de0b6b3a76400008460200151836117ee9190613a26565b6117f89190613a45565b9050611804818a6139b8565b9850505050508080611815906139d0565b915050611686565b505b508061182a816139d0565b915050611642565b5060005b6002548110156119fe576000600282815481106118555761185561398c565b6000918252602090912001546001600160a01b03908116915086168114156119eb5760005b600a548110156119e9576000600a82815481106118995761189961398c565b90600052602060002090600402016040518060800160405290816000820160009054906101000a90046001600160a01b03166001600160a01b03166001600160a01b031681526020016001820154815260200160028201548152602001600382018054611905906139eb565b80601f0160208091040260200160405190810160405280929190818152602001828054611931906139eb565b801561197e5780601f106119535761010080835404028352916020019161197e565b820191906000526020600020905b81548152906001019060200180831161196157829003601f168201915b50505091909252505081516001600160a01b039081166000908152600460209081526040808320938e168352929052908120548351939450929091506119c5908390612970565b90506119d181886139b8565b965050505080806119e1906139d0565b91505061187a565b505b50806119f6816139d0565b915050611836565b5061097b8183613ac0565b60606002805480602002602001604051908101604052809291908181526020018280548015610edb576020028201919060005260206000209081546001600160a01b03168152600190910190602001808311610ebd575050505050905090565b6001818154811061162257600080fd5b611b8e826009805480602002602001604051908101604052809291908181526020016000905b8282101561100a576000848152602090819020604080516080810182526004860290920180546001600160a01b03168352600181015493830193909352600283015490820152600382018054919291606084019190611afd906139eb565b80601f0160208091040260200160405190810160405280929190818152602001828054611b29906139eb565b8015611b765780601f10611b4b57610100808354040283529160200191611b76565b820191906000526020600020905b815481529060010190602001808311611b5957829003601f168201915b50505050508152505081526020019060010190611a9f565b611bd35760405162461bcd60e51b8152602060048201526016602482015275151bdad95b881a5cc81b9bdd081cdd5c1c1bdc9d195960521b6044820152606401610a34565b60008111611c395760405162461bcd60e51b815260206004820152602d60248201527f54686520616d6f756e7420746f20737570706c792073686f756c64206265206760448201526c0726561746572207468616e203609c1b6064820152608401610a34565b6040516370a0823160e01b8152336004820152829082906001600160a01b038316906370a0823190602401602060405180830381865afa158015611c81573d6000803e3d6000fd5b505050506040513d601f19601f82011682018060405250810190611ca59190613b74565b1015611d0d5760405162461bcd60e51b815260206004820152603160248201527f596f75206861766520696e73756666696369656e7420746f6b656e20746f20736044820152701d5c1c1b1e481d1a185d08185b5bdd5b9d607a1b6064820152608401610a34565b6040516323b872dd60e01b8152336004820152306024820152604481018390526001600160a01b038216906323b872dd906064016020604051808303816000875af1158015611d60573d6000803e3d6000fd5b505050506040513d601f19601f82011682018060405250810190611d849190613a9e565b50600080611dea3360018054806020026020016040519081016040528092919081815260200182805480156112bc576020028201919060005260206000209081546001600160a01b0316815260019091019060200180831161129e575050505050612f31565b915091508115611e2457611e1f858583604051806040016040528060078152602001666c656e6465727360c81b815250612fb3565b611ee0565b600180548082019091557fb10e2d527612073b26eecdfd717e6a320cf44b4afac2b0732d9fcbe2b7fa0cf60180546001600160a01b031916339081179091556001600160a01b0386166000908152600360209081526040808320938352929052908120859055600c8054879260059290919082611ea0836139d0565b90915550815260208082019290925260409081016000908120338252909252902080546001600160a01b0319166001600160a01b03929092169190911790555b611eeb338686613345565b6001600160a01b0385166000908152600360209081526040808320338085529252918290205491517fbb33ffe04605a99e7885b3013bcc050161d1906b3611f09fed70a0c61e1f03de92611f43929160019190613c2d565b60405180910390a15050505050565b600080805b600c548110156108705760008181526005602090815260408083206001600160a01b038089168552925290912054168015611fd0576001600160a01b03808216600090815260036020908152604080832093891683529290529081205490611fbf8284612970565b9050611fcb81866139b8565b945050505b5080611fdb816139d0565b915050611f57565b6002546000908190156108725760005b600254811015610870576000600282815481106120125761201261398c565b60009182526020808320909101546001600160a01b0388811684526004835260408085209190921680855292529091205490915061205090846139b8565b925050808061205e906139d0565b915050611ff3565b6000546001600160a01b031633146120905760405162461bcd60e51b8152600401610a3490613bf8565b6001600160a01b03918216600090815260076020526040902080546001600160a01b03191691909216179055565b6000546001600160a01b031633146120e85760405162461bcd60e51b8152600401610a3490613bf8565b60006040518060800160405280856001600160a01b03168152602001848152602001838152602001868152509050612234816009805480602002602001604051908101604052809291908181526020016000905b8282101561222b576000848152602090819020604080516080810182526004860290920180546001600160a01b0316835260018101549383019390935260028301549082015260038201805491929160608401919061219a906139eb565b80601f01602080910402602001604051908101604052809291908181526020018280546121c6906139eb565b80156122135780601f106121e857610100808354040283529160200191612213565b820191906000526020600020905b8154815290600101906020018083116121f657829003601f168201915b5050505050815250508152602001906001019061213c565b505050506133ea565b612320576009805460018101825560009190915281517f6e1540171b6c0c960b71a7020d9f60077f6af931a8bbf590da0223dacf75c7af600490920291820180546001600160a01b0319166001600160a01b039092169190911781556020808401517f6e1540171b6c0c960b71a7020d9f60077f6af931a8bbf590da0223dacf75c7b084015560408401517f6e1540171b6c0c960b71a7020d9f60077f6af931a8bbf590da0223dacf75c7b184015560608401518051859461231c937f6e1540171b6c0c960b71a7020d9f60077f6af931a8bbf590da0223dacf75c7b290910192019061345e565b5050505b5050505050565b6060600a805480602002602001604051908101604052809291908181526020016000905b82821015610e7a576000848152602090819020604080516080810182526004860290920180546001600160a01b031683526001810154938301939093526002830154908201526003820180549192916060840191906123a9906139eb565b80601f01602080910402602001604051908101604052809291908181526020018280546123d5906139eb565b80156124225780601f106123f757610100808354040283529160200191612422565b820191906000526020600020905b81548152906001019060200180831161240557829003601f168201915b5050505050815250508152602001906001019061234b565b6000600019815b835181101561249f57600084828151811061245e5761245e61398c565b60200260200101519050856001600160a01b0316816001600160a01b0316141561248c575091506108729050565b5080612497816139d0565b915050612441565b509392505050565b6000546001600160a01b031633146124d15760405162461bcd60e51b8152600401610a3490613bf8565b6001600160a01b0381166125365760405162461bcd60e51b815260206004820152602660248201527f4f776e61626c653a206e6577206f776e657220697320746865207a65726f206160448201526564647265737360d01b6064820152608401610a34565b61253f816132f5565b50565b600081116125625760405162461bcd60e51b8152600401610a3490613a67565b60006125c6336001805480602002602001604051908101604052809291908181526020018280548015610a99576020028201919060005260206000209081546001600160a01b03168152600190910190602001808311610a7b57505050505061243a565b905060008112156126325760405162461bcd60e51b815260206004820152603060248201527f557365722061646472657373206973206e6f7420666f756e6420696e2074686560448201526f206c697374206f66206c656e6465727360801b6064820152608401610a34565b82600061263f8483612970565b9050600061264c336115ac565b90508082106127055760405162461bcd60e51b815260206004820152607360248201527f596f752068617665207573656420736f6d65206f6620796f757220737570706c60448201527f69657320617320796f757220636f6c6c61746572616c2e2050617920796f757260648201527f2064656274206265666f726520796f752063616e20626520616c6c6f77656420608482015272746f2077697468647261772e205468616e6b7360681b60a482015260c401610a34565b60006127118688612970565b600b546040516323b872dd60e01b8152336004820152306024820152604481018390529192506001600160a01b0316906323b872dd906064016020604051808303816000875af1158015612769573d6000803e3d6000fd5b505050506040513d601f19601f8201168201806040525081019061278d9190613a9e565b5060405163a9059cbb60e01b8152336004820152602481018790526001600160a01b0385169063a9059cbb906044016020604051808303816000875af11580156127db573d6000803e3d6000fd5b505050506040513d601f19601f820116820180604052508101906127ff9190613a9e565b506001600160a01b038716600090815260036020908152604080832033845290915290205461282f908790613ac0565b6001600160a01b03881660009081526003602090815260408083203380855292528220929092559061286090611f52565b60408051338152602081018a905290810186905260608101859052608081018290529091507fe08737ac48a1dab4b1a46c7dc9398bd5bfc6d7ad6fabb7cd8caa254de14def359060a00160405180910390a16000811161231c57600180546128c9908290613ac0565b815481106128d9576128d961398c565b600091825260209091200154600180546001600160a01b0390921691889081106129055761290561398c565b9060005260206000200160006101000a8154816001600160a01b0302191690836001600160a01b03160217905550600180548061294457612944613ad7565b600082815260209020810160001990810180546001600160a01b03191690550190555050505050505050565b600080600061297e84612b60565b9092509050600061299082600a613d45565b61299a8488613a26565b6129a49190613a45565b9695505050505050565b6129e2604051806080016040528060006001600160a01b031681526020016000815260200160008152602001606081525090565b612a16604051806080016040528060006001600160a01b031681526020016000815260200160008152602001606081525090565b60005b600a54811015610870576000600a8281548110612a3857612a3861398c565b90600052602060002090600402016040518060800160405290816000820160009054906101000a90046001600160a01b03166001600160a01b03166001600160a01b031681526020016001820154815260200160028201548152602001600382018054612aa4906139eb565b80601f0160208091040260200160405190810160405280929190818152602001828054612ad0906139eb565b8015612b1d5780601f10612af257610100808354040283529160200191612b1d565b820191906000526020600020905b815481529060010190602001808311612b0057829003601f168201915b5050505050815250509050846001600160a01b031681600001516001600160a01b03161415612b4d579150610870565b5080612b58816139d0565b915050612a19565b6001600160a01b03808216600090815260076020526040808220548151633fabe5a360e21b815291519293849391169182918491839163feaf968c9160048082019260a0929091908290030181865afa158015612bc1573d6000803e3d6000fd5b505050506040513d601f19601f82011682018060405250810190612be59190613d6b565b5050509150506000826001600160a01b031663313ce5676040518163ffffffff1660e01b8152600401602060405180830381865afa158015612c2b573d6000803e3d6000fd5b505050506040513d601f19601f82011682018060405250810190612c4f9190613dbb565b919760ff909216965090945050505050565b6000546001600160a01b03163314612c8b5760405162461bcd60e51b8152600401610a3490613bf8565b60006040518060800160405280856001600160a01b03168152602001848152602001838152602001868152509050612dce81600a805480602002602001604051908101604052809291908181526020016000905b8282101561222b576000848152602090819020604080516080810182526004860290920180546001600160a01b03168352600181015493830193909352600283015490820152600382018054919291606084019190612d3d906139eb565b80601f0160208091040260200160405190810160405280929190818152602001828054612d69906139eb565b8015612db65780601f10612d8b57610100808354040283529160200191612db6565b820191906000526020600020905b815481529060010190602001808311612d9957829003601f168201915b50505050508152505081526020019060010190612cdf565b61232057600a805460018101825560009190915281517fc65a7bb8d6351c1cf70c95a316cc6a92839c986682d98bc35f958f4883f9d2a8600490920291820180546001600160a01b0319166001600160a01b039092169190911781556020808401517fc65a7bb8d6351c1cf70c95a316cc6a92839c986682d98bc35f958f4883f9d2a984015560408401517fc65a7bb8d6351c1cf70c95a316cc6a92839c986682d98bc35f958f4883f9d2aa84015560608401518051859461231c937fc65a7bb8d6351c1cf70c95a316cc6a92839c986682d98bc35f958f4883f9d2ab90910192019061345e565b805160009015612f285760005b8251811015612f26576000838281518110612ee057612ee061398c565b60200260200101519050846001600160a01b031681600001516001600160a01b03161415612f1357600192505050610872565b5080612f1e816139d0565b915050612ec3565b505b50600092915050565b600080600083511115612fa35760005b8351811015612fa1576000848281518110612f5e57612f5e61398c565b60200260200101519050856001600160a01b0316816001600160a01b03161415612f8e5750600192509050612fac565b5080612f99816139d0565b915050612f41565b505b50600090506000195b9250929050565b604051666c656e6465727360c81b60208201526027016040516020818303038152906040528051906020012081604051602001612ff09190613bdc565b604051602081830303815290604052805190602001201415613150576000600183815481106130215761302161398c565b9060005260206000200160009054906101000a90046001600160a01b0316905060006130738287600c546040518060400160405280600a8152602001691d1bdad95b9cd3195b9d60b21b81525061141f565b905080156130d7576001600160a01b038087166000908152600360209081526040808320938616835292905220546130ac9086906139b8565b6001600160a01b03808816600090815260036020908152604080832093871683529290522055613149565b600c80548791600591600091826130ed836139d0565b909155508152602080820192909252604090810160009081206001600160a01b0387811680845291855283832080546001600160a01b03191696821696909617909555938a168152600383528181209381529290915290208590555b50506132ef565b60405168626f72726f7765727360b81b6020820152602901604051602081830303815290604052805190602001208160405160200161318f9190613bdc565b6040516020818303038152906040528051906020012014156132ef576000600283815481106131c0576131c061398c565b9060005260206000200160009054906101000a90046001600160a01b0316905060006132168287600d546040518060400160405280600e81526020016d1d1bdad95b9cd09bdc9c9bddd95960921b81525061141f565b9050801561327a576001600160a01b0380871660009081526004602090815260408083209386168352929052205461324f9086906139b8565b6001600160a01b038088166000908152600460209081526040808320938716835292905220556132ec565b600d8054879160069160009182613290836139d0565b909155508152602080820192909252604090810160009081206001600160a01b0387811680845291855283832080546001600160a01b03191696821696909617909555938a168152600483528181209381529290915290208590555b50505b50505050565b600080546001600160a01b038381166001600160a01b0319831681178455604051919092169283917f8be0079c531659141344cd1fd0a4f28419497f9722a3daafe3b4186f6b6457e09190a35050565b600081116133655760405162461bcd60e51b8152600401610a3490613a67565b60006133718284612970565b600b5460405163a9059cbb60e01b81526001600160a01b0387811660048301526024820184905292935091169063a9059cbb906044016020604051808303816000875af11580156133c6573d6000803e3d6000fd5b505050506040513d601f19601f820116820180604052508101906123209190613a9e565b805160009015612f285760005b8251811015612f265760008382815181106134145761341461398c565b6020026020010151905084600001516001600160a01b031681600001516001600160a01b0316141561344b57600192505050610872565b5080613456816139d0565b9150506133f7565b82805461346a906139eb565b90600052602060002090601f01602090048101928261348c57600085556134d2565b82601f106134a557805160ff19168380011785556134d2565b828001600101855582156134d2579182015b828111156134d25782518255916020019190600101906134b7565b506134de9291506134e2565b5090565b5b808211156134de57600081556001016134e3565b80356001600160a01b038116811461350e57600080fd5b919050565b60006020828403121561352557600080fd5b61352e826134f7565b9392505050565b60006020828403121561354757600080fd5b5035919050565b60005b83811015613569578181015183820152602001613551565b838111156132ef5750506000910152565b6000815180845261359281602086016020860161354e565b601f01601f19169290920160200192915050565b60018060a01b03851681528360208201528260408201526080606082015260006129a4608083018461357a565b600080604083850312156135e657600080fd5b6135ef836134f7565b946020939093013593505050565b60018060a01b0381511682526020810151602083015260408101516040830152600060608201516080606085015261097b608085018261357a565b6000602080830181845280855180835260408601915060408160051b870101925083870160005b8281101561368d57603f1988860301845261367b8583516135fd565b9450928501929085019060010161365f565b5092979650505050505050565b600080604083850312156136ad57600080fd5b6136b6836134f7565b91506136c4602084016134f7565b90509250929050565b6020808252825182820181905260009190848201906040850190845b8181101561370e5783516001600160a01b0316835292840192918401916001016136e9565b50909695505050505050565b6000806040838503121561372d57600080fd5b823591506136c4602084016134f7565b634e487b7160e01b600052604160045260246000fd5b604051601f8201601f1916810167ffffffffffffffff8111828210171561377c5761377c61373d565b604052919050565b600082601f83011261379557600080fd5b813567ffffffffffffffff8111156137af576137af61373d565b6137c2601f8201601f1916602001613753565b8181528460208386010111156137d757600080fd5b816020850160208301376000918101602001919091529392505050565b6000806000806080858703121561380a57600080fd5b613813856134f7565b9350613821602086016134f7565b925060408501359150606085013567ffffffffffffffff81111561384457600080fd5b61385087828801613784565b91505092959194509250565b6000806000806080858703121561387257600080fd5b843567ffffffffffffffff81111561388957600080fd5b61389587828801613784565b9450506138a4602086016134f7565b93969395505050506040820135916060013590565b600080604083850312156138cc57600080fd5b6138d5836134f7565b915060208084013567ffffffffffffffff808211156138f357600080fd5b818601915086601f83011261390757600080fd5b8135818111156139195761391961373d565b8060051b915061392a848301613753565b818152918301840191848101908984111561394457600080fd5b938501935b838510156139695761395a856134f7565b82529385019390850190613949565b8096505050505050509250929050565b60208152600061352e60208301846135fd565b634e487b7160e01b600052603260045260246000fd5b634e487b7160e01b600052601160045260246000fd5b600082198211156139cb576139cb6139a2565b500190565b60006000198214156139e4576139e46139a2565b5060010190565b600181811c908216806139ff57607f821691505b60208210811415613a2057634e487b7160e01b600052602260045260246000fd5b50919050565b6000816000190483118215151615613a4057613a406139a2565b500290565b600082613a6257634e487b7160e01b600052601260045260246000fd5b500490565b6020808252601f908201527f416d6f756e742073686f756c642062652067726561746572207468616e203000604082015260600190565b600060208284031215613ab057600080fd5b8151801515811461352e57600080fd5b600082821015613ad257613ad26139a2565b500390565b634e487b7160e01b600052603160045260246000fd5b6000815480845260208085019450836000528060002060005b83811015613b2b5781546001600160a01b031687529582019560019182019101613b06565b509495945050505050565b60018060a01b038616815284602082015283604082015282606082015260a060808201526000613b6960a0830184613aed565b979650505050505050565b600060208284031215613b8657600080fd5b5051919050565b60018060a01b0388168152866020820152856040820152841515606082015283608082015260e060a08201526000613bc860e0830185613aed565b90508260c083015298975050505050505050565b60008251613bee81846020870161354e565b9190910192915050565b6020808252818101527f4f776e61626c653a2063616c6c6572206973206e6f7420746865206f776e6572604082015260600190565b6001600160a01b0384168152606060208201819052600090613c5190830185613aed565b9050826040830152949350505050565b600181815b80851115613c9c578160001904821115613c8257613c826139a2565b80851615613c8f57918102915b93841c9390800290613c66565b509250929050565b600082613cb357506001610872565b81613cc057506000610872565b8160018114613cd65760028114613ce057613cfc565b6001915050610872565b60ff841115613cf157613cf16139a2565b50506001821b610872565b5060208310610133831016604e8410600b8410161715613d1f575081810a610872565b613d298383613c61565b8060001904821115613d3d57613d3d6139a2565b029392505050565b600061352e8383613ca4565b805169ffffffffffffffffffff8116811461350e57600080fd5b600080600080600060a08688031215613d8357600080fd5b613d8c86613d51565b9450602086015193506040860151925060608601519150613daf60808701613d51565b90509295509295909350565b600060208284031215613dcd57600080fd5b815160ff8116811461352e57600080fdfea2646970667358221220826b49843246b7e02acbc4a17b3413017ace39a71963f527b6b3a4dcb9646da264736f6c634300080b0033","bytecodeSha1":"3c33afb01cf384b7789aa77d633f1392af38663f","compiler":{"evm_version":"istanbul","optimizer":{"enabled":true,"runs":200},"version":"0.8.11+commit.d7f03943"},"contractName":"LendingAndBorrowing","language":"Solidity","natspec":{"kind":"dev","methods":{"owner()":{"details":"Returns the address of the current owner."},"renounceOwnership()":{"details":"Leaves the contract without owner. It will not be possible to call `onlyOwner` functions anymore. Can only be called by the current owner. NOTE: Renouncing ownership will leave the contract without an owner, thereby removing any functionality that is only available to the owner."},"transferOwnership(address)":{"details":"Transfers ownership of the contract to a new account (`newOwner`). Can only be called by the current owner."}},"version":1},"opcodes":"PUSH1 0x80 PUSH1 0x40 MSTORE PUSH1 0x4 CALLDATASIZE LT PUSH2 0x230 JUMPI PUSH1 0x0 CALLDATALOAD PUSH1 0xE0 SHR DUP1 PUSH4 0x8DA5CB5B GT PUSH2 0x12E JUMPI DUP1 PUSH4 0xCD927409 GT PUSH2 0xAB JUMPI DUP1 PUSH4 0xFB24AF7F GT PUSH2 0x6F JUMPI DUP1 PUSH4 0xFB24AF7F EQ PUSH2 0x72B JUMPI DUP1 PUSH4 0xFC757B88 EQ PUSH2 0x74B JUMPI DUP1 PUSH4 0xFDC8070E EQ PUSH2 0x778 JUMPI DUP1 PUSH4 0xFE726F80 EQ PUSH2 0x7AD JUMPI DUP1 PUSH4 0xFF2F4465 EQ PUSH2 0x7CD JUMPI PUSH1 0x0 DUP1 REVERT JUMPDEST DUP1 PUSH4 0xCD927409 EQ PUSH2 0x675 JUMPI DUP1 PUSH4 0xD7A9A25C EQ PUSH2 0x6B6 JUMPI DUP1 PUSH4 0xF1C0E349 EQ PUSH2 0x6CB JUMPI DUP1 PUSH4 0xF2FDE38B EQ PUSH2 0x6EB JUMPI DUP1 PUSH4 0xF3FEF3A3 EQ PUSH2 0x70B JUMPI PUSH1 0x0 DUP1 REVERT JUMPDEST DUP1 PUSH4 0xAB56EE66 GT PUSH2 0xF2 JUMPI DUP1 PUSH4 0xAB56EE66 EQ PUSH2 0x5BE JUMPI DUP1 PUSH4 0xB3D16F8D EQ PUSH2 0x5DE JUMPI DUP1 PUSH4 0xB9F09BB8 EQ PUSH2 0x5FE JUMPI DUP1 PUSH4 0xC0A8A540 EQ PUSH2 0x614 JUMPI DUP1 PUSH4 0xC4543B67 EQ PUSH2 0x655 JUMPI PUSH1 0x0 DUP1 REVERT JUMPDEST DUP1 PUSH4 0x8DA5CB5B EQ PUSH2 0x515 JUMPI DUP1 PUSH4 0x929EEA21 EQ PUSH2 0x533 JUMPI DUP1 PUSH4 0xA2FB342D EQ PUSH2 0x553 JUMPI DUP1 PUSH4 0xA7772B97 EQ PUSH2 0x566 JUMPI DUP1 PUSH4 0xA8B74152 EQ PUSH2 0x586 JUMPI PUSH1 0x0 DUP1 REVERT JUMPDEST DUP1 PUSH4 0x4B3FD148 GT PUSH2 0x1BC JUMPI DUP1 PUSH4 0x74FD0CE0 GT PUSH2 0x180 JUMPI DUP1 PUSH4 0x74FD0CE0 EQ PUSH2 0x431 JUMPI DUP1 PUSH4 0x7924D93F EQ PUSH2 0x48A JUMPI DUP1 PUSH4 0x7B9EC997 EQ PUSH2 0x4AA JUMPI DUP1 PUSH4 0x8078F22C EQ PUSH2 0x4CA JUMPI DUP1 PUSH4 0x8CF1806B EQ PUSH2 0x500 JUMPI PUSH1 0x0 DUP1 REVERT JUMPDEST DUP1 PUSH4 0x4B3FD148 EQ PUSH2 0x396 JUMPI DUP1 PUSH4 0x4FA9F5A4 EQ PUSH2 0x3B6 JUMPI DUP1 PUSH4 0x541D8338 EQ PUSH2 0x3E6 JUMPI DUP1 PUSH4 0x6352B568 EQ PUSH2 0x3FC JUMPI DUP1 PUSH4 0x715018A6 EQ PUSH2 0x41C JUMPI PUSH1 0x0 DUP1 REVERT JUMPDEST DUP1 PUSH4 0x1818DD0B GT PUSH2 0x203 JUMPI DUP1 PUSH4 0x1818DD0B EQ PUSH2 0x2D8 JUMPI DUP1 PUSH4 0x1C9E5224 EQ PUSH2 0x2FA JUMPI DUP1 PUSH4 0x27E8E184 EQ PUSH2 0x31C JUMPI DUP1 PUSH4 0x3C9D5093 EQ PUSH2 0x354 JUMPI DUP1 PUSH4 0x447007FD EQ PUSH2 0x376 JUMPI PUSH1 0x0 DUP1 REVERT JUMPDEST DUP1 PUSH4 0x6254C6A EQ PUSH2 0x235 JUMPI DUP1 PUSH4 0x8AE7FC2 EQ PUSH2 0x268 JUMPI DUP1 PUSH4 0x11F4F5D3 EQ PUSH2 0x298 JUMPI DUP1 PUSH4 0x1419F093 EQ PUSH2 0x2B8 JUMPI JUMPDEST PUSH1 0x0 DUP1 REVERT JUMPDEST CALLVALUE DUP1 ISZERO PUSH2 0x241 JUMPI PUSH1 0x0 DUP1 REVERT JUMPDEST POP PUSH2 0x255 PUSH2 0x250 CALLDATASIZE PUSH1 0x4 PUSH2 0x3513 JUMP JUMPDEST PUSH2 0x7ED JUMP JUMPDEST PUSH1 0x40 MLOAD SWAP1 DUP2 MSTORE PUSH1 0x20 ADD JUMPDEST PUSH1 0x40 MLOAD DUP1 SWAP2 SUB SWAP1 RETURN JUMPDEST CALLVALUE DUP1 ISZERO PUSH2 0x274 JUMPI PUSH1 0x0 DUP1 REVERT JUMPDEST POP PUSH2 0x288 PUSH2 0x283 CALLDATASIZE PUSH1 0x4 PUSH2 0x3535 JUMP JUMPDEST PUSH2 0x878 JUMP JUMPDEST PUSH1 0x40 MLOAD PUSH2 0x25F SWAP5 SWAP4 SWAP3 SWAP2 SWAP1 PUSH2 0x35A6 JUMP JUMPDEST CALLVALUE DUP1 ISZERO PUSH2 0x2A4 JUMPI PUSH1 0x0 DUP1 REVERT JUMPDEST POP PUSH2 0x255 PUSH2 0x2B3 CALLDATASIZE PUSH1 0x4 PUSH2 0x35D3 JUMP JUMPDEST PUSH2 0x94A JUMP JUMPDEST CALLVALUE DUP1 ISZERO PUSH2 0x2C4 JUMPI PUSH1 0x0 DUP1 REVERT JUMPDEST POP PUSH2 0x255 PUSH2 0x2D3 CALLDATASIZE PUSH1 0x4 PUSH2 0x3513 JUMP JUMPDEST PUSH2 0x983 JUMP JUMPDEST CALLVALUE DUP1 ISZERO PUSH2 0x2E4 JUMPI PUSH1 0x0 DUP1 REVERT JUMPDEST POP PUSH2 0x2F8 PUSH2 0x2F3 CALLDATASIZE PUSH1 0x4 PUSH2 0x35D3 JUMP JUMPDEST PUSH2 0xA14 JUMP JUMPDEST STOP JUMPDEST CALLVALUE DUP1 ISZERO PUSH2 0x306 JUMPI PUSH1 0x0 DUP1 REVERT JUMPDEST POP PUSH2 0x30F PUSH2 0xD67 JUMP JUMPDEST PUSH1 0x40 MLOAD PUSH2 0x25F SWAP2 SWAP1 PUSH2 0x3638 JUMP JUMPDEST CALLVALUE DUP1 ISZERO PUSH2 0x328 JUMPI PUSH1 0x0 DUP1 REVERT JUMPDEST POP PUSH2 0x255 PUSH2 0x337 CALLDATASIZE PUSH1 0x4 PUSH2 0x369A JUMP JUMPDEST PUSH1 0x3 PUSH1 0x20 SWAP1 DUP2 MSTORE PUSH1 0x0 SWAP3 DUP4 MSTORE PUSH1 0x40 DUP1 DUP5 KECCAK256 SWAP1 SWAP2 MSTORE SWAP1 DUP3 MSTORE SWAP1 KECCAK256 SLOAD DUP2 JUMP JUMPDEST CALLVALUE DUP1 ISZERO PUSH2 0x360 JUMPI PUSH1 0x0 DUP1 REVERT JUMPDEST POP PUSH2 0x369 PUSH2 0xE83 JUMP JUMPDEST PUSH1 0x40 MLOAD PUSH2 0x25F SWAP2 SWAP1 PUSH2 0x36CD JUMP JUMPDEST CALLVALUE DUP1 ISZERO PUSH2 0x382 JUMPI PUSH1 0x0 DUP1 REVERT JUMPDEST POP PUSH2 0x288 PUSH2 0x391 CALLDATASIZE PUSH1 0x4 PUSH2 0x3535 JUMP JUMPDEST PUSH2 0xEE5 JUMP JUMPDEST CALLVALUE DUP1 ISZERO PUSH2 0x3A2 JUMPI PUSH1 0x0 DUP1 REVERT JUMPDEST POP PUSH2 0x2F8 PUSH2 0x3B1 CALLDATASIZE PUSH1 0x4 PUSH2 0x371A JUMP JUMPDEST PUSH2 0xEF5 JUMP JUMPDEST CALLVALUE DUP1 ISZERO PUSH2 0x3C2 JUMPI PUSH1 0x0 DUP1 REVERT JUMPDEST POP PUSH2 0x3D6 PUSH2 0x3D1 CALLDATASIZE PUSH1 0x4 PUSH2 0x37F4 JUMP JUMPDEST PUSH2 0x141F JUMP JUMPDEST PUSH1 0x40 MLOAD SWAP1 ISZERO ISZERO DUP2 MSTORE PUSH1 0x20 ADD PUSH2 0x25F JUMP JUMPDEST CALLVALUE DUP1 ISZERO PUSH2 0x3F2 JUMPI PUSH1 0x0 DUP1 REVERT JUMPDEST POP PUSH2 0x255 PUSH1 0xD SLOAD DUP2 JUMP JUMPDEST CALLVALUE DUP1 ISZERO PUSH2 0x408 JUMPI PUSH1 0x0 DUP1 REVERT JUMPDEST POP PUSH2 0x255 PUSH2 0x417 CALLDATASIZE PUSH1 0x4 PUSH2 0x3513 JUMP JUMPDEST PUSH2 0x15AC JUMP JUMPDEST CALLVALUE DUP1 ISZERO PUSH2 0x428 JUMPI PUSH1 0x0 DUP1 REVERT JUMPDEST POP PUSH2 0x2F8 PUSH2 0x15DC JUMP JUMPDEST CALLVALUE DUP1 ISZERO PUSH2 0x43D JUMPI PUSH1 0x0 DUP1 REVERT JUMPDEST POP PUSH2 0x472 PUSH2 0x44C CALLDATASIZE PUSH1 0x4 PUSH2 0x371A JUMP JUMPDEST PUSH1 0x6 PUSH1 0x20 SWAP1 DUP2 MSTORE PUSH1 0x0 SWAP3 DUP4 MSTORE PUSH1 0x40 DUP1 DUP5 KECCAK256 SWAP1 SWAP2 MSTORE SWAP1 DUP3 MSTORE SWAP1 KECCAK256 SLOAD PUSH1 0x1 PUSH1 0x1 PUSH1 0xA0 SHL SUB AND DUP2 JUMP JUMPDEST PUSH1 0x40 MLOAD PUSH1 0x1 PUSH1 0x1 PUSH1 0xA0 SHL SUB SWAP1 SWAP2 AND DUP2 MSTORE PUSH1 0x20 ADD PUSH2 0x25F JUMP JUMPDEST CALLVALUE DUP1 ISZERO PUSH2 0x496 JUMPI PUSH1 0x0 DUP1 REVERT JUMPDEST POP PUSH2 0x472 PUSH2 0x4A5 CALLDATASIZE PUSH1 0x4 PUSH2 0x3535 JUMP JUMPDEST PUSH2 0x1612 JUMP JUMPDEST CALLVALUE DUP1 ISZERO PUSH2 0x4B6 JUMPI PUSH1 0x0 DUP1 REVERT JUMPDEST POP PUSH2 0x255 PUSH2 0x4C5 CALLDATASIZE PUSH1 0x4 PUSH2 0x3513 JUMP JUMPDEST PUSH2 0x163C JUMP JUMPDEST CALLVALUE DUP1 ISZERO PUSH2 0x4D6 JUMPI PUSH1 0x0 DUP1 REVERT JUMPDEST POP PUSH2 0x472 PUSH2 0x4E5 CALLDATASIZE PUSH1 0x4 PUSH2 0x3513 JUMP JUMPDEST PUSH1 0x7 PUSH1 0x20 MSTORE PUSH1 0x0 SWAP1 DUP2 MSTORE PUSH1 0x40 SWAP1 KECCAK256 SLOAD PUSH1 0x1 PUSH1 0x1 PUSH1 0xA0 SHL SUB AND DUP2 JUMP JUMPDEST CALLVALUE DUP1 ISZERO PUSH2 0x50C JUMPI PUSH1 0x0 DUP1 REVERT JUMPDEST POP PUSH2 0x369 PUSH2 0x1A09 JUMP JUMPDEST CALLVALUE DUP1 ISZERO PUSH2 0x521 JUMPI PUSH1 0x0 DUP1 REVERT JUMPDEST POP PUSH1 0x0 SLOAD PUSH1 0x1 PUSH1 0x1 PUSH1 0xA0 SHL SUB AND PUSH2 0x472 JUMP JUMPDEST CALLVALUE DUP1 ISZERO PUSH2 0x53F JUMPI PUSH1 0x0 DUP1 REVERT JUMPDEST POP PUSH2 0x472 PUSH2 0x54E CALLDATASIZE PUSH1 0x4 PUSH2 0x3535 JUMP JUMPDEST PUSH2 0x1A69 JUMP JUMPDEST PUSH2 0x2F8 PUSH2 0x561 CALLDATASIZE PUSH1 0x4 PUSH2 0x35D3 JUMP JUMPDEST PUSH2 0x1A79 JUMP JUMPDEST CALLVALUE DUP1 ISZERO PUSH2 0x572 JUMPI PUSH1 0x0 DUP1 REVERT JUMPDEST POP PUSH2 0x255 PUSH2 0x581 CALLDATASIZE PUSH1 0x4 PUSH2 0x3513 JUMP JUMPDEST PUSH2 0x1F52 JUMP JUMPDEST CALLVALUE DUP1 ISZERO PUSH2 0x592 JUMPI PUSH1 0x0 DUP1 REVERT JUMPDEST POP PUSH2 0x255 PUSH2 0x5A1 CALLDATASIZE PUSH1 0x4 PUSH2 0x369A JUMP JUMPDEST PUSH1 0x4 PUSH1 0x20 SWAP1 DUP2 MSTORE PUSH1 0x0 SWAP3 DUP4 MSTORE PUSH1 0x40 DUP1 DUP5 KECCAK256 SWAP1 SWAP2 MSTORE SWAP1 DUP3 MSTORE SWAP1 KECCAK256 SLOAD DUP2 JUMP JUMPDEST CALLVALUE DUP1 ISZERO PUSH2 0x5CA JUMPI PUSH1 0x0 DUP1 REVERT JUMPDEST POP PUSH2 0x255 PUSH2 0x5D9 CALLDATASIZE PUSH1 0x4 PUSH2 0x3513 JUMP JUMPDEST PUSH2 0x1FE3 JUMP JUMPDEST CALLVALUE DUP1 ISZERO PUSH2 0x5EA JUMPI PUSH1 0x0 DUP1 REVERT JUMPDEST POP PUSH2 0x2F8 PUSH2 0x5F9 CALLDATASIZE PUSH1 0x4 PUSH2 0x369A JUMP JUMPDEST PUSH2 0x2066 JUMP JUMPDEST CALLVALUE DUP1 ISZERO PUSH2 0x60A JUMPI PUSH1 0x0 DUP1 REVERT JUMPDEST POP PUSH2 0x255 PUSH1 0xC SLOAD DUP2 JUMP JUMPDEST CALLVALUE DUP1 ISZERO PUSH2 0x620 JUMPI PUSH1 0x0 DUP1 REVERT JUMPDEST POP PUSH2 0x472 PUSH2 0x62F CALLDATASIZE PUSH1 0x4 PUSH2 0x371A JUMP JUMPDEST PUSH1 0x8 PUSH1 0x20 SWAP1 DUP2 MSTORE PUSH1 0x0 SWAP3 DUP4 MSTORE PUSH1 0x40 DUP1 DUP5 KECCAK256 SWAP1 SWAP2 MSTORE SWAP1 DUP3 MSTORE SWAP1 KECCAK256 SLOAD PUSH1 0x1 PUSH1 0x1 PUSH1 0xA0 SHL SUB AND DUP2 JUMP JUMPDEST CALLVALUE DUP1 ISZERO PUSH2 0x661 JUMPI PUSH1 0x0 DUP1 REVERT JUMPDEST POP PUSH2 0x2F8 PUSH2 0x670 CALLDATASIZE PUSH1 0x4 PUSH2 0x385C JUMP JUMPDEST PUSH2 0x20BE JUMP JUMPDEST CALLVALUE DUP1 ISZERO PUSH2 0x681 JUMPI PUSH1 0x0 DUP1 REVERT JUMPDEST POP PUSH2 0x472 PUSH2 0x690 CALLDATASIZE PUSH1 0x4 PUSH2 0x371A JUMP JUMPDEST PUSH1 0x5 PUSH1 0x20 SWAP1 DUP2 MSTORE PUSH1 0x0 SWAP3 DUP4 MSTORE PUSH1 0x40 DUP1 DUP5 KECCAK256 SWAP1 SWAP2 MSTORE SWAP1 DUP3 MSTORE SWAP1 KECCAK256 SLOAD PUSH1 0x1 PUSH1 0x1 PUSH1 0xA0 SHL SUB AND DUP2 JUMP JUMPDEST CALLVALUE DUP1 ISZERO PUSH2 0x6C2 JUMPI PUSH1 0x0 DUP1 REVERT JUMPDEST POP PUSH2 0x30F PUSH2 0x2327 JUMP JUMPDEST CALLVALUE DUP1 ISZERO PUSH2 0x6D7 JUMPI PUSH1 0x0 DUP1 REVERT JUMPDEST POP PUSH2 0x255 PUSH2 0x6E6 CALLDATASIZE PUSH1 0x4 PUSH2 0x38B9 JUMP JUMPDEST PUSH2 0x243A JUMP JUMPDEST CALLVALUE DUP1 ISZERO PUSH2 0x6F7 JUMPI PUSH1 0x0 DUP1 REVERT JUMPDEST POP PUSH2 0x2F8 PUSH2 0x706 CALLDATASIZE PUSH1 0x4 PUSH2 0x3513 JUMP JUMPDEST PUSH2 0x24A7 JUMP JUMPDEST CALLVALUE DUP1 ISZERO PUSH2 0x717 JUMPI PUSH1 0x0 DUP1 REVERT JUMPDEST POP PUSH2 0x2F8 PUSH2 0x726 CALLDATASIZE PUSH1 0x4 PUSH2 0x35D3 JUMP JUMPDEST PUSH2 0x2542 JUMP JUMPDEST CALLVALUE DUP1 ISZERO PUSH2 0x737 JUMPI PUSH1 0x0 DUP1 REVERT JUMPDEST POP PUSH2 0x255 PUSH2 0x746 CALLDATASIZE PUSH1 0x4 PUSH2 0x371A JUMP JUMPDEST PUSH2 0x2970 JUMP JUMPDEST CALLVALUE DUP1 ISZERO PUSH2 0x757 JUMPI PUSH1 0x0 DUP1 REVERT JUMPDEST POP PUSH2 0x76B PUSH2 0x766 CALLDATASIZE PUSH1 0x4 PUSH2 0x3513 JUMP JUMPDEST PUSH2 0x29AE JUMP JUMPDEST PUSH1 0x40 MLOAD PUSH2 0x25F SWAP2 SWAP1 PUSH2 0x3979 JUMP JUMPDEST CALLVALUE DUP1 ISZERO PUSH2 0x784 JUMPI PUSH1 0x0 DUP1 REVERT JUMPDEST POP PUSH2 0x798 PUSH2 0x793 CALLDATASIZE PUSH1 0x4 PUSH2 0x3513 JUMP JUMPDEST PUSH2 0x2B60 JUMP JUMPDEST PUSH1 0x40 DUP1 MLOAD SWAP3 DUP4 MSTORE PUSH1 0x20 DUP4 ADD SWAP2 SWAP1 SWAP2 MSTORE ADD PUSH2 0x25F JUMP JUMPDEST CALLVALUE DUP1 ISZERO PUSH2 0x7B9 JUMPI PUSH1 0x0 DUP1 REVERT JUMPDEST POP PUSH1 0xB SLOAD PUSH2 0x472 SWAP1 PUSH1 0x1 PUSH1 0x1 PUSH1 0xA0 SHL SUB AND DUP2 JUMP JUMPDEST CALLVALUE DUP1 ISZERO PUSH2 0x7D9 JUMPI PUSH1 0x0 DUP1 REVERT JUMPDEST POP PUSH2 0x2F8 PUSH2 0x7E8 CALLDATASIZE PUSH1 0x4 PUSH2 0x385C JUMP JUMPDEST PUSH2 0x2C61 JUMP JUMPDEST PUSH1 0x1 SLOAD PUSH1 0x0 SWAP1 DUP2 SWAP1 ISZERO PUSH2 0x872 JUMPI PUSH1 0x0 JUMPDEST PUSH1 0x1 SLOAD DUP2 LT ISZERO PUSH2 0x870 JUMPI PUSH1 0x0 PUSH1 0x1 DUP3 DUP2 SLOAD DUP2 LT PUSH2 0x81C JUMPI PUSH2 0x81C PUSH2 0x398C JUMP JUMPDEST PUSH1 0x0 SWAP2 DUP3 MSTORE PUSH1 0x20 DUP1 DUP4 KECCAK256 SWAP1 SWAP2 ADD SLOAD PUSH1 0x1 PUSH1 0x1 PUSH1 0xA0 SHL SUB DUP9 DUP2 AND DUP5 MSTORE PUSH1 0x3 DUP4 MSTORE PUSH1 0x40 DUP1 DUP6 KECCAK256 SWAP2 SWAP1 SWAP3 AND DUP1 DUP6 MSTORE SWAP3 MSTORE SWAP1 SWAP2 KECCAK256 SLOAD SWAP1 SWAP2 POP PUSH2 0x85A SWAP1 DUP5 PUSH2 0x39B8 JUMP JUMPDEST SWAP3 POP POP DUP1 DUP1 PUSH2 0x868 SWAP1 PUSH2 0x39D0 JUMP JUMPDEST SWAP2 POP POP PUSH2 0x7FD JUMP JUMPDEST POP JUMPDEST SWAP3 SWAP2 POP POP JUMP JUMPDEST PUSH1 0x9 DUP2 DUP2 SLOAD DUP2 LT PUSH2 0x888 JUMPI PUSH1 0x0 DUP1 REVERT JUMPDEST PUSH1 0x0 SWAP2 DUP3 MSTORE PUSH1 0x20 SWAP1 SWAP2 KECCAK256 PUSH1 0x4 SWAP1 SWAP2 MUL ADD DUP1 SLOAD PUSH1 0x1 DUP3 ADD SLOAD PUSH1 0x2 DUP4 ADD SLOAD PUSH1 0x3 DUP5 ADD DUP1 SLOAD PUSH1 0x1 PUSH1 0x1 PUSH1 0xA0 SHL SUB SWAP1 SWAP5 AND SWAP6 POP SWAP2 SWAP4 SWAP1 SWAP3 SWAP1 SWAP2 SWAP1 PUSH2 0x8C7 SWAP1 PUSH2 0x39EB JUMP JUMPDEST DUP1 PUSH1 0x1F ADD PUSH1 0x20 DUP1 SWAP2 DIV MUL PUSH1 0x20 ADD PUSH1 0x40 MLOAD SWAP1 DUP2 ADD PUSH1 0x40 MSTORE DUP1 SWAP3 SWAP2 SWAP1 DUP2 DUP2 MSTORE PUSH1 0x20 ADD DUP3 DUP1 SLOAD PUSH2 0x8F3 SWAP1 PUSH2 0x39EB JUMP JUMPDEST DUP1 ISZERO PUSH2 0x940 JUMPI DUP1 PUSH1 0x1F LT PUSH2 0x915 JUMPI PUSH2 0x100 DUP1 DUP4 SLOAD DIV MUL DUP4 MSTORE SWAP2 PUSH1 0x20 ADD SWAP2 PUSH2 0x940 JUMP JUMPDEST DUP3 ADD SWAP2 SWAP1 PUSH1 0x0 MSTORE PUSH1 0x20 PUSH1 0x0 KECCAK256 SWAP1 JUMPDEST DUP2 SLOAD DUP2 MSTORE SWAP1 PUSH1 0x1 ADD SWAP1 PUSH1 0x20 ADD DUP1 DUP4 GT PUSH2 0x923 JUMPI DUP3 SWAP1 SUB PUSH1 0x1F AND DUP3 ADD SWAP2 JUMPDEST POP POP POP POP POP SWAP1 POP DUP5 JUMP JUMPDEST PUSH1 0x0 DUP1 PUSH2 0x956 DUP5 PUSH2 0x29AE JUMP JUMPDEST SWAP1 POP PUSH8 0xDE0B6B3A7640000 DUP2 PUSH1 0x40 ADD MLOAD DUP5 PUSH2 0x971 SWAP2 SWAP1 PUSH2 0x3A26 JUMP JUMPDEST PUSH2 0x97B SWAP2 SWAP1 PUSH2 0x3A45 JUMP JUMPDEST SWAP5 SWAP4 POP POP POP POP JUMP JUMPDEST PUSH1 0x0 DUP1 DUP1 JUMPDEST PUSH1 0xD SLOAD DUP2 LT ISZERO PUSH2 0x870 JUMPI PUSH1 0x0 DUP2 DUP2 MSTORE PUSH1 0x6 PUSH1 0x20 SWAP1 DUP2 MSTORE PUSH1 0x40 DUP1 DUP4 KECCAK256 PUSH1 0x1 PUSH1 0x1 PUSH1 0xA0 SHL SUB DUP1 DUP10 AND DUP6 MSTORE SWAP3 MSTORE SWAP1 SWAP2 KECCAK256 SLOAD AND DUP1 ISZERO PUSH2 0xA01 JUMPI PUSH1 0x1 PUSH1 0x1 PUSH1 0xA0 SHL SUB DUP1 DUP3 AND PUSH1 0x0 SWAP1 DUP2 MSTORE PUSH1 0x4 PUSH1 0x20 SWAP1 DUP2 MSTORE PUSH1 0x40 DUP1 DUP4 KECCAK256 SWAP4 DUP10 AND DUP4 MSTORE SWAP3 SWAP1 MSTORE SWAP1 DUP2 KECCAK256 SLOAD SWAP1 PUSH2 0x9F0 DUP3 DUP5 PUSH2 0x2970 JUMP JUMPDEST SWAP1 POP PUSH2 0x9FC DUP2 DUP7 PUSH2 0x39B8 JUMP JUMPDEST SWAP5 POP POP POP JUMPDEST POP DUP1 PUSH2 0xA0C DUP2 PUSH2 0x39D0 JUMP JUMPDEST SWAP2 POP POP PUSH2 0x988 JUMP JUMPDEST PUSH1 0x0 DUP2 GT PUSH2 0xA3D JUMPI PUSH1 0x40 MLOAD PUSH3 0x461BCD PUSH1 0xE5 SHL DUP2 MSTORE PUSH1 0x4 ADD PUSH2 0xA34 SWAP1 PUSH2 0x3A67 JUMP JUMPDEST PUSH1 0x40 MLOAD DUP1 SWAP2 SUB SWAP1 REVERT JUMPDEST PUSH1 0x0 PUSH2 0xAA3 CALLER PUSH1 0x2 DUP1 SLOAD DUP1 PUSH1 0x20 MUL PUSH1 0x20 ADD PUSH1 0x40 MLOAD SWAP1 DUP2 ADD PUSH1 0x40 MSTORE DUP1 SWAP3 SWAP2 SWAP1 DUP2 DUP2 MSTORE PUSH1 0x20 ADD DUP3 DUP1 SLOAD DUP1 ISZERO PUSH2 0xA99 JUMPI PUSH1 0x20 MUL DUP3 ADD SWAP2 SWAP1 PUSH1 0x0 MSTORE PUSH1 0x20 PUSH1 0x0 KECCAK256 SWAP1 JUMPDEST DUP2 SLOAD PUSH1 0x1 PUSH1 0x1 PUSH1 0xA0 SHL SUB AND DUP2 MSTORE PUSH1 0x1 SWAP1 SWAP2 ADD SWAP1 PUSH1 0x20 ADD DUP1 DUP4 GT PUSH2 0xA7B JUMPI JUMPDEST POP POP POP POP POP PUSH2 0x243A JUMP JUMPDEST SWAP1 POP PUSH1 0x0 DUP2 SLT ISZERO PUSH2 0xB11 JUMPI PUSH1 0x40 MLOAD PUSH3 0x461BCD PUSH1 0xE5 SHL DUP2 MSTORE PUSH1 0x20 PUSH1 0x4 DUP3 ADD MSTORE PUSH1 0x32 PUSH1 0x24 DUP3 ADD MSTORE PUSH32 0x557365722061646472657373206973206E6F7420666F756E6420696E20746865 PUSH1 0x44 DUP3 ADD MSTORE PUSH18 0x206C697374206F6620626F72726F77657273 PUSH1 0x70 SHL PUSH1 0x64 DUP3 ADD MSTORE PUSH1 0x84 ADD PUSH2 0xA34 JUMP JUMPDEST PUSH1 0x1 PUSH1 0x1 PUSH1 0xA0 SHL SUB DUP4 AND PUSH1 0x0 SWAP1 DUP2 MSTORE PUSH1 0x4 PUSH1 0x20 SWAP1 DUP2 MSTORE PUSH1 0x40 DUP1 DUP4 KECCAK256 CALLER DUP5 MSTORE SWAP1 SWAP2 MSTORE SWAP1 KECCAK256 SLOAD DUP1 PUSH2 0xB77 JUMPI PUSH1 0x40 MLOAD PUSH3 0x461BCD PUSH1 0xE5 SHL DUP2 MSTORE PUSH1 0x20 PUSH1 0x4 DUP3 ADD MSTORE PUSH1 0x12 PUSH1 0x24 DUP3 ADD MSTORE PUSH18 0x596F752020617265206E6F74206F77696E67 PUSH1 0x70 SHL PUSH1 0x44 DUP3 ADD MSTORE PUSH1 0x64 ADD PUSH2 0xA34 JUMP JUMPDEST DUP4 PUSH1 0x0 PUSH2 0xB84 DUP3 DUP5 PUSH2 0x94A JUMP JUMPDEST PUSH2 0xB8E SWAP1 DUP7 PUSH2 0x39B8 JUMP JUMPDEST PUSH1 0x40 MLOAD PUSH4 0x23B872DD PUSH1 0xE0 SHL DUP2 MSTORE CALLER PUSH1 0x4 DUP3 ADD MSTORE ADDRESS PUSH1 0x24 DUP3 ADD MSTORE PUSH1 0x44 DUP2 ADD DUP3 SWAP1 MSTORE SWAP1 SWAP2 POP PUSH1 0x1 PUSH1 0x1 PUSH1 0xA0 SHL SUB DUP4 AND SWAP1 PUSH4 0x23B872DD SWAP1 PUSH1 0x64 ADD PUSH1 0x20 PUSH1 0x40 MLOAD DUP1 DUP4 SUB DUP2 PUSH1 0x0 DUP8 GAS CALL ISZERO DUP1 ISZERO PUSH2 0xBE4 JUMPI RETURNDATASIZE PUSH1 0x0 DUP1 RETURNDATACOPY RETURNDATASIZE PUSH1 0x0 REVERT JUMPDEST POP POP POP POP PUSH1 0x40 MLOAD RETURNDATASIZE PUSH1 0x1F NOT PUSH1 0x1F DUP3 ADD AND DUP3 ADD DUP1 PUSH1 0x40 MSTORE POP DUP2 ADD SWAP1 PUSH2 0xC08 SWAP2 SWAP1 PUSH2 0x3A9E JUMP JUMPDEST POP PUSH1 0x1 PUSH1 0x1 PUSH1 0xA0 SHL SUB DUP7 AND PUSH1 0x0 SWAP1 DUP2 MSTORE PUSH1 0x4 PUSH1 0x20 SWAP1 DUP2 MSTORE PUSH1 0x40 DUP1 DUP4 KECCAK256 CALLER DUP5 MSTORE SWAP1 SWAP2 MSTORE SWAP1 KECCAK256 SLOAD PUSH2 0xC38 SWAP1 DUP7 SWAP1 PUSH2 0x3AC0 JUMP JUMPDEST PUSH1 0x1 PUSH1 0x1 PUSH1 0xA0 SHL SUB DUP8 AND PUSH1 0x0 SWAP1 DUP2 MSTORE PUSH1 0x4 PUSH1 0x20 SWAP1 DUP2 MSTORE PUSH1 0x40 DUP1 DUP4 KECCAK256 CALLER DUP1 DUP6 MSTORE SWAP3 MSTORE DUP3 KECCAK256 SWAP3 SWAP1 SWAP3 SSTORE SWAP1 PUSH2 0xC69 SWAP1 PUSH2 0x983 JUMP JUMPDEST SWAP1 POP DUP1 PUSH2 0xD1E JUMPI PUSH1 0x2 DUP1 SLOAD PUSH2 0xC80 SWAP1 PUSH1 0x1 SWAP1 PUSH2 0x3AC0 JUMP JUMPDEST DUP2 SLOAD DUP2 LT PUSH2 0xC90 JUMPI PUSH2 0xC90 PUSH2 0x398C JUMP JUMPDEST PUSH1 0x0 SWAP2 DUP3 MSTORE PUSH1 0x20 SWAP1 SWAP2 KECCAK256 ADD SLOAD PUSH1 0x2 DUP1 SLOAD PUSH1 0x1 PUSH1 0x1 PUSH1 0xA0 SHL SUB SWAP1 SWAP3 AND SWAP2 DUP8 SWAP1 DUP2 LT PUSH2 0xCBC JUMPI PUSH2 0xCBC PUSH2 0x398C JUMP JUMPDEST SWAP1 PUSH1 0x0 MSTORE PUSH1 0x20 PUSH1 0x0 KECCAK256 ADD PUSH1 0x0 PUSH2 0x100 EXP DUP2 SLOAD DUP2 PUSH1 0x1 PUSH1 0x1 PUSH1 0xA0 SHL SUB MUL NOT AND SWAP1 DUP4 PUSH1 0x1 PUSH1 0x1 PUSH1 0xA0 SHL SUB AND MUL OR SWAP1 SSTORE POP PUSH1 0x2 DUP1 SLOAD DUP1 PUSH2 0xCFB JUMPI PUSH2 0xCFB PUSH2 0x3AD7 JUMP JUMPDEST PUSH1 0x0 DUP3 DUP2 MSTORE PUSH1 0x20 SWAP1 KECCAK256 DUP2 ADD PUSH1 0x0 NOT SWAP1 DUP2 ADD DUP1 SLOAD PUSH1 0x1 PUSH1 0x1 PUSH1 0xA0 SHL SUB NOT AND SWAP1 SSTORE ADD SWAP1 SSTORE JUMPDEST PUSH32 0xF17F5805B2095D17FFE834AFF3FC2EEFF114BFBC250E98F248783F8D34D40042 CALLER DUP7 DUP7 DUP6 PUSH1 0x2 PUSH1 0x40 MLOAD PUSH2 0xD56 SWAP6 SWAP5 SWAP4 SWAP3 SWAP2 SWAP1 PUSH2 0x3B36 JUMP JUMPDEST PUSH1 0x40 MLOAD DUP1 SWAP2 SUB SWAP1 LOG1 POP POP POP POP POP POP POP JUMP JUMPDEST PUSH1 0x60 PUSH1 0x9 DUP1 SLOAD DUP1 PUSH1 0x20 MUL PUSH1 0x20 ADD PUSH1 0x40 MLOAD SWAP1 DUP2 ADD PUSH1 0x40 MSTORE DUP1 SWAP3 SWAP2 SWAP1 DUP2 DUP2 MSTORE PUSH1 0x20 ADD PUSH1 0x0 SWAP1 JUMPDEST DUP3 DUP3 LT ISZERO PUSH2 0xE7A JUMPI PUSH1 0x0 DUP5 DUP2 MSTORE PUSH1 0x20 SWAP1 DUP2 SWAP1 KECCAK256 PUSH1 0x40 DUP1 MLOAD PUSH1 0x80 DUP2 ADD DUP3 MSTORE PUSH1 0x4 DUP7 MUL SWAP1 SWAP3 ADD DUP1 SLOAD PUSH1 0x1 PUSH1 0x1 PUSH1 0xA0 SHL SUB AND DUP4 MSTORE PUSH1 0x1 DUP2 ADD SLOAD SWAP4 DUP4 ADD SWAP4 SWAP1 SWAP4 MSTORE PUSH1 0x2 DUP4 ADD SLOAD SWAP1 DUP3 ADD MSTORE PUSH1 0x3 DUP3 ADD DUP1 SLOAD SWAP2 SWAP3 SWAP2 PUSH1 0x60 DUP5 ADD SWAP2 SWAP1 PUSH2 0xDE9 SWAP1 PUSH2 0x39EB JUMP JUMPDEST DUP1 PUSH1 0x1F ADD PUSH1 0x20 DUP1 SWAP2 DIV MUL PUSH1 0x20 ADD PUSH1 0x40 MLOAD SWAP1 DUP2 ADD PUSH1 0x40 MSTORE DUP1 SWAP3 SWAP2 SWAP1 DUP2 DUP2 MSTORE PUSH1 0x20 ADD DUP3 DUP1 SLOAD PUSH2 0xE15 SWAP1 PUSH2 0x39EB JUMP JUMPDEST DUP1 ISZERO PUSH2 0xE62 JUMPI DUP1 PUSH1 0x1F LT PUSH2 0xE37 JUMPI PUSH2 0x100 DUP1 DUP4 SLOAD DIV MUL DUP4 MSTORE SWAP2 PUSH1 0x20 ADD SWAP2 PUSH2 0xE62 JUMP JUMPDEST DUP3 ADD SWAP2 SWAP1 PUSH1 0x0 MSTORE PUSH1 0x20 PUSH1 0x0 KECCAK256 SWAP1 JUMPDEST DUP2 SLOAD DUP2 MSTORE SWAP1 PUSH1 0x1 ADD SWAP1 PUSH1 0x20 ADD DUP1 DUP4 GT PUSH2 0xE45 JUMPI DUP3 SWAP1 SUB PUSH1 0x1F AND DUP3 ADD SWAP2 JUMPDEST POP POP POP POP POP DUP2 MSTORE POP POP DUP2 MSTORE PUSH1 0x20 ADD SWAP1 PUSH1 0x1 ADD SWAP1 PUSH2 0xD8B JUMP JUMPDEST POP POP POP POP SWAP1 POP SWAP1 JUMP JUMPDEST PUSH1 0x60 PUSH1 0x1 DUP1 SLOAD DUP1 PUSH1 0x20 MUL PUSH1 0x20 ADD PUSH1 0x40 MLOAD SWAP1 DUP2 ADD PUSH1 0x40 MSTORE DUP1 SWAP3 SWAP2 SWAP1 DUP2 DUP2 MSTORE PUSH1 0x20 ADD DUP3 DUP1 SLOAD DUP1 ISZERO PUSH2 0xEDB JUMPI PUSH1 0x20 MUL DUP3 ADD SWAP2 SWAP1 PUSH1 0x0 MSTORE PUSH1 0x20 PUSH1 0x0 KECCAK256 SWAP1 JUMPDEST DUP2 SLOAD PUSH1 0x1 PUSH1 0x1 PUSH1 0xA0 SHL SUB AND DUP2 MSTORE PUSH1 0x1 SWAP1 SWAP2 ADD SWAP1 PUSH1 0x20 ADD DUP1 DUP4 GT PUSH2 0xEBD JUMPI JUMPDEST POP POP POP POP POP SWAP1 POP SWAP1 JUMP JUMPDEST PUSH1 0xA DUP2 DUP2 SLOAD DUP2 LT PUSH2 0x888 JUMPI PUSH1 0x0 DUP1 REVERT JUMPDEST PUSH2 0x1013 DUP2 PUSH1 0xA DUP1 SLOAD DUP1 PUSH1 0x20 MUL PUSH1 0x20 ADD PUSH1 0x40 MLOAD SWAP1 DUP2 ADD PUSH1 0x40 MSTORE DUP1 SWAP3 SWAP2 SWAP1 DUP2 DUP2 MSTORE PUSH1 0x20 ADD PUSH1 0x0 SWAP1 JUMPDEST DUP3 DUP3 LT ISZERO PUSH2 0x100A JUMPI PUSH1 0x0 DUP5 DUP2 MSTORE PUSH1 0x20 SWAP1 DUP2 SWAP1 KECCAK256 PUSH1 0x40 DUP1 MLOAD PUSH1 0x80 DUP2 ADD DUP3 MSTORE PUSH1 0x4 DUP7 MUL SWAP1 SWAP3 ADD DUP1 SLOAD PUSH1 0x1 PUSH1 0x1 PUSH1 0xA0 SHL SUB AND DUP4 MSTORE PUSH1 0x1 DUP2 ADD SLOAD SWAP4 DUP4 ADD SWAP4 SWAP1 SWAP4 MSTORE PUSH1 0x2 DUP4 ADD SLOAD SWAP1 DUP3 ADD MSTORE PUSH1 0x3 DUP3 ADD DUP1 SLOAD SWAP2 SWAP3 SWAP2 PUSH1 0x60 DUP5 ADD SWAP2 SWAP1 PUSH2 0xF79 SWAP1 PUSH2 0x39EB JUMP JUMPDEST DUP1 PUSH1 0x1F ADD PUSH1 0x20 DUP1 SWAP2 DIV MUL PUSH1 0x20 ADD PUSH1 0x40 MLOAD SWAP1 DUP2 ADD PUSH1 0x40 MSTORE DUP1 SWAP3 SWAP2 SWAP1 DUP2 DUP2 MSTORE PUSH1 0x20 ADD DUP3 DUP1 SLOAD PUSH2 0xFA5 SWAP1 PUSH2 0x39EB JUMP JUMPDEST DUP1 ISZERO PUSH2 0xFF2 JUMPI DUP1 PUSH1 0x1F LT PUSH2 0xFC7 JUMPI PUSH2 0x100 DUP1 DUP4 SLOAD DIV MUL DUP4 MSTORE SWAP2 PUSH1 0x20 ADD SWAP2 PUSH2 0xFF2 JUMP JUMPDEST DUP3 ADD SWAP2 SWAP1 PUSH1 0x0 MSTORE PUSH1 0x20 PUSH1 0x0 KECCAK256 SWAP1 JUMPDEST DUP2 SLOAD DUP2 MSTORE SWAP1 PUSH1 0x1 ADD SWAP1 PUSH1 0x20 ADD DUP1 DUP4 GT PUSH2 0xFD5 JUMPI DUP3 SWAP1 SUB PUSH1 0x1F AND DUP3 ADD SWAP2 JUMPDEST POP POP POP POP POP DUP2 MSTORE POP POP DUP2 MSTORE PUSH1 0x20 ADD SWAP1 PUSH1 0x1 ADD SWAP1 PUSH2 0xF1B JUMP JUMPDEST POP POP POP POP PUSH2 0x2EB6 JUMP JUMPDEST PUSH2 0x106B JUMPI PUSH1 0x40 MLOAD PUSH3 0x461BCD PUSH1 0xE5 SHL DUP2 MSTORE PUSH1 0x20 PUSH1 0x4 DUP3 ADD MSTORE PUSH1 0x24 DUP1 DUP3 ADD MSTORE PUSH32 0x546F6B656E206973206E6F7420737570706F7274656420666F7220626F72726F PUSH1 0x44 DUP3 ADD MSTORE PUSH4 0x77696E67 PUSH1 0xE0 SHL PUSH1 0x64 DUP3 ADD MSTORE PUSH1 0x84 ADD PUSH2 0xA34 JUMP JUMPDEST PUSH1 0x0 DUP3 GT PUSH2 0x108B JUMPI PUSH1 0x40 MLOAD PUSH3 0x461BCD PUSH1 0xE5 SHL DUP2 MSTORE PUSH1 0x4 ADD PUSH2 0xA34 SWAP1 PUSH2 0x3A67 JUMP JUMPDEST PUSH1 0x0 PUSH2 0x1096 CALLER PUSH2 0x163C JUMP JUMPDEST SWAP1 POP PUSH1 0x0 PUSH2 0x10A4 DUP5 DUP5 PUSH2 0x2970 JUMP JUMPDEST SWAP1 POP DUP2 DUP2 GT ISZERO PUSH2 0x1115 JUMPI PUSH1 0x40 MLOAD PUSH3 0x461BCD PUSH1 0xE5 SHL DUP2 MSTORE PUSH1 0x20 PUSH1 0x4 DUP3 ADD MSTORE PUSH1 0x36 PUSH1 0x24 DUP3 ADD MSTORE PUSH32 0x596F7520646F6E2774206861766520656E6F75676820636F6C6C61746572616C PUSH1 0x44 DUP3 ADD MSTORE PUSH22 0x81D1BC8189BDC9C9BDDC81D1A1A5CC8185B5BDD5B9D PUSH1 0x52 SHL PUSH1 0x64 DUP3 ADD MSTORE PUSH1 0x84 ADD PUSH2 0xA34 JUMP JUMPDEST PUSH1 0x40 MLOAD PUSH4 0x70A08231 PUSH1 0xE0 SHL DUP2 MSTORE ADDRESS PUSH1 0x4 DUP3 ADD MSTORE DUP4 SWAP1 DUP6 SWAP1 PUSH1 0x1 PUSH1 0x1 PUSH1 0xA0 SHL SUB DUP4 AND SWAP1 PUSH4 0x70A08231 SWAP1 PUSH1 0x24 ADD PUSH1 0x20 PUSH1 0x40 MLOAD DUP1 DUP4 SUB DUP2 DUP7 GAS STATICCALL ISZERO DUP1 ISZERO PUSH2 0x115D JUMPI RETURNDATASIZE PUSH1 0x0 DUP1 RETURNDATACOPY RETURNDATASIZE PUSH1 0x0 REVERT JUMPDEST POP POP POP POP PUSH1 0x40 MLOAD RETURNDATASIZE PUSH1 0x1F NOT PUSH1 0x1F DUP3 ADD AND DUP3 ADD DUP1 PUSH1 0x40 MSTORE POP DUP2 ADD SWAP1 PUSH2 0x1181 SWAP2 SWAP1 PUSH2 0x3B74 JUMP JUMPDEST GT PUSH2 0x11ED JUMPI PUSH1 0x40 MLOAD PUSH3 0x461BCD PUSH1 0xE5 SHL DUP2 MSTORE PUSH1 0x20 PUSH1 0x4 DUP3 ADD MSTORE PUSH1 0x36 PUSH1 0x24 DUP3 ADD MSTORE PUSH32 0x576520646F206E6F74206861766520656E6F756768206F66207468697320746F PUSH1 0x44 DUP3 ADD MSTORE PUSH22 0x35B2B7103337B9103CB7BA903A37903137B93937BB97 PUSH1 0x51 SHL PUSH1 0x64 DUP3 ADD MSTORE PUSH1 0x84 ADD PUSH2 0xA34 JUMP JUMPDEST PUSH1 0x40 MLOAD PUSH4 0xA9059CBB PUSH1 0xE0 SHL DUP2 MSTORE CALLER PUSH1 0x4 DUP3 ADD MSTORE PUSH1 0x24 DUP2 ADD DUP7 SWAP1 MSTORE PUSH1 0x1 PUSH1 0x1 PUSH1 0xA0 SHL SUB DUP3 AND SWAP1 PUSH4 0xA9059CBB SWAP1 PUSH1 0x44 ADD PUSH1 0x20 PUSH1 0x40 MLOAD DUP1 DUP4 SUB DUP2 PUSH1 0x0 DUP8 GAS CALL ISZERO DUP1 ISZERO PUSH2 0x123A JUMPI RETURNDATASIZE PUSH1 0x0 DUP1 RETURNDATACOPY RETURNDATASIZE PUSH1 0x0 REVERT JUMPDEST POP POP POP POP PUSH1 0x40 MLOAD RETURNDATASIZE PUSH1 0x1F NOT PUSH1 0x1F DUP3 ADD AND DUP3 ADD DUP1 PUSH1 0x40 MSTORE POP DUP2 ADD SWAP1 PUSH2 0x125E SWAP2 SWAP1 PUSH2 0x3A9E JUMP JUMPDEST POP PUSH1 0x0 DUP1 PUSH2 0x12C6 CALLER PUSH1 0x2 DUP1 SLOAD DUP1 PUSH1 0x20 MUL PUSH1 0x20 ADD PUSH1 0x40 MLOAD SWAP1 DUP2 ADD PUSH1 0x40 MSTORE DUP1 SWAP3 SWAP2 SWAP1 DUP2 DUP2 MSTORE PUSH1 0x20 ADD DUP3 DUP1 SLOAD DUP1 ISZERO PUSH2 0x12BC JUMPI PUSH1 0x20 MUL DUP3 ADD SWAP2 SWAP1 PUSH1 0x0 MSTORE PUSH1 0x20 PUSH1 0x0 KECCAK256 SWAP1 JUMPDEST DUP2 SLOAD PUSH1 0x1 PUSH1 0x1 PUSH1 0xA0 SHL SUB AND DUP2 MSTORE PUSH1 0x1 SWAP1 SWAP2 ADD SWAP1 PUSH1 0x20 ADD DUP1 DUP4 GT PUSH2 0x129E JUMPI JUMPDEST POP POP POP POP POP PUSH2 0x2F31 JUMP JUMPDEST SWAP2 POP SWAP2 POP DUP2 ISZERO PUSH2 0x1302 JUMPI PUSH2 0x12FD DUP7 DUP9 DUP4 PUSH1 0x40 MLOAD DUP1 PUSH1 0x40 ADD PUSH1 0x40 MSTORE DUP1 PUSH1 0x9 DUP2 MSTORE PUSH1 0x20 ADD PUSH9 0x626F72726F77657273 PUSH1 0xB8 SHL DUP2 MSTORE POP PUSH2 0x2FB3 JUMP JUMPDEST PUSH2 0x13BF JUMP JUMPDEST PUSH1 0x2 DUP1 SLOAD PUSH1 0x1 DUP2 ADD SWAP1 SWAP2 SSTORE PUSH32 0x405787FA12A823E0F2B7631CC41B3BA8828B3321CA811111FA75CD3AA3BB5ACE ADD DUP1 SLOAD PUSH1 0x1 PUSH1 0x1 PUSH1 0xA0 SHL SUB NOT AND CALLER SWAP1 DUP2 OR SWAP1 SWAP2 SSTORE PUSH1 0x1 PUSH1 0x1 PUSH1 0xA0 SHL SUB DUP8 AND PUSH1 0x0 SWAP1 DUP2 MSTORE PUSH1 0x4 PUSH1 0x20 SWAP1 DUP2 MSTORE PUSH1 0x40 DUP1 DUP4 KECCAK256 SWAP4 DUP4 MSTORE SWAP3 SWAP1 MSTORE SWAP1 DUP2 KECCAK256 DUP9 SWAP1 SSTORE PUSH1 0xD DUP1 SLOAD DUP9 SWAP3 PUSH1 0x6 SWAP3 SWAP1 SWAP2 SWAP1 DUP3 PUSH2 0x137F DUP4 PUSH2 0x39D0 JUMP JUMPDEST SWAP1 SWAP2 SSTORE POP DUP2 MSTORE PUSH1 0x20 DUP1 DUP3 ADD SWAP3 SWAP1 SWAP3 MSTORE PUSH1 0x40 SWAP1 DUP2 ADD PUSH1 0x0 SWAP1 DUP2 KECCAK256 CALLER DUP3 MSTORE SWAP1 SWAP3 MSTORE SWAP1 KECCAK256 DUP1 SLOAD PUSH1 0x1 PUSH1 0x1 PUSH1 0xA0 SHL SUB NOT AND PUSH1 0x1 PUSH1 0x1 PUSH1 0xA0 SHL SUB SWAP3 SWAP1 SWAP3 AND SWAP2 SWAP1 SWAP2 OR SWAP1 SSTORE JUMPDEST PUSH1 0x1 PUSH1 0x1 PUSH1 0xA0 SHL SUB DUP7 AND PUSH1 0x0 SWAP1 DUP2 MSTORE PUSH1 0x4 PUSH1 0x20 SWAP1 DUP2 MSTORE PUSH1 0x40 DUP1 DUP4 KECCAK256 CALLER DUP1 DUP6 MSTORE SWAP3 MSTORE SWAP2 DUP3 SWAP1 KECCAK256 SLOAD SWAP2 MLOAD PUSH32 0x699548A5535B752F15032EB2BE1672B2E5E62DDC5D461D4EDB5A9321D7CBD252 SWAP3 PUSH2 0xD56 SWAP3 SWAP2 DUP9 SWAP2 DUP11 SWAP2 DUP9 SWAP2 DUP9 SWAP2 PUSH1 0x2 SWAP2 SWAP1 PUSH2 0x3B8D JUMP JUMPDEST PUSH1 0x0 DUP3 ISZERO PUSH2 0x15A1 JUMPI PUSH1 0x40 MLOAD PUSH10 0x1D1BDAD95B9CD3195B9D PUSH1 0xB2 SHL PUSH1 0x20 DUP3 ADD MSTORE PUSH1 0x2A ADD PUSH1 0x40 MLOAD PUSH1 0x20 DUP2 DUP4 SUB SUB DUP2 MSTORE SWAP1 PUSH1 0x40 MSTORE DUP1 MLOAD SWAP1 PUSH1 0x20 ADD KECCAK256 DUP3 PUSH1 0x40 MLOAD PUSH1 0x20 ADD PUSH2 0x1467 SWAP2 SWAP1 PUSH2 0x3BDC JUMP JUMPDEST PUSH1 0x40 MLOAD PUSH1 0x20 DUP2 DUP4 SUB SUB DUP2 MSTORE SWAP1 PUSH1 0x40 MSTORE DUP1 MLOAD SWAP1 PUSH1 0x20 ADD KECCAK256 EQ ISZERO PUSH2 0x14E4 JUMPI PUSH1 0x0 JUMPDEST PUSH1 0xC SLOAD DUP2 LT ISZERO PUSH2 0x14DE JUMPI PUSH1 0x0 DUP2 DUP2 MSTORE PUSH1 0x5 PUSH1 0x20 SWAP1 DUP2 MSTORE PUSH1 0x40 DUP1 DUP4 KECCAK256 PUSH1 0x1 PUSH1 0x1 PUSH1 0xA0 SHL SUB DUP1 DUP12 AND DUP6 MSTORE SWAP3 MSTORE SWAP1 SWAP2 KECCAK256 SLOAD DUP2 AND SWAP1 DUP7 AND DUP2 EQ ISZERO PUSH2 0x14CB JUMPI PUSH1 0x1 SWAP3 POP POP POP PUSH2 0x97B JUMP JUMPDEST POP DUP1 PUSH2 0x14D6 DUP2 PUSH2 0x39D0 JUMP JUMPDEST SWAP2 POP POP PUSH2 0x1486 JUMP JUMPDEST POP PUSH2 0x15A1 JUMP JUMPDEST PUSH1 0x40 MLOAD PUSH14 0x1D1BDAD95B9CD09BDC9C9BDDD959 PUSH1 0x92 SHL PUSH1 0x20 DUP3 ADD MSTORE PUSH1 0x2E ADD PUSH1 0x40 MLOAD PUSH1 0x20 DUP2 DUP4 SUB SUB DUP2 MSTORE SWAP1 PUSH1 0x40 MSTORE DUP1 MLOAD SWAP1 PUSH1 0x20 ADD KECCAK256 DUP3 PUSH1 0x40 MLOAD PUSH1 0x20 ADD PUSH2 0x1528 SWAP2 SWAP1 PUSH2 0x3BDC JUMP JUMPDEST PUSH1 0x40 MLOAD PUSH1 0x20 DUP2 DUP4 SUB SUB DUP2 MSTORE SWAP1 PUSH1 0x40 MSTORE DUP1 MLOAD SWAP1 PUSH1 0x20 ADD KECCAK256 EQ ISZERO PUSH2 0x15A1 JUMPI PUSH1 0x0 JUMPDEST PUSH1 0xD SLOAD DUP2 LT ISZERO PUSH2 0x159F JUMPI PUSH1 0x0 DUP2 DUP2 MSTORE PUSH1 0x6 PUSH1 0x20 SWAP1 DUP2 MSTORE PUSH1 0x40 DUP1 DUP4 KECCAK256 PUSH1 0x1 PUSH1 0x1 PUSH1 0xA0 SHL SUB DUP1 DUP12 AND DUP6 MSTORE SWAP3 MSTORE SWAP1 SWAP2 KECCAK256 SLOAD DUP2 AND SWAP1 DUP7 AND DUP2 EQ ISZERO PUSH2 0x158C JUMPI PUSH1 0x1 SWAP3 POP POP POP PUSH2 0x97B JUMP JUMPDEST POP DUP1 PUSH2 0x1597 DUP2 PUSH2 0x39D0 JUMP JUMPDEST SWAP2 POP POP PUSH2 0x1547 JUMP JUMPDEST POP JUMPDEST POP PUSH1 0x0 SWAP5 SWAP4 POP POP POP POP JUMP JUMPDEST PUSH1 0x0 DUP1 PUSH2 0x15B8 DUP4 PUSH2 0x1F52 JUMP JUMPDEST SWAP1 POP PUSH1 0x0 PUSH2 0x15C5 DUP5 PUSH2 0x983 JUMP JUMPDEST SWAP1 POP PUSH1 0x0 PUSH2 0x15D3 DUP3 DUP5 PUSH2 0x3AC0 JUMP JUMPDEST SWAP6 SWAP5 POP POP POP POP POP JUMP JUMPDEST PUSH1 0x0 SLOAD PUSH1 0x1 PUSH1 0x1 PUSH1 0xA0 SHL SUB AND CALLER EQ PUSH2 0x1606 JUMPI PUSH1 0x40 MLOAD PUSH3 0x461BCD PUSH1 0xE5 SHL DUP2 MSTORE PUSH1 0x4 ADD PUSH2 0xA34 SWAP1 PUSH2 0x3BF8 JUMP JUMPDEST PUSH2 0x1610 PUSH1 0x0 PUSH2 0x32F5 JUMP JUMPDEST JUMP JUMPDEST PUSH1 0x2 DUP2 DUP2 SLOAD DUP2 LT PUSH2 0x1622 JUMPI PUSH1 0x0 DUP1 REVERT JUMPDEST PUSH1 0x0 SWAP2 DUP3 MSTORE PUSH1 0x20 SWAP1 SWAP2 KECCAK256 ADD SLOAD PUSH1 0x1 PUSH1 0x1 PUSH1 0xA0 SHL SUB AND SWAP1 POP DUP2 JUMP JUMPDEST PUSH1 0x0 DUP1 DUP1 DUP1 JUMPDEST PUSH1 0x1 SLOAD DUP2 LT ISZERO PUSH2 0x1832 JUMPI PUSH1 0x0 PUSH1 0x1 DUP3 DUP2 SLOAD DUP2 LT PUSH2 0x1661 JUMPI PUSH2 0x1661 PUSH2 0x398C JUMP JUMPDEST PUSH1 0x0 SWAP2 DUP3 MSTORE PUSH1 0x20 SWAP1 SWAP2 KECCAK256 ADD SLOAD PUSH1 0x1 PUSH1 0x1 PUSH1 0xA0 SHL SUB SWAP1 DUP2 AND SWAP2 POP DUP7 AND DUP2 EQ ISZERO PUSH2 0x181F JUMPI PUSH1 0x0 JUMPDEST PUSH1 0x9 SLOAD DUP2 LT ISZERO PUSH2 0x181D JUMPI PUSH1 0x0 PUSH1 0x9 DUP3 DUP2 SLOAD DUP2 LT PUSH2 0x16A5 JUMPI PUSH2 0x16A5 PUSH2 0x398C JUMP JUMPDEST SWAP1 PUSH1 0x0 MSTORE PUSH1 0x20 PUSH1 0x0 KECCAK256 SWAP1 PUSH1 0x4 MUL ADD PUSH1 0x40 MLOAD DUP1 PUSH1 0x80 ADD PUSH1 0x40 MSTORE SWAP1 DUP2 PUSH1 0x0 DUP3 ADD PUSH1 0x0 SWAP1 SLOAD SWAP1 PUSH2 0x100 EXP SWAP1 DIV PUSH1 0x1 PUSH1 0x1 PUSH1 0xA0 SHL SUB AND PUSH1 0x1 PUSH1 0x1 PUSH1 0xA0 SHL SUB AND PUSH1 0x1 PUSH1 0x1 PUSH1 0xA0 SHL SUB AND DUP2 MSTORE PUSH1 0x20 ADD PUSH1 0x1 DUP3 ADD SLOAD DUP2 MSTORE PUSH1 0x20 ADD PUSH1 0x2 DUP3 ADD SLOAD DUP2 MSTORE PUSH1 0x20 ADD PUSH1 0x3 DUP3 ADD DUP1 SLOAD PUSH2 0x1711 SWAP1 PUSH2 0x39EB JUMP JUMPDEST DUP1 PUSH1 0x1F ADD PUSH1 0x20 DUP1 SWAP2 DIV MUL PUSH1 0x20 ADD PUSH1 0x40 MLOAD SWAP1 DUP2 ADD PUSH1 0x40 MSTORE DUP1 SWAP3 SWAP2 SWAP1 DUP2 DUP2 MSTORE PUSH1 0x20 ADD DUP3 DUP1 SLOAD PUSH2 0x173D SWAP1 PUSH2 0x39EB JUMP JUMPDEST DUP1 ISZERO PUSH2 0x178A JUMPI DUP1 PUSH1 0x1F LT PUSH2 0x175F JUMPI PUSH2 0x100 DUP1 DUP4 SLOAD DIV MUL DUP4 MSTORE SWAP2 PUSH1 0x20 ADD SWAP2 PUSH2 0x178A JUMP JUMPDEST DUP3 ADD SWAP2 SWAP1 PUSH1 0x0 MSTORE PUSH1 0x20 PUSH1 0x0 KECCAK256 SWAP1 JUMPDEST DUP2 SLOAD DUP2 MSTORE SWAP1 PUSH1 0x1 ADD SWAP1 PUSH1 0x20 ADD DUP1 DUP4 GT PUSH2 0x176D JUMPI DUP3 SWAP1 SUB PUSH1 0x1F AND DUP3 ADD SWAP2 JUMPDEST POP POP POP SWAP2 SWAP1 SWAP3 MSTORE POP POP DUP2 MLOAD PUSH1 0x1 PUSH1 0x1 PUSH1 0xA0 SHL SUB SWAP1 DUP2 AND PUSH1 0x0 SWAP1 DUP2 MSTORE PUSH1 0x3 PUSH1 0x20 SWAP1 DUP2 MSTORE PUSH1 0x40 DUP1 DUP4 KECCAK256 SWAP4 DUP15 AND DUP4 MSTORE SWAP3 SWAP1 MSTORE SWAP1 DUP2 KECCAK256 SLOAD DUP4 MLOAD SWAP4 SWAP5 POP SWAP3 SWAP1 SWAP2 POP PUSH2 0x17D1 SWAP1 DUP4 SWAP1 PUSH2 0x2970 JUMP JUMPDEST SWAP1 POP PUSH1 0x0 PUSH8 0xDE0B6B3A7640000 DUP5 PUSH1 0x20 ADD MLOAD DUP4 PUSH2 0x17EE SWAP2 SWAP1 PUSH2 0x3A26 JUMP JUMPDEST PUSH2 0x17F8 SWAP2 SWAP1 PUSH2 0x3A45 JUMP JUMPDEST SWAP1 POP PUSH2 0x1804 DUP2 DUP11 PUSH2 0x39B8 JUMP JUMPDEST SWAP9 POP POP POP POP POP DUP1 DUP1 PUSH2 0x1815 SWAP1 PUSH2 0x39D0 JUMP JUMPDEST SWAP2 POP POP PUSH2 0x1686 JUMP JUMPDEST POP JUMPDEST POP DUP1 PUSH2 0x182A DUP2 PUSH2 0x39D0 JUMP JUMPDEST SWAP2 POP POP PUSH2 0x1642 JUMP JUMPDEST POP PUSH1 0x0 JUMPDEST PUSH1 0x2 SLOAD DUP2 LT ISZERO PUSH2 0x19FE JUMPI PUSH1 0x0 PUSH1 0x2 DUP3 DUP2 SLOAD DUP2 LT PUSH2 0x1855 JUMPI PUSH2 0x1855 PUSH2 0x398C JUMP JUMPDEST PUSH1 0x0 SWAP2 DUP3 MSTORE PUSH1 0x20 SWAP1 SWAP2 KECCAK256 ADD SLOAD PUSH1 0x1 PUSH1 0x1 PUSH1 0xA0 SHL SUB SWAP1 DUP2 AND SWAP2 POP DUP7 AND DUP2 EQ ISZERO PUSH2 0x19EB JUMPI PUSH1 0x0 JUMPDEST PUSH1 0xA SLOAD DUP2 LT ISZERO PUSH2 0x19E9 JUMPI PUSH1 0x0 PUSH1 0xA DUP3 DUP2 SLOAD DUP2 LT PUSH2 0x1899 JUMPI PUSH2 0x1899 PUSH2 0x398C JUMP JUMPDEST SWAP1 PUSH1 0x0 MSTORE PUSH1 0x20 PUSH1 0x0 KECCAK256 SWAP1 PUSH1 0x4 MUL ADD PUSH1 0x40 MLOAD DUP1 PUSH1 0x80 ADD PUSH1 0x40 MSTORE SWAP1 DUP2 PUSH1 0x0 DUP3 ADD PUSH1 0x0 SWAP1 SLOAD SWAP1 PUSH2 0x100 EXP SWAP1 DIV PUSH1 0x1 PUSH1 0x1 PUSH1 0xA0 SHL SUB AND PUSH1 0x1 PUSH1 0x1 PUSH1 0xA0 SHL SUB AND PUSH1 0x1 PUSH1 0x1 PUSH1 0xA0 SHL SUB AND DUP2 MSTORE PUSH1 0x20 ADD PUSH1 0x1 DUP3 ADD SLOAD DUP2 MSTORE PUSH1 0x20 ADD PUSH1 0x2 DUP3 ADD SLOAD DUP2 MSTORE PUSH1 0x20 ADD PUSH1 0x3 DUP3 ADD DUP1 SLOAD PUSH2 0x1905 SWAP1 PUSH2 0x39EB JUMP JUMPDEST DUP1 PUSH1 0x1F ADD PUSH1 0x20 DUP1 SWAP2 DIV MUL PUSH1 0x20 ADD PUSH1 0x40 MLOAD SWAP1 DUP2 ADD PUSH1 0x40 MSTORE DUP1 SWAP3 SWAP2 SWAP1 DUP2 DUP2 MSTORE PUSH1 0x20 ADD DUP3 DUP1 SLOAD PUSH2 0x1931 SWAP1 PUSH2 0x39EB JUMP JUMPDEST DUP1 ISZERO PUSH2 0x197E JUMPI DUP1 PUSH1 0x1F LT PUSH2 0x1953 JUMPI PUSH2 0x100 DUP1 DUP4 SLOAD DIV MUL DUP4 MSTORE SWAP2 PUSH1 0x20 ADD SWAP2 PUSH2 0x197E JUMP JUMPDEST DUP3 ADD SWAP2 SWAP1 PUSH1 0x0 MSTORE PUSH1 0x20 PUSH1 0x0 KECCAK256 SWAP1 JUMPDEST DUP2 SLOAD DUP2 MSTORE SWAP1 PUSH1 0x1 ADD SWAP1 PUSH1 0x20 ADD DUP1 DUP4 GT PUSH2 0x1961 JUMPI DUP3 SWAP1 SUB PUSH1 0x1F AND DUP3 ADD SWAP2 JUMPDEST POP POP POP SWAP2 SWAP1 SWAP3 MSTORE POP POP DUP2 MLOAD PUSH1 0x1 PUSH1 0x1 PUSH1 0xA0 SHL SUB SWAP1 DUP2 AND PUSH1 0x0 SWAP1 DUP2 MSTORE PUSH1 0x4 PUSH1 0x20 SWAP1 DUP2 MSTORE PUSH1 0x40 DUP1 DUP4 KECCAK256 SWAP4 DUP15 AND DUP4 MSTORE SWAP3 SWAP1 MSTORE SWAP1 DUP2 KECCAK256 SLOAD DUP4 MLOAD SWAP4 SWAP5 POP SWAP3 SWAP1 SWAP2 POP PUSH2 0x19C5 SWAP1 DUP4 SWAP1 PUSH2 0x2970 JUMP JUMPDEST SWAP1 POP PUSH2 0x19D1 DUP2 DUP9 PUSH2 0x39B8 JUMP JUMPDEST SWAP7 POP POP POP POP DUP1 DUP1 PUSH2 0x19E1 SWAP1 PUSH2 0x39D0 JUMP JUMPDEST SWAP2 POP POP PUSH2 0x187A JUMP JUMPDEST POP JUMPDEST POP DUP1 PUSH2 0x19F6 DUP2 PUSH2 0x39D0 JUMP JUMPDEST SWAP2 POP POP PUSH2 0x1836 JUMP JUMPDEST POP PUSH2 0x97B DUP2 DUP4 PUSH2 0x3AC0 JUMP JUMPDEST PUSH1 0x60 PUSH1 0x2 DUP1 SLOAD DUP1 PUSH1 0x20 MUL PUSH1 0x20 ADD PUSH1 0x40 MLOAD SWAP1 DUP2 ADD PUSH1 0x40 MSTORE DUP1 SWAP3 SWAP2 SWAP1 DUP2 DUP2 MSTORE PUSH1 0x20 ADD DUP3 DUP1 SLOAD DUP1 ISZERO PUSH2 0xEDB JUMPI PUSH1 0x20 MUL DUP3 ADD SWAP2 SWAP1 PUSH1 0x0 MSTORE PUSH1 0x20 PUSH1 0x0 KECCAK256 SWAP1 DUP2 SLOAD PUSH1 0x1 PUSH1 0x1 PUSH1 0xA0 SHL SUB AND DUP2 MSTORE PUSH1 0x1 SWAP1 SWAP2 ADD SWAP1 PUSH1 0x20 ADD DUP1 DUP4 GT PUSH2 0xEBD JUMPI POP POP POP POP POP SWAP1 POP SWAP1 JUMP JUMPDEST PUSH1 0x1 DUP2 DUP2 SLOAD DUP2 LT PUSH2 0x1622 JUMPI PUSH1 0x0 DUP1 REVERT JUMPDEST PUSH2 0x1B8E DUP3 PUSH1 0x9 DUP1 SLOAD DUP1 PUSH1 0x20 MUL PUSH1 0x20 ADD PUSH1 0x40 MLOAD SWAP1 DUP2 ADD PUSH1 0x40 MSTORE DUP1 SWAP3 SWAP2 SWAP1 DUP2 DUP2 MSTORE PUSH1 0x20 ADD PUSH1 0x0 SWAP1 JUMPDEST DUP3 DUP3 LT ISZERO PUSH2 0x100A JUMPI PUSH1 0x0 DUP5 DUP2 MSTORE PUSH1 0x20 SWAP1 DUP2 SWAP1 KECCAK256 PUSH1 0x40 DUP1 MLOAD PUSH1 0x80 DUP2 ADD DUP3 MSTORE PUSH1 0x4 DUP7 MUL SWAP1 SWAP3 ADD DUP1 SLOAD PUSH1 0x1 PUSH1 0x1 PUSH1 0xA0 SHL SUB AND DUP4 MSTORE PUSH1 0x1 DUP2 ADD SLOAD SWAP4 DUP4 ADD SWAP4 SWAP1 SWAP4 MSTORE PUSH1 0x2 DUP4 ADD SLOAD SWAP1 DUP3 ADD MSTORE PUSH1 0x3 DUP3 ADD DUP1 SLOAD SWAP2 SWAP3 SWAP2 PUSH1 0x60 DUP5 ADD SWAP2 SWAP1 PUSH2 0x1AFD SWAP1 PUSH2 0x39EB JUMP JUMPDEST DUP1 PUSH1 0x1F ADD PUSH1 0x20 DUP1 SWAP2 DIV MUL PUSH1 0x20 ADD PUSH1 0x40 MLOAD SWAP1 DUP2 ADD PUSH1 0x40 MSTORE DUP1 SWAP3 SWAP2 SWAP1 DUP2 DUP2 MSTORE PUSH1 0x20 ADD DUP3 DUP1 SLOAD PUSH2 0x1B29 SWAP1 PUSH2 0x39EB JUMP JUMPDEST DUP1 ISZERO PUSH2 0x1B76 JUMPI DUP1 PUSH1 0x1F LT PUSH2 0x1B4B JUMPI PUSH2 0x100 DUP1 DUP4 SLOAD DIV MUL DUP4 MSTORE SWAP2 PUSH1 0x20 ADD SWAP2 PUSH2 0x1B76 JUMP JUMPDEST DUP3 ADD SWAP2 SWAP1 PUSH1 0x0 MSTORE PUSH1 0x20 PUSH1 0x0 KECCAK256 SWAP1 JUMPDEST DUP2 SLOAD DUP2 MSTORE SWAP1 PUSH1 0x1 ADD SWAP1 PUSH1 0x20 ADD DUP1 DUP4 GT PUSH2 0x1B59 JUMPI DUP3 SWAP1 SUB PUSH1 0x1F AND DUP3 ADD SWAP2 JUMPDEST POP POP POP POP POP DUP2 MSTORE POP POP DUP2 MSTORE PUSH1 0x20 ADD SWAP1 PUSH1 0x1 ADD SWAP1 PUSH2 0x1A9F JUMP JUMPDEST PUSH2 0x1BD3 JUMPI PUSH1 0x40 MLOAD PUSH3 0x461BCD PUSH1 0xE5 SHL DUP2 MSTORE PUSH1 0x20 PUSH1 0x4 DUP3 ADD MSTORE PUSH1 0x16 PUSH1 0x24 DUP3 ADD MSTORE PUSH22 0x151BDAD95B881A5CC81B9BDD081CDD5C1C1BDC9D1959 PUSH1 0x52 SHL PUSH1 0x44 DUP3 ADD MSTORE PUSH1 0x64 ADD PUSH2 0xA34 JUMP JUMPDEST PUSH1 0x0 DUP2 GT PUSH2 0x1C39 JUMPI PUSH1 0x40 MLOAD PUSH3 0x461BCD PUSH1 0xE5 SHL DUP2 MSTORE PUSH1 0x20 PUSH1 0x4 DUP3 ADD MSTORE PUSH1 0x2D PUSH1 0x24 DUP3 ADD MSTORE PUSH32 0x54686520616D6F756E7420746F20737570706C792073686F756C642062652067 PUSH1 0x44 DUP3 ADD MSTORE PUSH13 0x726561746572207468616E203 PUSH1 0x9C SHL PUSH1 0x64 DUP3 ADD MSTORE PUSH1 0x84 ADD PUSH2 0xA34 JUMP JUMPDEST PUSH1 0x40 MLOAD PUSH4 0x70A08231 PUSH1 0xE0 SHL DUP2 MSTORE CALLER PUSH1 0x4 DUP3 ADD MSTORE DUP3 SWAP1 DUP3 SWAP1 PUSH1 0x1 PUSH1 0x1 PUSH1 0xA0 SHL SUB DUP4 AND SWAP1 PUSH4 0x70A08231 SWAP1 PUSH1 0x24 ADD PUSH1 0x20 PUSH1 0x40 MLOAD DUP1 DUP4 SUB DUP2 DUP7 GAS STATICCALL ISZERO DUP1 ISZERO PUSH2 0x1C81 JUMPI RETURNDATASIZE PUSH1 0x0 DUP1 RETURNDATACOPY RETURNDATASIZE PUSH1 0x0 REVERT JUMPDEST POP POP POP POP PUSH1 0x40 MLOAD RETURNDATASIZE PUSH1 0x1F NOT PUSH1 0x1F DUP3 ADD AND DUP3 ADD DUP1 PUSH1 0x40 MSTORE POP DUP2 ADD SWAP1 PUSH2 0x1CA5 SWAP2 SWAP1 PUSH2 0x3B74 JUMP JUMPDEST LT ISZERO PUSH2 0x1D0D JUMPI PUSH1 0x40 MLOAD PUSH3 0x461BCD PUSH1 0xE5 SHL DUP2 MSTORE PUSH1 0x20 PUSH1 0x4 DUP3 ADD MSTORE PUSH1 0x31 PUSH1 0x24 DUP3 ADD MSTORE PUSH32 0x596F75206861766520696E73756666696369656E7420746F6B656E20746F2073 PUSH1 0x44 DUP3 ADD MSTORE PUSH17 0x1D5C1C1B1E481D1A185D08185B5BDD5B9D PUSH1 0x7A SHL PUSH1 0x64 DUP3 ADD MSTORE PUSH1 0x84 ADD PUSH2 0xA34 JUMP JUMPDEST PUSH1 0x40 MLOAD PUSH4 0x23B872DD PUSH1 0xE0 SHL DUP2 MSTORE CALLER PUSH1 0x4 DUP3 ADD MSTORE ADDRESS PUSH1 0x24 DUP3 ADD MSTORE PUSH1 0x44 DUP2 ADD DUP4 SWAP1 MSTORE PUSH1 0x1 PUSH1 0x1 PUSH1 0xA0 SHL SUB DUP3 AND SWAP1 PUSH4 0x23B872DD SWAP1 PUSH1 0x64 ADD PUSH1 0x20 PUSH1 0x40 MLOAD DUP1 DUP4 SUB DUP2 PUSH1 0x0 DUP8 GAS CALL ISZERO DUP1 ISZERO PUSH2 0x1D60 JUMPI RETURNDATASIZE PUSH1 0x0 DUP1 RETURNDATACOPY RETURNDATASIZE PUSH1 0x0 REVERT JUMPDEST POP POP POP POP PUSH1 0x40 MLOAD RETURNDATASIZE PUSH1 0x1F NOT PUSH1 0x1F DUP3 ADD AND DUP3 ADD DUP1 PUSH1 0x40 MSTORE POP DUP2 ADD SWAP1 PUSH2 0x1D84 SWAP2 SWAP1 PUSH2 0x3A9E JUMP JUMPDEST POP PUSH1 0x0 DUP1 PUSH2 0x1DEA CALLER PUSH1 0x1 DUP1 SLOAD DUP1 PUSH1 0x20 MUL PUSH1 0x20 ADD PUSH1 0x40 MLOAD SWAP1 DUP2 ADD PUSH1 0x40 MSTORE DUP1 SWAP3 SWAP2 SWAP1 DUP2 DUP2 MSTORE PUSH1 0x20 ADD DUP3 DUP1 SLOAD DUP1 ISZERO PUSH2 0x12BC JUMPI PUSH1 0x20 MUL DUP3 ADD SWAP2 SWAP1 PUSH1 0x0 MSTORE PUSH1 0x20 PUSH1 0x0 KECCAK256 SWAP1 DUP2 SLOAD PUSH1 0x1 PUSH1 0x1 PUSH1 0xA0 SHL SUB AND DUP2 MSTORE PUSH1 0x1 SWAP1 SWAP2 ADD SWAP1 PUSH1 0x20 ADD DUP1 DUP4 GT PUSH2 0x129E JUMPI POP POP POP POP POP PUSH2 0x2F31 JUMP JUMPDEST SWAP2 POP SWAP2 POP DUP2 ISZERO PUSH2 0x1E24 JUMPI PUSH2 0x1E1F DUP6 DUP6 DUP4 PUSH1 0x40 MLOAD DUP1 PUSH1 0x40 ADD PUSH1 0x40 MSTORE DUP1 PUSH1 0x7 DUP2 MSTORE PUSH1 0x20 ADD PUSH7 0x6C656E64657273 PUSH1 0xC8 SHL DUP2 MSTORE POP PUSH2 0x2FB3 JUMP JUMPDEST PUSH2 0x1EE0 JUMP JUMPDEST PUSH1 0x1 DUP1 SLOAD DUP1 DUP3 ADD SWAP1 SWAP2 SSTORE PUSH32 0xB10E2D527612073B26EECDFD717E6A320CF44B4AFAC2B0732D9FCBE2B7FA0CF6 ADD DUP1 SLOAD PUSH1 0x1 PUSH1 0x1 PUSH1 0xA0 SHL SUB NOT AND CALLER SWAP1 DUP2 OR SWAP1 SWAP2 SSTORE PUSH1 0x1 PUSH1 0x1 PUSH1 0xA0 SHL SUB DUP7 AND PUSH1 0x0 SWAP1 DUP2 MSTORE PUSH1 0x3 PUSH1 0x20 SWAP1 DUP2 MSTORE PUSH1 0x40 DUP1 DUP4 KECCAK256 SWAP4 DUP4 MSTORE SWAP3 SWAP1 MSTORE SWAP1 DUP2 KECCAK256 DUP6 SWAP1 SSTORE PUSH1 0xC DUP1 SLOAD DUP8 SWAP3 PUSH1 0x5 SWAP3 SWAP1 SWAP2 SWAP1 DUP3 PUSH2 0x1EA0 DUP4 PUSH2 0x39D0 JUMP JUMPDEST SWAP1 SWAP2 SSTORE POP DUP2 MSTORE PUSH1 0x20 DUP1 DUP3 ADD SWAP3 SWAP1 SWAP3 MSTORE PUSH1 0x40 SWAP1 DUP2 ADD PUSH1 0x0 SWAP1 DUP2 KECCAK256 CALLER DUP3 MSTORE SWAP1 SWAP3 MSTORE SWAP1 KECCAK256 DUP1 SLOAD PUSH1 0x1 PUSH1 0x1 PUSH1 0xA0 SHL SUB NOT AND PUSH1 0x1 PUSH1 0x1 PUSH1 0xA0 SHL SUB SWAP3 SWAP1 SWAP3 AND SWAP2 SWAP1 SWAP2 OR SWAP1 SSTORE JUMPDEST PUSH2 0x1EEB CALLER DUP7 DUP7 PUSH2 0x3345 JUMP JUMPDEST PUSH1 0x1 PUSH1 0x1 PUSH1 0xA0 SHL SUB DUP6 AND PUSH1 0x0 SWAP1 DUP2 MSTORE PUSH1 0x3 PUSH1 0x20 SWAP1 DUP2 MSTORE PUSH1 0x40 DUP1 DUP4 KECCAK256 CALLER DUP1 DUP6 MSTORE SWAP3 MSTORE SWAP2 DUP3 SWAP1 KECCAK256 SLOAD SWAP2 MLOAD PUSH32 0xBB33FFE04605A99E7885B3013BCC050161D1906B3611F09FED70A0C61E1F03DE SWAP3 PUSH2 0x1F43 SWAP3 SWAP2 PUSH1 0x1 SWAP2 SWAP1 PUSH2 0x3C2D JUMP JUMPDEST PUSH1 0x40 MLOAD DUP1 SWAP2 SUB SWAP1 LOG1 POP POP POP POP POP JUMP JUMPDEST PUSH1 0x0 DUP1 DUP1 JUMPDEST PUSH1 0xC SLOAD DUP2 LT ISZERO PUSH2 0x870 JUMPI PUSH1 0x0 DUP2 DUP2 MSTORE PUSH1 0x5 PUSH1 0x20 SWAP1 DUP2 MSTORE PUSH1 0x40 DUP1 DUP4 KECCAK256 PUSH1 0x1 PUSH1 0x1 PUSH1 0xA0 SHL SUB DUP1 DUP10 AND DUP6 MSTORE SWAP3 MSTORE SWAP1 SWAP2 KECCAK256 SLOAD AND DUP1 ISZERO PUSH2 0x1FD0 JUMPI PUSH1 0x1 PUSH1 0x1 PUSH1 0xA0 SHL SUB DUP1 DUP3 AND PUSH1 0x0 SWAP1 DUP2 MSTORE PUSH1 0x3 PUSH1 0x20 SWAP1 DUP2 MSTORE PUSH1 0x40 DUP1 DUP4 KECCAK256 SWAP4 DUP10 AND DUP4 MSTORE SWAP3 SWAP1 MSTORE SWAP1 DUP2 KECCAK256 SLOAD SWAP1 PUSH2 0x1FBF DUP3 DUP5 PUSH2 0x2970 JUMP JUMPDEST SWAP1 POP PUSH2 0x1FCB DUP2 DUP7 PUSH2 0x39B8 JUMP JUMPDEST SWAP5 POP POP POP JUMPDEST POP DUP1 PUSH2 0x1FDB DUP2 PUSH2 0x39D0 JUMP JUMPDEST SWAP2 POP POP PUSH2 0x1F57 JUMP JUMPDEST PUSH1 0x2 SLOAD PUSH1 0x0 SWAP1 DUP2 SWAP1 ISZERO PUSH2 0x872 JUMPI PUSH1 0x0 JUMPDEST PUSH1 0x2 SLOAD DUP2 LT ISZERO PUSH2 0x870 JUMPI PUSH1 0x0 PUSH1 0x2 DUP3 DUP2 SLOAD DUP2 LT PUSH2 0x2012 JUMPI PUSH2 0x2012 PUSH2 0x398C JUMP JUMPDEST PUSH1 0x0 SWAP2 DUP3 MSTORE PUSH1 0x20 DUP1 DUP4 KECCAK256 SWAP1 SWAP2 ADD SLOAD PUSH1 0x1 PUSH1 0x1 PUSH1 0xA0 SHL SUB DUP9 DUP2 AND DUP5 MSTORE PUSH1 0x4 DUP4 MSTORE PUSH1 0x40 DUP1 DUP6 KECCAK256 SWAP2 SWAP1 SWAP3 AND DUP1 DUP6 MSTORE SWAP3 MSTORE SWAP1 SWAP2 KECCAK256 SLOAD SWAP1 SWAP2 POP PUSH2 0x2050 SWAP1 DUP5 PUSH2 0x39B8 JUMP JUMPDEST SWAP3 POP POP DUP1 DUP1 PUSH2 0x205E SWAP1 PUSH2 0x39D0 JUMP JUMPDEST SWAP2 POP POP PUSH2 0x1FF3 JUMP JUMPDEST PUSH1 0x0 SLOAD PUSH1 0x1 PUSH1 0x1 PUSH1 0xA0 SHL SUB AND CALLER EQ PUSH2 0x2090 JUMPI PUSH1 0x40 MLOAD PUSH3 0x461BCD PUSH1 0xE5 SHL DUP2 MSTORE PUSH1 0x4 ADD PUSH2 0xA34 SWAP1 PUSH2 0x3BF8 JUMP JUMPDEST PUSH1 0x1 PUSH1 0x1 PUSH1 0xA0 SHL SUB SWAP2 DUP3 AND PUSH1 0x0 SWAP1 DUP2 MSTORE PUSH1 0x7 PUSH1 0x20 MSTORE PUSH1 0x40 SWAP1 KECCAK256 DUP1 SLOAD PUSH1 0x1 PUSH1 0x1 PUSH1 0xA0 SHL SUB NOT AND SWAP2 SWAP1 SWAP3 AND OR SWAP1 SSTORE JUMP JUMPDEST PUSH1 0x0 SLOAD PUSH1 0x1 PUSH1 0x1 PUSH1 0xA0 SHL SUB AND CALLER EQ PUSH2 0x20E8 JUMPI PUSH1 0x40 MLOAD PUSH3 0x461BCD PUSH1 0xE5 SHL DUP2 MSTORE PUSH1 0x4 ADD PUSH2 0xA34 SWAP1 PUSH2 0x3BF8 JUMP JUMPDEST PUSH1 0x0 PUSH1 0x40 MLOAD DUP1 PUSH1 0x80 ADD PUSH1 0x40 MSTORE DUP1 DUP6 PUSH1 0x1 PUSH1 0x1 PUSH1 0xA0 SHL SUB AND DUP2 MSTORE PUSH1 0x20 ADD DUP5 DUP2 MSTORE PUSH1 0x20 ADD DUP4 DUP2 MSTORE PUSH1 0x20 ADD DUP7 DUP2 MSTORE POP SWAP1 POP PUSH2 0x2234 DUP2 PUSH1 0x9 DUP1 SLOAD DUP1 PUSH1 0x20 MUL PUSH1 0x20 ADD PUSH1 0x40 MLOAD SWAP1 DUP2 ADD PUSH1 0x40 MSTORE DUP1 SWAP3 SWAP2 SWAP1 DUP2 DUP2 MSTORE PUSH1 0x20 ADD PUSH1 0x0 SWAP1 JUMPDEST DUP3 DUP3 LT ISZERO PUSH2 0x222B JUMPI PUSH1 0x0 DUP5 DUP2 MSTORE PUSH1 0x20 SWAP1 DUP2 SWAP1 KECCAK256 PUSH1 0x40 DUP1 MLOAD PUSH1 0x80 DUP2 ADD DUP3 MSTORE PUSH1 0x4 DUP7 MUL SWAP1 SWAP3 ADD DUP1 SLOAD PUSH1 0x1 PUSH1 0x1 PUSH1 0xA0 SHL SUB AND DUP4 MSTORE PUSH1 0x1 DUP2 ADD SLOAD SWAP4 DUP4 ADD SWAP4 SWAP1 SWAP4 MSTORE PUSH1 0x2 DUP4 ADD SLOAD SWAP1 DUP3 ADD MSTORE PUSH1 0x3 DUP3 ADD DUP1 SLOAD SWAP2 SWAP3 SWAP2 PUSH1 0x60 DUP5 ADD SWAP2 SWAP1 PUSH2 0x219A SWAP1 PUSH2 0x39EB JUMP JUMPDEST DUP1 PUSH1 0x1F ADD PUSH1 0x20 DUP1 SWAP2 DIV MUL PUSH1 0x20 ADD PUSH1 0x40 MLOAD SWAP1 DUP2 ADD PUSH1 0x40 MSTORE DUP1 SWAP3 SWAP2 SWAP1 DUP2 DUP2 MSTORE PUSH1 0x20 ADD DUP3 DUP1 SLOAD PUSH2 0x21C6 SWAP1 PUSH2 0x39EB JUMP JUMPDEST DUP1 ISZERO PUSH2 0x2213 JUMPI DUP1 PUSH1 0x1F LT PUSH2 0x21E8 JUMPI PUSH2 0x100 DUP1 DUP4 SLOAD DIV MUL DUP4 MSTORE SWAP2 PUSH1 0x20 ADD SWAP2 PUSH2 0x2213 JUMP JUMPDEST DUP3 ADD SWAP2 SWAP1 PUSH1 0x0 MSTORE PUSH1 0x20 PUSH1 0x0 KECCAK256 SWAP1 JUMPDEST DUP2 SLOAD DUP2 MSTORE SWAP1 PUSH1 0x1 ADD SWAP1 PUSH1 0x20 ADD DUP1 DUP4 GT PUSH2 0x21F6 JUMPI DUP3 SWAP1 SUB PUSH1 0x1F AND DUP3 ADD SWAP2 JUMPDEST POP POP POP POP POP DUP2 MSTORE POP POP DUP2 MSTORE PUSH1 0x20 ADD SWAP1 PUSH1 0x1 ADD SWAP1 PUSH2 0x213C JUMP JUMPDEST POP POP POP POP PUSH2 0x33EA JUMP JUMPDEST PUSH2 0x2320 JUMPI PUSH1 0x9 DUP1 SLOAD PUSH1 0x1 DUP2 ADD DUP3 SSTORE PUSH1 0x0 SWAP2 SWAP1 SWAP2 MSTORE DUP2 MLOAD PUSH32 0x6E1540171B6C0C960B71A7020D9F60077F6AF931A8BBF590DA0223DACF75C7AF PUSH1 0x4 SWAP1 SWAP3 MUL SWAP2 DUP3 ADD DUP1 SLOAD PUSH1 0x1 PUSH1 0x1 PUSH1 0xA0 SHL SUB NOT AND PUSH1 0x1 PUSH1 0x1 PUSH1 0xA0 SHL SUB SWAP1 SWAP3 AND SWAP2 SWAP1 SWAP2 OR DUP2 SSTORE PUSH1 0x20 DUP1 DUP5 ADD MLOAD PUSH32 0x6E1540171B6C0C960B71A7020D9F60077F6AF931A8BBF590DA0223DACF75C7B0 DUP5 ADD SSTORE PUSH1 0x40 DUP5 ADD MLOAD PUSH32 0x6E1540171B6C0C960B71A7020D9F60077F6AF931A8BBF590DA0223DACF75C7B1 DUP5 ADD SSTORE PUSH1 0x60 DUP5 ADD MLOAD DUP1 MLOAD DUP6 SWAP5 PUSH2 0x231C SWAP4 PUSH32 0x6E1540171B6C0C960B71A7020D9F60077F6AF931A8BBF590DA0223DACF75C7B2 SWAP1 SWAP2 ADD SWAP3 ADD SWAP1 PUSH2 0x345E JUMP JUMPDEST POP POP POP JUMPDEST POP POP POP POP POP JUMP JUMPDEST PUSH1 0x60 PUSH1 0xA DUP1 SLOAD DUP1 PUSH1 0x20 MUL PUSH1 0x20 ADD PUSH1 0x40 MLOAD SWAP1 DUP2 ADD PUSH1 0x40 MSTORE DUP1 SWAP3 SWAP2 SWAP1 DUP2 DUP2 MSTORE PUSH1 0x20 ADD PUSH1 0x0 SWAP1 JUMPDEST DUP3 DUP3 LT ISZERO PUSH2 0xE7A JUMPI PUSH1 0x0 DUP5 DUP2 MSTORE PUSH1 0x20 SWAP1 DUP2 SWAP1 KECCAK256 PUSH1 0x40 DUP1 MLOAD PUSH1 0x80 DUP2 ADD DUP3 MSTORE PUSH1 0x4 DUP7 MUL SWAP1 SWAP3 ADD DUP1 SLOAD PUSH1 0x1 PUSH1 0x1 PUSH1 0xA0 SHL SUB AND DUP4 MSTORE PUSH1 0x1 DUP2 ADD SLOAD SWAP4 DUP4 ADD SWAP4 SWAP1 SWAP4 MSTORE PUSH1 0x2 DUP4 ADD SLOAD SWAP1 DUP3 ADD MSTORE PUSH1 0x3 DUP3 ADD DUP1 SLOAD SWAP2 SWAP3 SWAP2 PUSH1 0x60 DUP5 ADD SWAP2 SWAP1 PUSH2 0x23A9 SWAP1 PUSH2 0x39EB JUMP JUMPDEST DUP1 PUSH1 0x1F ADD PUSH1 0x20 DUP1 SWAP2 DIV MUL PUSH1 0x20 ADD PUSH1 0x40 MLOAD SWAP1 DUP2 ADD PUSH1 0x40 MSTORE DUP1 SWAP3 SWAP2 SWAP1 DUP2 DUP2 MSTORE PUSH1 0x20 ADD DUP3 DUP1 SLOAD PUSH2 0x23D5 SWAP1 PUSH2 0x39EB JUMP JUMPDEST DUP1 ISZERO PUSH2 0x2422 JUMPI DUP1 PUSH1 0x1F LT PUSH2 0x23F7 JUMPI PUSH2 0x100 DUP1 DUP4 SLOAD DIV MUL DUP4 MSTORE SWAP2 PUSH1 0x20 ADD SWAP2 PUSH2 0x2422 JUMP JUMPDEST DUP3 ADD SWAP2 SWAP1 PUSH1 0x0 MSTORE PUSH1 0x20 PUSH1 0x0 KECCAK256 SWAP1 JUMPDEST DUP2 SLOAD DUP2 MSTORE SWAP1 PUSH1 0x1 ADD SWAP1 PUSH1 0x20 ADD DUP1 DUP4 GT PUSH2 0x2405 JUMPI DUP3 SWAP1 SUB PUSH1 0x1F AND DUP3 ADD SWAP2 JUMPDEST POP POP POP POP POP DUP2 MSTORE POP POP DUP2 MSTORE PUSH1 0x20 ADD SWAP1 PUSH1 0x1 ADD SWAP1 PUSH2 0x234B JUMP JUMPDEST PUSH1 0x0 PUSH1 0x0 NOT DUP2 JUMPDEST DUP4 MLOAD DUP2 LT ISZERO PUSH2 0x249F JUMPI PUSH1 0x0 DUP5 DUP3 DUP2 MLOAD DUP2 LT PUSH2 0x245E JUMPI PUSH2 0x245E PUSH2 0x398C JUMP JUMPDEST PUSH1 0x20 MUL PUSH1 0x20 ADD ADD MLOAD SWAP1 POP DUP6 PUSH1 0x1 PUSH1 0x1 PUSH1 0xA0 SHL SUB AND DUP2 PUSH1 0x1 PUSH1 0x1 PUSH1 0xA0 SHL SUB AND EQ ISZERO PUSH2 0x248C JUMPI POP SWAP2 POP PUSH2 0x872 SWAP1 POP JUMP JUMPDEST POP DUP1 PUSH2 0x2497 DUP2 PUSH2 0x39D0 JUMP JUMPDEST SWAP2 POP POP PUSH2 0x2441 JUMP JUMPDEST POP SWAP4 SWAP3 POP POP POP JUMP JUMPDEST PUSH1 0x0 SLOAD PUSH1 0x1 PUSH1 0x1 PUSH1 0xA0 SHL SUB AND CALLER EQ PUSH2 0x24D1 JUMPI PUSH1 0x40 MLOAD PUSH3 0x461BCD PUSH1 0xE5 SHL DUP2 MSTORE PUSH1 0x4 ADD PUSH2 0xA34 SWAP1 PUSH2 0x3BF8 JUMP JUMPDEST PUSH1 0x1 PUSH1 0x1 PUSH1 0xA0 SHL SUB DUP2 AND PUSH2 0x2536 JUMPI PUSH1 0x40 MLOAD PUSH3 0x461BCD PUSH1 0xE5 SHL DUP2 MSTORE PUSH1 0x20 PUSH1 0x4 DUP3 ADD MSTORE PUSH1 0x26 PUSH1 0x24 DUP3 ADD MSTORE PUSH32 0x4F776E61626C653A206E6577206F776E657220697320746865207A65726F2061 PUSH1 0x44 DUP3 ADD MSTORE PUSH6 0x646472657373 PUSH1 0xD0 SHL PUSH1 0x64 DUP3 ADD MSTORE PUSH1 0x84 ADD PUSH2 0xA34 JUMP JUMPDEST PUSH2 0x253F DUP2 PUSH2 0x32F5 JUMP JUMPDEST POP JUMP JUMPDEST PUSH1 0x0 DUP2 GT PUSH2 0x2562 JUMPI PUSH1 0x40 MLOAD PUSH3 0x461BCD PUSH1 0xE5 SHL DUP2 MSTORE PUSH1 0x4 ADD PUSH2 0xA34 SWAP1 PUSH2 0x3A67 JUMP JUMPDEST PUSH1 0x0 PUSH2 0x25C6 CALLER PUSH1 0x1 DUP1 SLOAD DUP1 PUSH1 0x20 MUL PUSH1 0x20 ADD PUSH1 0x40 MLOAD SWAP1 DUP2 ADD PUSH1 0x40 MSTORE DUP1 SWAP3 SWAP2 SWAP1 DUP2 DUP2 MSTORE PUSH1 0x20 ADD DUP3 DUP1 SLOAD DUP1 ISZERO PUSH2 0xA99 JUMPI PUSH1 0x20 MUL DUP3 ADD SWAP2 SWAP1 PUSH1 0x0 MSTORE PUSH1 0x20 PUSH1 0x0 KECCAK256 SWAP1 DUP2 SLOAD PUSH1 0x1 PUSH1 0x1 PUSH1 0xA0 SHL SUB AND DUP2 MSTORE PUSH1 0x1 SWAP1 SWAP2 ADD SWAP1 PUSH1 0x20 ADD DUP1 DUP4 GT PUSH2 0xA7B JUMPI POP POP POP POP POP PUSH2 0x243A JUMP JUMPDEST SWAP1 POP PUSH1 0x0 DUP2 SLT ISZERO PUSH2 0x2632 JUMPI PUSH1 0x40 MLOAD PUSH3 0x461BCD PUSH1 0xE5 SHL DUP2 MSTORE PUSH1 0x20 PUSH1 0x4 DUP3 ADD MSTORE PUSH1 0x30 PUSH1 0x24 DUP3 ADD MSTORE PUSH32 0x557365722061646472657373206973206E6F7420666F756E6420696E20746865 PUSH1 0x44 DUP3 ADD MSTORE PUSH16 0x206C697374206F66206C656E64657273 PUSH1 0x80 SHL PUSH1 0x64 DUP3 ADD MSTORE PUSH1 0x84 ADD PUSH2 0xA34 JUMP JUMPDEST DUP3 PUSH1 0x0 PUSH2 0x263F DUP5 DUP4 PUSH2 0x2970 JUMP JUMPDEST SWAP1 POP PUSH1 0x0 PUSH2 0x264C CALLER PUSH2 0x15AC JUMP JUMPDEST SWAP1 POP DUP1 DUP3 LT PUSH2 0x2705 JUMPI PUSH1 0x40 MLOAD PUSH3 0x461BCD PUSH1 0xE5 SHL DUP2 MSTORE PUSH1 0x20 PUSH1 0x4 DUP3 ADD MSTORE PUSH1 0x73 PUSH1 0x24 DUP3 ADD MSTORE PUSH32 0x596F752068617665207573656420736F6D65206F6620796F757220737570706C PUSH1 0x44 DUP3 ADD MSTORE PUSH32 0x69657320617320796F757220636F6C6C61746572616C2E2050617920796F7572 PUSH1 0x64 DUP3 ADD MSTORE PUSH32 0x2064656274206265666F726520796F752063616E20626520616C6C6F77656420 PUSH1 0x84 DUP3 ADD MSTORE PUSH19 0x746F2077697468647261772E205468616E6B73 PUSH1 0x68 SHL PUSH1 0xA4 DUP3 ADD MSTORE PUSH1 0xC4 ADD PUSH2 0xA34 JUMP JUMPDEST PUSH1 0x0 PUSH2 0x2711 DUP7 DUP9 PUSH2 0x2970 JUMP JUMPDEST PUSH1 0xB SLOAD PUSH1 0x40 MLOAD PUSH4 0x23B872DD PUSH1 0xE0 SHL DUP2 MSTORE CALLER PUSH1 0x4 DUP3 ADD MSTORE ADDRESS PUSH1 0x24 DUP3 ADD MSTORE PUSH1 0x44 DUP2 ADD DUP4 SWAP1 MSTORE SWAP2 SWAP3 POP PUSH1 0x1 PUSH1 0x1 PUSH1 0xA0 SHL SUB AND SWAP1 PUSH4 0x23B872DD SWAP1 PUSH1 0x64 ADD PUSH1 0x20 PUSH1 0x40 MLOAD DUP1 DUP4 SUB DUP2 PUSH1 0x0 DUP8 GAS CALL ISZERO DUP1 ISZERO PUSH2 0x2769 JUMPI RETURNDATASIZE PUSH1 0x0 DUP1 RETURNDATACOPY RETURNDATASIZE PUSH1 0x0 REVERT JUMPDEST POP POP POP POP PUSH1 0x40 MLOAD RETURNDATASIZE PUSH1 0x1F NOT PUSH1 0x1F DUP3 ADD AND DUP3 ADD DUP1 PUSH1 0x40 MSTORE POP DUP2 ADD SWAP1 PUSH2 0x278D SWAP2 SWAP1 PUSH2 0x3A9E JUMP JUMPDEST POP PUSH1 0x40 MLOAD PUSH4 0xA9059CBB PUSH1 0xE0 SHL DUP2 MSTORE CALLER PUSH1 0x4 DUP3 ADD MSTORE PUSH1 0x24 DUP2 ADD DUP8 SWAP1 MSTORE PUSH1 0x1 PUSH1 0x1 PUSH1 0xA0 SHL SUB DUP6 AND SWAP1 PUSH4 0xA9059CBB SWAP1 PUSH1 0x44 ADD PUSH1 0x20 PUSH1 0x40 MLOAD DUP1 DUP4 SUB DUP2 PUSH1 0x0 DUP8 GAS CALL ISZERO DUP1 ISZERO PUSH2 0x27DB JUMPI RETURNDATASIZE PUSH1 0x0 DUP1 RETURNDATACOPY RETURNDATASIZE PUSH1 0x0 REVERT JUMPDEST POP POP POP POP PUSH1 0x40 MLOAD RETURNDATASIZE PUSH1 0x1F NOT PUSH1 0x1F DUP3 ADD AND DUP3 ADD DUP1 PUSH1 0x40 MSTORE POP DUP2 ADD SWAP1 PUSH2 0x27FF SWAP2 SWAP1 PUSH2 0x3A9E JUMP JUMPDEST POP PUSH1 0x1 PUSH1 0x1 PUSH1 0xA0 SHL SUB DUP8 AND PUSH1 0x0 SWAP1 DUP2 MSTORE PUSH1 0x3 PUSH1 0x20 SWAP1 DUP2 MSTORE PUSH1 0x40 DUP1 DUP4 KECCAK256 CALLER DUP5 MSTORE SWAP1 SWAP2 MSTORE SWAP1 KECCAK256 SLOAD PUSH2 0x282F SWAP1 DUP8 SWAP1 PUSH2 0x3AC0 JUMP JUMPDEST PUSH1 0x1 PUSH1 0x1 PUSH1 0xA0 SHL SUB DUP9 AND PUSH1 0x0 SWAP1 DUP2 MSTORE PUSH1 0x3 PUSH1 0x20 SWAP1 DUP2 MSTORE PUSH1 0x40 DUP1 DUP4 KECCAK256 CALLER DUP1 DUP6 MSTORE SWAP3 MSTORE DUP3 KECCAK256 SWAP3 SWAP1 SWAP3 SSTORE SWAP1 PUSH2 0x2860 SWAP1 PUSH2 0x1F52 JUMP JUMPDEST PUSH1 0x40 DUP1 MLOAD CALLER DUP2 MSTORE PUSH1 0x20 DUP2 ADD DUP11 SWAP1 MSTORE SWAP1 DUP2 ADD DUP7 SWAP1 MSTORE PUSH1 0x60 DUP2 ADD DUP6 SWAP1 MSTORE PUSH1 0x80 DUP2 ADD DUP3 SWAP1 MSTORE SWAP1 SWAP2 POP PUSH32 0xE08737AC48A1DAB4B1A46C7DC9398BD5BFC6D7AD6FABB7CD8CAA254DE14DEF35 SWAP1 PUSH1 0xA0 ADD PUSH1 0x40 MLOAD DUP1 SWAP2 SUB SWAP1 LOG1 PUSH1 0x0 DUP2 GT PUSH2 0x231C JUMPI PUSH1 0x1 DUP1 SLOAD PUSH2 0x28C9 SWAP1 DUP3 SWAP1 PUSH2 0x3AC0 JUMP JUMPDEST DUP2 SLOAD DUP2 LT PUSH2 0x28D9 JUMPI PUSH2 0x28D9 PUSH2 0x398C JUMP JUMPDEST PUSH1 0x0 SWAP2 DUP3 MSTORE PUSH1 0x20 SWAP1 SWAP2 KECCAK256 ADD SLOAD PUSH1 0x1 DUP1 SLOAD PUSH1 0x1 PUSH1 0x1 PUSH1 0xA0 SHL SUB SWAP1 SWAP3 AND SWAP2 DUP9 SWAP1 DUP2 LT PUSH2 0x2905 JUMPI PUSH2 0x2905 PUSH2 0x398C JUMP JUMPDEST SWAP1 PUSH1 0x0 MSTORE PUSH1 0x20 PUSH1 0x0 KECCAK256 ADD PUSH1 0x0 PUSH2 0x100 EXP DUP2 SLOAD DUP2 PUSH1 0x1 PUSH1 0x1 PUSH1 0xA0 SHL SUB MUL NOT AND SWAP1 DUP4 PUSH1 0x1 PUSH1 0x1 PUSH1 0xA0 SHL SUB AND MUL OR SWAP1 SSTORE POP PUSH1 0x1 DUP1 SLOAD DUP1 PUSH2 0x2944 JUMPI PUSH2 0x2944 PUSH2 0x3AD7 JUMP JUMPDEST PUSH1 0x0 DUP3 DUP2 MSTORE PUSH1 0x20 SWAP1 KECCAK256 DUP2 ADD PUSH1 0x0 NOT SWAP1 DUP2 ADD DUP1 SLOAD PUSH1 0x1 PUSH1 0x1 PUSH1 0xA0 SHL SUB NOT AND SWAP1 SSTORE ADD SWAP1 SSTORE POP POP POP POP POP POP POP POP JUMP JUMPDEST PUSH1 0x0 DUP1 PUSH1 0x0 PUSH2 0x297E DUP5 PUSH2 0x2B60 JUMP JUMPDEST SWAP1 SWAP3 POP SWAP1 POP PUSH1 0x0 PUSH2 0x2990 DUP3 PUSH1 0xA PUSH2 0x3D45 JUMP JUMPDEST PUSH2 0x299A DUP5 DUP9 PUSH2 0x3A26 JUMP JUMPDEST PUSH2 0x29A4 SWAP2 SWAP1 PUSH2 0x3A45 JUMP JUMPDEST SWAP7 SWAP6 POP POP POP POP POP POP JUMP JUMPDEST PUSH2 0x29E2 PUSH1 0x40 MLOAD DUP1 PUSH1 0x80 ADD PUSH1 0x40 MSTORE DUP1 PUSH1 0x0 PUSH1 0x1 PUSH1 0x1 PUSH1 0xA0 SHL SUB AND DUP2 MSTORE PUSH1 0x20 ADD PUSH1 0x0 DUP2 MSTORE PUSH1 0x20 ADD PUSH1 0x0 DUP2 MSTORE PUSH1 0x20 ADD PUSH1 0x60 DUP2 MSTORE POP SWAP1 JUMP JUMPDEST PUSH2 0x2A16 PUSH1 0x40 MLOAD DUP1 PUSH1 0x80 ADD PUSH1 0x40 MSTORE DUP1 PUSH1 0x0 PUSH1 0x1 PUSH1 0x1 PUSH1 0xA0 SHL SUB AND DUP2 MSTORE PUSH1 0x20 ADD PUSH1 0x0 DUP2 MSTORE PUSH1 0x20 ADD PUSH1 0x0 DUP2 MSTORE PUSH1 0x20 ADD PUSH1 0x60 DUP2 MSTORE POP SWAP1 JUMP JUMPDEST PUSH1 0x0 JUMPDEST PUSH1 0xA SLOAD DUP2 LT ISZERO PUSH2 0x870 JUMPI PUSH1 0x0 PUSH1 0xA DUP3 DUP2 SLOAD DUP2 LT PUSH2 0x2A38 JUMPI PUSH2 0x2A38 PUSH2 0x398C JUMP JUMPDEST SWAP1 PUSH1 0x0 MSTORE PUSH1 0x20 PUSH1 0x0 KECCAK256 SWAP1 PUSH1 0x4 MUL ADD PUSH1 0x40 MLOAD DUP1 PUSH1 0x80 ADD PUSH1 0x40 MSTORE SWAP1 DUP2 PUSH1 0x0 DUP3 ADD PUSH1 0x0 SWAP1 SLOAD SWAP1 PUSH2 0x100 EXP SWAP1 DIV PUSH1 0x1 PUSH1 0x1 PUSH1 0xA0 SHL SUB AND PUSH1 0x1 PUSH1 0x1 PUSH1 0xA0 SHL SUB AND PUSH1 0x1 PUSH1 0x1 PUSH1 0xA0 SHL SUB AND DUP2 MSTORE PUSH1 0x20 ADD PUSH1 0x1 DUP3 ADD SLOAD DUP2 MSTORE PUSH1 0x20 ADD PUSH1 0x2 DUP3 ADD SLOAD DUP2 MSTORE PUSH1 0x20 ADD PUSH1 0x3 DUP3 ADD DUP1 SLOAD PUSH2 0x2AA4 SWAP1 PUSH2 0x39EB JUMP JUMPDEST DUP1 PUSH1 0x1F ADD PUSH1 0x20 DUP1 SWAP2 DIV MUL PUSH1 0x20 ADD PUSH1 0x40 MLOAD SWAP1 DUP2 ADD PUSH1 0x40 MSTORE DUP1 SWAP3 SWAP2 SWAP1 DUP2 DUP2 MSTORE PUSH1 0x20 ADD DUP3 DUP1 SLOAD PUSH2 0x2AD0 SWAP1 PUSH2 0x39EB JUMP JUMPDEST DUP1 ISZERO PUSH2 0x2B1D JUMPI DUP1 PUSH1 0x1F LT PUSH2 0x2AF2 JUMPI PUSH2 0x100 DUP1 DUP4 SLOAD DIV MUL DUP4 MSTORE SWAP2 PUSH1 0x20 ADD SWAP2 PUSH2 0x2B1D JUMP JUMPDEST DUP3 ADD SWAP2 SWAP1 PUSH1 0x0 MSTORE PUSH1 0x20 PUSH1 0x0 KECCAK256 SWAP1 JUMPDEST DUP2 SLOAD DUP2 MSTORE SWAP1 PUSH1 0x1 ADD SWAP1 PUSH1 0x20 ADD DUP1 DUP4 GT PUSH2 0x2B00 JUMPI DUP3 SWAP1 SUB PUSH1 0x1F AND DUP3 ADD SWAP2 JUMPDEST POP POP POP POP POP DUP2 MSTORE POP POP SWAP1 POP DUP5 PUSH1 0x1 PUSH1 0x1 PUSH1 0xA0 SHL SUB AND DUP2 PUSH1 0x0 ADD MLOAD PUSH1 0x1 PUSH1 0x1 PUSH1 0xA0 SHL SUB AND EQ ISZERO PUSH2 0x2B4D JUMPI SWAP2 POP PUSH2 0x870 JUMP JUMPDEST POP DUP1 PUSH2 0x2B58 DUP2 PUSH2 0x39D0 JUMP JUMPDEST SWAP2 POP POP PUSH2 0x2A19 JUMP JUMPDEST PUSH1 0x1 PUSH1 0x1 PUSH1 0xA0 SHL SUB DUP1 DUP3 AND PUSH1 0x0 SWAP1 DUP2 MSTORE PUSH1 0x7 PUSH1 0x20 MSTORE PUSH1 0x40 DUP1 DUP3 KECCAK256 SLOAD DUP2 MLOAD PUSH4 0x3FABE5A3 PUSH1 0xE2 SHL DUP2 MSTORE SWAP2 MLOAD SWAP3 SWAP4 DUP5 SWAP4 SWAP2 AND SWAP2 DUP3 SWAP2 DUP5 SWAP2 DUP4 SWAP2 PUSH4 0xFEAF968C SWAP2 PUSH1 0x4 DUP1 DUP3 ADD SWAP3 PUSH1 0xA0 SWAP3 SWAP1 SWAP2 SWAP1 DUP3 SWAP1 SUB ADD DUP2 DUP7 GAS STATICCALL ISZERO DUP1 ISZERO PUSH2 0x2BC1 JUMPI RETURNDATASIZE PUSH1 0x0 DUP1 RETURNDATACOPY RETURNDATASIZE PUSH1 0x0 REVERT JUMPDEST POP POP POP POP PUSH1 0x40 MLOAD RETURNDATASIZE PUSH1 0x1F NOT PUSH1 0x1F DUP3 ADD AND DUP3 ADD DUP1 PUSH1 0x40 MSTORE POP DUP2 ADD SWAP1 PUSH2 0x2BE5 SWAP2 SWAP1 PUSH2 0x3D6B JUMP JUMPDEST POP POP POP SWAP2 POP POP PUSH1 0x0 DUP3 PUSH1 0x1 PUSH1 0x1 PUSH1 0xA0 SHL SUB AND PUSH4 0x313CE567 PUSH1 0x40 MLOAD DUP2 PUSH4 0xFFFFFFFF AND PUSH1 0xE0 SHL DUP2 MSTORE PUSH1 0x4 ADD PUSH1 0x20 PUSH1 0x40 MLOAD DUP1 DUP4 SUB DUP2 DUP7 GAS STATICCALL ISZERO DUP1 ISZERO PUSH2 0x2C2B JUMPI RETURNDATASIZE PUSH1 0x0 DUP1 RETURNDATACOPY RETURNDATASIZE PUSH1 0x0 REVERT JUMPDEST POP POP POP POP PUSH1 0x40 MLOAD RETURNDATASIZE PUSH1 0x1F NOT PUSH1 0x1F DUP3 ADD AND DUP3 ADD DUP1 PUSH1 0x40 MSTORE POP DUP2 ADD SWAP1 PUSH2 0x2C4F SWAP2 SWAP1 PUSH2 0x3DBB JUMP JUMPDEST SWAP2 SWAP8 PUSH1 0xFF SWAP1 SWAP3 AND SWAP7 POP SWAP1 SWAP5 POP POP POP POP POP JUMP JUMPDEST PUSH1 0x0 SLOAD PUSH1 0x1 PUSH1 0x1 PUSH1 0xA0 SHL SUB AND CALLER EQ PUSH2 0x2C8B JUMPI PUSH1 0x40 MLOAD PUSH3 0x461BCD PUSH1 0xE5 SHL DUP2 MSTORE PUSH1 0x4 ADD PUSH2 0xA34 SWAP1 PUSH2 0x3BF8 JUMP JUMPDEST PUSH1 0x0 PUSH1 0x40 MLOAD DUP1 PUSH1 0x80 ADD PUSH1 0x40 MSTORE DUP1 DUP6 PUSH1 0x1 PUSH1 0x1 PUSH1 0xA0 SHL SUB AND DUP2 MSTORE PUSH1 0x20 ADD DUP5 DUP2 MSTORE PUSH1 0x20 ADD DUP4 DUP2 MSTORE PUSH1 0x20 ADD DUP7 DUP2 MSTORE POP SWAP1 POP PUSH2 0x2DCE DUP2 PUSH1 0xA DUP1 SLOAD DUP1 PUSH1 0x20 MUL PUSH1 0x20 ADD PUSH1 0x40 MLOAD SWAP1 DUP2 ADD PUSH1 0x40 MSTORE DUP1 SWAP3 SWAP2 SWAP1 DUP2 DUP2 MSTORE PUSH1 0x20 ADD PUSH1 0x0 SWAP1 JUMPDEST DUP3 DUP3 LT ISZERO PUSH2 0x222B JUMPI PUSH1 0x0 DUP5 DUP2 MSTORE PUSH1 0x20 SWAP1 DUP2 SWAP1 KECCAK256 PUSH1 0x40 DUP1 MLOAD PUSH1 0x80 DUP2 ADD DUP3 MSTORE PUSH1 0x4 DUP7 MUL SWAP1 SWAP3 ADD DUP1 SLOAD PUSH1 0x1 PUSH1 0x1 PUSH1 0xA0 SHL SUB AND DUP4 MSTORE PUSH1 0x1 DUP2 ADD SLOAD SWAP4 DUP4 ADD SWAP4 SWAP1 SWAP4 MSTORE PUSH1 0x2 DUP4 ADD SLOAD SWAP1 DUP3 ADD MSTORE PUSH1 0x3 DUP3 ADD DUP1 SLOAD SWAP2 SWAP3 SWAP2 PUSH1 0x60 DUP5 ADD SWAP2 SWAP1 PUSH2 0x2D3D SWAP1 PUSH2 0x39EB JUMP JUMPDEST DUP1 PUSH1 0x1F ADD PUSH1 0x20 DUP1 SWAP2 DIV MUL PUSH1 0x20 ADD PUSH1 0x40 MLOAD SWAP1 DUP2 ADD PUSH1 0x40 MSTORE DUP1 SWAP3 SWAP2 SWAP1 DUP2 DUP2 MSTORE PUSH1 0x20 ADD DUP3 DUP1 SLOAD PUSH2 0x2D69 SWAP1 PUSH2 0x39EB JUMP JUMPDEST DUP1 ISZERO PUSH2 0x2DB6 JUMPI DUP1 PUSH1 0x1F LT PUSH2 0x2D8B JUMPI PUSH2 0x100 DUP1 DUP4 SLOAD DIV MUL DUP4 MSTORE SWAP2 PUSH1 0x20 ADD SWAP2 PUSH2 0x2DB6 JUMP JUMPDEST DUP3 ADD SWAP2 SWAP1 PUSH1 0x0 MSTORE PUSH1 0x20 PUSH1 0x0 KECCAK256 SWAP1 JUMPDEST DUP2 SLOAD DUP2 MSTORE SWAP1 PUSH1 0x1 ADD SWAP1 PUSH1 0x20 ADD DUP1 DUP4 GT PUSH2 0x2D99 JUMPI DUP3 SWAP1 SUB PUSH1 0x1F AND DUP3 ADD SWAP2 JUMPDEST POP POP POP POP POP DUP2 MSTORE POP POP DUP2 MSTORE PUSH1 0x20 ADD SWAP1 PUSH1 0x1 ADD SWAP1 PUSH2 0x2CDF JUMP JUMPDEST PUSH2 0x2320 JUMPI PUSH1 0xA DUP1 SLOAD PUSH1 0x1 DUP2 ADD DUP3 SSTORE PUSH1 0x0 SWAP2 SWAP1 SWAP2 MSTORE DUP2 MLOAD PUSH32 0xC65A7BB8D6351C1CF70C95A316CC6A92839C986682D98BC35F958F4883F9D2A8 PUSH1 0x4 SWAP1 SWAP3 MUL SWAP2 DUP3 ADD DUP1 SLOAD PUSH1 0x1 PUSH1 0x1 PUSH1 0xA0 SHL SUB NOT AND PUSH1 0x1 PUSH1 0x1 PUSH1 0xA0 SHL SUB SWAP1 SWAP3 AND SWAP2 SWAP1 SWAP2 OR DUP2 SSTORE PUSH1 0x20 DUP1 DUP5 ADD MLOAD PUSH32 0xC65A7BB8D6351C1CF70C95A316CC6A92839C986682D98BC35F958F4883F9D2A9 DUP5 ADD SSTORE PUSH1 0x40 DUP5 ADD MLOAD PUSH32 0xC65A7BB8D6351C1CF70C95A316CC6A92839C986682D98BC35F958F4883F9D2AA DUP5 ADD SSTORE PUSH1 0x60 DUP5 ADD MLOAD DUP1 MLOAD DUP6 SWAP5 PUSH2 0x231C SWAP4 PUSH32 0xC65A7BB8D6351C1CF70C95A316CC6A92839C986682D98BC35F958F4883F9D2AB SWAP1 SWAP2 ADD SWAP3 ADD SWAP1 PUSH2 0x345E JUMP JUMPDEST DUP1 MLOAD PUSH1 0x0 SWAP1 ISZERO PUSH2 0x2F28 JUMPI PUSH1 0x0 JUMPDEST DUP3 MLOAD DUP2 LT ISZERO PUSH2 0x2F26 JUMPI PUSH1 0x0 DUP4 DUP3 DUP2 MLOAD DUP2 LT PUSH2 0x2EE0 JUMPI PUSH2 0x2EE0 PUSH2 0x398C JUMP JUMPDEST PUSH1 0x20 MUL PUSH1 0x20 ADD ADD MLOAD SWAP1 POP DUP5 PUSH1 0x1 PUSH1 0x1 PUSH1 0xA0 SHL SUB AND DUP2 PUSH1 0x0 ADD MLOAD PUSH1 0x1 PUSH1 0x1 PUSH1 0xA0 SHL SUB AND EQ ISZERO PUSH2 0x2F13 JUMPI PUSH1 0x1 SWAP3 POP POP POP PUSH2 0x872 JUMP JUMPDEST POP DUP1 PUSH2 0x2F1E DUP2 PUSH2 0x39D0 JUMP JUMPDEST SWAP2 POP POP PUSH2 0x2EC3 JUMP JUMPDEST POP JUMPDEST POP PUSH1 0x0 SWAP3 SWAP2 POP POP JUMP JUMPDEST PUSH1 0x0 DUP1 PUSH1 0x0 DUP4 MLOAD GT ISZERO PUSH2 0x2FA3 JUMPI PUSH1 0x0 JUMPDEST DUP4 MLOAD DUP2 LT ISZERO PUSH2 0x2FA1 JUMPI PUSH1 0x0 DUP5 DUP3 DUP2 MLOAD DUP2 LT PUSH2 0x2F5E JUMPI PUSH2 0x2F5E PUSH2 0x398C JUMP JUMPDEST PUSH1 0x20 MUL PUSH1 0x20 ADD ADD MLOAD SWAP1 POP DUP6 PUSH1 0x1 PUSH1 0x1 PUSH1 0xA0 SHL SUB AND DUP2 PUSH1 0x1 PUSH1 0x1 PUSH1 0xA0 SHL SUB AND EQ ISZERO PUSH2 0x2F8E JUMPI POP PUSH1 0x1 SWAP3 POP SWAP1 POP PUSH2 0x2FAC JUMP JUMPDEST POP DUP1 PUSH2 0x2F99 DUP2 PUSH2 0x39D0 JUMP JUMPDEST SWAP2 POP POP PUSH2 0x2F41 JUMP JUMPDEST POP JUMPDEST POP PUSH1 0x0 SWAP1 POP PUSH1 0x0 NOT JUMPDEST SWAP3 POP SWAP3 SWAP1 POP JUMP JUMPDEST PUSH1 0x40 MLOAD PUSH7 0x6C656E64657273 PUSH1 0xC8 SHL PUSH1 0x20 DUP3 ADD MSTORE PUSH1 0x27 ADD PUSH1 0x40 MLOAD PUSH1 0x20 DUP2 DUP4 SUB SUB DUP2 MSTORE SWAP1 PUSH1 0x40 MSTORE DUP1 MLOAD SWAP1 PUSH1 0x20 ADD KECCAK256 DUP2 PUSH1 0x40 MLOAD PUSH1 0x20 ADD PUSH2 0x2FF0 SWAP2 SWAP1 PUSH2 0x3BDC JUMP JUMPDEST PUSH1 0x40 MLOAD PUSH1 0x20 DUP2 DUP4 SUB SUB DUP2 MSTORE SWAP1 PUSH1 0x40 MSTORE DUP1 MLOAD SWAP1 PUSH1 0x20 ADD KECCAK256 EQ ISZERO PUSH2 0x3150 JUMPI PUSH1 0x0 PUSH1 0x1 DUP4 DUP2 SLOAD DUP2 LT PUSH2 0x3021 JUMPI PUSH2 0x3021 PUSH2 0x398C JUMP JUMPDEST SWAP1 PUSH1 0x0 MSTORE PUSH1 0x20 PUSH1 0x0 KECCAK256 ADD PUSH1 0x0 SWAP1 SLOAD SWAP1 PUSH2 0x100 EXP SWAP1 DIV PUSH1 0x1 PUSH1 0x1 PUSH1 0xA0 SHL SUB AND SWAP1 POP PUSH1 0x0 PUSH2 0x3073 DUP3 DUP8 PUSH1 0xC SLOAD PUSH1 0x40 MLOAD DUP1 PUSH1 0x40 ADD PUSH1 0x40 MSTORE DUP1 PUSH1 0xA DUP2 MSTORE PUSH1 0x20 ADD PUSH10 0x1D1BDAD95B9CD3195B9D PUSH1 0xB2 SHL DUP2 MSTORE POP PUSH2 0x141F JUMP JUMPDEST SWAP1 POP DUP1 ISZERO PUSH2 0x30D7 JUMPI PUSH1 0x1 PUSH1 0x1 PUSH1 0xA0 SHL SUB DUP1 DUP8 AND PUSH1 0x0 SWAP1 DUP2 MSTORE PUSH1 0x3 PUSH1 0x20 SWAP1 DUP2 MSTORE PUSH1 0x40 DUP1 DUP4 KECCAK256 SWAP4 DUP7 AND DUP4 MSTORE SWAP3 SWAP1 MSTORE KECCAK256 SLOAD PUSH2 0x30AC SWAP1 DUP7 SWAP1 PUSH2 0x39B8 JUMP JUMPDEST PUSH1 0x1 PUSH1 0x1 PUSH1 0xA0 SHL SUB DUP1 DUP9 AND PUSH1 0x0 SWAP1 DUP2 MSTORE PUSH1 0x3 PUSH1 0x20 SWAP1 DUP2 MSTORE PUSH1 0x40 DUP1 DUP4 KECCAK256 SWAP4 DUP8 AND DUP4 MSTORE SWAP3 SWAP1 MSTORE KECCAK256 SSTORE PUSH2 0x3149 JUMP JUMPDEST PUSH1 0xC DUP1 SLOAD DUP8 SWAP2 PUSH1 0x5 SWAP2 PUSH1 0x0 SWAP2 DUP3 PUSH2 0x30ED DUP4 PUSH2 0x39D0 JUMP JUMPDEST SWAP1 SWAP2 SSTORE POP DUP2 MSTORE PUSH1 0x20 DUP1 DUP3 ADD SWAP3 SWAP1 SWAP3 MSTORE PUSH1 0x40 SWAP1 DUP2 ADD PUSH1 0x0 SWAP1 DUP2 KECCAK256 PUSH1 0x1 PUSH1 0x1 PUSH1 0xA0 SHL SUB DUP8 DUP2 AND DUP1 DUP5 MSTORE SWAP2 DUP6 MSTORE DUP4 DUP4 KECCAK256 DUP1 SLOAD PUSH1 0x1 PUSH1 0x1 PUSH1 0xA0 SHL SUB NOT AND SWAP7 DUP3 AND SWAP7 SWAP1 SWAP7 OR SWAP1 SWAP6 SSTORE SWAP4 DUP11 AND DUP2 MSTORE PUSH1 0x3 DUP4 MSTORE DUP2 DUP2 KECCAK256 SWAP4 DUP2 MSTORE SWAP3 SWAP1 SWAP2 MSTORE SWAP1 KECCAK256 DUP6 SWAP1 SSTORE JUMPDEST POP POP PUSH2 0x32EF JUMP JUMPDEST PUSH1 0x40 MLOAD PUSH9 0x626F72726F77657273 PUSH1 0xB8 SHL PUSH1 0x20 DUP3 ADD MSTORE PUSH1 0x29 ADD PUSH1 0x40 MLOAD PUSH1 0x20 DUP2 DUP4 SUB SUB DUP2 MSTORE SWAP1 PUSH1 0x40 MSTORE DUP1 MLOAD SWAP1 PUSH1 0x20 ADD KECCAK256 DUP2 PUSH1 0x40 MLOAD PUSH1 0x20 ADD PUSH2 0x318F SWAP2 SWAP1 PUSH2 0x3BDC JUMP JUMPDEST PUSH1 0x40 MLOAD PUSH1 0x20 DUP2 DUP4 SUB SUB DUP2 MSTORE SWAP1 PUSH1 0x40 MSTORE DUP1 MLOAD SWAP1 PUSH1 0x20 ADD KECCAK256 EQ ISZERO PUSH2 0x32EF JUMPI PUSH1 0x0 PUSH1 0x2 DUP4 DUP2 SLOAD DUP2 LT PUSH2 0x31C0 JUMPI PUSH2 0x31C0 PUSH2 0x398C JUMP JUMPDEST SWAP1 PUSH1 0x0 MSTORE PUSH1 0x20 PUSH1 0x0 KECCAK256 ADD PUSH1 0x0 SWAP1 SLOAD SWAP1 PUSH2 0x100 EXP SWAP1 DIV PUSH1 0x1 PUSH1 0x1 PUSH1 0xA0 SHL SUB AND SWAP1 POP PUSH1 0x0 PUSH2 0x3216 DUP3 DUP8 PUSH1 0xD SLOAD PUSH1 0x40 MLOAD DUP1 PUSH1 0x40 ADD PUSH1 0x40 MSTORE DUP1 PUSH1 0xE DUP2 MSTORE PUSH1 0x20 ADD PUSH14 0x1D1BDAD95B9CD09BDC9C9BDDD959 PUSH1 0x92 SHL DUP2 MSTORE POP PUSH2 0x141F JUMP JUMPDEST SWAP1 POP DUP1 ISZERO PUSH2 0x327A JUMPI PUSH1 0x1 PUSH1 0x1 PUSH1 0xA0 SHL SUB DUP1 DUP8 AND PUSH1 0x0 SWAP1 DUP2 MSTORE PUSH1 0x4 PUSH1 0x20 SWAP1 DUP2 MSTORE PUSH1 0x40 DUP1 DUP4 KECCAK256 SWAP4 DUP7 AND DUP4 MSTORE SWAP3 SWAP1 MSTORE KECCAK256 SLOAD PUSH2 0x324F SWAP1 DUP7 SWAP1 PUSH2 0x39B8 JUMP JUMPDEST PUSH1 0x1 PUSH1 0x1 PUSH1 0xA0 SHL SUB DUP1 DUP9 AND PUSH1 0x0 SWAP1 DUP2 MSTORE PUSH1 0x4 PUSH1 0x20 SWAP1 DUP2 MSTORE PUSH1 0x40 DUP1 DUP4 KECCAK256 SWAP4 DUP8 AND DUP4 MSTORE SWAP3 SWAP1 MSTORE KECCAK256 SSTORE PUSH2 0x32EC JUMP JUMPDEST PUSH1 0xD DUP1 SLOAD DUP8 SWAP2 PUSH1 0x6 SWAP2 PUSH1 0x0 SWAP2 DUP3 PUSH2 0x3290 DUP4 PUSH2 0x39D0 JUMP JUMPDEST SWAP1 SWAP2 SSTORE POP DUP2 MSTORE PUSH1 0x20 DUP1 DUP3 ADD SWAP3 SWAP1 SWAP3 MSTORE PUSH1 0x40 SWAP1 DUP2 ADD PUSH1 0x0 SWAP1 DUP2 KECCAK256 PUSH1 0x1 PUSH1 0x1 PUSH1 0xA0 SHL SUB DUP8 DUP2 AND DUP1 DUP5 MSTORE SWAP2 DUP6 MSTORE DUP4 DUP4 KECCAK256 DUP1 SLOAD PUSH1 0x1 PUSH1 0x1 PUSH1 0xA0 SHL SUB NOT AND SWAP7 DUP3 AND SWAP7 SWAP1 SWAP7 OR SWAP1 SWAP6 SSTORE SWAP4 DUP11 AND DUP2 MSTORE PUSH1 0x4 DUP4 MSTORE DUP2 DUP2 KECCAK256 SWAP4 DUP2 MSTORE SWAP3 SWAP1 SWAP2 MSTORE SWAP1 KECCAK256 DUP6 SWAP1 SSTORE JUMPDEST POP POP JUMPDEST POP POP POP POP JUMP JUMPDEST PUSH1 0x0 DUP1 SLOAD PUSH1 0x1 PUSH1 0x1 PUSH1 0xA0 SHL SUB DUP4 DUP2 AND PUSH1 0x1 PUSH1 0x1 PUSH1 0xA0 SHL SUB NOT DUP4 AND DUP2 OR DUP5 SSTORE PUSH1 0x40 MLOAD SWAP2 SWAP1 SWAP3 AND SWAP3 DUP4 SWAP2 PUSH32 0x8BE0079C531659141344CD1FD0A4F28419497F9722A3DAAFE3B4186F6B6457E0 SWAP2 SWAP1 LOG3 POP POP JUMP JUMPDEST PUSH1 0x0 DUP2 GT PUSH2 0x3365 JUMPI PUSH1 0x40 MLOAD PUSH3 0x461BCD PUSH1 0xE5 SHL DUP2 MSTORE PUSH1 0x4 ADD PUSH2 0xA34 SWAP1 PUSH2 0x3A67 JUMP JUMPDEST PUSH1 0x0 PUSH2 0x3371 DUP3 DUP5 PUSH2 0x2970 JUMP JUMPDEST PUSH1 0xB SLOAD PUSH1 0x40 MLOAD PUSH4 0xA9059CBB PUSH1 0xE0 SHL DUP2 MSTORE PUSH1 0x1 PUSH1 0x1 PUSH1 0xA0 SHL SUB DUP8 DUP2 AND PUSH1 0x4 DUP4 ADD MSTORE PUSH1 0x24 DUP3 ADD DUP5 SWAP1 MSTORE SWAP3 SWAP4 POP SWAP2 AND SWAP1 PUSH4 0xA9059CBB SWAP1 PUSH1 0x44 ADD PUSH1 0x20 PUSH1 0x40 MLOAD DUP1 DUP4 SUB DUP2 PUSH1 0x0 DUP8 GAS CALL ISZERO DUP1 ISZERO PUSH2 0x33C6 JUMPI RETURNDATASIZE PUSH1 0x0 DUP1 RETURNDATACOPY RETURNDATASIZE PUSH1 0x0 REVERT JUMPDEST POP POP POP POP PUSH1 0x40 MLOAD RETURNDATASIZE PUSH1 0x1F NOT PUSH1 0x1F DUP3 ADD AND DUP3 ADD DUP1 PUSH1 0x40 MSTORE POP DUP2 ADD SWAP1 PUSH2 0x2320 SWAP2 SWAP1 PUSH2 0x3A9E JUMP JUMPDEST DUP1 MLOAD PUSH1 0x0 SWAP1 ISZERO PUSH2 0x2F28 JUMPI PUSH1 0x0 JUMPDEST DUP3 MLOAD DUP2 LT ISZERO PUSH2 0x2F26 JUMPI PUSH1 0x0 DUP4 DUP3 DUP2 MLOAD DUP2 LT PUSH2 0x3414 JUMPI PUSH2 0x3414 PUSH2 0x398C JUMP JUMPDEST PUSH1 0x20 MUL PUSH1 0x20 ADD ADD MLOAD SWAP1 POP DUP5 PUSH1 0x0 ADD MLOAD PUSH1 0x1 PUSH1 0x1 PUSH1 0xA0 SHL SUB AND DUP2 PUSH1 0x0 ADD MLOAD PUSH1 0x1 PUSH1 0x1 PUSH1 0xA0 SHL SUB AND EQ ISZERO PUSH2 0x344B JUMPI PUSH1 0x1 SWAP3 POP POP POP PUSH2 0x872 JUMP JUMPDEST POP DUP1 PUSH2 0x3456 DUP2 PUSH2 0x39D0 JUMP JUMPDEST SWAP2 POP POP PUSH2 0x33F7 JUMP JUMPDEST DUP3 DUP1 SLOAD PUSH2 0x346A SWAP1 PUSH2 0x39EB JUMP JUMPDEST SWAP1 PUSH1 0x0 MSTORE PUSH1 0x20 PUSH1 0x0 KECCAK256 SWAP1 PUSH1 0x1F ADD PUSH1 0x20 SWAP1 DIV DUP2 ADD SWAP3 DUP3 PUSH2 0x348C JUMPI PUSH1 0x0 DUP6 SSTORE PUSH2 0x34D2 JUMP JUMPDEST DUP3 PUSH1 0x1F LT PUSH2 0x34A5 JUMPI DUP1 MLOAD PUSH1 0xFF NOT AND DUP4 DUP1 ADD OR DUP6 SSTORE PUSH2 0x34D2 JUMP JUMPDEST DUP3 DUP1 ADD PUSH1 0x1 ADD DUP6 SSTORE DUP3 ISZERO PUSH2 0x34D2 JUMPI SWAP2 DUP3 ADD JUMPDEST DUP3 DUP2 GT ISZERO PUSH2 0x34D2 JUMPI DUP3 MLOAD DUP3 SSTORE SWAP2 PUSH1 0x20 ADD SWAP2 SWAP1 PUSH1 0x1 ADD SWAP1 PUSH2 0x34B7 JUMP JUMPDEST POP PUSH2 0x34DE SWAP3 SWAP2 POP PUSH2 0x34E2 JUMP JUMPDEST POP SWAP1 JUMP JUMPDEST JUMPDEST DUP1 DUP3 GT ISZERO PUSH2 0x34DE JUMPI PUSH1 0x0 DUP2 SSTORE PUSH1 0x1 ADD PUSH2 0x34E3 JUMP JUMPDEST DUP1 CALLDATALOAD PUSH1 0x1 PUSH1 0x1 PUSH1 0xA0 SHL SUB DUP2 AND DUP2 EQ PUSH2 0x350E JUMPI PUSH1 0x0 DUP1 REVERT JUMPDEST SWAP2 SWAP1 POP JUMP JUMPDEST PUSH1 0x0 PUSH1 0x20 DUP3 DUP5 SUB SLT ISZERO PUSH2 0x3525 JUMPI PUSH1 0x0 DUP1 REVERT JUMPDEST PUSH2 0x352E DUP3 PUSH2 0x34F7 JUMP JUMPDEST SWAP4 SWAP3 POP POP POP JUMP JUMPDEST PUSH1 0x0 PUSH1 0x20 DUP3 DUP5 SUB SLT ISZERO PUSH2 0x3547 JUMPI PUSH1 0x0 DUP1 REVERT JUMPDEST POP CALLDATALOAD SWAP2 SWAP1 POP JUMP JUMPDEST PUSH1 0x0 JUMPDEST DUP4 DUP2 LT ISZERO PUSH2 0x3569 JUMPI DUP2 DUP2 ADD MLOAD DUP4 DUP3 ADD MSTORE PUSH1 0x20 ADD PUSH2 0x3551 JUMP JUMPDEST DUP4 DUP2 GT ISZERO PUSH2 0x32EF JUMPI POP POP PUSH1 0x0 SWAP2 ADD MSTORE JUMP JUMPDEST PUSH1 0x0 DUP2 MLOAD DUP1 DUP5 MSTORE PUSH2 0x3592 DUP2 PUSH1 0x20 DUP7 ADD PUSH1 0x20 DUP7 ADD PUSH2 0x354E JUMP JUMPDEST PUSH1 0x1F ADD PUSH1 0x1F NOT AND SWAP3 SWAP1 SWAP3 ADD PUSH1 0x20 ADD SWAP3 SWAP2 POP POP JUMP JUMPDEST PUSH1 0x1 DUP1 PUSH1 0xA0 SHL SUB DUP6 AND DUP2 MSTORE DUP4 PUSH1 0x20 DUP3 ADD MSTORE DUP3 PUSH1 0x40 DUP3 ADD MSTORE PUSH1 0x80 PUSH1 0x60 DUP3 ADD MSTORE PUSH1 0x0 PUSH2 0x29A4 PUSH1 0x80 DUP4 ADD DUP5 PUSH2 0x357A JUMP JUMPDEST PUSH1 0x0 DUP1 PUSH1 0x40 DUP4 DUP6 SUB SLT ISZERO PUSH2 0x35E6 JUMPI PUSH1 0x0 DUP1 REVERT JUMPDEST PUSH2 0x35EF DUP4 PUSH2 0x34F7 JUMP JUMPDEST SWAP5 PUSH1 0x20 SWAP4 SWAP1 SWAP4 ADD CALLDATALOAD SWAP4 POP POP POP JUMP JUMPDEST PUSH1 0x1 DUP1 PUSH1 0xA0 SHL SUB DUP2 MLOAD AND DUP3 MSTORE PUSH1 0x20 DUP2 ADD MLOAD PUSH1 0x20 DUP4 ADD MSTORE PUSH1 0x40 DUP2 ADD MLOAD PUSH1 0x40 DUP4 ADD MSTORE PUSH1 0x0 PUSH1 0x60 DUP3 ADD MLOAD PUSH1 0x80 PUSH1 0x60 DUP6 ADD MSTORE PUSH2 0x97B PUSH1 0x80 DUP6 ADD DUP3 PUSH2 0x357A JUMP JUMPDEST PUSH1 0x0 PUSH1 0x20 DUP1 DUP4 ADD DUP2 DUP5 MSTORE DUP1 DUP6 MLOAD DUP1 DUP4 MSTORE PUSH1 0x40 DUP7 ADD SWAP2 POP PUSH1 0x40 DUP2 PUSH1 0x5 SHL DUP8 ADD ADD SWAP3 POP DUP4 DUP8 ADD PUSH1 0x0 JUMPDEST DUP3 DUP2 LT ISZERO PUSH2 0x368D JUMPI PUSH1 0x3F NOT DUP9 DUP7 SUB ADD DUP5 MSTORE PUSH2 0x367B DUP6 DUP4 MLOAD PUSH2 0x35FD JUMP JUMPDEST SWAP5 POP SWAP3 DUP6 ADD SWAP3 SWAP1 DUP6 ADD SWAP1 PUSH1 0x1 ADD PUSH2 0x365F JUMP JUMPDEST POP SWAP3 SWAP8 SWAP7 POP POP POP POP POP POP POP JUMP JUMPDEST PUSH1 0x0 DUP1 PUSH1 0x40 DUP4 DUP6 SUB SLT ISZERO PUSH2 0x36AD JUMPI PUSH1 0x0 DUP1 REVERT JUMPDEST PUSH2 0x36B6 DUP4 PUSH2 0x34F7 JUMP JUMPDEST SWAP2 POP PUSH2 0x36C4 PUSH1 0x20 DUP5 ADD PUSH2 0x34F7 JUMP JUMPDEST SWAP1 POP SWAP3 POP SWAP3 SWAP1 POP JUMP JUMPDEST PUSH1 0x20 DUP1 DUP3 MSTORE DUP3 MLOAD DUP3 DUP3 ADD DUP2 SWAP1 MSTORE PUSH1 0x0 SWAP2 SWAP1 DUP5 DUP3 ADD SWAP1 PUSH1 0x40 DUP6 ADD SWAP1 DUP5 JUMPDEST DUP2 DUP2 LT ISZERO PUSH2 0x370E JUMPI DUP4 MLOAD PUSH1 0x1 PUSH1 0x1 PUSH1 0xA0 SHL SUB AND DUP4 MSTORE SWAP3 DUP5 ADD SWAP3 SWAP2 DUP5 ADD SWAP2 PUSH1 0x1 ADD PUSH2 0x36E9 JUMP JUMPDEST POP SWAP1 SWAP7 SWAP6 POP POP POP POP POP POP JUMP JUMPDEST PUSH1 0x0 DUP1 PUSH1 0x40 DUP4 DUP6 SUB SLT ISZERO PUSH2 0x372D JUMPI PUSH1 0x0 DUP1 REVERT JUMPDEST DUP3 CALLDATALOAD SWAP2 POP PUSH2 0x36C4 PUSH1 0x20 DUP5 ADD PUSH2 0x34F7 JUMP JUMPDEST PUSH4 0x4E487B71 PUSH1 0xE0 SHL PUSH1 0x0 MSTORE PUSH1 0x41 PUSH1 0x4 MSTORE PUSH1 0x24 PUSH1 0x0 REVERT JUMPDEST PUSH1 0x40 MLOAD PUSH1 0x1F DUP3 ADD PUSH1 0x1F NOT AND DUP2 ADD PUSH8 0xFFFFFFFFFFFFFFFF DUP2 GT DUP3 DUP3 LT OR ISZERO PUSH2 0x377C JUMPI PUSH2 0x377C PUSH2 0x373D JUMP JUMPDEST PUSH1 0x40 MSTORE SWAP2 SWAP1 POP JUMP JUMPDEST PUSH1 0x0 DUP3 PUSH1 0x1F DUP4 ADD SLT PUSH2 0x3795 JUMPI PUSH1 0x0 DUP1 REVERT JUMPDEST DUP2 CALLDATALOAD PUSH8 0xFFFFFFFFFFFFFFFF DUP2 GT ISZERO PUSH2 0x37AF JUMPI PUSH2 0x37AF PUSH2 0x373D JUMP JUMPDEST PUSH2 0x37C2 PUSH1 0x1F DUP3 ADD PUSH1 0x1F NOT AND PUSH1 0x20 ADD PUSH2 0x3753 JUMP JUMPDEST DUP2 DUP2 MSTORE DUP5 PUSH1 0x20 DUP4 DUP7 ADD ADD GT ISZERO PUSH2 0x37D7 JUMPI PUSH1 0x0 DUP1 REVERT JUMPDEST DUP2 PUSH1 0x20 DUP6 ADD PUSH1 0x20 DUP4 ADD CALLDATACOPY PUSH1 0x0 SWAP2 DUP2 ADD PUSH1 0x20 ADD SWAP2 SWAP1 SWAP2 MSTORE SWAP4 SWAP3 POP POP POP JUMP JUMPDEST PUSH1 0x0 DUP1 PUSH1 0x0 DUP1 PUSH1 0x80 DUP6 DUP8 SUB SLT ISZERO PUSH2 0x380A JUMPI PUSH1 0x0 DUP1 REVERT JUMPDEST PUSH2 0x3813 DUP6 PUSH2 0x34F7 JUMP JUMPDEST SWAP4 POP PUSH2 0x3821 PUSH1 0x20 DUP7 ADD PUSH2 0x34F7 JUMP JUMPDEST SWAP3 POP PUSH1 0x40 DUP6 ADD CALLDATALOAD SWAP2 POP PUSH1 0x60 DUP6 ADD CALLDATALOAD PUSH8 0xFFFFFFFFFFFFFFFF DUP2 GT ISZERO PUSH2 0x3844 JUMPI PUSH1 0x0 DUP1 REVERT JUMPDEST PUSH2 0x3850 DUP8 DUP3 DUP9 ADD PUSH2 0x3784 JUMP JUMPDEST SWAP2 POP POP SWAP3 SWAP6 SWAP2 SWAP5 POP SWAP3 POP JUMP JUMPDEST PUSH1 0x0 DUP1 PUSH1 0x0 DUP1 PUSH1 0x80 DUP6 DUP8 SUB SLT ISZERO PUSH2 0x3872 JUMPI PUSH1 0x0 DUP1 REVERT JUMPDEST DUP5 CALLDATALOAD PUSH8 0xFFFFFFFFFFFFFFFF DUP2 GT ISZERO PUSH2 0x3889 JUMPI PUSH1 0x0 DUP1 REVERT JUMPDEST PUSH2 0x3895 DUP8 DUP3 DUP9 ADD PUSH2 0x3784 JUMP JUMPDEST SWAP5 POP POP PUSH2 0x38A4 PUSH1 0x20 DUP7 ADD PUSH2 0x34F7 JUMP JUMPDEST SWAP4 SWAP7 SWAP4 SWAP6 POP POP POP POP PUSH1 0x40 DUP3 ADD CALLDATALOAD SWAP2 PUSH1 0x60 ADD CALLDATALOAD SWAP1 JUMP JUMPDEST PUSH1 0x0 DUP1 PUSH1 0x40 DUP4 DUP6 SUB SLT ISZERO PUSH2 0x38CC JUMPI PUSH1 0x0 DUP1 REVERT JUMPDEST PUSH2 0x38D5 DUP4 PUSH2 0x34F7 JUMP JUMPDEST SWAP2 POP PUSH1 0x20 DUP1 DUP5 ADD CALLDATALOAD PUSH8 0xFFFFFFFFFFFFFFFF DUP1 DUP3 GT ISZERO PUSH2 0x38F3 JUMPI PUSH1 0x0 DUP1 REVERT JUMPDEST DUP2 DUP7 ADD SWAP2 POP DUP7 PUSH1 0x1F DUP4 ADD SLT PUSH2 0x3907 JUMPI PUSH1 0x0 DUP1 REVERT JUMPDEST DUP2 CALLDATALOAD DUP2 DUP2 GT ISZERO PUSH2 0x3919 JUMPI PUSH2 0x3919 PUSH2 0x373D JUMP JUMPDEST DUP1 PUSH1 0x5 SHL SWAP2 POP PUSH2 0x392A DUP5 DUP4 ADD PUSH2 0x3753 JUMP JUMPDEST DUP2 DUP2 MSTORE SWAP2 DUP4 ADD DUP5 ADD SWAP2 DUP5 DUP2 ADD SWAP1 DUP10 DUP5 GT ISZERO PUSH2 0x3944 JUMPI PUSH1 0x0 DUP1 REVERT JUMPDEST SWAP4 DUP6 ADD SWAP4 JUMPDEST DUP4 DUP6 LT ISZERO PUSH2 0x3969 JUMPI PUSH2 0x395A DUP6 PUSH2 0x34F7 JUMP JUMPDEST DUP3 MSTORE SWAP4 DUP6 ADD SWAP4 SWAP1 DUP6 ADD SWAP1 PUSH2 0x3949 JUMP JUMPDEST DUP1 SWAP7 POP POP POP POP POP POP POP SWAP3 POP SWAP3 SWAP1 POP JUMP JUMPDEST PUSH1 0x20 DUP2 MSTORE PUSH1 0x0 PUSH2 0x352E PUSH1 0x20 DUP4 ADD DUP5 PUSH2 0x35FD JUMP JUMPDEST PUSH4 0x4E487B71 PUSH1 0xE0 SHL PUSH1 0x0 MSTORE PUSH1 0x32 PUSH1 0x4 MSTORE PUSH1 0x24 PUSH1 0x0 REVERT JUMPDEST PUSH4 0x4E487B71 PUSH1 0xE0 SHL PUSH1 0x0 MSTORE PUSH1 0x11 PUSH1 0x4 MSTORE PUSH1 0x24 PUSH1 0x0 REVERT JUMPDEST PUSH1 0x0 DUP3 NOT DUP3 GT ISZERO PUSH2 0x39CB JUMPI PUSH2 0x39CB PUSH2 0x39A2 JUMP JUMPDEST POP ADD SWAP1 JUMP JUMPDEST PUSH1 0x0 PUSH1 0x0 NOT DUP3 EQ ISZERO PUSH2 0x39E4 JUMPI PUSH2 0x39E4 PUSH2 0x39A2 JUMP JUMPDEST POP PUSH1 0x1 ADD SWAP1 JUMP JUMPDEST PUSH1 0x1 DUP2 DUP2 SHR SWAP1 DUP3 AND DUP1 PUSH2 0x39FF JUMPI PUSH1 0x7F DUP3 AND SWAP2 POP JUMPDEST PUSH1 0x20 DUP3 LT DUP2 EQ ISZERO PUSH2 0x3A20 JUMPI PUSH4 0x4E487B71 PUSH1 0xE0 SHL PUSH1 0x0 MSTORE PUSH1 0x22 PUSH1 0x4 MSTORE PUSH1 0x24 PUSH1 0x0 REVERT JUMPDEST POP SWAP2 SWAP1 POP JUMP JUMPDEST PUSH1 0x0 DUP2 PUSH1 0x0 NOT DIV DUP4 GT DUP3 ISZERO ISZERO AND ISZERO PUSH2 0x3A40 JUMPI PUSH2 0x3A40 PUSH2 0x39A2 JUMP JUMPDEST POP MUL SWAP1 JUMP JUMPDEST PUSH1 0x0 DUP3 PUSH2 0x3A62 JUMPI PUSH4 0x4E487B71 PUSH1 0xE0 SHL PUSH1 0x0 MSTORE PUSH1 0x12 PUSH1 0x4 MSTORE PUSH1 0x24 PUSH1 0x0 REVERT JUMPDEST POP DIV SWAP1 JUMP JUMPDEST PUSH1 0x20 DUP1 DUP3 MSTORE PUSH1 0x1F SWAP1 DUP3 ADD MSTORE PUSH32 0x416D6F756E742073686F756C642062652067726561746572207468616E203000 PUSH1 0x40 DUP3 ADD MSTORE PUSH1 0x60 ADD SWAP1 JUMP JUMPDEST PUSH1 0x0 PUSH1 0x20 DUP3 DUP5 SUB SLT ISZERO PUSH2 0x3AB0 JUMPI PUSH1 0x0 DUP1 REVERT JUMPDEST DUP2 MLOAD DUP1 ISZERO ISZERO DUP2 EQ PUSH2 0x352E JUMPI PUSH1 0x0 DUP1 REVERT JUMPDEST PUSH1 0x0 DUP3 DUP3 LT ISZERO PUSH2 0x3AD2 JUMPI PUSH2 0x3AD2 PUSH2 0x39A2 JUMP JUMPDEST POP SUB SWAP1 JUMP JUMPDEST PUSH4 0x4E487B71 PUSH1 0xE0 SHL PUSH1 0x0 MSTORE PUSH1 0x31 PUSH1 0x4 MSTORE PUSH1 0x24 PUSH1 0x0 REVERT JUMPDEST PUSH1 0x0 DUP2 SLOAD DUP1 DUP5 MSTORE PUSH1 0x20 DUP1 DUP6 ADD SWAP5 POP DUP4 PUSH1 0x0 MSTORE DUP1 PUSH1 0x0 KECCAK256 PUSH1 0x0 JUMPDEST DUP4 DUP2 LT ISZERO PUSH2 0x3B2B JUMPI DUP2 SLOAD PUSH1 0x1 PUSH1 0x1 PUSH1 0xA0 SHL SUB AND DUP8 MSTORE SWAP6 DUP3 ADD SWAP6 PUSH1 0x1 SWAP2 DUP3 ADD SWAP2 ADD PUSH2 0x3B06 JUMP JUMPDEST POP SWAP5 SWAP6 SWAP5 POP POP POP POP POP JUMP JUMPDEST PUSH1 0x1 DUP1 PUSH1 0xA0 SHL SUB DUP7 AND DUP2 MSTORE DUP5 PUSH1 0x20 DUP3 ADD MSTORE DUP4 PUSH1 0x40 DUP3 ADD MSTORE DUP3 PUSH1 0x60 DUP3 ADD MSTORE PUSH1 0xA0 PUSH1 0x80 DUP3 ADD MSTORE PUSH1 0x0 PUSH2 0x3B69 PUSH1 0xA0 DUP4 ADD DUP5 PUSH2 0x3AED JUMP JUMPDEST SWAP8 SWAP7 POP POP POP POP POP POP POP JUMP JUMPDEST PUSH1 0x0 PUSH1 0x20 DUP3 DUP5 SUB SLT ISZERO PUSH2 0x3B86 JUMPI PUSH1 0x0 DUP1 REVERT JUMPDEST POP MLOAD SWAP2 SWAP1 POP JUMP JUMPDEST PUSH1 0x1 DUP1 PUSH1 0xA0 SHL SUB DUP9 AND DUP2 MSTORE DUP7 PUSH1 0x20 DUP3 ADD MSTORE DUP6 PUSH1 0x40 DUP3 ADD MSTORE DUP5 ISZERO ISZERO PUSH1 0x60 DUP3 ADD MSTORE DUP4 PUSH1 0x80 DUP3 ADD MSTORE PUSH1 0xE0 PUSH1 0xA0 DUP3 ADD MSTORE PUSH1 0x0 PUSH2 0x3BC8 PUSH1 0xE0 DUP4 ADD DUP6 PUSH2 0x3AED JUMP JUMPDEST SWAP1 POP DUP3 PUSH1 0xC0 DUP4 ADD MSTORE SWAP9 SWAP8 POP POP POP POP POP POP POP POP JUMP JUMPDEST PUSH1 0x0 DUP3 MLOAD PUSH2 0x3BEE DUP2 DUP5 PUSH1 0x20 DUP8 ADD PUSH2 0x354E JUMP JUMPDEST SWAP2 SWAP1 SWAP2 ADD SWAP3 SWAP2 POP POP JUMP JUMPDEST PUSH1 0x20 DUP1 DUP3 MSTORE DUP2 DUP2 ADD MSTORE PUSH32 0x4F776E61626C653A2063616C6C6572206973206E6F7420746865206F776E6572 PUSH1 0x40 DUP3 ADD MSTORE PUSH1 0x60 ADD SWAP1 JUMP JUMPDEST PUSH1 0x1 PUSH1 0x1 PUSH1 0xA0 SHL SUB DUP5 AND DUP2 MSTORE PUSH1 0x60 PUSH1 0x20 DUP3 ADD DUP2 SWAP1 MSTORE PUSH1 0x0 SWAP1 PUSH2 0x3C51 SWAP1 DUP4 ADD DUP6 PUSH2 0x3AED JUMP JUMPDEST SWAP1 POP DUP3 PUSH1 0x40 DUP4 ADD MSTORE SWAP5 SWAP4 POP POP POP POP JUMP JUMPDEST PUSH1 0x1 DUP2 DUP2 JUMPDEST DUP1 DUP6 GT ISZERO PUSH2 0x3C9C JUMPI DUP2 PUSH1 0x0 NOT DIV DUP3 GT ISZERO PUSH2 0x3C82 JUMPI PUSH2 0x3C82 PUSH2 0x39A2 JUMP JUMPDEST DUP1 DUP6 AND ISZERO PUSH2 0x3C8F JUMPI SWAP2 DUP2 MUL SWAP2 JUMPDEST SWAP4 DUP5 SHR SWAP4 SWAP1 DUP1 MUL SWAP1 PUSH2 0x3C66 JUMP JUMPDEST POP SWAP3 POP SWAP3 SWAP1 POP JUMP JUMPDEST PUSH1 0x0 DUP3 PUSH2 0x3CB3 JUMPI POP PUSH1 0x1 PUSH2 0x872 JUMP JUMPDEST DUP2 PUSH2 0x3CC0 JUMPI POP PUSH1 0x0 PUSH2 0x872 JUMP JUMPDEST DUP2 PUSH1 0x1 DUP2 EQ PUSH2 0x3CD6 JUMPI PUSH1 0x2 DUP2 EQ PUSH2 0x3CE0 JUMPI PUSH2 0x3CFC JUMP JUMPDEST PUSH1 0x1 SWAP2 POP POP PUSH2 0x872 JUMP JUMPDEST PUSH1 0xFF DUP5 GT ISZERO PUSH2 0x3CF1 JUMPI PUSH2 0x3CF1 PUSH2 0x39A2 JUMP JUMPDEST POP POP PUSH1 0x1 DUP3 SHL PUSH2 0x872 JUMP JUMPDEST POP PUSH1 0x20 DUP4 LT PUSH2 0x133 DUP4 LT AND PUSH1 0x4E DUP5 LT PUSH1 0xB DUP5 LT AND OR ISZERO PUSH2 0x3D1F JUMPI POP DUP2 DUP2 EXP PUSH2 0x872 JUMP JUMPDEST PUSH2 0x3D29 DUP4 DUP4 PUSH2 0x3C61 JUMP JUMPDEST DUP1 PUSH1 0x0 NOT DIV DUP3 GT ISZERO PUSH2 0x3D3D JUMPI PUSH2 0x3D3D PUSH2 0x39A2 JUMP JUMPDEST MUL SWAP4 SWAP3 POP POP POP JUMP JUMPDEST PUSH1 0x0 PUSH2 0x352E DUP4 DUP4 PUSH2 0x3CA4 JUMP JUMPDEST DUP1 MLOAD PUSH10 0xFFFFFFFFFFFFFFFFFFFF DUP2 AND DUP2 EQ PUSH2 0x350E JUMPI PUSH1 0x0 DUP1 REVERT JUMPDEST PUSH1 0x0 DUP1 PUSH1 0x0 DUP1 PUSH1 0x0 PUSH1 0xA0 DUP7 DUP9 SUB SLT ISZERO PUSH2 0x3D83 JUMPI PUSH1 0x0 DUP1 REVERT JUMPDEST PUSH2 0x3D8C DUP7 PUSH2 0x3D51 JUMP JUMPDEST SWAP5 POP PUSH1 0x20 DUP7 ADD MLOAD SWAP4 POP PUSH1 0x40 DUP7 ADD MLOAD SWAP3 POP PUSH1 0x60 DUP7 ADD MLOAD SWAP2 POP PUSH2 0x3DAF PUSH1 0x80 DUP8 ADD PUSH2 0x3D51 JUMP JUMPDEST SWAP1 POP SWAP3 SWAP6 POP SWAP3 SWAP6 SWAP1 SWAP4 POP JUMP JUMPDEST PUSH1 0x0 PUSH1 0x20 DUP3 DUP5 SUB SLT ISZERO PUSH2 0x3DCD JUMPI PUSH1 0x0 DUP1 REVERT JUMPDEST DUP2 MLOAD PUSH1 0xFF DUP2 AND DUP2 EQ PUSH2 0x352E JUMPI PUSH1 0x0 DUP1 REVERT INVALID LOG2 PUSH5 0x6970667358 0x22 SLT KECCAK256 DUP3 PUSH12 0x49843246B7E02ACBC4A17B34 SGT ADD PUSH27 0xCE39A71963F527B6B3A4DCB9646DA264736F6C634300080B003300 ","sha1":"c1ba861ce215467203dcb8a6560a7e93b3f5f8a2","source":"// SPDX-License-Identifier: MIT\npragma solidity >=0.4.22 <0.9.0;\n\nimport \"@chainlink/contracts/src/v0.8/interfaces/AggregatorV3Interface.sol\";\nimport \"@openzeppelin/contracts/access/Ownable.sol\";\nimport \"@openzeppelin/contracts/token/ERC20/IERC20.sol\";\n\n// Set up you contract to convert DAI to USD or ETH to USD\ncontract LendingAndBorrowing is Ownable {\n    address[] public lenders;\n    address[] public borrowers;\n\n    mapping(address => mapping(address => uint256)) public tokensLentAmount;\n    mapping(address => mapping(address => uint256)) public tokensBorrowedAmount;\n\n    mapping(uint256 => mapping(address => address)) public tokensLent;\n    mapping(uint256 => mapping(address => address)) public tokensBorrowed;\n\n    mapping(address => address) public tokenToPriceFeed;\n\n    mapping(uint256 => mapping(address => address)) public tokensLentOrBorrowed;\n\n    event Withdraw(address sender, uint amount, uint tokenToWithdrawInDollars, uint availableToWithdraw, uint totalAmountLentInDollars);\n    event PayDebt(address sender, int index, uint tokenAmountBorrowed, uint totalTokenAmountToCollectFromUser, address[] borrowers);\n    event Borrow(address sender, uint amountInDollars, uint totalAmountAvailableForBorrowInDollars, bool userPresent, int userIndex, address[] borrowers, uint currentUserTokenBorrowedAmount);\n    event Supply(address sender, address[] lenders, uint currentUserTokenLentAmount);\n\n    struct Token {\n        address tokenAddress;\n        uint256 LTV;\n        uint256 stableRate;\n        string name;\n    }\n\n    Token[] public tokensForLending;\n    Token[] public tokensForBorrowing;\n\n    IERC20 public larToken;\n\n    uint256 public noOfTokensLent = 0;\n    uint256 public noOfTokensBorrowed = 0;\n\n    constructor(address _token) {\n        larToken = IERC20(_token);\n    }\n\n    function addTokensForLending(\n        string memory name,\n        address tokenAddress,\n        uint256 LTV,\n        uint256 borrowStableRate\n    ) public onlyOwner {\n        Token memory token = Token(tokenAddress, LTV, borrowStableRate, name);\n\n        if (!tokenIsAlreadyThere(token, tokensForLending)) {\n            tokensForLending.push(token);\n        }\n    }\n\n    function addTokensForBorrowing(\n        string memory name,\n        address tokenAddress,\n        uint256 LTV,\n        uint256 borrowStableRate\n    ) public onlyOwner {\n        Token memory token = Token(tokenAddress, LTV, borrowStableRate, name);\n\n        if (!tokenIsAlreadyThere(token, tokensForBorrowing)) {\n            tokensForBorrowing.push(token);\n        }\n    }\n\n    function addTokenToPriceFeedMapping(\n        address tokenAddress,\n        address tokenToUsdPriceFeed\n    ) public onlyOwner {\n        tokenToPriceFeed[tokenAddress] = tokenToUsdPriceFeed;\n    }\n\n    function getLendersArray() public view returns (address[] memory) {\n        return lenders;\n    }\n\n    function getBorrowersArray() public view returns (address[] memory) {\n        return borrowers;\n    }\n\n    function getTokensForLendingArray() public view returns (Token[] memory) {\n        return tokensForLending;\n    }\n\n    function getTokensForBorrowingArray() public view returns (Token[] memory) {\n        return tokensForBorrowing;\n    }\n\n    function lend(address tokenAddress, uint256 amount) public payable {\n        require(\n            tokenIsAllowed(tokenAddress, tokensForLending),\n            \"Token is not supported\"\n        );\n\n        require(amount > 0, \"The amount to supply should be greater than 0\");\n\n        IERC20 token = IERC20(tokenAddress);\n\n        require(\n            token.balanceOf(msg.sender) >= amount,\n            \"You have insufficient token to supply that amount\"\n        );\n\n        token.transferFrom(msg.sender, address(this), amount);\n\n        (bool userPresent, int256 userIndex) = isUserPresentIn(\n            msg.sender,\n            lenders\n        );\n\n        if (userPresent) {\n            updateUserTokensBorrowedOrLent(\n                tokenAddress,\n                amount,\n                userIndex,\n                \"lenders\"\n            );\n        } else {\n            lenders.push(msg.sender);\n            tokensLentAmount[tokenAddress][msg.sender] = amount;\n            tokensLent[noOfTokensLent++][msg.sender] = tokenAddress;\n        }\n\n        rewardUserToken(msg.sender, tokenAddress, amount);\n\n        emit Supply(msg.sender, lenders, tokensLentAmount[tokenAddress][msg.sender]);\n    }\n\n    function borrow(uint256 amount, address tokenAddress) public {\n        require(\n            tokenIsAllowed(tokenAddress, tokensForBorrowing),\n            \"Token is not supported for borrowing\"\n        );\n        require(amount > 0, \"Amount should be greater than 0\");\n\n        uint256 totalAmountAvailableForBorrowInDollars = getUserTotalAmountAvailableForBorrowInDollars(\n                msg.sender\n            );\n        uint256 amountInDollars = getAmountInDollars(amount, tokenAddress);\n\n        require(\n            amountInDollars <= totalAmountAvailableForBorrowInDollars,\n            \"You don't have enough collateral to borrow this amount\"\n        );\n\n        IERC20 token = IERC20(tokenAddress);\n\n        require(\n            token.balanceOf(address(this)) > amount,\n            \"We do not have enough of this token for you to borrow.\"\n        );\n\n        token.transfer(msg.sender, amount);\n\n        (bool userPresent, int256 userIndex) = isUserPresentIn(\n            msg.sender,\n            borrowers\n        );\n\n        if (userPresent) {\n            updateUserTokensBorrowedOrLent(\n                tokenAddress,\n                amount,\n                userIndex,\n                \"borrowers\"\n            );\n        } else {\n            borrowers.push(msg.sender);\n            tokensBorrowedAmount[tokenAddress][msg.sender] = amount;\n            tokensBorrowed[noOfTokensBorrowed++][msg.sender] = tokenAddress;\n        }\n\n        emit Borrow(msg.sender, amountInDollars, totalAmountAvailableForBorrowInDollars, userPresent, userIndex, borrowers, tokensBorrowedAmount[tokenAddress][msg.sender]);\n    }\n\n    function payDebt(address tokenAddress, uint256 amount) public {\n        require(amount > 0, \"Amount should be greater than 0\");\n\n        int256 index = indexOf(msg.sender, borrowers);\n        require(\n            index >= 0,\n            \"User address is not found in the list of borrowers\"\n        );\n\n        uint256 tokenBorrowed = tokensBorrowedAmount[tokenAddress][msg.sender];\n\n        require(tokenBorrowed > 0, \"You  are not owing\");\n        IERC20 token = IERC20(tokenAddress);\n\n        uint256 totalTokenAmountToCollectFromUser = amount +\n            interest(tokenAddress, tokenBorrowed);\n\n        token.transferFrom(\n            msg.sender,\n            address(this),\n            totalTokenAmountToCollectFromUser\n        );\n\n        tokensBorrowedAmount[tokenAddress][msg.sender] =\n            tokensBorrowedAmount[tokenAddress][msg.sender] -\n            amount;\n\n        // Check If all the amount borrowed = 0;\n        uint256 totalAmountBorrowed = getTotalAmountBorrowedInDollars(\n            msg.sender\n        );\n\n        if (totalAmountBorrowed == 0) {\n            borrowers[uint256(index)] = borrowers[borrowers.length - 1];\n            borrowers.pop();\n        }\n\n        emit PayDebt(msg.sender, index, tokenBorrowed, totalTokenAmountToCollectFromUser, borrowers);\n    }\n\n    function withdraw(address tokenAddress, uint256 amount) public {\n        require(amount > 0, \"Amount should be greater than 0\");\n\n        int256 index = indexOf(msg.sender, lenders);\n        require(index >= 0, \"User address is not found in the list of lenders\");\n\n        IERC20 token = IERC20(tokenAddress);\n\n        \n        uint tokenToWithdrawInDollars = getAmountInDollars(amount, tokenAddress);\n        uint availableToWithdraw = getTokenAvailableToWithdraw(msg.sender);\n        \n        require(tokenToWithdrawInDollars < availableToWithdraw, \"You have used some of your supplies as your collateral. Pay your debt before you can be allowed to withdraw. Thanks\");\n\n        uint256 larTokenToRemove = getAmountInDollars(amount, tokenAddress);\n        larToken.transferFrom(msg.sender, address(this), larTokenToRemove);\n\n\n        token.transfer(msg.sender, amount);\n\n        tokensLentAmount[tokenAddress][msg.sender] =\n            tokensLentAmount[tokenAddress][msg.sender] -\n            amount;\n\n        uint totalAmountLentInDollars = getTotalAmountLentInDollars(msg.sender);\n\n\n        emit Withdraw(msg.sender, amount, tokenToWithdrawInDollars, availableToWithdraw, totalAmountLentInDollars);\n\n        if (totalAmountLentInDollars <= 0) {\n            lenders[uint256(index)] = lenders[lenders.length - 1];\n            lenders.pop();\n        }\n\n\n    }\n\n    function getTokenAvailableToWithdraw(address user) public view returns(uint256){\n        uint totalAmountLentInDollars = getTotalAmountLentInDollars(user);\n        uint totalAmountBorrowedInDollars = getTotalAmountBorrowedInDollars(user);\n        uint availableToWithdraw = totalAmountLentInDollars - totalAmountBorrowedInDollars;\n\n        return availableToWithdraw;\n    }\n\n    function indexOf(address user, address[] memory addressArray)\n        public\n        returns (int256)\n    {\n        int256 index = -1;\n\n        for (uint256 i = 0; i < addressArray.length; i++) {\n            address currentAddress = addressArray[i];\n            if (currentAddress == user) {\n                return int256(i);\n            }\n        }\n        return index;\n    }\n\n    function getTotalAmountBorrowedInDollars(address user)\n        public\n        view\n        returns (uint256)\n    {\n        uint256 totalAmountBorrowed = 0;\n\n\n        for (uint256 i = 0; i < noOfTokensBorrowed; i++) {\n            address userBorrowedTokenAddressFound = tokensBorrowed[i][user];\n\n            if (\n                userBorrowedTokenAddressFound !=\n                0x0000000000000000000000000000000000000000\n            ) {\n                uint256 tokenAmountBorrowed = tokensBorrowedAmount[\n                    userBorrowedTokenAddressFound\n                ][user];\n\n                uint256 tokenAmountBorrowedInDollars = getAmountInDollars(\n                    tokenAmountBorrowed,\n                    userBorrowedTokenAddressFound\n                );\n\n                totalAmountBorrowed += tokenAmountBorrowedInDollars;\n            }\n        }\n        return totalAmountBorrowed;\n    }\n\n    function getTotalAmountLentInDollars(address user)\n        public\n        view\n        returns (uint256)\n    {\n        uint256 totalAmountLent = 0;\n        for (uint256 i = 0; i < noOfTokensLent; i++) {\n            address userLentTokenAddressFound = tokensLent[i][user];\n\n            if (\n                userLentTokenAddressFound !=\n                0x0000000000000000000000000000000000000000\n            ) {\n                uint256 tokenAmountLent = tokensLentAmount[\n                    userLentTokenAddressFound\n                ][user];\n\n                uint256 tokenAmountLentInDollars = getAmountInDollars(\n                    tokenAmountLent,\n                    userLentTokenAddressFound\n                );\n\n                totalAmountLent += tokenAmountLentInDollars;\n            }\n        }\n        return totalAmountLent;\n    }\n\n    function interest(address tokenAddress, uint256 tokenBorrowed)\n        public\n        view\n        returns (uint256)\n    {\n        Token memory token = getTokenFrom(tokenAddress);\n        return (tokenBorrowed * token.stableRate) / 10**18;\n    }\n\n    function getTokenFrom(address tokenAddress)\n        public\n        view\n        returns (Token memory)\n    {\n        Token memory token;\n        for (uint256 i = 0; i < tokensForBorrowing.length; i++) {\n            Token memory currentToken = tokensForBorrowing[i];\n            if (currentToken.tokenAddress == tokenAddress) {\n                token = currentToken;\n                break;\n            }\n        }\n        return token;\n    }\n\n    function getUserTotalAmountAvailableForBorrowInDollars(address user)\n        public\n        view\n        returns (uint256)\n    {\n        // uint256 totalAvailableToBorrow = 0;\n\n        uint256 userTotalCollateralToBorrow = 0;\n        uint256 userTotalCollateralAlreadyBorrowed = 0;\n\n        for (uint256 i = 0; i < lenders.length; i++) {\n            address currentLender = lenders[i];\n            if (currentLender == user) {\n                for (uint256 j = 0; j < tokensForLending.length; j++) {\n                    Token memory currentTokenForLending = tokensForLending[j];\n                    uint256 currentTokenLentAmount = tokensLentAmount[\n                        currentTokenForLending.tokenAddress\n                    ][user];\n                    uint256 currentTokenLentAmountInDollar = getAmountInDollars(\n                        currentTokenLentAmount,\n                        currentTokenForLending.tokenAddress\n                    );\n                    uint256 availableInDollar = (currentTokenLentAmountInDollar *\n                            currentTokenForLending.LTV) / 10**18;\n                    userTotalCollateralToBorrow += availableInDollar;\n                }\n            }\n        }\n\n        for (uint256 i = 0; i < borrowers.length; i++) {\n            address currentBorrower = borrowers[i];\n            if (currentBorrower == user) {\n                for (uint256 j = 0; j < tokensForBorrowing.length; j++) {\n                    Token memory currentTokenForBorrowing = tokensForBorrowing[j];\n                    uint256 currentTokenBorrowedAmount = tokensBorrowedAmount[\n                        currentTokenForBorrowing.tokenAddress\n                    ][user];\n                    uint256 currentTokenBorrowedAmountInDollar = getAmountInDollars(\n                        (currentTokenBorrowedAmount),\n                        currentTokenForBorrowing.tokenAddress\n                    );\n                    \n                    userTotalCollateralAlreadyBorrowed += currentTokenBorrowedAmountInDollar;\n                }\n            }\n        }\n\n        return userTotalCollateralToBorrow - userTotalCollateralAlreadyBorrowed;\n\n        // for (uint256 i = 0; i < noOfTokensLent; i++) {\n        //     address userLentTokenAddressFound = tokensLent[i][user];\n\n        //     if (\n        //         userLentTokenAddressFound !=\n        //         0x0000000000000000000000000000000000000000\n        //     ) {\n        //         Token memory token = getTokenFrom(userLentTokenAddressFound);\n        //         uint256 tokenLoanToValueRatio = token.LTV;\n\n        //         bool isBorrowed = tokenIsBorrowed(\n        //             user,\n        //             userLentTokenAddressFound\n        //         );\n\n        //         uint256 tokenAmountAvailable;\n\n        //         if (!isBorrowed) {\n        //             tokenAmountAvailable = tokensLentAmount[\n        //                 userLentTokenAddressFound\n        //             ][user];\n        //         } else {\n        //             tokenAmountAvailable =\n        //                 tokensLentAmount[userLentTokenAddressFound][user] -\n        //                 tokensBorrowedAmount[userLentTokenAddressFound][user];\n        //         }\n        //         uint256 currentTokenAmountInDollars = getAmountInDollars(\n        //             tokenAmountAvailable,\n        //             userLentTokenAddressFound\n        //         );\n        //         uint256 availableToBorrow = (currentTokenAmountInDollars *\n        //             tokenLoanToValueRatio) / 10**18;\n\n        //         totalAvailableToBorrow += availableToBorrow;\n        //     }\n        // }\n\n        // return totalAvailableToBorrow;\n    }\n\n    function tokenIsBorrowed(address user, address token)\n        private\n        view\n        returns (bool)\n    {\n        return tokensBorrowedAmount[token][user] != 0;\n    }\n\n    function tokenIsAllowed(address tokenAddress, Token[] memory tokenArray)\n        private\n        pure\n        returns (bool)\n    {\n        if (tokenArray.length > 0) {\n            for (uint256 i = 0; i < tokenArray.length; i++) {\n                Token memory currentToken = tokenArray[i];\n                if (currentToken.tokenAddress == tokenAddress) {\n                    return true;\n                }\n            }\n        }\n\n        return false;\n    }\n\n    function tokenIsAlreadyThere(Token memory token, Token[] memory tokenArray)\n        private\n        pure\n        returns (bool)\n    {\n        if (tokenArray.length > 0) {\n            for (uint256 i = 0; i < tokenArray.length; i++) {\n                Token memory currentToken = tokenArray[i];\n                if (currentToken.tokenAddress == token.tokenAddress) {\n                    return true;\n                }\n            }\n        }\n\n        return false;\n    }\n\n    function rewardUserToken(\n        address user,\n        address tokenAddress,\n        uint256 amount\n    ) private {\n        // Send some tokens to the user equivalent to the token amount lent.\n        require(amount > 0, \"Amount should be greater than 0\");\n\n        uint256 amountIndollars = getAmountInDollars(amount, tokenAddress);\n        larToken.transfer(user, amountIndollars);\n    }\n\n    function getAmountInDollars(uint256 amount, address tokenAddress)\n        public\n        view\n        returns (uint256)\n    {\n        (\n            uint256 dollarPerToken,\n            uint256 decimals\n        ) = oneTokenEqualsHowManyDollars(tokenAddress);\n        uint256 totalAmountInDollars = (amount * dollarPerToken) /\n            (10**decimals);\n        return totalAmountInDollars;\n    }\n\n    function oneTokenEqualsHowManyDollars(address tokenAddress)\n        public\n        view\n        returns (uint256, uint256)\n    {\n        address tokenToUsd = tokenToPriceFeed[tokenAddress];\n        AggregatorV3Interface priceFeed = AggregatorV3Interface(tokenToUsd);\n\n        (, int256 price, , , ) = priceFeed.latestRoundData();\n\n        uint256 decimals = priceFeed.decimals();\n\n        return (uint256(price), decimals);\n    }\n\n    function updateUserTokensBorrowedOrLent(\n        address tokenAddress,\n        uint256 amount,\n        int256 userIndex,\n        string memory lendersOrBorrowers\n    ) internal {\n        if (\n            keccak256(abi.encodePacked(lendersOrBorrowers)) ==\n            keccak256(abi.encodePacked(\"lenders\"))\n        ) {\n            address currentUser = lenders[uint256(userIndex)];\n\n            bool tokenLendedAlready = hasLentOrBorrowedToken(\n                currentUser,\n                tokenAddress,\n                noOfTokensLent,\n                \"tokensLent\"\n            );\n\n            if (tokenLendedAlready) {\n                tokensLentAmount[tokenAddress][currentUser] =\n                    tokensLentAmount[tokenAddress][currentUser] +\n                    amount;\n            } else {\n                tokensLent[noOfTokensLent++][currentUser] = tokenAddress;\n                tokensLentAmount[tokenAddress][currentUser] = amount;\n            }\n        } else if (\n            keccak256(abi.encodePacked(lendersOrBorrowers)) ==\n            keccak256(abi.encodePacked(\"borrowers\"))\n        ) {\n            address currentUser = borrowers[uint256(userIndex)];\n\n            bool tokenBorrowedAlready = hasLentOrBorrowedToken(\n                currentUser,\n                tokenAddress,\n                noOfTokensBorrowed,\n                \"tokensBorrowed\"\n            );\n\n            if (tokenBorrowedAlready) {\n                tokensBorrowedAmount[tokenAddress][currentUser] =\n                    tokensBorrowedAmount[tokenAddress][currentUser] +\n                    amount;\n            } else {\n                tokensBorrowed[noOfTokensBorrowed++][\n                    currentUser\n                ] = tokenAddress;\n                tokensBorrowedAmount[tokenAddress][currentUser] = amount;\n            }\n        }\n    }\n\n    function hasLentOrBorrowedToken(\n        address currentUser,\n        address tokenAddress,\n        uint256 noOfTokenslentOrBorrowed,\n        string memory _tokensLentOrBorrowed\n    ) public view returns (bool) {\n        if (noOfTokenslentOrBorrowed > 0) {\n            if (\n                keccak256(abi.encodePacked(_tokensLentOrBorrowed)) ==\n                keccak256(abi.encodePacked(\"tokensLent\"))\n            ) {\n                for (uint256 i = 0; i < noOfTokensLent; i++) {\n                    address tokenAddressFound = tokensLent[i][currentUser];\n                    if (tokenAddressFound == tokenAddress) {\n                        return true;\n                    }\n                }\n            } else if (\n                keccak256(abi.encodePacked(_tokensLentOrBorrowed)) ==\n                keccak256(abi.encodePacked(\"tokensBorrowed\"))\n            ) {\n                for (uint256 i = 0; i < noOfTokensBorrowed; i++) {\n                    address tokenAddressFound = tokensBorrowed[i][currentUser];\n                    if (tokenAddressFound == tokenAddress) {\n                        return true;\n                    }\n                }\n            }\n        }\n\n        return false;\n    }\n\n    function isUserPresentIn(address userAddress, address[] memory users)\n        private\n        pure\n        returns (bool, int256)\n    {\n        if (users.length > 0) {\n            for (uint256 i = 0; i < users.length; i++) {\n                address currentUserAddress = users[i];\n                if (currentUserAddress == userAddress) {\n                    return (true, int256(i));\n                }\n            }\n        }\n\n        return (false, -1);\n    }\n\n    function getTotalTokenSupplied(address tokenAddres)\n        public\n        view\n        returns (uint256)\n    {\n        uint256 totalTokenSupplied = 0;\n        if (lenders.length > 0) {\n            for (uint256 i = 0; i < lenders.length; i++) {\n                address curentLender = lenders[i];\n                totalTokenSupplied += tokensLentAmount[tokenAddres][\n                    curentLender\n                ];\n            }\n        }\n\n        return totalTokenSupplied;\n    }\n\n    function getTotalTokenBorrowed(address tokenAddress)\n        public\n        view\n        returns (uint256)\n    {\n        uint256 totalTokenBorrowed = 0;\n        if (borrowers.length > 0) {\n            for (uint256 i = 0; i < borrowers.length; i++) {\n                address curentBorrower = borrowers[i];\n                totalTokenBorrowed += tokensBorrowedAmount[tokenAddress][\n                    curentBorrower\n                ];\n            }\n        }\n        return totalTokenBorrowed;\n    }\n}\n","sourcePath":"contracts/LendingAndBorrowing.sol","type":"contract","deployment":{"address":"0x86c07916CAcf827342c540895EFeafC4A5BAB197","chainid":"42","blockHeight":31102281}}