{
  "abi": [
    {
      "inputs": [
        {
          "internalType": "uint8",
          "name": "_decimals",
          "type": "uint8"
        },
        {
          "internalType": "int256",
          "name": "_initialAnswer",
          "type": "int256"
        }
      ],
      "stateMutability": "nonpayable",
      "type": "constructor"
    },
    {
      "anonymous": false,
      "inputs": [
        {
          "indexed": true,
          "internalType": "int256",
          "name": "current",
          "type": "int256"
        },
        {
          "indexed": true,
          "internalType": "uint256",
          "name": "roundId",
          "type": "uint256"
        },
        {
          "indexed": false,
          "internalType": "uint256",
          "name": "updatedAt",
          "type": "uint256"
        }
      ],
      "name": "AnswerUpdated",
      "type": "event"
    },
    {
      "anonymous": false,
      "inputs": [
        {
          "indexed": true,
          "internalType": "uint256",
          "name": "roundId",
          "type": "uint256"
        },
        {
          "indexed": true,
          "internalType": "address",
          "name": "startedBy",
          "type": "address"
        },
        {
          "indexed": false,
          "internalType": "uint256",
          "name": "startedAt",
          "type": "uint256"
        }
      ],
      "name": "NewRound",
      "type": "event"
    },
    {
      "inputs": [],
      "name": "decimals",
      "outputs": [
        {
          "internalType": "uint8",
          "name": "",
          "type": "uint8"
        }
      ],
      "stateMutability": "view",
      "type": "function"
    },
    {
      "inputs": [],
      "name": "description",
      "outputs": [
        {
          "internalType": "string",
          "name": "",
          "type": "string"
        }
      ],
      "stateMutability": "view",
      "type": "function"
    },
    {
      "inputs": [
        {
          "internalType": "uint256",
          "name": "",
          "type": "uint256"
        }
      ],
      "name": "getAnswer",
      "outputs": [
        {
          "internalType": "int256",
          "name": "",
          "type": "int256"
        }
      ],
      "stateMutability": "view",
      "type": "function"
    },
    {
      "inputs": [
        {
          "internalType": "uint80",
          "name": "_roundId",
          "type": "uint80"
        }
      ],
      "name": "getRoundData",
      "outputs": [
        {
          "internalType": "uint80",
          "name": "roundId",
          "type": "uint80"
        },
        {
          "internalType": "int256",
          "name": "answer",
          "type": "int256"
        },
        {
          "internalType": "uint256",
          "name": "startedAt",
          "type": "uint256"
        },
        {
          "internalType": "uint256",
          "name": "updatedAt",
          "type": "uint256"
        },
        {
          "internalType": "uint80",
          "name": "answeredInRound",
          "type": "uint80"
        }
      ],
      "stateMutability": "view",
      "type": "function"
    },
    {
      "inputs": [
        {
          "internalType": "uint256",
          "name": "",
          "type": "uint256"
        }
      ],
      "name": "getTimestamp",
      "outputs": [
        {
          "internalType": "uint256",
          "name": "",
          "type": "uint256"
        }
      ],
      "stateMutability": "view",
      "type": "function"
    },
    {
      "inputs": [],
      "name": "latestAnswer",
      "outputs": [
        {
          "internalType": "int256",
          "name": "",
          "type": "int256"
        }
      ],
      "stateMutability": "view",
      "type": "function"
    },
    {
      "inputs": [],
      "name": "latestRound",
      "outputs": [
        {
          "internalType": "uint256",
          "name": "",
          "type": "uint256"
        }
      ],
      "stateMutability": "view",
      "type": "function"
    },
    {
      "inputs": [],
      "name": "latestRoundData",
      "outputs": [
        {
          "internalType": "uint80",
          "name": "roundId",
          "type": "uint80"
        },
        {
          "internalType": "int256",
          "name": "answer",
          "type": "int256"
        },
        {
          "internalType": "uint256",
          "name": "startedAt",
          "type": "uint256"
        },
        {
          "internalType": "uint256",
          "name": "updatedAt",
          "type": "uint256"
        },
        {
          "internalType": "uint80",
          "name": "answeredInRound",
          "type": "uint80"
        }
      ],
      "stateMutability": "view",
      "type": "function"
    },
    {
      "inputs": [],
      "name": "latestTimestamp",
      "outputs": [
        {
          "internalType": "uint256",
          "name": "",
          "type": "uint256"
        }
      ],
      "stateMutability": "view",
      "type": "function"
    },
    {
      "inputs": [
        {
          "internalType": "int256",
          "name": "_answer",
          "type": "int256"
        }
      ],
      "name": "updateAnswer",
      "outputs": [],
      "stateMutability": "nonpayable",
      "type": "function"
    },
    {
      "inputs": [
        {
          "internalType": "uint80",
          "name": "_roundId",
          "type": "uint80"
        },
        {
          "internalType": "int256",
          "name": "_answer",
          "type": "int256"
        },
        {
          "internalType": "uint256",
          "name": "_timestamp",
          "type": "uint256"
        },
        {
          "internalType": "uint256",
          "name": "_startedAt",
          "type": "uint256"
        }
      ],
      "name": "updateRoundData",
      "outputs": [],
      "stateMutability": "nonpayable",
      "type": "function"
    },
    {
      "inputs": [],
      "name": "version",
      "outputs": [
        {
          "internalType": "uint256",
          "name": "",
          "type": "uint256"
        }
      ],
      "stateMutability": "view",
      "type": "function"
    }
  ],
  "bytecode": "608060405234801561001057600080fd5b5060405161055338038061055383398101604081905261002f916100a4565b6000805460ff191660ff84161790556100478161004e565b5050610101565b60018190554260025560038054906000610067836100d8565b9091555050600380546000908152600460209081526040808320949094558254825260058152838220429081905592548252600690529190912055565b600080604083850312156100b757600080fd5b825160ff811681146100c857600080fd5b6020939093015192949293505050565b60006000198214156100fa57634e487b7160e01b600052601160045260246000fd5b5060010190565b610443806101106000396000f3fe608060405234801561001057600080fd5b50600436106100b45760003560e01c80638205bf6a116100715780638205bf6a146101a15780639a6fc8f5146101aa578063a87a20ce14610228578063b5ab58dc1461023b578063b633620c1461025b578063feaf968c1461027b57600080fd5b8063313ce567146100b95780634aa2011f146100dd57806350d25bcd1461013a57806354fd4d5014610151578063668a0f02146101595780637284e41614610162575b600080fd5b6000546100c69060ff1681565b60405160ff90911681526020015b60405180910390f35b6101386100eb36600461031b565b69ffffffffffffffffffff90931660038181556001849055600283905560009182526004602090815260408084209590955581548352600581528483209390935554815260069091522055565b005b61014360015481565b6040519081526020016100d4565b610143600081565b61014360035481565b604080518082018252601f81527f76302e362f74657374732f4d6f636b563341676772656761746f722e736f6c00602082015290516100d49190610354565b61014360025481565b6101f16101b83660046103a9565b69ffffffffffffffffffff8116600090815260046020908152604080832054600683528184205460059093529220549293919290918490565b6040805169ffffffffffffffffffff968716815260208101959095528401929092526060830152909116608082015260a0016100d4565b6101386102363660046103cb565b6102a6565b6101436102493660046103cb565b60046020526000908152604090205481565b6101436102693660046103cb565b60056020526000908152604090205481565b60035460008181526004602090815260408083205460068352818420546005909352922054836101f1565b600181905542600255600380549060006102bf836103e4565b9091555050600380546000908152600460209081526040808320949094558254825260058152838220429081905592548252600690529190912055565b803569ffffffffffffffffffff8116811461031657600080fd5b919050565b6000806000806080858703121561033157600080fd5b61033a856102fc565b966020860135965060408601359560600135945092505050565b600060208083528351808285015260005b8181101561038157858101830151858201604001528201610365565b81811115610393576000604083870101525b50601f01601f1916929092016040019392505050565b6000602082840312156103bb57600080fd5b6103c4826102fc565b9392505050565b6000602082840312156103dd57600080fd5b5035919050565b600060001982141561040657634e487b7160e01b600052601160045260246000fd5b506001019056fea264697066735822122013b0810137c761427cf6e8ebc8115ef39688ff77366bac2b87fc1837b6b3983e64736f6c634300080b0033",
  "bytecodeSha1": "a343bf9ab36dab93298c11f3196b32a1566d14c1",
  "compiler": {
    "evm_version": "istanbul",
    "optimizer": {
      "enabled": true,
      "runs": 200
    },
    "version": "0.8.11+commit.d7f03943"
  },
  "contractName": "MockV3Aggregator",
  "language": "Solidity",
  "natspec": {
    "kind": "dev",
    "methods": {},
    "notice": "Based on the FluxAggregator contractUse this contract when you need to test other contract's ability to read data from an aggregator contract, but how the aggregator got its answer is unimportant",
    "title": "MockV3Aggregator",
    "version": 1
  },
  "opcodes": "PUSH1 0x80 PUSH1 0x40 MSTORE CALLVALUE DUP1 ISZERO PUSH2 0x10 JUMPI PUSH1 0x0 DUP1 REVERT JUMPDEST POP PUSH1 0x4 CALLDATASIZE LT PUSH2 0xB4 JUMPI PUSH1 0x0 CALLDATALOAD PUSH1 0xE0 SHR DUP1 PUSH4 0x8205BF6A GT PUSH2 0x71 JUMPI DUP1 PUSH4 0x8205BF6A EQ PUSH2 0x1A1 JUMPI DUP1 PUSH4 0x9A6FC8F5 EQ PUSH2 0x1AA JUMPI DUP1 PUSH4 0xA87A20CE EQ PUSH2 0x228 JUMPI DUP1 PUSH4 0xB5AB58DC EQ PUSH2 0x23B JUMPI DUP1 PUSH4 0xB633620C EQ PUSH2 0x25B JUMPI DUP1 PUSH4 0xFEAF968C EQ PUSH2 0x27B JUMPI PUSH1 0x0 DUP1 REVERT JUMPDEST DUP1 PUSH4 0x313CE567 EQ PUSH2 0xB9 JUMPI DUP1 PUSH4 0x4AA2011F EQ PUSH2 0xDD JUMPI DUP1 PUSH4 0x50D25BCD EQ PUSH2 0x13A JUMPI DUP1 PUSH4 0x54FD4D50 EQ PUSH2 0x151 JUMPI DUP1 PUSH4 0x668A0F02 EQ PUSH2 0x159 JUMPI DUP1 PUSH4 0x7284E416 EQ PUSH2 0x162 JUMPI JUMPDEST PUSH1 0x0 DUP1 REVERT JUMPDEST PUSH1 0x0 SLOAD PUSH2 0xC6 SWAP1 PUSH1 0xFF AND DUP2 JUMP JUMPDEST PUSH1 0x40 MLOAD PUSH1 0xFF SWAP1 SWAP2 AND DUP2 MSTORE PUSH1 0x20 ADD JUMPDEST PUSH1 0x40 MLOAD DUP1 SWAP2 SUB SWAP1 RETURN JUMPDEST PUSH2 0x138 PUSH2 0xEB CALLDATASIZE PUSH1 0x4 PUSH2 0x31B JUMP JUMPDEST PUSH10 0xFFFFFFFFFFFFFFFFFFFF SWAP1 SWAP4 AND PUSH1 0x3 DUP2 DUP2 SSTORE PUSH1 0x1 DUP5 SWAP1 SSTORE PUSH1 0x2 DUP4 SWAP1 SSTORE PUSH1 0x0 SWAP2 DUP3 MSTORE PUSH1 0x4 PUSH1 0x20 SWAP1 DUP2 MSTORE PUSH1 0x40 DUP1 DUP5 KECCAK256 SWAP6 SWAP1 SWAP6 SSTORE DUP2 SLOAD DUP4 MSTORE PUSH1 0x5 DUP2 MSTORE DUP5 DUP4 KECCAK256 SWAP4 SWAP1 SWAP4 SSTORE SLOAD DUP2 MSTORE PUSH1 0x6 SWAP1 SWAP2 MSTORE KECCAK256 SSTORE JUMP JUMPDEST STOP JUMPDEST PUSH2 0x143 PUSH1 0x1 SLOAD DUP2 JUMP JUMPDEST PUSH1 0x40 MLOAD SWAP1 DUP2 MSTORE PUSH1 0x20 ADD PUSH2 0xD4 JUMP JUMPDEST PUSH2 0x143 PUSH1 0x0 DUP2 JUMP JUMPDEST PUSH2 0x143 PUSH1 0x3 SLOAD DUP2 JUMP JUMPDEST PUSH1 0x40 DUP1 MLOAD DUP1 DUP3 ADD DUP3 MSTORE PUSH1 0x1F DUP2 MSTORE PUSH32 0x76302E362F74657374732F4D6F636B563341676772656761746F722E736F6C00 PUSH1 0x20 DUP3 ADD MSTORE SWAP1 MLOAD PUSH2 0xD4 SWAP2 SWAP1 PUSH2 0x354 JUMP JUMPDEST PUSH2 0x143 PUSH1 0x2 SLOAD DUP2 JUMP JUMPDEST PUSH2 0x1F1 PUSH2 0x1B8 CALLDATASIZE PUSH1 0x4 PUSH2 0x3A9 JUMP JUMPDEST PUSH10 0xFFFFFFFFFFFFFFFFFFFF DUP2 AND PUSH1 0x0 SWAP1 DUP2 MSTORE PUSH1 0x4 PUSH1 0x20 SWAP1 DUP2 MSTORE PUSH1 0x40 DUP1 DUP4 KECCAK256 SLOAD PUSH1 0x6 DUP4 MSTORE DUP2 DUP5 KECCAK256 SLOAD PUSH1 0x5 SWAP1 SWAP4 MSTORE SWAP3 KECCAK256 SLOAD SWAP3 SWAP4 SWAP2 SWAP3 SWAP1 SWAP2 DUP5 SWAP1 JUMP JUMPDEST PUSH1 0x40 DUP1 MLOAD PUSH10 0xFFFFFFFFFFFFFFFFFFFF SWAP7 DUP8 AND DUP2 MSTORE PUSH1 0x20 DUP2 ADD SWAP6 SWAP1 SWAP6 MSTORE DUP5 ADD SWAP3 SWAP1 SWAP3 MSTORE PUSH1 0x60 DUP4 ADD MSTORE SWAP1 SWAP2 AND PUSH1 0x80 DUP3 ADD MSTORE PUSH1 0xA0 ADD PUSH2 0xD4 JUMP JUMPDEST PUSH2 0x138 PUSH2 0x236 CALLDATASIZE PUSH1 0x4 PUSH2 0x3CB JUMP JUMPDEST PUSH2 0x2A6 JUMP JUMPDEST PUSH2 0x143 PUSH2 0x249 CALLDATASIZE PUSH1 0x4 PUSH2 0x3CB JUMP JUMPDEST PUSH1 0x4 PUSH1 0x20 MSTORE PUSH1 0x0 SWAP1 DUP2 MSTORE PUSH1 0x40 SWAP1 KECCAK256 SLOAD DUP2 JUMP JUMPDEST PUSH2 0x143 PUSH2 0x269 CALLDATASIZE PUSH1 0x4 PUSH2 0x3CB JUMP JUMPDEST PUSH1 0x5 PUSH1 0x20 MSTORE PUSH1 0x0 SWAP1 DUP2 MSTORE PUSH1 0x40 SWAP1 KECCAK256 SLOAD DUP2 JUMP JUMPDEST PUSH1 0x3 SLOAD PUSH1 0x0 DUP2 DUP2 MSTORE PUSH1 0x4 PUSH1 0x20 SWAP1 DUP2 MSTORE PUSH1 0x40 DUP1 DUP4 KECCAK256 SLOAD PUSH1 0x6 DUP4 MSTORE DUP2 DUP5 KECCAK256 SLOAD PUSH1 0x5 SWAP1 SWAP4 MSTORE SWAP3 KECCAK256 SLOAD DUP4 PUSH2 0x1F1 JUMP JUMPDEST PUSH1 0x1 DUP2 SWAP1 SSTORE TIMESTAMP PUSH1 0x2 SSTORE PUSH1 0x3 DUP1 SLOAD SWAP1 PUSH1 0x0 PUSH2 0x2BF DUP4 PUSH2 0x3E4 JUMP JUMPDEST SWAP1 SWAP2 SSTORE POP POP PUSH1 0x3 DUP1 SLOAD PUSH1 0x0 SWAP1 DUP2 MSTORE PUSH1 0x4 PUSH1 0x20 SWAP1 DUP2 MSTORE PUSH1 0x40 DUP1 DUP4 KECCAK256 SWAP5 SWAP1 SWAP5 SSTORE DUP3 SLOAD DUP3 MSTORE PUSH1 0x5 DUP2 MSTORE DUP4 DUP3 KECCAK256 TIMESTAMP SWAP1 DUP2 SWAP1 SSTORE SWAP3 SLOAD DUP3 MSTORE PUSH1 0x6 SWAP1 MSTORE SWAP2 SWAP1 SWAP2 KECCAK256 SSTORE JUMP JUMPDEST DUP1 CALLDATALOAD PUSH10 0xFFFFFFFFFFFFFFFFFFFF DUP2 AND DUP2 EQ PUSH2 0x316 JUMPI PUSH1 0x0 DUP1 REVERT JUMPDEST SWAP2 SWAP1 POP JUMP JUMPDEST PUSH1 0x0 DUP1 PUSH1 0x0 DUP1 PUSH1 0x80 DUP6 DUP8 SUB SLT ISZERO PUSH2 0x331 JUMPI PUSH1 0x0 DUP1 REVERT JUMPDEST PUSH2 0x33A DUP6 PUSH2 0x2FC JUMP JUMPDEST SWAP7 PUSH1 0x20 DUP7 ADD CALLDATALOAD SWAP7 POP PUSH1 0x40 DUP7 ADD CALLDATALOAD SWAP6 PUSH1 0x60 ADD CALLDATALOAD SWAP5 POP SWAP3 POP POP POP JUMP JUMPDEST PUSH1 0x0 PUSH1 0x20 DUP1 DUP4 MSTORE DUP4 MLOAD DUP1 DUP3 DUP6 ADD MSTORE PUSH1 0x0 JUMPDEST DUP2 DUP2 LT ISZERO PUSH2 0x381 JUMPI DUP6 DUP2 ADD DUP4 ADD MLOAD DUP6 DUP3 ADD PUSH1 0x40 ADD MSTORE DUP3 ADD PUSH2 0x365 JUMP JUMPDEST DUP2 DUP2 GT ISZERO PUSH2 0x393 JUMPI PUSH1 0x0 PUSH1 0x40 DUP4 DUP8 ADD ADD MSTORE JUMPDEST POP PUSH1 0x1F ADD PUSH1 0x1F NOT AND SWAP3 SWAP1 SWAP3 ADD PUSH1 0x40 ADD SWAP4 SWAP3 POP POP POP JUMP JUMPDEST PUSH1 0x0 PUSH1 0x20 DUP3 DUP5 SUB SLT ISZERO PUSH2 0x3BB JUMPI PUSH1 0x0 DUP1 REVERT JUMPDEST PUSH2 0x3C4 DUP3 PUSH2 0x2FC JUMP JUMPDEST SWAP4 SWAP3 POP POP POP JUMP JUMPDEST PUSH1 0x0 PUSH1 0x20 DUP3 DUP5 SUB SLT ISZERO PUSH2 0x3DD JUMPI PUSH1 0x0 DUP1 REVERT JUMPDEST POP CALLDATALOAD SWAP2 SWAP1 POP JUMP JUMPDEST PUSH1 0x0 PUSH1 0x0 NOT DUP3 EQ ISZERO PUSH2 0x406 JUMPI PUSH4 0x4E487B71 PUSH1 0xE0 SHL PUSH1 0x0 MSTORE PUSH1 0x11 PUSH1 0x4 MSTORE PUSH1 0x24 PUSH1 0x0 REVERT JUMPDEST POP PUSH1 0x1 ADD SWAP1 JUMP INVALID LOG2 PUSH5 0x6970667358 0x22 SLT KECCAK256 SGT 0xB0 DUP2 ADD CALLDATACOPY 0xC7 PUSH2 0x427C 0xF6 0xE8 0xEB 0xC8 GT 0x5E RETURN SWAP7 DUP9 SELFDESTRUCT PUSH24 0x366BAC2B87FC1837B6B3983E64736F6C634300080B003300 ",
  "sha1": "06e2a00f187999f5a54d478aa8e6a97ce10be2a4",
  "source": "// SPDX-License-Identifier: MIT\npragma solidity >=0.4.22 <0.9.0;\n\nimport \"@chainlink/contracts/src/v0.8/interfaces/AggregatorV2V3Interface.sol\";\n\n/**\n * @title MockV3Aggregator\n * @notice Based on the FluxAggregator contract\n * @notice Use this contract when you need to test\n * other contract's ability to read data from an\n * aggregator contract, but how the aggregator got\n * its answer is unimportant\n */\ncontract MockV3Aggregator is AggregatorV2V3Interface {\n  uint256 constant public override version = 0;\n\n  uint8 public override decimals;\n  int256 public override latestAnswer;\n  uint256 public override latestTimestamp;\n  uint256 public override latestRound;\n\n  mapping(uint256 => int256) public override getAnswer;\n  mapping(uint256 => uint256) public override getTimestamp;\n  mapping(uint256 => uint256) private getStartedAt;\n\n  constructor(\n    uint8 _decimals,\n    int256 _initialAnswer\n  ) public {\n    decimals = _decimals;\n    updateAnswer(_initialAnswer);\n  }\n\n  function updateAnswer(\n    int256 _answer\n  ) public {\n    latestAnswer = _answer;\n    latestTimestamp = block.timestamp;\n    latestRound++;\n    getAnswer[latestRound] = _answer;\n    getTimestamp[latestRound] = block.timestamp;\n    getStartedAt[latestRound] = block.timestamp;\n  }\n\n  function updateRoundData(\n    uint80 _roundId,\n    int256 _answer,\n    uint256 _timestamp,\n    uint256 _startedAt\n  ) public {\n    latestRound = _roundId;\n    latestAnswer = _answer;\n    latestTimestamp = _timestamp;\n    getAnswer[latestRound] = _answer;\n    getTimestamp[latestRound] = _timestamp;\n    getStartedAt[latestRound] = _startedAt;\n  }\n\n  function getRoundData(uint80 _roundId)\n    external\n    view\n    override\n    returns (\n      uint80 roundId,\n      int256 answer,\n      uint256 startedAt,\n      uint256 updatedAt,\n      uint80 answeredInRound\n    )\n  {\n    return (\n      _roundId,\n      getAnswer[_roundId],\n      getStartedAt[_roundId],\n      getTimestamp[_roundId],\n      _roundId\n    );\n  }\n\n  function latestRoundData()\n    external\n    view\n    override\n    returns (\n      uint80 roundId,\n      int256 answer,\n      uint256 startedAt,\n      uint256 updatedAt,\n      uint80 answeredInRound\n    )\n  {\n    return (\n      uint80(latestRound),\n      getAnswer[latestRound],\n      getStartedAt[latestRound],\n      getTimestamp[latestRound],\n      uint80(latestRound)\n    );\n  }\n\n  function description()\n    external\n    view\n    override\n    returns (string memory)\n  {\n    return \"v0.6/tests/MockV3Aggregator.sol\";\n  }\n}\n\n// MockOracle\n// Function signatures, event signatures, log topics",
  "sourcePath": "contracts/test/MockV3Aggregator.sol",
  "type": "contract"
}